:020000040000FA
:060000006BEF6EF0120030
:020006001200E6
:0600080038EF60F0120069
:02000E000000F0
:040010007D0064000B
:020014001200D8
:02001600FFFFEA
:06001800DBEF5FF01200B7
:02001E000D00D3
:10002000E7DD00005604000001000000B3DD000021
:100030009400000034000000B2DD00005F0F0000FB
:1000400001000000AFDD00004B04000003000000D1
:1000500060DD0000000F00004F0000005CDD0000CC
:1000600047040000040000005ADD000054040000B2
:10007000020000004ADD0000700E000010000000C9
:100080003CDD0000F10300000E0000003BDD00003D
:10009000FF0300000100000039DD000052040000F1
:1000A0000200000035DD00005B0F000004000000CE
:0C00B000160000005004000002000000D8
:0400BC0002014551A7
:1000C0000401525D01E140D0FE0E525D1BE01C0EAA
:1000D000E66EE66A290EE66E020EE66E52511C0DC1
:1000E000F3CF00F0F4CF01F0680E0026030E0122DA
:1000F00000C0E6FF01C0E6FFCDEC66F0026E060E22
:10010000E15E025045C252F4FE0E0201455D01E17E
:100110001BD01C0EE66EE66A45511C0DF3CF00F0B5
:10012000F4CF01F0680E0026030E012200C0E6FFA6
:1001300001C0E6FF290EE66E020EE66ECDEC66F01B
:10014000026E060EE15E0250120004015251535D30
:1001500001E14FD0FE0E535D32E0270E0201C56F64
:10016000C66B0201010EC46F0201020EC26F020EC5
:10017000C36F040153511C0DF3CFE9FFF4CFEAFF25
:10018000680EE926030EEA221B0EE926000EEA227B
:10019000EFCFC1F253511C0DF3CFE9FFF4CFEAFFCB
:1001A000680EE926030EEA22EECFBFF2EFCFC0F2CF
:1001B0000201270EBF5F000EC05B84EC21F052C429
:1001C00053F4270E0201C56FC66B44C2C4F229C2A4
:1001D000C2F22AC2C3F20201C25F000EC35B020177
:1001E000010EC16F0201020EBF6F020EC06F84ECE0
:1001F00021F012000A010C0E1D6F150E1E6F1F6BF1
:10020000206B0201005101110FE1BDEC44F026C04A
:1002100000F227C001F2FF0E02010017070E0117BE
:10022000000E0027040E01233C0EE66EE66AE66A25
:10023000000EE66E0E0EE66E1BEC67F0006E050E0D
:10024000E15E00500A01156B146B1451006E016AD7
:10025000010E005C000E015801E358D114CA45F2AA
:100260002DDF0E0E006E000E016E000E026E14CA1F
:1002700003F0046A056A060E2C6E2D6A2E6A03C00E
:1002800027F004C028F005C029F050EC53F024C03A
:1002900003F025C004F026C005F000500324F36EDF
:1002A00001500420F46E02500520F86EF4CFF7FFE1
:1002B000F3CFF6FFF62A000EF722F8220800F5CF5A
:1002C0001CFA0E0E006E000E016E000E026E14CAB5
:1002D00003F0046A056A060E2C6E2D6A2E6A03C0AE
:1002E00027F004C028F005C029F050EC53F024C0DA
:1002F00003F025C004F026C005F000500324F36E7F
:1003000001500420F46E02500520F86EF4CFF7FF80
:10031000F3CFF6FF020EF626000EF722F8220900B0
:10032000F5CF16FA0A00F5CF17FA0E0E006E000E82
:10033000016E000E026E14CA03F0046A056A060E0E
:100340002C6E2D6A2E6A03C027F004C028F005C069
:1003500029F050EC53F024C003F025C004F026C06F
:1003600005F000500324F36E01500420F46E025097
:100370000520F86EF4CFF7FFF3CFF6FF040EF62654
:10038000000EF722F8220900F5CF18FA0A00F5CF7F
:1003900019FA0A011C51020A31E0020A01E05CD09C
:1003A0001DCA1AFA1ECA1BFA270E036A1625026E08
:1003B00017510322010E0226000E032202501825B7
:1003C000006E03501921016E010E0026000E01225D
:1003D00000501D2701501E231DCA00F01ECA01F047
:1003E000026A036AD880FC0E00541F0E0154000EEE
:1003F0000254000E035401E2EFD72FD01FCA1AFA9D
:1004000020CA1BFA270E036A1625026E1751032213
:10041000010E0226000E032202501825006E035022
:100420001921016E010E0026000E012200501F2727
:10043000015020231FCA00F020CA01F0026A036A9B
:10044000D880000E0054800E0154000E0254000E9D
:10045000035401E2EFD701D0FFD71CCA44F2270EA4
:100460000A011A250201296F000E0A011B2102014F
:100470002A6F29510A01162502012B6F2A510A0100
:10048000172102012C6F010E2B27000E2C232B515C
:100490000A01182502012D6F2C510A0119210201B0
:1004A0002E6F0D0E3F6F409750DE0E0E006E000E49
:1004B000016E000E026E14CA03F0046A056A060E8D
:1004C0002C6E2D6A2E6A03C027F004C028F005C0E8
:1004D00029F050EC53F024C003F025C004F026C0EE
:1004E00005F000500324F36E01500420F46E025016
:1004F0000520F86EF4CFF7FFF3CFF6FF0800F5CF35
:1005000028F2CDEC17F00A01142B9FD612000A0135
:10051000006B0051006E016A010E005C000E015874
:1005200001E3CAD000CA45F2C9DD0D0E02013F5DEC
:1005300001E0BFD00ADE02014D51285D01E0B9D0D3
:10054000180E256F020E266F4A510CE14BC212F2B3
:100550004CC213F24087040E3F6F4BC242F24CC2B2
:1005600043F2A4D0000E005D040E015906E3880E8C
:10057000D8800055130E015503E2006B040E016F85
:1005800000C212F201C213F2002B000E01234BC273
:1005900010F24CC211F2E4EC6AF026C037F227C028
:1005A00038F228C039F229C03AF2020140894A5192
:1005B000040A3DE0070A18E0020A03E0030A01E02A
:1005C00075D046C218F247C219F248C21AF249C29F
:1005D0001BF2020E4A5D02E0000E01D0010E2495CE
:1005E000E8B024853F6B62D048514625026E4951E0
:1005F0004721036E02504B25006E03504C21016EC3
:1006000000501219426F01501319436F46C218F27D
:1006100047C219F248C21AF249C21BF2276B270ED1
:10062000026F036B046B056B020E3F6F3FD046C237
:10063000E9FF47C2EAFF020EE926000EEA22EECFEA
:1006400004F0EFCF05F046C2E9FF47C2EAFF0450CD
:10065000EE24026E0550EE20036E02504B25006E14
:1006600003504C21016E00501219426F01501319B2
:10067000436F0A0EE66EE66A46C2E6FF47C2E6FF31
:10068000180EE66E020EE66ECDEC66F0006E060EFB
:10069000E15E00500201050E3F6F0201010EAE6FD8
:1006A0000201020EAD6F74EC11F000D00A0100518E
:1006B00005D00A01002B2DD7FE0E00D012004EC22D
:1006C00045F2FCDC020141A903D04199010E02D0A0
:1006D000000E00D012004FC245F2F0DC070E0201FE
:1006E0003F5D02E0000E01D0010E00D0120050C2AA
:1006F00045F2E4DC33C235F234C236F202013F5136
:10070000080A4EE0010A4CE0050A4AE0020A45E008
:10071000050A2DE00D0A15E0010A13E0070A0EE0B4
:10072000020A0CE0010A0AE0060A08E0040A01E0F5
:1007300037D041EC3FF0CDEC17F03CD0CDEC17F0CA
:1007400039D00201010EAE6F0201110EAD6F74ECD3
:1007500011F002011451151101E106D00E512F19AB
:1007600002E10F513019EDE1080E3F6F23D0020175
:10077000010EAE6F0201110EAD6F74EC11F00201AB
:100780001451151101E106D00E512F1902E10F513C
:100790003019EDE10C0E3F6F0DD00D0E3F6F0AD0FA
:1007A0000201AE6B0201140EAD6F74EC11F0CDECD2
:1007B00017F000D0120051C245F280DC02014097D0
:1007C00051C250F277EF03F052C245F277DCBDDC44
:1007D0000A0EE66EE66A180EE66E020EE66E530E1E
:1007E000E66E020EE66ECDEC66F0006E060EE15E81
:1007F000005010C25DF211C25EF2530E006E020E86
:10080000016E00C0F3FF01C0F4FF00D012005FC210
:1008100045F254DC9ADC02010E512F1902E10F510E
:10082000301908E00201010EAE6F0201100EAD6F2B
:1008300074EC11F0120060C245F240DC3FC24CFA89
:10084000070E0A014C5D06E00B0E4C5D03E0F36AF7
:10085000F46A2FD0020131512F5D325130591BE320
:1008600029512B5D026E2C512A55036E0206000E93
:10087000035A31512F5D046E30513255056E0450CC
:10088000025C006E05500358016E00C0F3FF01C00A
:10089000F4FF0FD00ED02F51315D006E3251305524
:1008A000016E0006000E015A00C0F3FF01C0F4FF04
:1008B00000D0120061C245F25EEC00F061C260F24D
:1008C000BADFF3CF00FAF4CF01FA0A0100510111A7
:1008D00003E1000E63D008D0010E001901E10151BF
:1008E00003E161C25FF293DF02014151010B14E1A8
:1008F00029512B5D006E2C512A55016ED890013282
:1009000000320A010051005C0151015805E361C247
:100910005FF27DDF02014181010E0201C56FC66BEE
:100920000201C46F0201620EC26F020EC36F44C2A5
:10093000C1F22FC2BFF230C2C0F284EC21F002013A
:100940002F2B000E30232B512F5D2C51305904E3F7
:1009500029C22FF22AC230F20A01010E001901E168
:10096000015104E161C25FF252DF16D0020140BBC7
:1009700013D0408BEFEC6AF026C000F027C001F0E6
:10098000026A036A060E0026000E012202220322DA
:1009900000C03BF201C03CF2010E00D012000A017F
:1009A0009E6B9F6B63C245F25EEC00F063C260F227
:1009B00042DFF3CF9CFAF4CF9DFA0A019C519D11BE
:1009C00006E163C25FF223DFF36AF46AADD09CCA2A
:1009D0009AFA9DCA9BFA9C510201665D0A019D51DB
:1009E0000201675904E266C29AFA67C29BFA415152
:1009F000010B14E129512B5D006E2C512A55016E1B
:100A0000D890013200320A019C51005C9D5101587E
:100A100005E363C25FF2FBDE0201418102012F5157
:100A20000A019A25006E020130510A019B21016ED4
:100A300002012B51005C2C5101582DE32F512B5DED
:100A40000A019E6F020130512C590A019F6F9ECA04
:100A5000C5F29FCAC6F20201010EC46F64C2C2F29F
:100A600065C2C3F244C2C1F22FC2BFF230C2C0F2AB
:100A700084EC21F00A019E51020164270A019F5172
:100A8000020165230A019E519A5F9F519B5B29C217
:100A90002FF22AC230F29ACAC5F29BCAC6F20201EC
:100AA000010EC46F64C2C2F265C2C3F244C2C1F295
:100AB0002FC2BFF230C2C0F284EC21F00A019A5179
:100AC00002012F270A019B51020130230A019C5188
:100AD0000201665D0A019D510201675904E363C288
:100AE0005FF295DE15D040BB13D0408BEFEC6AF07F
:100AF00026C000F027C001F0026A036A060E002635
:100B0000000E01220222032200C03BF201C03CF28F
:100B10000A019A519E25006E9B519F21016E00C0D3
:100B2000F3FF01C0F4FF00D012000A01166B176B2F
:100B300068C245F25EEC00F068C260F27CDEF3CF82
:100B400014FAF4CF15FA0A011451151106E168C21E
:100B50005FF25DDEF36AF46AB0D002014151010B2D
:100B600014E129512B5D006E2C512A55016ED8904D
:100B7000013200320A011451005C1551015805E39D
:100B800068C25FF244DE0201418114CA12FA15CA3A
:100B900013FA0A01145102016C5D0A011551020198
:100BA0006D5904E26CC212FA6DC213FA2F510A0198
:100BB0001225006E020130510A011321016E02015B
:100BC0002B51005C2C51015830E32F512B5D0A0151
:100BD000166F020130512C590A01176F16CACDF257
:100BE00017CACEF269C2CAF26AC2CBF26BC2CCF2A9
:100BF00044C2C9F22FC2C7F230C2C8F2FCEC22F0E4
:100C000016CA00F017CA01F0026A005002016927F3
:100C100001506A2302506B230A011651125F1751CB
:100C2000135B29C22FF22AC230F212CACDF213CAC4
:100C3000CEF269C2CAF26AC2CBF26BC2CCF244C233
:100C4000C9F22FC2C7F230C2C8F2FCEC22F00A018E
:100C5000125102012F270A011351020130230A0108
:100C6000145102016C5D0A01155102016D5904E332
:100C700068C25FF2CCDD15D040BB13D0408BEFECE7
:100C80006AF026C000F027C001F0026A036A060E6F
:100C90000026000E01220222032200C03BF201C006
:100CA0003CF20A0112511625006E13511721016EF4
:100CB00000C0F3FF01C0F4FF00D012006FC2E6FFD6
:100CC00070C2E6FF35EC67F0E552E552F3CF66F20D
:100CD000F4CF67F26FC264F270C265F26EC263F263
:100CE0005EDE02016F51F324006E7051F420016E3C
:100CF00000C0F3FF01C0F4FF00D0120072C2E6FF93
:100D000073C2E6FF74C2E6FF43EC67F0E552E552BA
:100D1000E55227C06CF228C06DF272C269F273C24C
:100D20006AF274C26BF271C268F2FFDEF3CF03F0B5
:100D3000F4CF04F0056A020172510324006E73516E
:100D40000420016E74510520026E00C027F001C01E
:100D500028F002C029F000D0120075C245F25EEC06
:100D600000F0020129512B5D0A01026F02012A5194
:100D70002C590A01036F010E025F000E035B75C25E
:100D800060F259DDF3CF00FAF4CF01FA0A01005105
:100D9000025D006E03510155016E00C0F3FF01C0FA
:100DA000F4FF00D0120076C277F218D8F3CF00F02B
:100DB000F4CF01F00050011010E076C245F25EEC75
:100DC00000F033C235F234C236F20201010EAE6FCA
:100DD0000201100EAD6F74EC11F0120077C245F2F3
:100DE0005EEC00F002013551335D365134590CE3AD
:100DF0003551335D006E34513655016E00C0F3FF3E
:100E000001C0F4FF1CD01BD035512D5D026E2E5158
:100E10003655036E010E0226000E03222B51335D60
:100E2000046E34512C55056E02500424006E03509C
:100E30000520016E00C0F3FF01C0F4FF00D01200D6
:100E400078C277F2CBDFF3CF00FAF4CF01FA0A01D0
:100E50000051011102E1000E48D078C245F25EEC6B
:100E600000F0020179517A1112E0010E0201C56F02
:100E7000C66B44C2C4F235C2C2F236C2C3F202012A
:100E8000C16F79C2BFF27AC2C0F284EC21F00201D4
:100E9000352B000E362335512D5D36512E5904E287
:100EA0002BC235F22CC236F20A01010E001901E103
:100EB000015103E10201418516D0020140BB13D06C
:100EC000408BEFEC6AF026C000F027C001F0026A08
:100ED000036A1F0E0026000E01220222032200C018
:100EE0003BF201C03CF2010E00D012000A01026B7D
:100EF000036B7BC277F272DFF3CF00FAF4CF01FA13
:100F00000A010051011103E1F36AF46AA1D07BC226
:100F100045F25EEC00F002017E510A01005D020123
:100F20007F510A01015904E200CA7EF201CA7FF230
:100F3000020135517E25006E36517F21016E005031
:100F40002D5D01502E5938E235512D5D0A01026F99
:100F5000020136512E590A01036F010E0227000EBD
:100F6000032302017C517D111BE002CAC5F203CAB2
:100F7000C6F244C2C4F235C2C2F236C2C3F20201A2
:100F8000010EC16F7CC2BFF27DC2C0F284EC21F0C1
:100F90000A01025102017C270A01035102017D234B
:100FA0000A01025102017E5F0A01035102017F5BC7
:100FB0002BC235F22CC236F27C517D1113E07EC279
:100FC000C5F27FC2C6F244C2C4F235C2C2F236C212
:100FD000C3F20201010EC16F7CC2BFF27DC2C0F23A
:100FE00084EC21F002017E5135277F5136230A011E
:100FF000025102017E270A01035102017F237E5123
:101000000A01005D006E015102017F55016E005022
:101010007E5D01507F5902E3418515D040BB13D05E
:10102000408BEFEC6AF026C000F027C001F0026AA6
:10103000036A1F0E0026000E01220222032200C0B6
:101040003BF201C03CF27EC2F3FF7FC2F4FF00D04E
:10105000120080C245F25EEC00F002012B512D5DC2
:101060000A01026F02012C512E590A01036F80C23E
:1010700077F2B4DEF3CF00FAF4CF01FA0A0100519F
:10108000025D006E03510155016E00C0F3FF01C007
:10109000F4FF00D0120002018451851103E1F36ACC
:1010A000F46AABD081C245F25EEC00F081C277F207
:1010B00095DEF3CF02FAF4CF03FA020186518425BC
:1010C000006E87518521016E0A010050025D0150BA
:1010D00003590BE2020186510A01025D0201846F8D
:1010E00087510A0103590201856F02013551862596
:1010F0000A01006F0201365187210A01016F005178
:1011000002012D5D0A01015102012E590FE22B51FE
:101110002D5D006E2E512C55016E010E0026000E25
:10112000012200500A01005F0150015B0A010051D9
:1011300002012D5D0A01046F015102012E590A01BD
:10114000056F010E0427000E0523020184510A01D8
:10115000045D020185510A01055914E384C2C5F2F8
:1011600085C2C6F244C2C4F200CAC2F201CAC3F2C6
:101170000201010EC16F82C2BFF283C2C0F284ECD1
:1011800021F036D004CAC5F205CAC6F244C2C4F280
:1011900000CAC2F201CAC3F20201010EC16F82C2CB
:1011A000BFF283C2C0F284EC21F00A0104510201B3
:1011B000845D0201C56F0A010551020185590201D2
:1011C000C66F44C2C4F22BC2C2F22CC2C3F20201E7
:1011D000010EC16F020182510A0104250201BF6F95
:1011E000020183510A0105210201C06F84EC21F044
:1011F00084C2F3FF85C2F4FF00D0120089C286F2D8
:101200008AC287F2010E0201846F856B0201060E0D
:10121000826F0A0E836F88C281F23DDF0A01065198
:1012200000D0120002018E518F1103E1F36AF46ABB
:10123000B2D18BC245F25EEC00F08BC277F2CEDD0C
:1012400002019051F35C0A01026F02019151F458BE
:101250000A01036F02018E510A01025D02018F51E2
:101260000A01035903E2F368F46895D1020192512F
:1012700093110DE00A0102510201925D0A0103512E
:101280000201935904E292C202FA93C203FA355161
:1012900090250A01066F0201365191210A01076F5C
:1012A000065102012D5D0A01075102012E590FE27C
:1012B0002B512D5D006E2E512C55016E010E002616
:1012C000000E012200500A01065F0150075B06CAAA
:1012D00000FA07CA01FA0A01065102012D5D0A014E
:1012E000046F075102012E590A01056F010E0427F0
:1012F000000E052390C206FA91C207FA8EC208FAC0
:101300008FC209FA8CC20AFA8DC20BFA02018CC292
:10131000E9FF8DC2EAFF8C2B8D23EFCF0DFA0A0176
:101320000F6B0201945109E0610E0A010D5D05E3A6
:101330000D517A0802E3E00E0D270A01200E0E6F10
:101340000E51045D000E055902E204CA0EFA0E5158
:10135000025D000E035902E202CA0EFA0E510201AA
:10136000C56FC66B44C2C4F200CAC2F201CAC3F25E
:101370000201010EC16F0201100EBF6F0A0EC06F95
:1013800084EC21F00A010E51006E016A0050002722
:10139000015001230E51006E016A0050045F01509C
:1013A000055B0451051106E12BC200FA2CC201FABB
:1013B000046905690201945101E181D00A010C6BB5
:1013C0000E510C5D01E37AD00C51EA6A100FE96E00
:1013D0000A0EEA22EFCF00F0610E005C13E30C511D
:1013E000EA6A100FE96E0A0EEA22EF507A080AE361
:1013F000E00E006E0C51EA6A100FE96E0A0EEA2246
:101400000050EF260C51EA6A100FE96E0A0EEA222C
:10141000EF500D5D33E102018E07000E8F5B8E51A0
:101420008F1117E10A010851065D026E0751095537
:10143000036E0C5100010224006E000E0320016EA9
:10144000010E0026000E012200C0F3FF01C0F4FFD0
:10145000A2D08CC2E9FF8DC2EAFF8C2B000E8D2337
:10146000EFCF0DFA0A01010E0F6F610E0D5D05E35E
:101470000D517A0802E3E00E0D271ED008CA8EF245
:1014800009CA8FF20F5118E00ACA8CF20BCA8DF20A
:1014900002018CC2E9FF8DC2EAFF8C2B000E8D2366
:1014A000EFCF0DFA610E0A010D5D05E30D517A08CB
:1014B00002E3E00E0D270F6B0C2B82D751D00A01EF
:1014C0000C6B0E510C5D4CE20C51EA6A100FE96E88
:1014D0000A0EEA22EF500D5D2BE102018E07000E8D
:1014E0008F5B8E518F1117E10A010851065D026E64
:1014F00007510955036E0C5100010224006E000EC5
:101500000320016E010E0026000E012200C0F3FF31
:1015100001C0F4FF40D08CC2E9FF8DC2EAFF8C2BE2
:10152000000E8D23EFCF0DFA0A01010E0F6F16D0BA
:1015300008CA8EF209CA8FF20F5110E00ACA8CF263
:101540000BCA8DF202018CC2E9FF8DC2EAFF8C2B1F
:10155000000E8D23EFCF0DFA0A010F6B0C2BB1D7C4
:101560000E51006E016A0050025F0150035B0201E0
:101570008E510A01025D02018F510A01035903E2F3
:10158000F368F46808D00E51006E016A0050062717
:1015900001500723D2D61200020199519A1103E19A
:1015A000F36AF46ACCD195C245F25EEC00F095C2C4
:1015B00077F214DC02019B51F35C0A01026F020115
:1015C0009C51F4580A01036F020199510A01025D0E
:1015D00002019A510A01035903E2F368F468AFD19A
:1015E00002019D519E110DE00A01025102019D5D13
:1015F0000A01035102019E5904E29DC202FA9EC2F1
:1016000003FA35519B250A01066F020136519C21D0
:101610000A01076F065102012D5D0A0107510201FF
:101620002E590FE22B512D5D006E2E512C55016E5F
:10163000010E0026000E012200500A01065F015033
:10164000075B06CA00FA07CA01FA0A01065102013D
:101650002D5D0A01046F075102012E590A01056F21
:10166000010E0427000E05239BC206FA9CC207FA4E
:1016700099C208FA9AC209FA96C20AFA97C20BFAF4
:1016800098C20CFA020196C2F6FF962B97C2F7FF9A
:10169000972398C2F8FF98230800F5CF0EFA0A01A5
:1016A000106B02019F5109E0610E0A010E5D05E316
:1016B0000E517A0802E3E00E0E270A01200E0F6F8A
:1016C0000F51045D000E055902E204CA0FFA0F51D2
:1016D000025D000E035902E202CA0FFA0F51020125
:1016E000C56FC66B44C2C4F200CAC2F201CAC3F2DB
:1016F0000201010EC16F0201110EBF6F0A0EC06F11
:1017000084EC21F00A010F51006E016A005000279D
:10171000015001230F51006E016A0050045F015017
:10172000055B0451051106E12BC200FA2CC201FA37
:101730000469056902019F5101E18BD00A010D6B1B
:101740000F510D5D01E384D00D51EA6A110FE96E6E
:101750000A0EEA22EFCF00F0610E005C13E30D5198
:10176000EA6A110FE96E0A0EEA22EF507A080AE3DC
:10177000E00E006E0D51EA6A110FE96E0A0EEA22C0
:101780000050EF260D51EA6A110FE96E0A0EEA22A7
:10179000EF500E5D37E102019907000E9A5B9951F7
:1017A0009A1117E10A010851065D026E07510955A9
:1017B000036E0D5100010224006E000E0320016E25
:1017C000010E0026000E012200C0F3FF01C0F4FF4D
:1017D000B6D096C2F6FF962B97C2F7FF000E97235E
:1017E00098C2F8FF98230800F5CF0EFA0A01010EFF
:1017F000106F610E0E5D05E30E517A0802E3E00EF4
:101800000E2724D008CA99F209CA9AF210511EE094
:101810000ACA96F20BCA97F20CCA98F2020196C253
:10182000F6FF962B97C2F7FF000E972398C2F8FF9A
:1018300098230800F5CF0EFA610E0A010E5D05E34C
:101840000E517A0802E3E00E0E27106B0D2B78D7AD
:101850005BD00A010D6B0F510D5D56E20D51EA6A26
:10186000110FE96E0A0EEA22EF500E5D2FE1020120
:101870009907000E9A5B99519A1117E10A010851D4
:10188000065D026E07510955036E0D5100010224D9
:10189000006E000E0320016E010E0026000E0122D4
:1018A00000C0F3FF01C0F4FF4AD096C2F6FF962BAA
:1018B00097C2F7FF000E972398C2F8FF98230800FD
:1018C000F5CF0EFA0A01010E106F1CD008CA99F26A
:1018D00009CA9AF2105116E00ACA96F20BCA97F298
:1018E0000CCA98F2020196C2F6FF962B97C2F7FF38
:1018F000000E972398C2F8FF98230800F5CF0EFA40
:101900000A01106B0D2BA7D70F51006E016A005012
:10191000025F0150035B020199510A01025D02015D
:101920009A510A01035903E2F368F46808D00F5191
:10193000006E016A0050062701500723BED6120030
:10194000A6C294F2A4C292F2A5C293F2A2C290F2ED
:10195000A3C291F2010E02018E6F8F6B0201A10EE4
:101960008C6F020E8D6FA0C28BF25CDC00D0120077
:101970000A01356B3551006E016A010E005C000EE4
:10198000015801E36CD335CA45F25EEC00F00A0160
:10199000386B366B376B02014151020B03E1415149
:1019A000040B0EE0B5EC49F000090AE00A01100E44
:1019B000386F02014151040B01E0010E0A01366F3C
:1019C000020140AB13D0EFEC6AF0020126503B5D00
:1019D000006E27503C59016E013404E200500008AB
:1019E000000E015403E30A01100E386F020140ADEE
:1019F00013D0EFEC6AF0020126503D5D006E2750D7
:101A00003E59016E013404E200500008000E0154FA
:101A100003E30A01100E386F0B0E02013F5D16E161
:101A2000EFEC6AF0020126503D5D006E27503E59F2
:101A3000016E013404E200500008000E015406E378
:101A40000A01110E386F02010C0E3F6F040E3F5D4C
:101A500001E00AD10A01396B3A6B030E395D000EC1
:101A60003A5901E301D139CAE9FF3ACAEAFF140E33
:101A7000EA02F3CFEAFFE902F3CFE9FFF450EA26E6
:101A8000000EE9260E0EEA22100EE926000EEA22CA
:101A9000EE50ED1001E1E8D039CAE9FF3ACAEAFF99
:101AA000140EEA02F3CFEAFFE902F3CFE9FFF450A4
:101AB000EA26000EE9260E0EEA22100EE926000E96
:101AC000EA22EECF00F0EFCF01F002014251001800
:101AD00002E14351011801E0C2D0A5EC00F00A0E6A
:101AE000E66EE66A39CAE9FF3ACAEAFF140EEA026C
:101AF000F3CFEAFFE902F3CFE9FFF450EA26000E44
:101B0000E9260E0EEA22E9CF00F0EACF01F000C08C
:101B1000E6FF01C0E6FF180EE66E020EE66ECDECA3
:101B200066F0026E060EE15E025039CAE9FF3ACA5B
:101B3000EAFF140EEA02F3CFEAFFE902F3CFE9FF6E
:101B4000F450EA26000EE9260E0EEA220A0EE926D5
:101B5000000EEA22EECF10F2EDCF11F239CAE9FF02
:101B60003ACAEAFF140EEA02F3CFEAFFE902F3CF22
:101B7000E9FFF450EA26000EE9260E0EEA220C0ECA
:101B8000E926000EEA22EECF0AF2EECF0BF2EECFFC
:101B90000CF2EFCF0DF202010A2B0B230C230D23C5
:101BA0001A511825026E1B511921036E025010257F
:101BB000006E03501121016E00501219426F015046
:101BC0001319436F0A01120E386F0201060E3F6FA0
:101BD00039CAC5F23ACAC6F20201020ED880C55708
:101BE000000EC657140EC603F3CFC6F2C503F3CFDB
:101BF000C5F2F450C6270201010EC46F0A0139254F
:101C00000201C26F000E0A013A210201C36F140ED5
:101C1000C303F3CFC3F2C203F3CFC2F2F450C3271E
:101C2000000EC2270E0EC3230201010EC16F140E57
:101C3000286E296A39CA2DF03ACA2EF032EC53F0D8
:101C400026C0BFF227C0C0F2000E0201BF270E0E51
:101C5000C02384EC21F00E01386B396B05D00A01EA
:101C6000392B000E3A23F9D60A0138510AE03651D1
:101C700002E0000E01D0010E0201AE6F38CAADF2D3
:101C800033DB020140B94ED0070E3F5D4AE1E4EC80
:101C90006AF002013751265C006E38512758016EF8
:101CA00039512858026E3A512958036E0001800EAE
:101CB000031401E0D1D102014051070B060815E1E0
:101CC0004051080B01E0010E0A01386F35CA50F28D
:101CD00077EC03F035CA50F277EC03F00A01385183
:101CE00003E102010E0E3F6FB7D1A5EC00F0020137
:101CF000020EAE6F0201100EAD6FF6DAE4EC6AF080
:101D000026C037F227C038F228C039F229C03AF28B
:101D1000740E02013727350E3823060E3923000EC4
:101D20003A239AD1E4EC6AF002013751265C006E46
:101D300038512758016E39512858026E3A512958A6
:101D4000036E0001800E031401E086D1A5EC00F0C3
:101D500002013F510C0A01E11ED1060A01E10CD13A
:101D6000030A01E103D1010A01E1F1D00F0A01E107
:101D7000DFD00C0A01E1DCD00D0A01E1C4D0030A76
:101D800001E1AED0060A01E17BD0010A68E0030A56
:101D900020E0010A01E00ED138EC3FF0000918E024
:101DA0000201010E3F6F24A50BD00301166F18C26C
:101DB00013F319C214F31AC215F374EC3FF008D0F0
:101DC0000301126F18C210F319C211F354EC3FF063
:101DD000F1D003013B0E176F0A0E186F97EC3FF01E
:101DE00000093CE041EC3FF0000924E03BCA18F256
:101DF0003CCA19F23DCA1AF23ECA1BF20201020E97
:101E00003F6F1A511825026E1B511921036E0250A3
:101E10001025006E03501121016E00501219426FFF
:101E200001501319436F276B270E026F036B046B6E
:101E3000056B14D0E4EC6AF026C037F227C038F204
:101E400028C039F229C03AF2740E02013727350E44
:101E50003823060E3923000E3A233F6BABD0EFEC4C
:101E60006AF026C03BF227C03CF20301180E606FF7
:101E7000020E616F4CEC5BF00201030E3F6F9AD0D3
:101E800003011C0E646F020E656F0301180E626F72
:101E9000020E636F90EC5BF000091AE1EFEC6AF060
:101EA00002013B51265C006E3C512758016E0050E8
:101EB000025D015003590BE2060E275D06E2272B57
:101EC000D8900237033704370537020E3F6F72D0C0
:101ED0000A01020E386F366B0201050E3F6F6AD0A1
:101EE0000A01020E386F010E366F040E0201275DE3
:101EF00009E3040E276F200E026FEF0E036F090E29
:101F0000046F056B57D0020E275D06E20A01120E20
:101F1000386F010E366F0BD040A706D00A01140EA1
:101F2000386F010E376F03D00A01020E386F42D0AE
:101F3000050E275D06E20A01100E386F010E366F9E
:101F400005D0080E3F6F0A01110E386F33D0050E11
:101F5000275D06E20A01110E386F010E366F05D0BB
:101F60000A01140E386F010E376F24D00A01140EC7
:101F7000386F010E376F1ED0050E275D06E20A018D
:101F8000100E386F010E366F05D00A01140E386F2F
:101F9000010E376F0FD0050E275D06E20A01110E04
:101FA000386F010E366F05D00A01140E386F010E1E
:101FB000376F00D00A0138514AE0365142E0020141
:101FC000272BD890023703370437053731510E5D80
:101FD0000A01396F020132510F590A013A6F0201A9
:101FE00031510E5D32510F590BE229512B5D006EBC
:101FF0002C512A55016E00500A01392701503A230D
:1020000039CA00F03ACA01F0026A036A00500201BC
:10201000065F0150075B0250085B0350095B0A0131
:102020003951020114270A013A510201152331C224
:102030000EF232C20FF20201AE6B38CAADF254D9C1
:1020400006D00201010EAE6F38CAADF24DD90A01B9
:10205000375102E0CDEC17F00A01352B8BD4396BE8
:102060003A6B030E395D000E3A5901E399D039CA33
:10207000E9FF3ACAEAFF140EEA02F3CFEAFFE902E7
:10208000F3CFE9FFF450EA26000EE9260E0EEA220D
:10209000100EE926000EEA22EE50ED1001E180D08C
:1020A00039CAE9FF3ACAEAFF140EEA02F3CFEAFF9F
:1020B000E902F3CFE9FFF450EA26000EE9260E0EFE
:1020C000EA22120EE926000EEA22EECF02F0EFCF4E
:1020D00003F002C0E6FF03C0E6FFEFEC6AF0E55252
:1020E000E7CF03F0E552E7CF02F00250265C006E26
:1020F00003502758016EDC0ED8800054010E0154A5
:102100004AE239CAC5F23ACAC6F20201020ED880C2
:10211000C557000EC657140EC603F3CFC6F2C5034B
:10212000F3CFC5F2F450C6270201010EC46F0A01B5
:1021300039250201C26F000E0A013A210201C36F64
:10214000140EC303F3CFC3F2C203F3CFC2F2F450B1
:10215000C327000EC2270E0EC3230201010EC16F5A
:10216000140E286E296A39CA2DF03ACA2EF032ECC4
:1021700053F026C0BFF227C0C0F2000E0201BF27F5
:102180000E0EC02384EC21F00E01386B396B0A016E
:102190003907000E3A5B0A01392B000E3A2361D74A
:1021A0001200A7C2E9FFA8C2EAFFEECF14FAEECFF1
:1021B00015FAEECF16FAEFCF17FAA9C2E9FFAAC2B5
:1021C000EAFFEECF18FAEECF19FAEECF1AFAEFCFF8
:1021D0001BFA0A011C6B060E1D6FABC21EFAACC2C5
:1021E0001FFA1ECA56FE1FCA57FE07EC48F0F3CF6F
:1021F0001EFAF4CF1FFA0C0E0E015E6F5F6B0E011C
:10220000140E5C6F0A0E5D6F2EEC48F0F3CF20FACF
:10221000F4CF21FA0A01201F211FABC27AF0ACC211
:102220007BF0ABEC4BF0F3CF22FAF4CF23FA0A01A8
:102230002251201902E12351211904E0D2EC49F086
:10224000010E51D00301ED6BEE6B3DEC62F0140E0C
:102250000001846F856B0001000E826F0A0E836F90
:1022600015EC4DF00201000EB36F0A0EB46FF2ECE4
:1022700016F00A010C51F00BE842E842E842E8424D
:10228000040DF350006E016A140E005E000E015A38
:1022900000C024FA2451006E016A00500201AB5DB7
:1022A000AB6F0150AC59AC6F140EAB5F000EAC5B62
:1022B000A7C2B1F2A8C2B2F20201000EAF6F0A0EBD
:1022C000B06FE6DA00090BE0ABC2B7F2ACC2B8F20D
:1022D0000201000EB56F0A0EB66F96EC18F0D2EC44
:1022E00049F0010E00D01200A5EC00F00201ADA1F2
:1022F00002D04187AD91409B409D409F41934195C5
:102300004191B5EC49F0000901E1FBD7060E02014D
:10231000AD1504E00A01726B736BFBD00E512F19DF
:1023200002E10F51301904E10A01726B736BD9D0CD
:102330002F510E5D30510F593FE20E512F5D0A01B2
:10234000726F02010F5130590A01736F725102010D
:10235000145D0A0173510201155904E214C272FAA4
:1023600015C273FA0A0172510201255D0A01735107
:102370000201265905E225C272FA26C273FA418586
:1023800072CAC5F273CAC6F244C2C4F20EC2C2F225
:102390000FC2C3F20201C16B0201510EBF6F0F0EDB
:1023A000C06F84EC21F00A01725102010E270A016C
:1023B000735102010F2395D00E512B5D0A01706FEE
:1023C00002010F512C590A01716F705102012F2522
:1023D000006E0A01715102013021016E2951005C29
:1023E0000A01726F02012A5101580A01736F72517A
:1023F0000201145D0A0173510201155904E214C26D
:1024000072FA15C273FA0A0172510201255D0A01BE
:1024100073510201265905E225C272FA26C273FAE7
:1024200041850A017051725D7151735904E272CA9B
:1024300070FA73CA71FA70CAC5F271CAC6F244C2A0
:10244000C4F20EC2C2F20FC2C3F20201C16B02019A
:10245000510EBF6F0F0EC06F84EC21F00A01705156
:10246000725D706F71517359716F7051711122E00B
:1024700070CAC5F271CAC6F244C2C4F229C2C2F21D
:102480002AC2C3F20201C16B02010E512B5D006E24
:102490002C510F55016E026A036A510E00260F0E71
:1024A0000122000E0222032200C0BFF201C0C0F2CE
:1024B00084EC21F00A01725102010E270A017351C6
:1024C00002010F232B510E5D2C510F590AE32951A4
:1024D0002B5D006E2C512A55016E00500E5F01508D
:1024E0000F5B020141A715D014510A01721904E1D2
:1024F000020115510A0173190CE0020125510A016C
:10250000721904E1020126510A01731902E0020165
:10251000AD810A017251731104E1030E0201AD1580
:1025200029E00A0172510201145F0A01735102018C
:10253000155B0A017251731102E00201AD870201BD
:10254000AEA107D0276BF20E026F9E0E036F046BD5
:10255000056BE4EC6AF0265002010225376F275024
:102560000321386F28500421396F295005213A6F13
:10257000408938D0AEA31BD0400EE96E020EEA6E41
:10258000EF50070BE82AF36EF350070BF36EF46E6F
:10259000F80EEF14F310EF6EF4500607000E075B11
:1025A000085B095B010E0A01726F736B1BD040A9B7
:1025B00019D0AEB108D0275106E02707D8900533CF
:1025C000043303330233E4EC6AF02650020102259F
:1025D000376F27500321386F28500421396F295055
:1025E00005213A6F12C24EFA13C24FFA10C250FAC6
:1025F00011C251FA06C252FA07C253FA08C254FA7B
:1026000009C255FA0AC256FA0BC257FA0CC258FA56
:102610000DC259FA0A015B9D5B9F5A915A935A95D4
:102620005A97ADC25BFA606B616B7251020106276B
:102630000A01735102010723000E08230923ADA3E9
:1026400015D0ADB905D00A01566B576B586B596B55
:10265000020124A306D00A015207535B545B555B69
:1026600005D0062B07230823092324830201ADA1EB
:102670000DD024A106D00A015207535B545B555B71
:1026800005D0062B07230823092324810201355195
:10269000335D3651345914E32B512D5D006E2E51AC
:1026A0002C55016E3551335D026E34513655036E33
:1026B0000A010250005C5C6F035001585D6F0DD041
:1026C0003351355D0A015C6F0201345136590A01FC
:1026D0005D6F010E5C5F000E5D5B08EC4AF0F3CFAE
:1026E0004CFAF4CF4DFA0A01400E4C5D000E4D59E4
:1026F00003E24C6B4D6B04D0400E4C5F000E4D5B03
:102700005C514C5D5D514D5904E24CCA5CFA4DCAB6
:102710005DFA02014E0EB36F0A0EB46F63DB140E46
:102720000A017227000E73235A895A9B5A8D5A9FA9
:102730000201ADA326D0040E0A017227000E7323F6
:10274000020E626F040E636F020E646F180E656FE7
:10275000010E006E5A0EE96E0A0EEA6EEF50F00B93
:10276000E842E842E842E84200240F0BF36EF46EC0
:10277000F346F346F346F3460F0EEF14F310EF6EF5
:10278000F450C8C066FAC9C067FACAC068FACBC0BC
:1027900069FA18C26AFA19C26BFA1AC26CFA1BC239
:1027A0006DFA0A016E6B060E6F6F72CA70FA73CA09
:1027B00071FA70CA56FE71CA57FE07EC48F0F3CFA3
:1027C00070FAF4CF71FA0C0E0E015E6F5F6B0E01A2
:1027D000660E5C6F0A0E5D6F2EEC48F0F3CF5EFA6A
:1027E000F4CF5FFA0A015E1F5F1F0001290E726FAE
:1027F0000F0E736F50EC4BF072CAEBF373CAECF32D
:102800000301060EEA6F0301180EE86F020EE96F6E
:10281000C9EC61F0140E0001896F8A6B00014E0E45
:10282000876F0A0E886F4DEC4DF00201ADA30BD0FF
:10283000040E0001896F8A6B0001620E876F0A0E19
:10284000886F4DEC4DF000013D0E746F0F0E756FEB
:102850005EEC4BF072CA7AF073CA7BF0ABEC4BF0D3
:10286000F3CF4CFAF4CF4DFA00014D0E726F0F0EFC
:10287000736F50EC4BF0020E0001896F8A6B000100
:102880004C0E876F0A0E886F4DEC4DF014EF4BF035
:10289000AFC2E9FFB0C2EAFF020EE926000EEA224B
:1028A000EE50ED1002E1000E9CD20A01FE0E266FE2
:1028B000B1C2E9FFB2C2EAFF020EE926000EEA2227
:1028C000EECF04F0EFCF05F0B1C2E9FFB2C2EAFFEC
:1028D0000450EE24026E0550EE20036EAFC2E9FFF5
:1028E000B0C2EAFF0250EE24006E0350EE20016EEB
:1028F000AFC2E9FFB0C2EAFF020EE926000EEA22EB
:102900000050EE18276F0150EE18286F256B2551E7
:10291000006E016A010E005C000E015867E225CAD4
:1029200045F25EEC00F00D0E02013F5D02E15BD06E
:1029300024D0040E3F5D16E1AFC2E9FFB0C2EAFF4A
:10294000020EE926000EEA22EECF00F0EFCF01F0F2
:102950000050421902E10150431902E125CA26FA4A
:1029600042D00BD00A0127510201421904E10A01A9
:1029700028510201431901E036D0A5EC00F0AFC2A6
:10298000E9FFB0C2EAFF020EE926000EEA22EECF0E
:1029900000F0EFCF01F002011251001802E11351D3
:1029A000011821E1AFC2E9FFB0C2EAFFEECF02F0A9
:1029B000EFCF03F01051021802E11151031813E197
:1029C000B1C2E9FFB2C2EAFFEE50181909E1EE50B8
:1029D000191906E1EE501A1903E1EE501B1900E136
:1029E00002E1010EFED10A01252B91D7FE0E265DD4
:1029F00039E026CA45F25EEC00F0A5EC00F0FE0ED0
:102A00000A01265D2FE027CA42F228CA43F20A0EC5
:102A1000E66EE66AB1C2E6FFB2C2E6FF180EE66EE7
:102A2000020EE66ECDEC66F0006E060EE15E005022
:102A3000AFC2E9FFB0C2EAFFEECF10F2EDCF11F264
:102A4000AFC2E9FFB0C2EAFF020EE926000EEA2299
:102A5000EECF12F2EDCF13F229C20EF22AC20FF21C
:102A6000010EBFD1AFC2E9FFB0C2EAFF0D0EE926E9
:102A7000000EEA22EF50020B02E1000EB2D10E016D
:102A80003851391102E0000EACD10A01296B2A6BD2
:102A9000030E295D000E2A5901E3BED029CAE9FFC1
:102AA0002ACAEAFF140EEA02F3CFEAFFE902F3CFE3
:102AB000E9FFF450EA26000EE9260E0EEA22100E77
:102AC000E926000EEA22EE50ED1001E1A5D029CA58
:102AD000E9FF2ACAEAFF140EEA02F3CFEAFFE9028D
:102AE000F3CFE9FFF450EA26000EE9260E0EEA22A3
:102AF000100EE926000EEA22EECF00F0EFCF01F033
:102B0000AFC2E9FFB0C2EAFF020EE926000EEA22D8
:102B1000EECF02F0EFCF03F00250001802E10350B5
:102B2000011801E074D029CAE9FF2ACAEAFF140E8D
:102B3000EA02F3CFEAFFE902F3CFE9FFF450EA2615
:102B4000000EE9260E0EEA220A0EE926000EEA22FF
:102B5000EECF00F0EFCF01F0AFC2E9FFB0C2EAFF65
:102B6000EECF02F0EFCF03F00250001802E1035065
:102B7000011801E04CD0B1C2E9FFB2C2EAFFEECFCA
:102B800000F0EECF01F0EECF02F0EFCF03F029CA54
:102B9000E9FF2ACAEAFF140EEA02F3CFEAFFE902CC
:102BA000F3CFE9FFF450EA26000EE9260E0EEA22E2
:102BB000EE500001001809E1EE50011806E1EE5058
:102BC000021803E1EE50031800E101E020D0EFEC21
:102BD0006AF026C000F027C001F029CAE9FF2ACA1E
:102BE000EAFF140EEA02F3CFEAFFE902F3CFE9FFAE
:102BF000F450EA26000EE9260E0EEA22120EE9260D
:102C0000000EEA2200C0EEFF01C0EDFFEAD00A018B
:102C1000292B000E2A233CD7256B2551006E016A13
:102C2000010E005C000E015801E3D9D025CA45F21F
:102C30005EEC00F0020140A7CFD0A5EC00F0AFC2DF
:102C4000E9FFB0C2EAFF020EE926000EEA22EECF4B
:102C500000F0EFCF01F000500201121902E1015023
:102C6000131901E0B9D00A0EE66EE66AB1C2E6FFBA
:102C7000B2C2E6FF29CAE9FF2ACAEAFF140EEA0235
:102C8000F3CFEAFFE902F3CFE9FFF450EA26000EA2
:102C9000E9260E0EEA22E9CF00F0EACF01F000C0EB
:102CA000E6FF01C0E6FFCDEC66F0026E060EE15EC7
:102CB0000250AFC2E9FFB0C2EAFFEECF00F0EFCFA3
:102CC00001F029CAE9FF2ACAEAFF140EEA02F3CF8B
:102CD000EAFFE902F3CFE9FFF450EA26000EE92605
:102CE0000E0EEA220A0EE926000EEA2200C0EEFFCE
:102CF00001C0EDFFAFC2E9FFB0C2EAFF040EE92652
:102D0000000EEA22EECF00F0EECF01F0EECF02F09F
:102D1000EFCF03F029CAE9FF2ACAEAFF140EEA023C
:102D2000F3CFEAFFE902F3CFE9FFF450EA26000E01
:102D3000E9260E0EEA220C0EE926000EEA2200C059
:102D4000EEFF01C0EEFF02C0EEFF03C0EEFFAFC218
:102D5000E9FFB0C2EAFF020EE926000EEA22EECF3A
:102D600000F0EFCF01F029CAE9FF2ACAEAFF140EEA
:102D7000EA02F3CFEAFFE902F3CFE9FFF450EA26D3
:102D8000000EE9260E0EEA22100EE926000EEA22B7
:102D900000C0EEFF01C0EDFFEFEC6AF026C000F0CE
:102DA00027C001F029CAE9FF2ACAEAFF140EEA0285
:102DB000F3CFEAFFE902F3CFE9FFF450EA26000E71
:102DC000E9260E0EEA22120EE926000EEA2200C0C3
:102DD000EEFF01C0EDFF05D00A01252B1ED7000E26
:102DE00000D01200B3C2E9FFB4C2EAFFEECF56FE34
:102DF000EDCF57FE07EC48F0F3CF00F0F4CF01F031
:102E0000B3C2E9FFB4C2EAFF00C0EEFF01C0EDFFAC
:102E1000B3C2E9FFB4C2EAFF020EE926000EEA22BD
:102E2000EECF56FEEDCF57FE07EC48F0F3CF00F0A3
:102E3000F4CF01F0B3C2E9FFB4C2EAFF020E00C052
:102E4000EBFF030E01C0EBFFB3C2E9FFB4C2EAFF20
:102E5000040EE926000EEA22EECF58FEEECF59FE10
:102E6000EECF5AFEEFCF5BFE17EC48F026C000F025
:102E700027C001F028C002F029C003F0B3C2E9FF67
:102E8000B4C2EAFF040EE926000EEA2200C0EEFFFB
:102E900001C0EEFF02C0EEFF03C0EEFFB3C2E9FFC8
:102EA000B4C2EAFF080EE926000EEA22EECF58FE71
:102EB000EECF59FEEECF5AFEEFCF5BFE17EC48F097
:102EC00026C000F027C001F028C002F029C003F09E
:102ED000B3C2E9FFB4C2EAFF080EE926000EEA22F7
:102EE00000C0EEFF01C0EEFF02C0EEFF03C0EEFF28
:102EF000B3C2E9FFB4C2EAFF0E0EE926000EEA22D1
:102F0000EECF56FEEDCF57FE07EC48F0F3CF00F0C2
:102F1000F4CF01F0B3C2E9FFB4C2EAFF0E0E00C065
:102F2000EBFF0F0E01C0EBFFB3C2E9FFB4C2EAFF33
:102F3000100EE926000EEA22EECF56FEEDCF57FE28
:102F400007EC48F0F3CF00F0F4CF01F0B3C2E9FF93
:102F5000B4C2EAFF100E00C0EBFF110E01C0EBFF80
:102F6000B3C2E9FFB4C2EAFF120EE926000EEA225C
:102F7000EECF56FEEDCF57FE07EC48F0F3CF00F052
:102F8000F4CF01F0B3C2E9FFB4C2EAFF120E00C0F1
:102F9000EBFF130E01C0EBFF1200A5EC00F012C214
:102FA00042F213C243F229C22FF22AC230F229C2DE
:102FB00031F22AC232F22BC233F22CC234F22BC2CB
:102FC00035F22CC236F202014051080B02E0040E29
:102FD00001D00D0E3F6F4091409340954099409B2A
:102FE000409D409F41914193419541974189249152
:102FF00024932497249929C20EF22AC20FF27AEC64
:1030000044F0F3CF06F2F4CF07F27AEC44F0F3CFBA
:1030100008F2F4CF09F2020122692369010E146F4C
:10302000156B12000C0E0301ED6FEE6B3DEC62F0C0
:1030300012EC4DF00A014A6FF00E4A15E840E840E4
:103040003F0B006E016A140E005E000E015A00C0B4
:103050004AFA4A5105E1180EF36E020EF46E65D07D
:10306000070E0001846F856B0001826B836B15EC8A
:103070004DF00A014A514A07000952E012EC4DF0A6
:103080000A014B6F4B5101E14BD04B0501E1F1D7E8
:10309000020E4B5D2CE1030E4A5D01E241D04C6B08
:1030A0004D6B12EC4DF00A014B6F040E4B5D08E1C5
:1030B00012EC4DF00A014D6F12EC4DF00A014C6F0D
:1030C000180E4C5D020E4D5901E22AD0B40ED88084
:1030D0004C55050E4D5506E2B40EF36E050EF46E1A
:1030E00024D01DD04CCAF3FF4DCAF4FF1ED0020EEF
:1030F0004A5D01E215D012EC4DF00A014B6F4B51C5
:103100004A5D01E20DD04B510001846F856B0001D7
:10311000826B836B15EC4DF00A014B514A5FA9D7C6
:10312000180EF36E020EF46E00D01200B5C2E9FF65
:10313000B6C2EAFF0D0EE926000EEA22EFCF33FAFF
:10314000B5C2E9FFB6C2EAFF080EE926000EEA2280
:10315000EECF34FAEECF35FAEECF36FAEFCF37FABC
:10316000B5C2E9FFB6C2EAFF040EE926000EEA2264
:10317000EECF38FAEECF39FAEECF3AFAEFCF3BFA8C
:10318000020140914093409540B913D0E4EC6AF0BD
:1031900026C037F227C038F228C039F229C03AF2E7
:1031A000740E02013727350E3823060E3923000E20
:1031B0003A233F51050A48E0010A08E0B7C23CFA49
:1031C000B8C23DFA0A0133A1CFD0CBD00A0133A552
:1031D00003D0E3DE57EF20F033A912D034CA06F251
:1031E00035CA07F236CA08F237CA09F20201AE6BD5
:1031F0000201040EAD6F74EC11F0CFDE57EF20F03A
:1032000033A31FD038CA0AF239CA0BF23ACA0CF2F9
:103210003BCA0DF202010A2B000E0B230C230D23D7
:1032200001DFF3CF25F2F4CF26F20201010EAE6FDB
:103230000201120EAD6F74EC11F00201060E3F6F29
:1032400001D0ABDE57EF20F00A0133A502D057EFD3
:1032500020F033A934D0340EE96E0A0EEA6EEE5037
:103260000201061909E1EE50071906E1EE500819AE
:1032700003E1EE50091900E122E006C238FA07C264
:1032800039FA08C23AFA09C23BFA34CA06F235CA18
:1032900007F236CA08F237CA09F20201010EAE6F10
:1032A0000201040EAD6F74EC11F038CA06F239CA8F
:1032B00007F23ACA08F23BCA09F257EF20F00A01B6
:1032C00033A34DD038CA0AF239CA0BF23ACA0CF20B
:1032D0003BCA0DF202010A2B000E0B230C230D2317
:1032E000B5C2E9FFB6C2EAFF0E0EE926000EEA22D9
:1032F000EECF14F2EDCF15F295DEF3CF25F2F4CF39
:1033000026F20A0133A920D00201010EAE6F02019C
:10331000100EAD6F74EC11F00201070E3F6FE4EC7C
:103320006AF026C037F227C038F228C039F229C027
:103330003AF2740E02013727350E3823060E392370
:10334000000E3A2340990BD00201010EAE6F02012C
:10335000120EAD6F74EC11F00201060E3F6F57EFC5
:1033600020F03C2B000E3D2333A303D03C2B000E5A
:103370003D2302013551335D3651345914E32B514D
:103380002D5D006E2E512C55016E3551335D026E50
:1033900034513655036E0A010250005C316F035000
:1033A0000158326F0DD03351355D0A01316F020182
:1033B000345136590A01326F010E315F000E325B13
:1033C0000A0EE96E020EEA6EEE50385D2B6FEE507B
:1033D00039592C6FEE503A592D6FEE503B592E6FE4
:1033E0002BCA2FFA2CCA30FA3E6B3C513D1101E139
:1033F0007BD03151321101E176D0800E2E1512E1D1
:1034000031CA00F032CA01F0026A036A00502B5D33
:1034100001502C5902502D5903502E5903E2010E30
:103420003E6F3DD03CCA00F03DCA01F0026A036A1B
:103430002B0EE96E0A0EEA6EEE500026EE500122C7
:10344000EE500222EE5003220334000E031809E668
:10345000D880000E0054000E0154000E0254000EDD
:1034600003541DE23C51315D046E32513D55056EF1
:10347000066A076A05AE02D00668076807502E196B
:10348000E8AE02D02E3508D02B51045C2C510558E3
:103490002D5106582E51075802E3010E3E6F31CAD6
:1034A00000F032CA01F0026A036A2E510318E8AE36
:1034B00002D0033408D000502B5D01502C5902502B
:1034C0002D5903502E590FE22F513C25046E3051D7
:1034D0003D21056E053404E204500008000E055439
:1034E00002E2010E3E6F1CD02B512C112D112E111A
:1034F00003E1010E3E6F14D0800E2E1511E131CA8A
:1035000000F032CA01F0026A036A00502B5D0150DC
:103510002C5902502D5903502E5902E2010E3E6FD4
:103520003E510CE133B508D00201010EAE6F02012D
:10353000100EAD6F74EC11F057EF20F0060E33153E
:1035400003E02BDD57EF20F033B902D057EF20F026
:1035500002013F510C0A01E17ED20B0A40E00F0A42
:103560003EE0010A3CE0020A3AE0010A38E00C0AB7
:1035700001E086D2340EE96E0A0EEA6EEE500619AC
:1035800009E1EE50071906E1EE50081903E1EE508B
:10359000091900E122E006C238FA07C239FA08C266
:1035A0003AFA09C23BFA34CA06F235CA07F236CAF9
:1035B00008F237CA09F20201010EAE6F0201040ED1
:1035C000AD6F74EC11F038CA06F239CA07F23ACA84
:1035D00008F23BCA09F257EF20F0070E3F6F0E5179
:1035E0002F5D0A01296F02010F5130590A012A6F1C
:1035F000800E2A150CE0020129512B5D006E2C5122
:103600002A55016E00500A01292701502A2329CA90
:1036100000F02ACA01F0026A036A060EE96E020E81
:10362000EA6EEE500024256FEE500120266FEE501A
:103630000220276FEE500320286F340EE96E0A0E29
:10364000EA6EEE50255D006EEE502659016EEE508A
:103650002759026EEE502859036E0001800E0314A4
:1036600009E00201AE6B0201100EAD6F74EC11F0B7
:1036700057EF20F0020131510E5D006E0F513255AF
:10368000016E026A036A01AE02D002680368060E88
:10369000E96E020EEA6E0050EE5C0A01256F0150E1
:1036A000EE58266F0250EE58276F0350EE58286FE1
:1036B000020131510E5D32510F5911E229512B5D3A
:1036C000006E2C512A55016E026A036A00500A01ED
:1036D000255F0150265B0250275B0350285B250EB7
:1036E000E96E0A0EEA6EEE500A01345D256FEE5067
:1036F0003559266FEE503659276FEE503759286FDF
:103700002835000E281909E6D880000E2555000E30
:103710002655000E2755000E285501E397D00201CB
:1037200029512B5D006E2C512A55016E026A036AE5
:103730000A012551005C2651015827510258285191
:10374000035801E283D0020124972499419131C2A8
:1037500029FA32C22AFA0A012551020131270A0147
:103760002651020132230A01295102010E5D0A018C
:103770002A5102010F591BE331510E5D32510F598D
:1037800015E20E51315D006E32510F55016E000190
:103790000050020106270001015002010723000E1C
:1037A0000823092331C20EF232C20FF22FD0295161
:1037B0002B5D006E2C512A55016E0E5100240A011A
:1037C000296F02010F5101200A012A6F02013151B4
:1037D0000A01295D020132510A012A5917E22951D1
:1037E0000201315D006E32510A012A55016E00015D
:1037F0000050020106270001015002010723000EBC
:103800000823092331C20EF232C20FF202012B51FA
:10381000315D2C5132590AE329512B5D006E2C5138
:103820002A55016E0050315F0150325B2B510E5D05
:103830002C510F590AE329512B5D006E2C512A554A
:10384000016E00500E5F01500F5B3FD002010E5120
:10385000311902E10F51321938E024A735D024A9DB
:1038600032D031510E5D006E0F513255016E026A39
:10387000036A01AE02D0026803680050065F01507F
:10388000075B0250085B0350095B31510E5D3251FA
:103890000F5914E229512B5D006E2C512A55016EEF
:1038A000026A036A01AE02D0026803680050065F34
:1038B0000150075B0250085B0350095B31C20EF2F6
:1038C00032C20FF24185248924872F51311902E138
:1038D000305132192FE141B715D0E4EC6AF026C01F
:1038E00037F227C038F228C039F229C03AF2740EF4
:1038F00002013727350E3823060E3923000E3A23EE
:10390000409918D0060EE96E020EEA6EEE500A01DA
:10391000341909E1EE50351906E1EE50361903E18C
:10392000EE50371900E106E102012451010B02E0DB
:1039300040994197340EE96E0A0EEA6EEE5002018C
:10394000065D006EEE500759016EEE500859026E8A
:10395000EE500959036EB5C2E9FFB6C2EAFF0E0E7A
:10396000E926000EEA220A010050EE5C3F6F01508A
:10397000EE58406F02011451151106E10A013F5142
:10398000401102E0020141833FCA14F240CA15F21D
:10399000080E02013F5D2DE1060EE96E020EEA6E91
:1039A000EE500A01341909E1EE50351906E1EE50E6
:1039B000361903E1EE50371900E11AE102012451F2
:1039C000010B16E0E4EC6AF026C037F227C038F2AB
:1039D00028C039F229C03AF2BA0E020137271A0E6E
:1039E0003823030E3923000E3A234089090E3F6F16
:1039F00031D0090E3F5D16E10A0133B112D034CA4D
:103A000006F235CA07F236CA08F237CA09F20201CD
:103A1000AE6B0201140EAD6F74EC11F0CDEC17F02B
:103A200046D318D00A0E3F5D15E1060EE96E020E70
:103A3000EA6EEE500A01341909E1EE50351906E13B
:103A4000EE50361903E1EE50371900E102E1CDECFA
:103A500017F02DD316D0060EE96E020EEA6EEE5068
:103A60000A01341909E1EE50351906E1EE50361914
:103A700003E1EE50371900E102E1CDEC17F017D366
:103A800000D00A0133BB13D30B0E02013F5D01E1ED
:103A90000ED30A0E3F5D01E10AD30C0E3F5D01E13A
:103AA00006D3B751B81101E14ED20A01303504E214
:103AB0002F510008000E305501E2E8D0B5C2E9FFF1
:103AC000B6C2EAFF0C0EE926000EEA22EF50F00B18
:103AD000E842E842E842E842040DF350006E016A11
:103AE0002F51005C0301ED6F0A01305101580301B1
:103AF000EE6F3DEC62F00A012F510201B7270A0177
:103B000030510201B823B7510A01315D0201B851A9
:103B10000A01325904E231CAB7F232CAB8F20201DC
:103B2000B7510A27B8510B23000E0C230D23335134
:103B3000B725006E3451B821016E00502D5D015043
:103B40002E5946E233512D5D0A01296F020134518D
:103B50002E590A012A6F010E2927000E2A2329CA8D
:103B6000C5F22ACAC6F20201C46B0201C269C36966
:103B700044C2C1F233C2BFF234C2C0F2C5DB0A0193
:103B800029510201B75D0201C56F0A012A510201E4
:103B9000B8590201C66F0201C46B0201C269C36950
:103BA00044C2C1F22BC2BFF22CC2C0F2ADDB0A018B
:103BB00029510201B75D006EB8510A012A55016E04
:103BC00002012B510024336F2C510120346F15D08A
:103BD000B7C2C5F2B8C2C6F20201C46B0201C26923
:103BE000C36944C2C1F233C2BFF234C2C0F28CDB3B
:103BF0000201B7513327B8513423221D01E1231D9F
:103C000044E0B751225FB851235B165122250A01C7
:103C1000296F0201175123210A012A6F800E2A15EC
:103C200004E002012269236930D00201233504E255
:103C300022510008000E235528E30A0129510201F0
:103C40000A270A012A5102010B23000E0C230D231F
:103C50000A012951020133270A012A5102013423A2
:103C600033512D5D34512E590EE22B512D5D006ED6
:103C70002E512C55016E010E0026000E012200501F
:103C8000335F0150345B226923695DD1303504E232
:103C90002F510008000E305501E355D10201B751F4
:103CA0000A012F25006E0201B8510A013021016E70
:103CB0000050315D0150325909E22F51315D02014E
:103CC000B76F0A01305132590201B86FB5C2E9FF2E
:103CD000B6C2EAFF0C0EE926000EEA22EF50F00B06
:103CE000E842E842E842E842040DF3500301ED6F78
:103CF000EE6B3DEC62F0020133510A012F25026E9A
:103D0000020134510A013021036E02500201B7252D
:103D1000006E0350B821016E00502D5D01502E59E8
:103D20006EE233512D5D006E2E513455016E010E41
:103D30000026000E01220A012F51005C296F30512C
:103D400001582A6F800E2A1531E129CAC5F22ACA04
:103D5000C6F20201C46B0201C269C36944C2C1F266
:103D6000020133510A012F250201BF6F02013451B4
:103D70000A0130210201C06FC7DA0A01295102018C
:103D8000B75D0201C56F0A012A510201B85902014B
:103D9000C66F0201C46B0201C269C36944C2C1F2A9
:103DA0002BC2BFF22CC2C0F2AFDA28D0B7C2C5F224
:103DB000B8C2C6F20201C46B0201C269C36944C23F
:103DC000C1F2020133510A012F25006E0201345164
:103DD0000A013021016E02012B512D5D026E2E5120
:103DE0002C55036E010E0226000E03220201025022
:103DF000005CBF6F03500158C06F86DA18D0B7C29D
:103E0000C5F2B8C2C6F20201C46B0201C269C3693D
:103E100044C2C1F2020133510A012F250201BF6FD2
:103E2000020134510A0130210201C06F6DDA020132
:103E3000221D01E1231D09E12FCA22F230CA23F21B
:103E4000B7C216F2B8C217F27ED022510A012F5D16
:103E5000020123510A0130593DE22F510201B725D9
:103E6000006E0A0130510201B821016E225116255F
:103E7000026E23511721036E0050025C015003585B
:103E80000FE30A012F510201B725046E0A013051D8
:103E90000201B821056E2251045C2351055805E248
:103EA000B7C216F2B8C217F210D022511625006E12
:103EB00023511721016E0A012F51005C0201166F78
:103EC0000A01305101580201176F2FCA22F230CA7D
:103ED00023F239D02F510201B725006E0A0130516B
:103EE0000201B821016E22511625026E23511721BD
:103EF000036E0050025C0150035825E22251162542
:103F0000006E23511721016E0A012F51005C3051C0
:103F1000015819E32F510201B725046E0A013051EF
:103F20000201B821056E2251045C026E235105582E
:103F3000036E1651025C006E17510358016E00505B
:103F40001627015017230A013C513D1124E0070EAA
:103F500002013F5D04E033C235F234C236F240AFB5
:103F60000BD00201010EAE6F0201100EAD6F74ECAA
:103F700011F0A5EC00F00FD0408F40BD0CD0408D6B
:103F8000EFEC6AF026C03DF227C03EF20F0E0201B0
:103F90003D27000E3E230A0133A189D00AC200F05A
:103FA0000BC201F00CC202F00DC203F0002A000E99
:103FB0000122022203223CCA04F03DCA05F0066A2F
:103FC000076A380EE96E0A0EEA6EEE500426EE50CD
:103FD0000522EE500622EE5007220050041809E197
:103FE0000150051806E10250061803E103500718B6
:103FF00000E15DE102010A2B000E0B230C230D23CF
:104000003F51090A41E0010A1EE00F0A0EE0010AD1
:1040100001E044D00C0E3F6F0201010EAE6F0201B1
:10402000110EAD6F74EC11F042D00B0E3F6FEFEC40
:104030006AF026C03DF227C03EF21F0E02013D2766
:10404000000E3E232CD0060EE96E020EEA6EEE50F4
:104050000A01341909E1EE50351906E1EE5036191E
:1040600003E1EE50371900E10BE10201AE6B0201F2
:10407000100EAD6F74EC11F0CDEC17F018D003D02A
:1040800002010A0E3F6F0BD00201AE6B0201100E4F
:10409000AD6F74EC11F0CDEC17F009D000D0020137
:1040A000010EAE6F0201100EAD6F74EC11F0120034
:1040B000B9C245F25EEC00F00201BA51BB1103E156
:1040C000010EBA6FBB6B29512D5D0A01006F020111
:1040D0002A512E590A01016F010E005F000E015B8B
:1040E0000201BA51BC25006EBB51BD21016E0A010F
:1040F0000050005D0150015902E2000E04D1A5EC10
:1041000000F0030E0201BE1502E1030EBE13BCC295
:1041100004FABDC205FABA51BC25006EBB51BD21DF
:10412000016E00500A01005F0150015B0201BEA355
:1041300014D0BEA10DD000CA00F001CA01F0D89081
:104140000132003200500A0104270150052305D036
:104150000A010051042701510523020129510A01D6
:104160000425006F02012A510A010521016F010E89
:104170000027000E012333C202FA34C203FA0201FF
:10418000221D01E1231D22E022511625006E23513C
:104190001721016E00500A0102270150032302512A
:1041A00002012D5D0A01035102012E590FE22B512C
:1041B0002D5D006E2E512C55016E010E0026000E55
:1041C000012200500A01025F0150035B0A01025103
:1041D0000201355D0A0103510201365917E20A0155
:1041E00000510201355D0A010151020136590DE20B
:1041F000BEA503D0000E87D008D000CA35F201CA90
:1042000036F200CA33F201CA34F226D035510A011F
:10421000025D020136510A01035916E20051020102
:104220002B5D0A01015102012C590DE2BEA503D0FC
:10423000000E69D008D000CA35F201CA36F200CAB1
:1042400033F201CA34F208D000CA35F201CA36F29C
:1042500000CA33F201CA34F2020135510A01025D8B
:10426000020136510A01035930E2040E0201BE1563
:104270002CE02B510A01025D0201C56F02012C5195
:104280000A0103590201C66F44C2C4F22BC2C2F232
:104290002CC2C3F244C2C1F200CABFF201CAC0F2CA
:1042A00033D802013551335D365134590EE20A01DB
:1042B000005102012B5D006E2C510A010155016E67
:1042C00000500201335F0150345B00CA2BF201CA77
:1042D0002CF229C20EF22AC20FF229C231F22AC2EE
:1042E00032F229C22FF22AC230F2070E02013F5DDC
:1042F00008E10201010EAE6F0201100EAD6F74EC09
:1043000011F0010E00D012000201C451020A01E1B5
:10431000C2D0020A43E0010A01E06DD1C151020A94
:104320002DE0020A16E0010A01E037D0C5C2E6FF1F
:10433000C6C2E6FFC2C2E6FFC3C2E6FFBFC2E6FFD7
:10434000C0C2E6FFCDEC66F0006E060EE15E0050E6
:1043500024D0BF1D01E1C01D06E0BFC272F0C0C283
:1043600073F050EC4BF0C5C289F0C6C28AF0C2C2ED
:1043700087F0C3C288F04DEC4DF00FD0C5C2D6F324
:10438000C6C2D7F3C2C2D4F3C3C2D5F3BFC2D2F3FD
:10439000C0C2D3F31DEC63F000D02DD1C151020A8D
:1043A0002EE0020A18E0010A01E074D0C21D01E10A
:1043B000C31D06E0C2C274F0C3C275F05EEC4BF0E0
:1043C000C5C284F0C6C285F0BFC282F0C0C283F00D
:1043D00015EC4DF05FD0C5C280F0C6C281F0C2C2FC
:1043E0007EF0C3C27FF0BFC27CF0C0C27DF037EC6C
:1043F0004CF00BEC4DF0000901E1FBD74BD0C21D96
:1044000001E1C31D06E0C2C274F0C3C275F05EECE8
:104410004BF0100E0A01846F856B0201C551C61165
:1044200038E00A0184510201C55D0A01855102018B
:10443000C65904E2C5C284FAC6C285FA84CA84F0A9
:1044400085CA85F00001740E826F0A0E836F15EC29
:104450004DF084CAD6F385CAD7F30301740ED46F26
:104460000A0ED56FBFC2D2F3C0C2D3F31DEC63F006
:104470000A0184510201BF270A0185510201C023AC
:104480000A0184510201C55F0A0185510201C65B20
:10449000C4D700D0B0D0C151020A5FE0020A12E0D6
:1044A000010A01E0A7D0C5C2D0F3C6C2D1F3BFC292
:1044B000CEF3C0C2CFF3C2C2CCF3C3C2CDF3CCECB7
:1044C00062F098D0BF1D01E1C01D06E0BFC272F0CE
:1044D000C0C273F050EC4BF0100E0A01846F856B74
:1044E0000201C551C61138E00A0184510201C55DBF
:1044F0000A0185510201C65904E2C5C284FAC6C246
:1045000085FA84CAD0F385CAD1F30301740ECE6F45
:104510000A0ECF6FC2C2CCF3C3C2CDF3CCEC62F0B3
:104520000A0184510201C2270A0185510201C323F5
:1045300084CA89F085CA8AF00001740E876F0A0E5A
:10454000886F4DEC4DF00A0184510201C55F0A01EC
:1045500085510201C65BC4D74DD0100E0A01846F8D
:10456000856B0201C551C61144E00A018451020164
:10457000C55D0A0185510201C65904E2C5C284FA2B
:10458000C6C285FA84CAD0F385CAD1F30301740E7A
:10459000CE6F0A0ECF6FC2C2CCF3C3C2CDF3CCEC48
:1045A00062F084CAD6F385CAD7F30301740ED46FC0
:1045B0000A0ED56FBFC2D2F3C0C2D3F31DEC63F0B5
:1045C0000A0184510201C2270A0185510201C32355
:1045D0000A0184510201BF270A0185510201C0234B
:1045E0000A0184510201C55F0A0185510201C65BBF
:1045F000B8D700D000D012000201C951020A6EE003
:10460000020A18E0010A01E0BED0CDC2E6FFCEC228
:10461000E6FFCAC2E6FFCBC2E6FFCCC2E6FFC7C2D6
:10462000E6FFC8C2E6FFF8EC66F0006E070EE15E3A
:104630000050A9D0C71D01E1C81D06E0C7C272F035
:10464000C8C273F050EC4BF0100E0A01106F116BE2
:104650000201CD51CE1141E00A0110510201CD5DA0
:104660000A0111510201CE5904E2CDC210FACEC2A4
:1046700011FA10CAE6FF11CAE6FFCAC2E6FFCBC2B2
:10468000E6FFCCC2E6FF000EE66E0A0EE66EF8EC20
:1046900066F0006E070EE15E005010CA89F011CA84
:1046A0008AF00001000E876F0A0E886F4DEC4DF006
:1046B00010CA00F011CA01F0026A00500201CA27B4
:1046C0000150CB230250CC230A0110510201CD5FCF
:1046D0000A0111510201CE5BBBD755D0100E0A0161
:1046E000106F116B0201CD51CE114CE00A01105137
:1046F0000201CD5D0A0111510201CE5904E2CDC281
:1047000010FACEC211FA10CAE6FF11CAE6FFCAC2F9
:10471000E6FFCBC2E6FFCCC2E6FF000EE66E0A0E55
:10472000E66EF8EC66F0006E070EE15E005010CA0F
:10473000D6F311CAD7F30301000ED46F0A0ED56F5A
:10474000C7C2D2F3C8C2D3F31DEC63F00A01105103
:104750000201C7270A0111510201C82310CA00F043
:1047600011CA01F0026A0050CA270150CB2302503F
:10477000CC230A0110510201CD5F0A01115102013F
:08478000CE5BB0D700D012009F
:084788000A01006B016B026BDA
:10479000036B046B056B066B076B086B096B0A6B8D
:1047A0000B6B0C6B0D6B0E6B0F6B106B116B126B3D
:1047B000136B146B156B166B176B186B196B1A6BED
:1047C0001B6B1C6B1D6B1E6B1F6B206B216B226B9D
:1047D000236B246B256B266B276B286B296B2A6B4D
:1047E0002B6B2C6B2D6B2E6B2F6B306B316B326BFD
:1047F000336B346B356B366B376B386B396B3A6BAD
:104800003B6B3C6B3D6B3E6B3F6B3E0E406F410E16
:10481000416F4C0E426F530E436F4F0E446F4B0E61
:10482000456F3C0E466F476B52CF00F053CF01F0FF
:104830000C0E005E000E015A0F0150510024E96E6B
:1048400051510120EA6EEF50000839E252CF03F0D7
:1048500053CF04F00C0E035E000E045A5051032493
:10486000E96E51510420EA6EEFCF02F0640E025C53
:1048700026E252CF00F053CF01F00C0E005E000E86
:10488000015A50510024E96E51510120EA6EEF5057
:104890000001946F956B010E941901E195510FE1A0
:1048A000E4EC6AF026C030F427C031F428C032F4BA
:1048B00029C033F40F01010E126F8D808E8052CF0C
:1048C00000F053CF01F00B0E005E000E015A0F01F5
:1048D00050510024E96E51510120EA6EEF5000085A
:1048E00025E252CF03F053CF04F00B0E035E000E0F
:1048F000045A50510324E96E51510420EA6EEFCF5F
:1049000002F00A0E025C12E252CF00F053CF01F027
:104910000B0E005E000E015A50510024E96E5151F9
:104920000120EA6EEF500001966F976B52CF00F0B6
:1049300053CF01F00A0E005E000E015A0F015051D4
:104940000024E96E51510120EA6EEF50000825E283
:1049500052CF03F053CF04F00A0E035E000E045A48
:1049600050510324E96E51510420EA6EEFCF02F05A
:10497000150E025C12E252CF00F053CF01F00A0E86
:10498000005E000E015A50510024E96E5151012081
:10499000EA6EEF500001986F996B52CF00F053CF41
:1049A00001F0090E005E000E015A0F015051002463
:1049B000E96E51510120EA6EEF0404E1010E00019D
:1049C0009A6F9B6B52CF00F053CF01F0090E005E3F
:1049D000000E015A0F0150510024E96E515101207F
:1049E000EA6EEF5009E100019A6B9B6BBD9EBD9C86
:1049F000BD96BD94BD92BD9052CF00F053CF01F053
:104A0000080E005E000E015A0F0150510024E96E9D
:104A100051510120EA6EEF0404E1010E00019C6F88
:104A20009D6B52CF00F053CF01F0080E005E000ED8
:104A3000015A0F0150510024E96E51510120EA6ED4
:104A4000EF5009E100019C6B9D6BBA9EBA9CBA962F
:104A5000BA94BA92BA9052CF00F053CF01F0070E39
:104A6000005E000E015A0F0150510024E96E5151B1
:104A70000120EA6EEF0404E1010E00019E6F9F6BBE
:104A800052CF00F053CF01F0070E005E000E015A26
:104A90000F0150510024E96E51510120EA6EEF5090
:104AA00007E100019E6B9F6B7396739473927390F2
:104AB00052CF00F053CF01F0060E005E000E015AF7
:104AC0000F0150510024E96E51510120EA6EEF04AC
:104AD00004E1010E0001A06FA16B52CF00F053CF93
:104AE00001F0060E005E000E015A0F015051002425
:104AF000E96E51510120EA6EEF5007E10001A06B11
:104B0000A16B709670947092709052CF00F053CF5A
:104B100001F0050E005E000E015A0F0150510024F5
:104B2000E96E51510120EA6EEF0404E1010E00012B
:104B3000A26FA36B52CF00F053CF01F0050E005EC1
:104B4000000E015A0F0150510024E96E515101200D
:104B5000EA6EEF5009E10001A26BA36BB79EB79C10
:104B6000B796B794B792B79052CF00F053CF01F0F9
:104B7000040E005E000E015A0F0150510024E96E30
:104B800051510120EA6EEF0404E1010E0001A46F0F
:104B9000A56B52CF00F053CF01F0040E005E000E63
:104BA000015A0F0150510024E96E51510120EA6E63
:104BB000EF5003E10001A46BA56B52CF00F053CF7F
:104BC00001F0030E005E000E015A0F015051002447
:104BD000E96E51510120EA6EEF0404E1010E00017B
:104BE000A66FA76B52CF00F053CF01F0030E005E0B
:104BF000000E015A0F0150510024E96E515101205D
:104C0000EA6EEF5003E10001A66BA76B52CF00F0F4
:104C100053CF01F0020E005E000E015A0F015051F9
:104C20000024E96E51510120EA6EEF0404E1010E07
:104C30000001A86FA96B52CF00F053CF01F0020E14
:104C4000005E000E015A0F0150510024E96E5151CF
:104C50000120EA6EEF5003E10001A86BA96B00018F
:104C6000010EA61901E1A75101E07CD0A851A911BC
:104C700001E078D0010E9A1901E19B5113E1B4C013
:104C8000B5F3B5C0B6F30301B76BB86B010E030102
:104C9000B36FB46B5EEC5FF0BD9EBD9CBD86BD8402
:104CA000BD92BD900001010E9C1901E19D5113E1DF
:104CB000B6C0B5F3B7C0B6F30301B76BB86B020E5D
:104CC0000301B36FB46B5EEC5FF0BA9EBA9CBA8618
:104CD000BA84BA92BA900001010E9E1901E19F5167
:104CE00011E1B8C0B5F3B9C0B6F30301B76BB86B47
:104CF000030E0301B36FB46B5EEC5FF073867384D5
:104D0000739273900001010EA01901E1A15111E10C
:104D1000BAC0B5F3BBC0B6F30301B76BB86B040EF2
:104D20000301B36FB46B5EEC5FF0708670847092B9
:104D300070900001010EA21901E1A35113E1BCC062
:104D4000B5F3BDC0B6F30301B76BB86B050E030135
:104D5000B36FB46B5EEC5FF0B79EB79CB786B78459
:104D6000B792B7900001A651A71101E07CD0A851DD
:104D7000A91101E078D0010E9A1901E19B5113E1CC
:104D8000BEC0B5F3BFC0B6F30301B76BB86B010E7D
:104D90000301B36FB46B5EEC5FF0BD9EBD9CBD863E
:104DA000BD84BD92BD900001010E9C1901E19D5191
:104DB00013E1C0C0B5F3C1C0B6F30301B76BB86B64
:104DC000020E0301B36FB46B5EEC5FF0BA9EBA9C47
:104DD000BA86BA84BA92BA900001010E9E1901E116
:104DE0009F5111E1C2C0B5F3C3C0B6F30301B76B65
:104DF000B86B030E0301B36FB46B5EEC5FF07386A8
:104E00007384739273900001010EA01901E1A15106
:104E100011E1C4C0B5F3C5C0B6F30301B76BB86BFD
:104E2000040E0301B36FB46B5EEC5FF070867084A8
:104E3000709270900001010EA21901E1A35113E1DB
:104E4000C6C0B5F3C7C0B6F30301B76BB86B050EA8
:104E50000301B36FB46B5EEC5FF0B79EB79CB7868F
:104E6000B784B792B7900001010EA81901E1A951CA
:104E700001E078D0010E9A1901E19B5113E1AAC01B
:104E8000B5F3ABC0B6F30301B76BB86B010E03010A
:104E9000B36FB46B5EEC5FF0BD9EBD9CBD86BD8400
:104EA000BD92BD900001010E9C1901E19D5113E1DD
:104EB000ACC0B5F3ADC0B6F30301B76BB86B020E6F
:104EC0000301B36FB46B5EEC5FF0BA9EBA9CBA8616
:104ED000BA84BA92BA900001010E9E1901E19F5165
:104EE00011E1AEC0B5F3AFC0B6F30301B76BB86B59
:104EF000030E0301B36FB46B5EEC5FF073867384D3
:104F0000739273900001010EA01901E1A15111E10A
:104F1000B0C0B5F3B1C0B6F30301B76BB86B040E04
:104F20000301B36FB46B5EEC5FF0708670847092B7
:104F300070900001010EA21901E1A35113E1B2C06A
:104F4000B5F3B3C0B6F30301B76BB86B050E03013D
:104F5000B36FB46B5EEC5FF0B79EB79CB786B78457
:104F6000B792B7900F01010E541901E1555165E157
:104F7000080E0201666F676B0201400E646F0A0E35
:104F8000656F4FCF63F2CFEC04F04FCF5FF207ECC9
:104F900004F00401000E2E6F0A0E2F6F400E040164
:104FA0002C6F2D6B0401800E286F29692A6B2B6BE7
:104FB000D3EC6DF004019F0E3C6F3D693E6B3F6B7F
:104FC0000401800E386F39693A6B3B6B77EC6DF0FA
:104FD0000A01486B496B493504E248510A08000E42
:104FE00049551AE348CAE9FF49CAEAFFD890E936A9
:104FF000EA36940EE926000EEA22EF50E66E000E25
:105000004825E96E0A0E4921EA6EE552E750EF6E37
:10501000482B000E4923DFD70401000E266F0A0E2D
:10502000276F400E0401246F256B0401800E206F52
:105030002169226B236B86EC68F012000A01006B79
:10504000016B026B036B046B056B066B076B086BE4
:10505000096B0A6B0B6B0C6B0D6B0E6B0F6B106B94
:10506000116B126B136B146B156B166B176B186B44
:10507000196B1A6B1B6B1C6B1D6B1E6B1F6B206BF4
:10508000216B226B236B246B256B266B276B286BA4
:10509000296B2A6B2B6B2C6B2D6B2E6B2F6B306B54
:1050A000316B326B336B346B356B366B376B386B04
:1050B000396B3A6B3B6B3C6B3D6B3E6B3F6B3E0E13
:1050C000406F500E416F570E426F4D0E436F4F0EA3
:1050D000446F4B0E456F3C0E466F476B486B496BF8
:1050E0004A6B4B6B59CF01F05ACF02F0060E015EAE
:1050F000000E025A0F0157510124E96E5851022047
:10510000EA6EEFCF00F0060E005C01E32BD359CF1F
:1051100003F05ACF04F0060E035E000E045A5751F6
:105120000324E96E58510420EA6EEF50000801E3B1
:1051300019D359CF01F05ACF02F0050E015E000ECF
:10514000025A57510124E96E58510220EA6EEFCFFE
:1051500000F0000E005C01E205D359CF03F05ACFF6
:1051600004F0050E035E000E045A57510324E96E45
:1051700058510420EA6EEF50650801E2F3D20401B1
:10518000000E2E6F0A0E2F6F400E04012C6F2D6B38
:105190000401800E286F29692A6B2B6BD3EC6DF00C
:1051A00004019F0E3C6F3D693E6B3F6B0401800E16
:1051B000386F39693A6B3B6B77EC6DF059CF00F083
:1051C0005ACF01F0050E005E000E015A0F01575133
:1051D0000024E96E58510120EA6EEFCF48FA0A0127
:1051E000496B4A6B4B6B59CF00F05ACF01F0060E5A
:1051F000005E000E015A0F0157510024E96E58510C
:105200000120EA6EEF50050A01E118D2010A01E11E
:1052100092D1070A01E10CD1010A01E186D0030A0B
:1052200001E08FD259CF00F05ACF01F0040E005E9A
:10523000000E015A57510024E96E58510120EA6EC0
:10524000EF5026E159CF02F05ACF03F0030E025E71
:10525000000E035A57510224E96E58510320EA6E9A
:10526000EF0416E159CF04F05ACF05F0020E045EA8
:10527000000E055A57510424E96E58510520EA6E74
:10528000EF5006E148CAB4F049CAB5F0B4C00BFA11
:1052900059CF00F05ACF01F0040E005E000E015A03
:1052A00057510024E96E58510120EA6EEF5026E173
:1052B00059CF02F05ACF03F0030E025E000E035ADC
:1052C00057510224E96E58510320EA6EEF5016E15F
:1052D00059CF04F05ACF05F0020E045E000E055AB5
:1052E00057510424E96E58510520EA6EEF0406E197
:1052F00048CABEF049CABFF0BEC010FA59CF00F08C
:105300005ACF01F0040E005E000E015A57510024DE
:10531000E96E58510120EA6EEF0406E148CAAAF08E
:1053200049CAABF0AAC015FA0CD259CF00F05ACF37
:1053300001F0040E005E000E015A57510024E96E80
:1053400058510120EA6EEF5026E159CF02F05ACFB2
:1053500003F0030E025E000E035A57510224E96E59
:1053600058510320EA6EEF0416E159CF04F05ACFEA
:1053700005F0020E045E000E055A57510424E96E32
:1053800058510520EA6EEF5006E148CAB6F049CA06
:10539000B7F0B6C00CFA59CF00F05ACF01F0040EA6
:1053A000005E000E015A57510024E96E5851012049
:1053B000EA6EEF5026E159CF02F05ACF03F0030E08
:1053C000025E000E035A57510224E96E5851032021
:1053D000EA6EEF5016E159CF04F05ACF05F0020EF5
:1053E000045E000E055A57510424E96E58510520F9
:1053F000EA6EEF0406E148CAC0F049CAC1F0C0C075
:1054000011FA59CF00F05ACF01F0040E005E000EE1
:10541000015A57510024E96E58510120EA6EEF04F9
:1054200006E148CAACF049CAADF0ACC016FA89D161
:1054300059CF00F05ACF01F0040E005E000E015A61
:1054400057510024E96E58510120EA6EEF5026E1D1
:1054500059CF02F05ACF03F0030E025E000E035A3A
:1054600057510224E96E58510320EA6EEF0416E109
:1054700059CF04F05ACF05F0020E045E000E055A13
:1054800057510424E96E58510520EA6EEF5006E1A9
:1054900048CAB8F049CAB9F0B8C00DFA59CF00F0FF
:1054A0005ACF01F0040E005E000E015A575100243D
:1054B000E96E58510120EA6EEF5026E159CF02F013
:1054C0005ACF03F0030E025E000E035A5751022416
:1054D000E96E58510320EA6EEF5016E159CF04F0FF
:1054E0005ACF05F0020E045E000E055A57510424EF
:1054F000E96E58510520EA6EEF0406E148CAC2F091
:1055000049CAC3F0C2C012FA59CF00F05ACF01F015
:10551000040E005E000E015A57510024E96E5851E6
:105520000120EA6EEF0406E148CAAEF049CAAFF0C6
:10553000AEC017FA06D159CF00F05ACF01F0040ED1
:10554000005E000E015A57510024E96E58510120A7
:10555000EA6EEF5026E159CF02F05ACF03F0030E66
:10556000025E000E035A57510224E96E585103207F
:10557000EA6EEF0416E159CF04F05ACF05F0020E9F
:10558000045E000E055A57510424E96E5851052057
:10559000EA6EEF5006E148CABAF049CABBF0BAC099
:1055A0000EFA59CF00F05ACF01F0040E005E000E43
:1055B000015A57510024E96E58510120EA6EEF500C
:1055C00026E159CF02F05ACF03F0030E025E000E1F
:1055D000035A57510224E96E58510320EA6EEF50E6
:1055E00016E159CF04F05ACF05F0020E045E000E0A
:1055F000055A57510424E96E58510520EA6EEF040C
:1056000006E148CAC4F049CAC5F0C4C013FA59CF6C
:1056100000F05ACF01F0040E005E000E015A5751FF
:105620000024E96E58510120EA6EEF0406E148CAF1
:10563000B0F049CAB1F0B0C018FA83D059CF00F029
:105640005ACF01F0040E005E000E015A575100249B
:10565000E96E58510120EA6EEF5026E159CF02F071
:105660005ACF03F0030E025E000E035A5751022474
:10567000E96E58510320EA6EEF0416E159CF04F0A9
:105680005ACF05F0020E045E000E055A575104244D
:10569000E96E58510520EA6EEF5006E148CABCF0A9
:1056A00049CABDF0BCC00FFA59CF00F05ACF01F083
:1056B000040E005E000E015A57510024E96E585145
:1056C0000120EA6EEF5026E159CF02F05ACF03F0E5
:1056D000030E025E000E035A57510224E96E585120
:1056E0000320EA6EEF5016E159CF04F05ACF05F0CF
:1056F000020E045E000E055A57510424E96E5851FB
:105700000520EA6EEF0406E148CAC6F049CAC7F0B0
:10571000C6C014FA59CF00F05ACF01F0040E005E53
:10572000000E015A57510024E96E58510120EA6ECB
:10573000EF0406E148CAB2F049CAB3F0B2C019FAA0
:1057400000D00401000E266F0A0E276F400E0401E0
:10575000246F256B0401800E206F2169226B236B5F
:1057600086EC68F0080E0201666F676B0201400E5E
:10577000646F0A0E656F56CF63F2CFEC04F056CF1C
:065780005FF207EF04F0E8
:0A5786000A01006B080E005D06E248
:1057900000CACEF12CDB0A01002BF7D70101C1832F
:1057A00012000A01000E076F010E086F066B080E4B
:1057B000065D01E306D107CAE9FF08CAEAFF0C0E3D
:1057C000E926000EEA22EECF00F0EFCF01F0026AE8
:1057D000036A005001100210031001E0ECD007CA68
:1057E000E9FF08CAEAFF0C0EC7C1EBFF0D0EC8C1E6
:1057F000EBFF0101C751C8111FE1000ED880CB5546
:10580000200ECC5505E3000ECB5D100ECC5903E203
:10581000CB6B100ECC6FCBC100F0CCC101F0CB2B09
:10582000000ECC2307CAE9FF08CAEAFF0C0E00C02D
:10583000EBFF0D0E01C0EBFFC65105E0C251C311D5
:10584000C411C51121E10A0EE66EE66AE66807CAD0
:10585000E9FF08CAEAFFE9CF00F0EACF01F000C093
:10586000E6FF01C0E6FF1BEC67F0026E050EE15E8D
:10587000025007CAE9FF08CAEAFF0E0EE926000E29
:10588000EA22050EEF6E88D0C651040A61E0070ACD
:1058900032E0020A03E0030A01E07ED007CAE9FF12
:1058A00008CAEAFFC2C1EEFFC3C1EEFFC4C1EEFFEA
:1058B000C5C1EEFF020EC65D02E0000E01D0010E72
:1058C000006E07CAE9FF08CAEAFF140EE926000EB7
:1058D000EA220050010BF36EFE0EEF14F310EF6E90
:1058E00007CAE9FF08CAEAFF0E0EE926000EEA22FF
:1058F000010EEF6E51D007CAE9FF08CAEAFFC2C124
:10590000EEFFC3C1EEFFC4C1EEFFC5C1EEFF07CA83
:10591000E9FF08CAEAFF130EE926000EEA22EF6A41
:1059200007CAE9FF08CAEAFF0F0EE926000EEA22BD
:10593000270EEE6EEE6AEE6AEE6A07CAE9FF08CA43
:10594000EAFF0E0EE926000EEA22020EEF6E24D0C8
:105950000A0EE66EE66AC2C1E6FFC3C1E6FF07CAE9
:10596000E9FF08CAEAFFE9CF00F0EACF01F000C082
:10597000E6FF01C0E6FFCDEC66F0026E060EE15ECA
:10598000025007CAE9FF08CAEAFF0E0EE926000E18
:10599000EA22050EEF6E00D007CAE9FF08CAEAFF47
:1059A0000A0EC9C1EBFF0B0ECAC1EBFF06CAB8F164
:1059B0000A01065108D0170E0727000E0823062BF0
:1059C000F6D6FF0E00D012000A01356B080E355DC9
:1059D00001E3F5D13551170DF3CFE9FFF4CFEAFF1D
:1059E000000EE926010EEA220E0EE926000EEA223A
:1059F000EF50050811E03551170DF3CFE9FFF4CF53
:105A0000EAFF000EE926010EEA220E0EE926000E3C
:105A1000EA22EF50040801E1CFD13551170DF3CF41
:105A2000E9FFF4CFEAFF000EE926010EEA220E0E8E
:105A3000E926000EEA22EF50050A01E1BCD1010A75
:105A400001E1B9D1070A01E1F9D0010A01E1BBD0B6
:105A5000020A54E0010A01E0AED138EC3FF000093F
:105A60004CE00A013551170DF3CFE9FFF4CFEAFFFF
:105A7000000EE926010EEA220E0EE926000EEA22A9
:105A8000EF6A3551170DF3CFE9FFF4CFEAFF000EAF
:105A9000E926010EEA22140EE926000EEA22EF5052
:105AA000010B17E00301010E166F0A013551170DA6
:105AB000F3CFE9FFF4CFEAFF000EE926010EEA2258
:105AC000EECF13F3EECF14F3EFCF15F374EC3FF0FA
:105AD00014D00301010E126F0A013551170DF3CFD7
:105AE000E9FFF4CFEAFF000EE926010EEA22EECF2D
:105AF00010F3EDCF11F354EC3FF05ED10301360EFD
:105B0000176F0A0E186F97EC3FF000095BE041EC4D
:105B10003FF0000946E00A013551170DF3CFE9FFC8
:105B2000F4CFEAFF000EE926010EEA2236CAEEFFA4
:105B300037CAEEFF38CAEEFF39CAEEFF3551170DEE
:105B4000F3CFE9FFF4CFEAFF000EE926010EEA22C7
:105B50000E0EE926000EEA22020EEF6E3551170DE9
:105B6000F3CFE9FFF4CFEAFF000EE926010EEA22A7
:105B7000130EE926000EEA22EF6A3551170DF3CF16
:105B8000E9FFF4CFEAFF000EE926010EEA220F0E2C
:105B9000E926000EEA22270EEE6EEE6AEE6AEE6A43
:105BA00011D00A013551170DF3CFE9FFF4CFEAFF09
:105BB000000EE926010EEA220E0EE926000EEA2268
:105BC000010EEF6EF9D0EFEC6AF026C000F027C0AE
:105BD00001F00A013551170DF3CFE9FFF4CFEAFFC9
:105BE000000EE926010EEA22150EE926000EEA2231
:105BF00000C0EEFF01C0EDFF3551170DF3CFE9FFF7
:105C0000F4CFEAFF000EE926010EEA22E9CF60F3A5
:105C1000EACF61F34CEC5BF00A013551170DF3CF7D
:105C2000E9FFF4CFEAFF000EE926010EEA220E0E8C
:105C3000E926000EEA22030EEF6EBED03551170D95
:105C4000F3CFE9FFF4CFEAFF000EE926010EEA22C6
:105C5000040EE926000EEA22E9CF64F3EACF65F3E9
:105C60003551170DF3CFE9FFF4CFEAFF000EE92617
:105C7000010EEA22E9CF62F3EACF63F390EC5BF026
:105C8000000901E086D00A013551170DF3CFE9FF75
:105C9000F4CFEAFF000EE926010EEA22150EE926EE
:105CA000000EEA22EECF02F0EFCF03F002C0E6FFD3
:105CB00003C0E6FFEFEC6AF0E552E7CF03F0E552F0
:105CC000E7CF02F00250265C006E03502758016EA9
:105CD0000A013551170DF3CFE9FFF4CFEAFF000EAB
:105CE000E926010EEA220F0EE926000EEA22EECF87
:105CF00004F0EFCF05F00050045C0150055848E275
:105D00003551170DF3CFE9FFF4CFEAFF000EE92676
:105D1000010EEA22130EE926000EEA22EFCF00F070
:105D2000060E005C25E23551170DF3CFE9FFF4CFE5
:105D3000EAFF000EE926010EEA22130EE926000E04
:105D4000EA22EF2A3551170DF3CFE9FFF4CFEAFF2E
:105D5000000EE926010EEA220F0EE926000EEA22C5
:105D6000D890EF36010EEB36020EEB36030EEB3613
:105D70003551170DF3CFE9FFF4CFEAFF000EE92606
:105D8000010EEA220E0EE926000EEA22020EEF6E46
:105D900011D00A013551170DF3CFE9FFF4CFEAFF17
:105DA000000EE926010EEA220E0EE926000EEA2276
:105DB000050EEF6E01D000D00A01352B07D6120078
:105DC0000101CD51170DF3CFE9FFF4CFEAFF000E2B
:105DD000E926010EEA220E0EE926000EEA22EF5015
:105DE000050802E0000E01D0010E00D01200080EDE
:105DF0000101CE5D01E32ED0CE51170DF3CFE9FFA7
:105E0000F4CFEAFF000EE926010EEA220C0EE92685
:105E1000000EEA22EE6AED6ACE51170DF3CFE9FFCC
:105E2000F4CFEAFF000EE926010EEA22EE6AEE6ADE
:105E3000EE6AEE6ACE51170DF3CFE9FFF4CFEAFF19
:105E4000000EE926010EEA220E0EE926000EEA22D5
:105E5000040EEF6E1200080E0101016ACF25006EDC
:105E6000D0510122026A036A1B0E00260F0E012286
:105E7000000E022203220E0E0026000E0122022234
:105E80000322140E0026000E01220222032200C06B
:105E900072F001C073F050EC4BF0CFC1BDF1D0C136
:105EA000BEF11200080E0101D1250301ED6F000EB5
:105EB0000101D2210301EE6F3DEC62F0D1C1BFF1CF
:105EC000D2C1C0F11200B5EC49F0000903E1F36A58
:105ED000F46A2DD00101D3510401505D09E0D3C112
:105EE00050F40101B96BBA6B0101CF6BD06BB3DF1A
:105EF000D3C1B8F1C00E046E050E056E066A076ABE
:105F0000B9C108F0BAC109F00A6A0B6A0850045C0A
:105F1000006E09500558016E0A500658026E0B506B
:105F20000758036E00C0F3FF01C0F4FF00D0120059
:105F3000BDC100F0BEC101F0026A036AC00E005C80
:105F4000050E0158000E0258000E035802E3000E21
:105F500013D0D4C186F048EC4DF00101BD2B000EEA
:105F6000BE23BD51B95DBE51BA5904E2BDC1B9F1FC
:105F7000BEC1BAF1010E00D01200C00E046E050EB3
:105F8000056E066A076ABDC108F0BEC109F00A6A5B
:105F90000B6A0850045C006E09500558016E0A50E7
:105FA0000658026E0B500758036E00C004FA01C079
:105FB00005FA0101D7510A01045D0101D8510A0116
:105FC000055904E204CAD7F105CAD8F10101D75135
:105FD000BD27D851BE23BD51B95DBE51BA5904E2A7
:105FE000BDC1B9F1BEC1BAF1D7C189F0D8C18AF03B
:105FF000D5C187F0D6C188F04DEC4DF0D7C1F3FF85
:10600000D8C1F4FF00D01200C00E046E050E056E5C
:10601000066A076ABDC108F0BEC109F00A6A0B6AC8
:106020000850045C006E09500558016E0A5006586D
:10603000026E0B500758036E00C005FA01C006FA45
:106040000101DC510A01055D0101DD510A0106591A
:1060500004E205CADCF106CADDF10101DC51BD270D
:10606000DD51BE23BD51B95DBE51BA5904E2BDC177
:10607000B9F1BEC1BAF1DCC18EF0DDC18FF0D9C17A
:106080008BF0DAC18CF0DBC18DF066EC4DF0DCC139
:10609000F3FFDDC1F4FF00D01200DEC1E6FFDFC177
:1060A000E6FF35EC67F0E552E552F3CFD7F1F4CFD8
:1060B000D8F1DEC1D5F1DFC1D6F15FDF0101DE51DC
:1060C000F324006EDF51F420016E00C0F3FF01C025
:1060D000F4FF00D01200E0C1E6FFE1C1E6FFE2C13B
:1060E000E6FF43EC67F0E552E552E55227C0DCF1EC
:1060F00028C0DDF1E0C1D9F1E1C1DAF1E2C1DBF1A3
:1061000083DFF3CF03F0F4CF04F0056A0101E0511F
:106110000324006EE1510420016EE2510520026E5D
:1061200000C027F001C028F002C029F000D0120002
:106130000101B851170DF3CF08FAF4CF09FA000E98
:106140000A010827010E0923080E0101B9250A01D9
:106150000A6F000E0101BA210A010B6F08CAE9FF9C
:1061600009CAEAFF0C0EE926000EEA22EECF56FE1F
:10617000EDCF57FE07EC48F0F3CF00FAF4CF01FA69
:1061800008CAE9FF09CAEAFF0A0EE926000EEA2258
:10619000EECF56FEEDCF57FE07EC48F0F3CF02FAF4
:1061A000F4CF03FA0ACA56FE0BCA57FE07EC48F0B2
:1061B000F3CF04FAF4CF05FA0A01066B076BC8C0E7
:1061C0000CFAC9C00DFACAC00EFACBC00FFA08CA41
:1061D000E9FF09CAEAFFEECF10FAEECF11FAEECFCF
:1061E00012FAEFCF13FA146B110E156F0ACA16FAD2
:1061F0000BCA17FA16CA56FE17CA57FE07EC48F024
:10620000F3CF16FAF4CF17FA0C0E0E015E6F5F6B28
:106210000E010C0E5C6F0A0E5D6F2EEC48F0F3CF92
:1062200006FAF4CF07FA0A01061F071F0001290E1C
:10623000726F0F0E736F50EC4BF00ACAEBF30BCA80
:10624000ECF30301110EEA6F08CAE9FF09CAEAFF7D
:10625000E9CFE8F3EACFE9F3C9EC61F0080E0001F9
:10626000896F8A6B0001000E876F0A0E886F4DECF4
:106270004DF000013D0E746F0F0E756F5EEC4BF02C
:10628000F3CF18FAF4CF19FA0ACA7AF00BCA7BF0E6
:10629000ABEC4BF0F3CF1AFAF4CF1BFA0A011A5108
:1062A0001B1102E11A691B6918CA74F019CA75F04A
:1062B0005EEC4BF00001430E726F0F0E736F50ECEB
:1062C0004BF0020E0001896F8A6B00011A0E876F76
:1062D0000A0E886F4DEC4DF014EC4BF00101B96BD8
:1062E000BA6B040150691200E3C1B8F10101E35136
:1062F0000401515D03E0F36AF46A14D00101C1A105
:1063000005D0C1910101D16BD26BCCDD0101BF5130
:10631000BB5D006EBC51C055016E00C0F3FF01C0F3
:10632000F4FF00D012000101BB51BF5DBC51C05948
:1063300004E2B8510401515D02E0000E0DD012ECF0
:106340004DF0E4C1E9FFE5C1EAFFEF6E0101BF2BAB
:10635000000EC023010E00D012000101BB51BF5D31
:10636000BC51C05904E2B8510401515D03E0F36A25
:10637000F46A2FD00101BF51BB5D0A01096F010111
:10638000C051BC590A010A6F0101E8510A01095DB7
:106390000101E9510A010A5904E209CAE8F10ACAED
:1063A000E9F1E8C184F0E9C185F0E6C182F0E7C116
:1063B00083F015EC4DF0F3CFE8F1F4CFE9F10101F2
:1063C000E851BF27E951C023E8C1F3FFE9C1F4FF59
:1063D00000D012000101C1B309D0D2EC49F0010193
:1063E000BB6BBC6B040151690101C1831200010147
:1063F000BB6BBC6B080E0001846F856B0001000E47
:10640000826F0A0E836F15EC4DF000CA56FE01CA6A
:1064100057FE07EC48F0F3CF00FAF4CF01FA02CAB6
:1064200056FE03CA57FE07EC48F0F3CF02FAF4CF4A
:1064300003FA04CA56FE05CA57FE07EC48F0F3CF2C
:1064400004FAF4CF05FA0A01080E045F000E055B9A
:106450000651071155E0EAC1E9FFEBC1EAFFEECFB3
:1064600009FAEECF0AFAEECF0BFAEFCF0CFAECC135
:10647000E9FFEDC1EAFFEECF0DFAEECF0EFAEECF57
:106480000FFAEFCF10FA116B110E126FEEC113FA63
:10649000EFC114FA13CA56FE14CA57FE07EC48F0AF
:1064A000F3CF13FAF4CF14FA0C0E0E015E6F5F6B8C
:1064B0000E01090E5C6F0A0E5D6F2EEC48F0F3CFF3
:1064C00015FAF4CF16FA0A01151F161F0301ED6B1A
:1064D000EE6B3DEC62F0EEC17AF0EFC17BF0ABEC1D
:1064E0004BF0F3CF17FAF4CF18FA0A011751151928
:1064F00002E11851161904E0D2EC49F0000E23D045
:10650000ECC1F4F1EDC1F5F1EAC1F2F1EBC1F3F147
:106510000101000EF06F0A0EF16F16D80A01086F24
:10652000FF0E085D05E1D2EC49F0000E0CD009D059
:1065300008CA51F404CABBF105CABCF10101C1810A
:10654000C193010E00D01200F2C1E9FFF3C1EAFFCE
:10655000EE500001C81909E1EE50C91906E1EE50EC
:10656000CA1903E1EE50CB1900E102E1FF0EA7D0FA
:106570000A011A69000E1B6F010E1C6F196B080EC1
:10658000195D62E21BCAE9FF1CCAEAFF0C0EE9268C
:10659000000EEA22EECF00F0EFCF01F0F0C1E9FFEC
:1065A000F1C1EAFF020EE926000EEA22EECF02F068
:1065B000EFCF03F00250001802E1035001183DE153
:1065C0001BCAE9FF1CCAEAFF0A0EE926000EEA22EE
:1065D000EECF00F0EFCF01F0F0C1E9FFF1C1EAFF2B
:1065E000EECF02F0EFCF03F00250001802E10350AB
:1065F000011821E1F2C1E9FFF3C1EAFFEECF00F09B
:10660000EECF01F0EECF02F0EFCF03F01BCAE9FFAF
:106610001CCAEAFFEE500001001809E1EE50011813
:1066200006E1EE50021803E1EE50031800E103E129
:106630000A01195144D019CA1AFA0A01170E1B2768
:10664000000E1C23192B9BD7FF0E1A5D35E01A5143
:10665000170DF3CF1BFAF4CF1CFA000E1B27010E07
:106660001C230A0EE66EE66AF2C1E6FFF3C1E6FFFE
:106670001BCAE9FF1CCAEAFFE9CF00F0EACF01F02C
:1066800000C0E6FF01C0E6FFCDEC66F0026E060E2C
:10669000E15E0250F0C1E9FFF1C1EAFFEECF00F088
:1066A000EFCF01F01BCAE9FF1CCAEAFF0A0E00C0C7
:1066B000EBFF0B0E01C0EBFF0A011A5100D01200D4
:1066C0009CEC38F0FB0EDBCFF3FFDB06F350000948
:1066D0000AE0EAEC38F0FA0E55EC39F0F3E1011C6F
:1066E000F1E1010E01D0000ECBEF38F09CEC38F058
:1066F0003B0EE12402E3E168E652E16E010EDB6A43
:10670000020EDB6AF90EDBCFF6FFFA0EDBCFF7FFE6
:10671000FB0EDBCFF8FF0800F550DF6EDF5002E123
:10672000EFEF37F0250EDF5C02E0E2EF37F0030E0B
:10673000DB6A040EDB6A050EDB6A060EDB6A070EF7
:10674000DB6A04EC38F02D0EDF5C0CE02B0EDF5C16
:1067500009E0200EDF5C06E0230EDF5C03E0300E74
:10676000DF5C1AE1DF50300A14E0130A0FE0030A7D
:106770000AE00B0A05E0060AE4E1030EDB80E1D73C
:10678000030EDB82DED7030EDB84DBD7030EDB8652
:10679000D8D7030EDB88D5D72A0EDF5C1BE100ECCF
:1067A00038F04EEC38F010E0030EDB8028682968E2
:1067B000130EDBCF2DF0140EDBCF2EF0B9EC54F01E
:1067C000040E26C0DBFF03D0130E37EC38F004ECC8
:1067D00038F00BD0090EDB6AA5EC38F003E019ECB9
:1067E00039F0FAD7090E37EC38F0030EDBB0DB983E
:1067F0002E0EDF5C1BE104EC38F02A0EDF5C0BE1AF
:1068000000EC38F04EEC38F003E1130E89EC38F070
:1068100004EC38F00BD0090EDB6AA5EC38F003E08D
:1068200019EC39F0FAD7090E89EC38F0680EDF5C04
:1068300007E104EC38F0680EDF5C1DE1030E18D0B0
:10684000740EDF5C17E07A0EDF5C14E0480EDF5C4C
:1068500006E0540EDF5C03E05A0EDF5C02E1020E3C
:1068600007D06C0EDF5C03E06A0EDF5C04E1010E12
:10687000DCEC38F0C9DBDF506E0A01E17FD31E0A81
:1068800001E192D1200A01E18FD13F0A01E149D112
:106890001A0A01E146D10D0A01E143D1200A01E1C2
:1068A00040D13A0A01E13DD1200A01E13AD1260A5C
:1068B00001E135D10D0A01E132D11A0A01E1D9D045
:1068C000200A4AE0300A1FE0460A0EE0250A01E0ED
:1068D00083D3D950F90FE96EFF0EDA20EA6E010E6C
:1068E000EE5E000EEE5AEE5AEAEC38F0250EE66E39
:1068F00095DB03E1011C01E169D3E6EC38F001E22C
:106900006BD3DB2A69D3080EDB6A040EDB50010867
:1069100006E2040EDB04AEEC38F0DB508BDB080E35
:10692000DB5009E0030EDB50010B05E172DB01E0F7
:106930004DD3080EDB6A64DBEFCFDFFF5EEC39F08E
:1069400003E1011C01E142D3E6EC38F001E3DB2A6C
:1069500060DB01E141D33AD3070EDB5002080FE1BF
:106960002AEC39F0030EF1EC38F00E0EEECFDBFF1F
:106970000F0EEECFDBFF100EEECFDBFF20D0F70EB9
:10698000DBCF03F0F80EDBCF04F0020E035E000E47
:10699000045AF70E03C0DBFFF80E04C0DBFF03C090
:1069A000E9FF04C0EAFFE1EC38F0026A0E0E00C015
:1069B000DBFF0F0E01C0DBFF100E02C0DBFF0E0E6F
:1069C000DBCFE6FF0F0EDBCFE6FF100EDBCFE6FFDF
:1069D00043EC67F0E552E552E552130E27C0DBFFAA
:1069E000140E28C0DBFF060EDB5005E0130E25EC6D
:1069F00039F001E26ADB49EC39F002E2130E37DBD1
:106A00000CEC39F006E0040E25EC39F002E2050E3C
:106A10002EDB030EDBB005D0FCDA01E0D7D2080E86
:106A2000DB6A090EDB6A0E0EDBCFF6FF0F0EDBCF43
:106A3000F7FF100EDBCFF8FF0800F550DF6EDF50D8
:106A400014E04FEC39F011E25EEC39F003E1011C87
:106A500001E1BCD2BBDB01E3DB2A090EDB2AD95002
:106A60000E0FE96E000ECBDBE7D7D3DA01E1B4D22B
:106A7000ADD2C6DA110EEECFDBFF120EEDCFDBFF8B
:106A8000110EDBCFE6FF120EDBCFE6FF35EC67F031
:106A9000E552E552130EF3CFDBFF140EF4CFDBFF0C
:106AA000060EDB5004E0130ED0DB01E20EDB49ECF6
:106AB00039F002E2130EDBDAAFDB05E0040EC5DBD2
:106AC00002E2050ED4DA030EDBB005D0A2DA01E053
:106AD0007DD2080EDB6A090EDB6A110EDBCFE9FFFF
:106AE000120EDBCFEAFFEFCFDFFFDF5014E0D7DB82
:106AF00012E2E4DB03E1011C01E168D267DB01E3A0
:106B0000DB2A090EDB2A110EDB2ADBCFE9FF120E8E
:106B1000E8E3DB2AE6D77DDA01E15ED257D2030E45
:106B2000DB8E070EDB0410E195DB040E5ADB0A0E48
:106B3000EECFDBFF0B0EEECFDBFF0C0EEECFDBFF5D
:106B40000D0EEECFDBFF6CD0070EDB5003082CE1FF
:106B5000030EDBAE0DD0B2DA020E76DAEFCF00F024
:106B6000016A026A036A00AE39D00168026835D052
:106B7000F70EDBCF01F0F80EDBCF02F0020E015E64
:106B8000000E025AF70E01C0DBFFF80E02C0DBFF59
:106B900001C0E9FF02C0EAFFEFCF00F00A0E00C01B
:106BA000DBFF0B0EDB6A38D0070EDB50020809E171
:106BB000030EDBAE04D059DB02AE10D00ED055DB95
:106BC0000DD0030EDBAE12D079DA020E3DDAF9DA1F
:106BD000026A036A01AE02D002680368E2DA0C0EB0
:106BE00002C0DBFF0D0E03C0DBFF1AD0F70EDBCFB8
:106BF00002F0F80EDBCF03F0020E025E000E035A25
:106C0000F70E02C0DBFFF80E03C0DBFF02C0E9FF96
:106C100003C0EAFFD6DAC5DA0C0EDB6A0D0EDB6ABA
:106C2000060EDB5005E1010EF36E050EF3CFDBFF20
:106C3000150EDB6A160EDB6AD950370F006E000E98
:106C4000DA20016E390E00C0DBFF3A0E01C0DBFF17
:106C5000380EDB6A080EDB6A0A0EAEDADF50780AFD
:106C600012E0200A10E0280A0CE0200A0AE03F0A9D
:106C700006E00D0A02E0200A08E1020E05D0080E27
:106C800003D0080EDF26100E97DA030EDBBE02D00B
:106C9000DB92DB94DB50800B24E08ADAD890030E81
:106CA000EB50000A08E6000EEE5C000EEE58000EF7
:106CB000EE58000EEE5815E213DA2B682C682D689A
:106CC0002E683FEC6DF00A0E22C0DBFF0B0E23C0D6
:106CD000DBFF0C0E24C0DBFF0D0E25C0DBFF2D0EED
:106CE00008D0030EDBA202D02B0E03D0DBA408D009
:106CF000200EF36E170EF3CFDBFF150EDB2A02D04A
:106D0000170EDB6A050EDB5003E1B7D901E189D02C
:106D1000240E006EDD0E016E000E026E070EDBCF3C
:106D200003F0046A056A066A03C02BF004C02CF065
:106D300005C02DF006C02EF0D3D9F9EC6DF000504F
:106D40002224F36E01502320F46E02502420F86EAA
:106D5000F4CFF7FFF3CFF6FF0800090EF5CFDBFF06
:106D6000580EDF5C0FE1610EF36E090E7BD90AE36A
:106D7000200E006E090EDBCFE7FF0050E75E090E24
:106D8000E7CFDBFF070EDBCF00F0016A026A036A80
:106D90000FDA00C02BF001C02CF002C02DF003C0B0
:106DA0002EF0EECF26F0EECF27F0EECF28F0EFCF8B
:106DB00029F0F9EC6DF029C0EDFF28C0EDFF27C0E8
:106DC000EDFF26C0EFFF390EDBCFE9FFDB063A0E01
:106DD000DBCFEAFF01E2DB06090EDBCFEFFF150E8A
:106DE000DB2A4BD995E1030EDBA61DD06F0EDF5CCD
:106DF00006E1C1D918E3150EDB285BDA14D0780E52
:106E0000DF5C09E0580EDF5C06E0620EDF5C03E049
:106E1000420EDF5C08E1020EF36E160EF3CFDBFFCD
:106E200002D0150EDB6A030EDB50100B0EE0040ED1
:106E3000DBCF00F0050EDB50D880005406E2060ED2
:106E4000DB5003E1040EDB5034DA95D90AE2050E7B
:106E5000DBCFE7FF150EDB50E75E050EE7CFDBFF6C
:106E600002D0050EDB6A040EDBCF00F0160E45D90A
:106E7000D880005414E2160EDBCFE6FF150EDBCFF0
:106E8000E6FF040EDBCFE6FF050EDB50E552E75CC4
:106E9000E552D880E754E552D880E7545FD9030E15
:106EA000DB50010B0BE1080EDB5008E0B2D801E02B
:106EB0008DD0080EDB50BED8080EDB6A170EDB50F3
:106EC00007E088D9170EF1D903E1011C01E17ED05A
:106ED000160EDB5016E07ED9300EE66E9FD802E12A
:106EE000011C74E077D9DFCFE6FFFDEC6CF0E552D2
:106EF000E552E552F4CF01F00001F31C02E1011C60
:106F000065E0050EDBCF00F0160EDB50D880005494
:106F100009E2050EDBCFE7FF160EDB50E75E050E3C
:106F2000E7CFDBFF300EE66E050ECBD94FE1390E11
:106F3000DB2ADBCFE9FF3A0E01E3DB2ADBCFEAFFF6
:106F4000090EEFCFDBFFDB500EE044D9090EADD9BF
:106F500002E1011C3BE0390EDB2ADBCFE9FF3A0EF0
:106F6000EDE3DB2AEBD755D831E1160EDBCFE6FF98
:106F7000080EC3D8E552E7245DD82ED0070EDB50AB
:106F8000030A1CE0010A14E0030A07E07BD9DBCF07
:106F9000EEFF020EDBCFEDFF1FD0F5D8056A03AE82
:106FA00002D0046805682CD8BCD805C0EEFF14D008
:106FB000EAD803BE046824D8B4D80ED063D9DBCF96
:106FC000EFFF0AD07BD905E1011C03E1F368F46807
:106FD00010D0FCD801E3DB2A79D98BEF33F0010E16
:106FE000DBCF00F0020EDBCF01F000C0F3FF01C0E9
:106FF000F4FF3B0EE15C02E2E16AE552E16ECBD0C8
:1070000029D9020EF1EF38F061D90800F550DF6E92
:107010001200200EE66E080E61EF39F0FDEC6CF008
:10702000E552E552E552F3CF00F0F4CF01F0000154
:10703000F31C1200006E016AD950010F4DD90050A7
:10704000EE260150ED221200045E000E055AF70EE6
:1070500004C0DBFFF80E05C0DBFF04C0E9FF05C07C
:10706000EAFF1200DBCFF4FFF350F45C1200DB50B8
:10707000E76E040EE7CFDBFF12000A0EDBCF00F055
:107080000B0EDBCF01F00C0EDBCF02F00D0EDBCFD1
:1070900003F000500110021003101200130EEECF87
:1070A000DBFF140EEDCFDBFF130EDBCF00F0140E71
:1070B000DBCF01F00001800E01141200F70EDBCFD0
:1070C00004F0F80EDBCF05F01200050EDB50E66E83
:1070D000D950130F01D9E552E750EE6EED6A120058
:1070E0000A0EDBCF26F00B0EDBCF27F00C0EDBCF2A
:1070F00028F00D0EDBCF29F01200DBCFE6FF150ED6
:10710000DBCFE6FF050EDB50E552E724E552E7242E
:107110001200DB50CED8010EF36E060EF3CFDBFF6C
:107120001200EE50EFCFEAFFE96E02C0EEFF03C09F
:10713000EEFF04C0EEFF1200D9CFE6FFDACFE6FF84
:10714000E1CFD9FFE2CFDAFF1200DFCFE6FFE66A38
:1071500049EC6EF0E552E552F3501200E76E080E6E
:10716000E7CFDBFF1200EECF00F0EECF01F0EFCF64
:1071700002F0036A1200050EDBCF00F0150EDB50A3
:10718000D88000541200010EDBCF02F0020EDBCFDC
:1071900003F0046A1200E552E5CFDAFFE7CFD9FF2A
:1071A00012000A0E00C0DBFF0B0E01C0DBFF120055
:1071B000D9500A0F6CEF39F0F36E070EF3CFDBFFF7
:1071C0001200EECF00F0EFCF01F01200010EDB2A2B
:1071D000020E1200FC0EDBCFE6FFFD0EDBCFE6FF5A
:1071E0001200005E000E015AF70E00C0DBFFF80E21
:1071F00001C0DBFF00C0E9FF01C0EAFF1200DA2096
:10720000EA6EEF2AEECFF6FF000EEF22EECFF7FF89
:10721000EF22EECFF8FF1200040EDBCFE6FF130ED5
:10722000DB50E552E75C9ADFDB5004DF060EDB50F3
:107230001200090EDB500A0DF350DF24D00FE76E69
:10724000090EE7CFDBFF04EF38F0DB50F36E050EDD
:1072500032EF38F0F70EDBCF00F0F80EDBCF01F0A5
:107260001200DFCFE6FF0EEF38F028DF030EECDE72
:10727000B3EF38F060EC33F0E552E552E552E552F9
:1072800000091200BDDEEE50EFCFEAFFE96E010EFD
:107290001200130EDB50F36E040E32EF38F0040EC2
:1072A000DB50F36E090E32EF38F0DBCFE6FF0EEF66
:1072B00038F0E76E050EE7CFDBFF12008BDF31EF12
:1072C00039F0DBCFE6FF86DF3AEF39F0D950F90F1E
:1072D000E96EFF0EFFEF38F0E96E000EDA20EA6E7D
:0272E00012009A
:0E72E2000F015F510CE1010E5F6F0A01006B9E
:1072F000010E005D05E20201CF690A01002BF8D7FB
:10730000FF0E0201CF5D06E0CFC2CEF1F7EC2EF00A
:107310000201CF69010ED06FD16BD189D1831200E8
:10732000FF0E0201CF5D06E0CFC2CEF1F7EC2EF0EA
:107330000201CF69D06B12000201D05103E1010EAE
:10734000D06FD19112000201D05102E1000E01D0A4
:10735000010E00D012000201D151010B00D0120029
:107360000201D1A303D0D193010E02D0000E00D0B0
:1073700012000201D151080B01E0010E00D01200F1
:107380000A01216B010E215D01E340D20201D051BF
:10739000080A01E1E4D1020A01E1E1D1060A01E1B2
:1073A000DED10B0A01E1B7D10E0A01E1B4D1020A24
:1073B00001E1B1D10D0A01E167D1030A01E1E3D096
:1073C000010A01E1A1D0070A6EE0010A1FE0030AE9
:1073D00004E0010A01E017D216D2430E0101C96F81
:1073E000CA6B440E0101C76FC86B0101C66B010176
:1073F000C26BC36BC46BC56BD1EC2BF00201CF6FBA
:10740000FF0ECF5D01E1FFD1020ED06F3C0ED66FB3
:10741000D76BD86BD96BF26BD191D195A6EC49F0B3
:10742000000901E1F0D1CFC2D3F163EC2FF0F3CF2B
:1074300000F0F4CF01F02C0E005C010E015801E2C7
:10744000E2D10201D1790A0EE66EE66AE668CF5112
:10745000170DF3CFE9FFF4CFEAFF000EE926010E86
:10746000EA22E9CF00F0EACF01F000C0E6FF01C058
:10747000E6FF1BEC67F0026E050EE15E02500201B2
:10748000FB6B0201010EFA6FC1DBE4EC6AF026C06F
:10749000D2F227C0D3F228C0D4F229C0D5F202011B
:1074A000030ED06FB0D1CFC2E3F174EC31F0F3CF63
:1074B00000F0F4CF01F0FA0E005C000E01581BE260
:1074C000E4EC6AF00201D251265C006ED3512758D9
:1074D000016ED4512858026ED5512958036EE40E1E
:1074E000005C3D0E0158010E0258000E035802E3E5
:1074F000020ED06F88D10201D18789D9020801E03C
:1075000082D10201040ED06FCFC2D3F163EC2FF011
:10751000F3CF00F0F4CF01F0020E005C010E015831
:1075200001E271D10A0EE66EE66AE6680201CF5109
:10753000170DF3CFE9FFF4CFEAFF000EE926010EA5
:10754000EA22E9CF00F0EACF01F000C0E6FF01C077
:10755000E6FF1BEC67F0026E050EE15E02500201D1
:10756000FB6B0201030EFA6F51DBE4EC6AF026C0FC
:10757000D2F227C0D3F228C0D4F229C0D5F202013A
:10758000050ED06F40D1CFC2E3F174EC31F0F3CFF0
:1075900000F0F4CF01F0FA0E005C000E01581BE27F
:1075A000E4EC6AF00201D251265C006ED3512758F8
:1075B000016ED4512858026ED5512958036EE40E3D
:1075C000005C3D0E0158010E0258000E035802E304
:1075D000020ED06F18D11BD9060A51E0030A01E050
:1075E00052D0CFC2CEF1F7EC2EF00201CF69E4EC1D
:1075F0006AF026C0D2F227C0D3F228C0D4F229C044
:10760000D5F20201060ED06FD183D181F2A108D04C
:10761000DEC2C8F0DFC2C9F0E0C2CAF0E1C2CBF0FE
:10762000F2A508D0E6C2CCF0E7C2CDF0E8C2CEF0B9
:10763000E9C2CFF0F2A308D0E2C2D0F0E3C2D1F0A9
:10764000E4C2D2F0E5C2D3F0F2A708D0EAC2D4F087
:10765000EBC2D5F0ECC2D6F0EDC2D7F00001D86B8A
:10766000D96BDA6BDB6B0201F2A908D0EEC2D8F05D
:10767000EFC2D9F0F0C2DAF0F1C2DBF004D00201BF
:10768000020ED06F00D0BFD0E4EC6AF00201D251FC
:10769000265C006ED3512758016ED4512858026ED3
:1076A000D5512958036EF20E005C9E0E0158000E53
:1076B0000258000E035801E2A6D0020ED65D000E5D
:1076C000D759000ED859000ED9590CE3F20ED22723
:1076D0009E0ED323000ED423D523D607D75BD85BC9
:1076E000D95B91D0430E0101C96FCA6B440E0101F1
:1076F000C76FC86B0101C66B0101C26BC36BC46B62
:10770000C56BD1EC2BF00201CF6FFF0ECF5D01E115
:107710007AD0070ED06FCFC2D3F163EC2FF0F3CF46
:1077200000F0F4CF01F0020E005C010E015801E2FE
:107730006AD00201010EFB6F0201030EFA6F66DAD6
:107740000201D195E4EC6AF026C0D2F227C0D3F250
:1077500028C0D4F229C0D5F20201D02B54D0CFC218
:10776000E3F174EC31F0F3CF00F0F4CF01F0FA0E56
:10777000005C000E015827E2E4EC6AF00201D251ED
:10778000265C006ED3512758016ED4512858026EE2
:10779000D5512958036EE40E005C3D0E0158010ED0
:1077A0000258000E03580EE3D02B0C0EE76ED019D2
:1077B000E8AE02D0D03503D0E750D880D05502E2F1
:1077C000020ED06F20D023D8060A18E0030A01E089
:1077D00019D0CFC2CEF1F7EC2EF00201CF69E4EC64
:1077E0006AF026C0D2F227C0D3F228C0D4F229C052
:1077F000D5F20201060ED06FD18304D00201020E31
:10780000D06F00D000D00A01212BBCD512000A0194
:10781000036B0101000EE46F0A0EE56F93EC31F08B
:10782000020E0A01005D01E0C7D11C0E0101D16FFB
:10783000D26B52EC2FF00A01016B060E015D14E2CF
:107840000101000EE46F0A0EE56F93EC31F00A01BE
:107850000151EA6AF50FE96E000EEA22EF50005D71
:1078600001E0CFD1012BE9D70201D1B513D0100E21
:107870000101D16FD26B52EC2FF0040E0101E86FC1
:10788000E96B0101DE0EE66F020EE76FADEC31F041
:107890000201F281F00E0101D16FD26B52EC2FF098
:1078A0000A01046B0101000EE46F0A0EE56F93EC10
:1078B00031F0000904E10A01010E046F7DD10A01D3
:1078C0000051330A01E10AD1CC0A01E104D1C90A0D
:1078D00001E1D7D0300A01E190D0050A50E0020A58
:1078E00020E0340A01E050D10101000EE46F0A0EDD
:1078F000E56F93EC31F00A01000511E10101030E7F
:10790000E46F0A0EE56F93EC31F00201D151040BE4
:1079100005E0020E0A01035D01E173D101D071D1CE
:1079200047D10101000EE46F0A0EE56F93EC31F0D0
:10793000040E0A01005D21E10201D1A510D00A0167
:10794000016B040E015D0AE20101000EE46F0A0EF4
:10795000E56F93EC31F00A01012BF3D70DD0040E43
:107960000101E86FE96B0101E60EE66F020EE76FB9
:10797000ADEC31F00201F28501D043D119D1010102
:10798000020EE46F0A0EE56F93EC31F0040E0A016B
:10799000025D21E30201D1A510D00A01016B040EA2
:1079A000015D0AE20101000EE46F0A0EE56F93EC3F
:1079B00031F00A01012BF3D70DD0040E0101E86F5D
:1079C000E96B0101E20EE66F020EE76FADEC31F0FC
:1079D0000201F28301D015D1040E0A01025F0A01EF
:1079E00002510207000908E00101000EE46F0A0ECF
:1079F000E56F93EC31F0F3D7DBD00101020EE46FB9
:107A00000A0EE56F93EC31F0040E0A01025D01E20B
:107A1000F8D00201D1B510D0040E0101E86FE96B76
:107A20000101EA0EE66F020EE76FADEC31F00201E4
:107A3000F287040E0A01025F040E0A01025D13E3DD
:107A40000201D1B510D0040E0101E86FE96B01010C
:107A5000EE0EE66F020EE76FADEC31F00201F28937
:107A6000040E0A01025F0A0102510207000908E040
:107A70000101000EE46F0A0EE56F93EC31F0F3D7CD
:107A800097D00101000EE46F0A0EE56F93EC31F020
:107A9000040E0A01005D1DE10101080EE46F0A0EEB
:107AA000E56F93EC31F00101070EE46F0A0EE56F0C
:107AB00093EC31F00101060EE46F0A0EE56F93ECD2
:107AC00031F00101050EE46F0A0EE56F93EC31F021
:107AD00001D097D06DD0010E046F6AD00101000E65
:107AE000E46F0A0EE56F93EC31F0040E0A01005DBD
:107AF00049E10201D1A510D00A01016B040E015D1C
:107B00000AE20101000EE46F0A0EE56F93EC31F01A
:107B10000A01012BF3D735D00101D90EE46F020E13
:107B2000E56F93EC31F00101D80EE46F020EE56FC2
:107B300093EC31F00101D70EE46F020EE56F93EC88
:107B400031F00101D60EE46F020EE56F93EC31F0D7
:107B5000D6C200F0D7C201F0D8C202F0D9C203F0F9
:107B6000050ED8900332023201320032E806F9E104
:107B700000500201D65F0150D75B0250D85B035022
:107B8000D95B01D03ED014D00101020EE46F0A0E81
:107B9000E56F93EC31F00A0102510207000908E099
:107BA0000101000EE46F0A0EE56F93EC31F0F3D79C
:107BB0000A01045101E176D6020E035D0BE105CA0C
:107BC000DAF206CADBF207CADCF208CADDF2020109
:107BD000D18512D0DA0EE96E020EEA6EEE5005196A
:107BE00009E1EE50061906E1EE50071903E1EE50E7
:107BF000081900E101E0036BEAEC31F00A010351DE
:107C000004D0EAEC31F0000E00D012000101010EA8
:107C1000D46F98EC2FF00101010ED46F98EC2FF087
:107C20000101060ED46F98EC2FF00101D46B98EC93
:107C30002FF00101120ED46F98EC2FF00101230EEA
:107C4000D46F98EC2FF00101340ED46F98EC2FF024
:107C50000101560ED46F98EC2FF00101D46B98EC13
:107C60002FF00101D46B98EC2FF00201D151100BD1
:107C700002E0000E01D0800E0101D46F98EC2FF0CD
:107C80000101D46B98EC2FF0030E0201FA5D0EE1B6
:107C9000FB510CE0040E0101D76FD86B0101DE0E21
:107CA000D56F020ED66FBDEC2FF010D00101D46B52
:107CB00098EC2FF00101D46B98EC2FF00101D46BFC
:107CC00098EC2FF00101D46B98EC2FF00A011C6B9B
:107CD0000C0E1C5D07E20101D46B98EC2FF00A0139
:107CE0001C2BF6D7060E0101D76FD86B0101F50EDC
:107CF000D56F000ED66FBDEC2FF00A011C6BCA0EBB
:107D00001C5D07E20101D46B98EC2FF00A011C2BDB
:107D1000F6D70101630ED46F98EC2FF00101820EAB
:107D2000D46F98EC2FF00101530ED46F98EC2FF024
:107D30000101630ED46F98EC2FF00101350ED46F62
:107D400098EC2FF00101010ED46F98EC2FF0FAC2DD
:107D5000D4F198EC2FF00201FA0501E1D195030E60
:107D6000FA5D1CE1FB511AE10101360ED46F98EC6B
:107D70002FF00101040ED46F98EC2FF0DDC2D4F186
:107D800098EC2FF0DCC2D4F198EC2FF0DBC2D4F1E8
:107D900098EC2FF0DAC2D4F198EC2FF00101370EF5
:107DA000D46F98EC2FF00101040ED46F98EC2FF0F3
:107DB0000101010ED46F98EC2FF00101030ED46F76
:107DC00098EC2FF00101060ED46F98EC2FF0010112
:107DD0000C0ED46F98EC2FF0030E0201FA5D02E155
:107DE000FB5107E0FA051AE1DE51DF11E011E11164
:107DF00015E00101320ED46F98EC2FF00101040E52
:107E0000D46F98EC2FF0040E0101D76FD86B0101ED
:107E1000DE0ED56F020ED66FBDEC2FF00101D469D6
:107E200098EC2FF001012C0EB95D010EBA5905E254
:107E30000101D46B98EC2FF0F5D7C8C01DFAC9C06A
:107E40001EFACAC01FFACBC020FA0201FB5105E19D
:107E50000001C86BC96BCA6BCB6B98EC30F01DCAC4
:107E6000C8F01ECAC9F01FCACAF020CACBF012005F
:107E700004014CA102D0000E03D04C81010E00D0B1
:107E80001200FF0E04014B5D06E04BC4CEF1F7EC8F
:107E90002EF004014B69070E4D6F4C914C51020BB3
:107EA00001E0010E00D012000E01060E426F030E1B
:107EB000436F10C340FE11C341FE5FEC45F0000963
:107EC00005E004014C83070E4D6F0DD010C300F385
:107ED00011C301F30301026B036B046B04014D6BCF
:107EE00012C305F34C9312000E01060E476F030EEA
:107EF000486F13C344FE14C345FE15C346FE37EC5A
:107F000046F0000905E004014C83070E4D6F0ED0CA
:107F10000301006B016B13C302F314C303F315C316
:107F200004F304014D6B16C305F34C9312000401D6
:107F30004D51060A01E18CD3010A01E174D3020A12
:107F400001E1F0D0010A01E179D0070A5CE0010A01
:107F50001FE0030A06E0010A01E0B6D303011F6B2C
:107F6000206B0301D40E606F000E616F4CEC5BF070
:107F700003011F2BE4EC6AF026C019F327C01AF3A3
:107F800028C01BF329C01CF30401020E4D6F9CD3C3
:107F900003010A0E646F030E656F0301D40E626F56
:107FA000000E636F90EC5BF0000922E1E4EC6AF0F4
:107FB00003011951265C006E1A512758016E1B519E
:107FC0002858026E1C512958036ED880F20E0054B6
:107FD0009E0E0154000E0254000E035408E2030EDC
:107FE0001F5D02E3060E01D0010E04014D6F6CD33C
:107FF000D4C006F3D5C007F3D6C008F3D7C009F341
:108000000401030E4D6F350E0101C96FCA6B0101EA
:10801000C76BC86B0101040EC66F0101060EC26F6B
:10802000030EC36FC46BC56BD1EC2BF004014B6F17
:10803000FF0E4B5D01E148D3040E4D6F4BC4D3F1ED
:1080400063EC2FF0F3CF00F0F4CF01F000500110FB
:1080500001E13AD303011D2B000E1E231EC3D4F1F0
:1080600098EC2FF01DC3D4F198EC2FF00101010E14
:10807000D46F98EC2FF00101D46B98EC2FF0010134
:10808000D46B98EC2FF00101010ED46F98EC2FF017
:108090000101D46B98EC2FF00101D46B98EC2FF018
:1080A0000101D46B98EC2FF00101D46B98EC2FF008
:1080B0000101D46B98EC2FF00101D46B98EC2FF0F8
:1080C00003010051011106E000C321F301C322F3B3
:1080D000FEDA07D002C323F303C324F304C325F35A
:1080E0004EDB0101D46B98EC2FF005C3D4F198EC72
:1080F0002FF00101D46B98EC2FF00101010ED46F29
:1081000098EC2FF098EC30F0E4EC6AF026C019F30C
:1081100027C01AF328C01BF329C01CF30401050E65
:108120004D6FD2D24BC4E3F174EC31F0F3CF00F0D9
:10813000F4CF01F0005001101DE1E4EC6AF00301FE
:108140001951265C006E1A512758016E1B51285890
:10815000026E1C512958036ED880F20E00549E0EF8
:108160000154000E0254000E035403E20401060EF3
:108170004D6FAAD20101200EE46F0A0EE56F93EC59
:1081800031F001011F0EE46F0A0EE56F93EC31F040
:1081900003011D510A011F1904E103011E510A01C7
:1081A000201903E0EAEC31F08FD20101220EE46FD6
:1081B0000A0EE56F93EC31F00101210EE46F0A0E17
:1081C000E56F93EC31F00101240EE46F0A0EE56FC8
:1081D00093EC31F00101230EE46F0A0EE56F93EC8E
:1081E00031F00101260EE46F0A0EE56F93EC31F0D9
:1081F0000101250EE46F0A0EE56F93EC31F00101E9
:10820000280EE46F0A0EE56F93EC31F00101270EA2
:10821000E46F0A0EE56F93EC31F001012A0EE46F72
:108220000A0EE56F93EC31F00101290EE46F0A0E9E
:10823000E56F93EC31F00A0123CA00F024CA01F083
:108240002307000E245B005001101EE000DB01013B
:108250001E0EE46F0A0EE56F93EC31F001011D0E66
:10826000E46F0A0EE56F93EC31F001011E0EE46F2E
:108270000A0EE56F93EC31F001011D0EE46F0A0E5A
:10828000E56F93EC31F0D7D70A0125CA00F026CA72
:1082900001F02507000E265B0050011001E18BD094
:1082A000D6DA01012C0EE46F0A0EE56F93EC31F083
:1082B00001012B0EE46F0A0EE56F93EC31F0010122
:1082C0002E0EE46F0A0EE56F93EC31F001012D0ED6
:1082D000E46F0A0EE56F93EC31F00101320EE46FAA
:1082E0000A0EE56F93EC31F00101310EE46F0A0ED6
:1082F000E56F93EC31F00101300EE46F0A0EE56F8B
:1083000093EC31F001012F0EE46F0A0EE56F93EC50
:1083100031F00101340EE46F0A0EE56F93EC31F099
:108320000101330EE46F0A0EE56F93EC31F00A01A0
:10833000010E2B1901E12C512AE1010E2D1901E149
:108340002E5125E1040E331901E1345120E10401DD
:108350004C830101060EE46F030EE56F93EC31F0E0
:108360000101070EE46F030EE56F93EC31F001019C
:10837000080EE46F030EE56F93EC31F00101090E76
:10838000E46F030EE56F93EC31F043D113D00A0193
:1083900033CA00F034CA01F03307000E345B0050DA
:1083A000011008E001011C0EE46F0A0EE56F93EC6A
:1083B00031F0EDD769D70A0127CA00F028CA01F0C9
:1083C0002707000E285B0050011001E18BD03FDA37
:1083D00001012C0EE46F0A0EE56F93EC31F0010100
:1083E0002B0EE46F0A0EE56F93EC31F001012E0EB7
:1083F000E46F0A0EE56F93EC31F001012D0EE46F8E
:108400000A0EE56F93EC31F00101320EE46F0A0EB3
:10841000E56F93EC31F00101310EE46F0A0EE56F68
:1084200093EC31F00101300EE46F0A0EE56F93EC2E
:1084300031F001012F0EE46F0A0EE56F93EC31F07D
:108440000101340EE46F0A0EE56F93EC31F0010187
:10845000330EE46F0A0EE56F93EC31F00A01010E62
:108460002B1901E12C512AE1010E2D1901E12E51A8
:1084700025E1040E331901E1345120E104014C835C
:108480000101060EE46F030EE56F93EC31F001017C
:10849000070EE46F030EE56F93EC31F00101080E57
:1084A000E46F030EE56F93EC31F00101090EE46F08
:1084B000030EE56F93EC31F0ACD013D00A0133CA50
:1084C00000F034CA01F03307000E345B0050011095
:1084D00008E001011C0EE46F0A0EE56F93EC31F029
:1084E000EDD769D70A0129CA00F02ACA01F0290785
:1084F000000E2A5B0050011001E18BD0A8D90101C8
:108500002C0EE46F0A0EE56F93EC31F001012B0E97
:10851000E46F0A0EE56F93EC31F001012E0EE46F6B
:108520000A0EE56F93EC31F001012D0EE46F0A0E97
:10853000E56F93EC31F00101320EE46F0A0EE56F46
:1085400093EC31F00101310EE46F0A0EE56F93EC0C
:1085500031F00101300EE46F0A0EE56F93EC31F05B
:1085600001012F0EE46F0A0EE56F93EC31F001016B
:10857000340EE46F0A0EE56F93EC31F00101330E17
:10858000E46F0A0EE56F93EC31F00A01010E2B192E
:1085900001E12C512AE1010E2D1901E12E5125E1B5
:1085A000040E331901E1345120E104014C8301012F
:1085B000060EE46F030EE56F93EC31F00101070E38
:1085C000E46F030EE56F93EC31F00101080EE46FE8
:1085D000030EE56F93EC31F00101090EE46F030E19
:1085E000E56F93EC31F015D013D00A0133CA00F0D7
:1085F00034CA01F03307000E345B0050011008E06C
:1086000001011C0EE46F0A0EE56F93EC31F0EDD71B
:1086100069D7EAEC31F04BC4CEF1F7EC2EF004014F
:108620004B69070E4D6F4CB305D00301066B076B0A
:10863000086B096B17C3E9FF18C3EAFF06C3EEFF17
:1086400007C3EEFF08C3EEFF09C3EEFF010E3ED0E5
:10865000020E0301205D0AE317C3E9FF18C3EAFF16
:10866000EE6AEE6AEE6AEE6A010E30D0202B00014F
:10867000D851D911DA11DB1126E0D851D41BD951C8
:10868000D51BDA51D61BDB51D71BD451D81BD55182
:10869000D91BD651DA1BD751DB1BD851D41BD9516A
:1086A000D51BDA51D61BDB51D71B03011F6BFF0E05
:1086B00004014B5D06E04BC4CEF1F7EC2EF0040153
:1086C0004B69010E4D6F00D0000E00D0120021C387
:1086D00000FA22C301FA0A0100CAE9FF01CAEAFF4F
:1086E000002B000E0123EFCF02FA02510CE02E0EF8
:1086F000025D09E02F0E025D06E02C0E025D03E034
:108700003E0E025DE8E1030121510A01005D006EA9
:10871000015103012255016E0006000E015A00C0EE
:1087200003FA03CAD4F198EC2FF00A0103510101B6
:10873000D76FD86B21C3D5F122C3D6F1BDEC2FF092
:10874000F3CF00F0F4CF01F0010E0026000E01225D
:10875000005003012127015022230A01025109E0A0
:108760002F0E025D06E02C0E025D03E03E0E025D60
:1087700001E101D0B0D70101D46B98EF2FF023C3F2
:1087800000FA24C301FA25C302FA0A0100CAF6FF5F
:10879000002B01CAF7FF000E012302CAF8FF0223D3
:1087A0000800F5CF03FA03510CE02E0E035D09E03B
:1087B0002F0E035D06E02C0E035D03E03E0E035D0D
:1087C000E4E1230EE96E030EEA6EEE50005D006EEA
:1087D000EE500159016EEE500259026E0006000E75
:1087E000015A025A00C004FA04CAD4F198EC2FF0DE
:1087F0000A0104510101DC6FDD6B23C3D9F124C3ED
:10880000DAF125C3DBF104EC30F0F3CF00F0F4CF64
:1088100001F0010E0026000E0122026A0050030141
:10882000232701502423025025230A01035109E084
:108830002F0E035D06E02C0E035D03E03E0E035D8C
:1088400001E101D0A2D70101D46B98EF2FF0010113
:10885000000EE46F0A0EE56F93EC31F0000901E1C0
:108860001AD0C00E0A010015C00808E10101000E6F
:10887000E46F0A0EE56F93EC31F00DD0005101E189
:108880000AD000510101E86FE96B0101E66BE76B6B
:08889000ADEC31F0DCD7120061
:0888980047C421FA48C422FA8A
:1088A00049C423FA4AC424FA0E013C513D113E1139
:1088B0003F1105E1010E3C6F3D6B3E6B3F6B3CCEC3
:1088C00047F43DCE48F43ECE49F43FCE4AF40A0187
:1088D000256B100E255D04E20DD80A01252BF9D772
:1088E00021CA26F022CA27F023CA28F024CA29F078
:1088F00000D012000A014A6B0F0E4A5D38E247C4ED
:1089000000F048C401F049C402F04AC403F0D89012
:10891000033202320132003247C404F048C405F089
:1089200049C406F04AC407F0010E0416056A066A37
:10893000076A000E046C051E0522061E0622071E8D
:108940000722010E0416056A066AD00E07160050AB
:1089500004180401476F01500518486F02500618AB
:10896000496F035007184A6F0A014A2BC5D747C4FD
:10897000F3FF48C4F4FF00D01200C2CF0FFAC0CFFB
:1089800010FAD5CF11FAD6CF13FAD7CF12FA010EBB
:10899000C26E3F0EC06E880ED56E0A01006B0A01D2
:1089A000076B086B096B0A6B0A01056B066BA2DF8C
:1089B000F3CF0BFAF4CF0CFA0A010D6B0E6BD76AEA
:1089C000D66AC2820400C2B2FED7D6CF03FAD7CF8E
:1089D00004FA90DFF3CF01FAF4CF02FA0A0103514F
:1089E0000A0107270A0104510A010823000E09237E
:1089F0000A231A0E0A01075DF20E08599E0E095944
:108A0000000E0A590FE376DFF3500A010B1BF450F6
:108A10000A010C1B6FDFF3500A010D1BF4500A0111
:108A20000E1B39D00A0103510A01051904E10A019C
:108A300004510A01061901E1C2D70A0103510A01D2
:108A4000055D006E06510A010455016E0A010A0116
:108A5000015100240E013C6F0A010A01025101205C
:108A60000E013D6F0E013E6B3F6B16DF03CA05FA28
:108A700004CA06FA0A01D8900B370C370D370E37A7
:108A800039DFF350800B02E00A010B810A01002B51
:108A900001E101D094D70FCAC2FF10CAC0FF12CAA9
:108AA000D7FF13CAD6FF11CAD5FF0BCA26F00CCACE
:108AB00027F00DCA28F00ECA29F000D012000A01D2
:108AC000056B066B006B016B026B036B0E0140CEF6
:108AD000E9FF41CEEAFF402B000E4123EFCF04FA1D
:108AE000EF5001E18CD00A010651030801E287D062
:108AF000300E045F055106E10451090802E2000E40
:108B0000B5D071D0030E055D36E1FE0E045D02E0C6
:108B1000000EACD0D880050E0055050E0155020E92
:108B20000255000E035502E2000EA0D00A0E01030A
:108B3000F3CF02F0640E0203F35002240025E66E28
:108B400042CEE9FF43CEEAFFE9CF00F0EACF01F0E1
:108B50000651062B0F010024E96E000E0120EA6E7B
:108B6000E552E750EF6E0A01056B006B016B026B7B
:108B7000036BACD738D0FE0E045D30E1D880050E13
:108B80000055050E0155020E0255000E035502E276
:108B9000000E6CD00A0E0103F3CF02F0640E020344
:108BA000F35002240025E66E42CEE9FF43CEEAFFF1
:108BB000E9CF00F0EACF01F00651062B0F010024A7
:108BC000E96E000E0120EA6EE552E750EF6E0A01F1
:108BD000056B006B016B026B036B78D704510908BE
:108BE00002E2000E43D00A01052B02CA03FA01CAB1
:108BF00002FA00CA01FA006B04CA00FA67D70A0138
:108C0000045111E02F0E045D0EE00D0E045D0BE02B
:108C10000A0E045D08E0200E045D05E0090E045D07
:108C200002E0000E23D0D880050E0055050E015538
:108C3000020E0255000E035502E2000E17D00A0E76
:108C40000103F3CF00F0640E0203F350002400256B
:108C5000E66E42CEE9FF43CEEAFF030EE926000EA0
:108C6000EA22E552E750EF6E010E00D012000A0131
:108C7000056B066B006B016B026B036B0E0144CE40
:108C8000F6FF442B45CEF7FF000E452346CEF8FFF6
:108C900046230800F5CF04FAF55001E18CD00A0113
:108CA0000651030801E287D0300E045F055106E14A
:108CB0000451090802E2000EB5D071D0030E055D23
:108CC00036E1FE0E045D02E0000EACD0D880050E49
:108CD0000055050E0155020E0255000E035502E225
:108CE000000EA0D00A0E0103F3CF02F0640E0203BF
:108CF000F35002240025E66E47CEE9FF48CEEAFF96
:108D0000E9CF00F0EACF01F00651062B0F01002455
:108D1000E96E000E0120EA6EE552E750EF6E0A019F
:108D2000056B006B016B026B036BA8D738D0FE0E8E
:108D3000045D30E1D880050E0055050E0155020E88
:108D40000255000E035502E2000E6CD00A0E01031C
:108D5000F3CF02F0640E0203F35002240025E66E06
:108D600047CEE9FF48CEEAFFE9CF00F0EACF01F0B5
:108D70000651062B0F010024E96E000E0120EA6E59
:108D8000E552E750EF6E0A01056B006B016B026B59
:108D9000036B74D70451090802E2000E43D00A01A4
:108DA000052B02CA03FA01CA02FA00CA01FA006BD3
:108DB00004CA00FA63D70A01045111E02F0E045DC2
:108DC0000EE00D0E045D0BE00A0E045D08E0200EBF
:108DD000045D05E0090E045D02E0000E23D0D8809A
:108DE000050E0055050E0155020E0255000E0355E5
:108DF00002E2000E17D00A0E0103F3CF00F0640E5A
:108E00000203F35000240025E66E47CEE9FF48CE6A
:108E1000EAFF030EE926000EEA22E552E750EF6E64
:108E2000010E00D012000A01056B0E0149514A11D2
:108E30004EE00A01006B100E036F270E046F050E43
:108E4000005D44E249CE28F04ACE29F003CA2DF055
:108E500004CA2EF01DEC6EF028C001FA29C002FAF7
:108E60000A010151021102E1055120E0300E0125F5
:108E7000E66E0E014BCEE9FF4CCEEAFF4B2B000E07
:108E80004C23E552E750EF6E01CA28F002CA29F0E0
:108E900003CA2DF004CA2EF032EC53F026500E0116
:108EA000495F27504A5B0A01010E056F0A0E2D6EBD
:108EB0002E6A03CA28F004CA29F01DEC6EF028C0FF
:108EC00003FA29C004FA0A01002BB9D709D04BCE06
:108ED000E9FF4CCEEAFF4B2B000E4C23300EEF6E19
:108EE0004BCEE9FF4CCEEAFFEF6A12000E014E5165
:108EF000460802E2200E4E5F4D51460802E2200E67
:108F00004D5F4E51390803E2370E4E5F02D0300EEE
:108F10004E5F4D51390803E2370E4D5F02D0300EDF
:108F20004D5F4E39F00B4D1100D012000E014F393C
:108F30000F0B4F6F4F51090804E2410E4F25F60FFA
:108F400002D0300E4F2500D012000F0E0E01501728
:108F50005051090804E2410E5025F60F02D0300EA0
:108F6000502500D0120051CEE9FF52CEEAFFEFCFDC
:108F700000FA53CEF6FF54CEF7FF55CEF8FF0800A7
:108F8000F5CF01FA0A01005134E0015132E0610EDF
:108F9000005D05E300517A0802E3200E005F610ED8
:108FA000015D05E301517A0802E3200E015F0151E2
:108FB000D880005502E2010E29D00151005D02E285
:108FC000FF0E24D00E01512B000E5223532B54239D
:108FD000552351CEE9FF52CEEAFFEFCF00FA53CE30
:108FE000F6FF54CEF7FF55CEF8FF0800F5CF01FA93
:108FF000C9D70151D880005502E2010E07D00151B6
:10900000005D02E2FF0E02D0000E00D0120056CE2C
:1090100088FA57CE89FA89CA8AFA88CA89FA8ACA26
:1090200088FA88CAF3FF89CAF4FF00D012000E0143
:109030005B51581B58515B1B5B51581B5A51591BB4
:1090400059515A1B5A51591B58CE26F059CE27F068
:109050005ACE28F05BCE29F000D012005ECE88FAFE
:109060005FCE89FA0A01D890893388335CCE8AFAB8
:109070005DCE8BFA8C6B8D6B8E6B8F6B88CA00F01C
:1090800089CA01F08807000E895B0050011018E0C2
:109090008ACAE9FF8BCAEAFF020E8A27000E8B23D9
:1090A000EECF00F0EFCF01F0000100500A018C2755
:1090B000000101500A018D23000E8E238F23DED77D
:1090C0000E015E51010B0EE08ACAE9FF8BCAEAFF6E
:1090D000EFCF00F0000100500A018C27000E8D2315
:1090E0008E238F238CCA00F08DCA01F0026A036AB6
:1090F0008ECA04F08FCA05F0066A076A005004247D
:109100000A018C6F015005208D6F025006208E6F72
:10911000035007208F6F8E518C278F518D238CCA5F
:1091200000F08DCA01F0001E011E00C0F3FF01C057
:10913000F4FF00D0120064CE60FE65CE61FE66CE04
:1091400062FE67CE63FE68CE00FA080E0A01005D7B
:109150000EE363CE01FA62CE63FE61CE62FE60CEA4
:1091600061FE01CA60FE080E0A01005FEED70A0127
:1091700000510BE00E01D89063BFD8806037613793
:10918000623763370A010007F2D760CE26F061CE5E
:1091900027F062CE28F063CE29F000D012000F0E27
:1091A0000E01EA6A6925E96E6A51EA22EF6A69CE20
:1091B000E6FF6ACEE6FF95EC67F0E552E5520A015C
:1091C000006B0F0E005D1CE200510E01EA6A69257A
:1091D000E96E6A51EA22EF5010E10F0E0A01005DBC
:1091E0000BE20051002B0E01EA6A6925E96E6A5113
:1091F000EA22200EEF6EF1D703D00A01002BE1D74F
:1092000012000E016DCE00F06ECE01F06D07000E63
:109210006E5B005001101EE06BCEE9FF6CCEEAFFE2
:109220006B2B000E6C23EFCF00FA0A01005103E113
:10923000F36AF46A12D00E016F510A01005D09E170
:109240000E016B07000E6C5B6BCEF3FF6CCEF4FF70
:0C92500004D0D7D7F36AF46A00D01200F3
:04925C00FC0E92165C
:109260000E01FE8B0E01FDA1FDD70001646B000114
:1092700064810001606B616B0E01E86BE96B0E01AC
:10928000190EEC6F0E010F0EED6F0E01190EEA6F45
:109290000F0EEB6F0E011A0EE46F0F0EE56F0E014D
:1092A0001A0EE26F0F0EE36F0001866BF1DB0E0109
:1092B0000D0EA06F00000E01320EA26F00000E0115
:1092C000120EA46F00000E01400EA36F00000E01ED
:1092D000120EA66F00000E010C0EA76F00000E010B
:1092E000EE0EAA6F00000E01050EAB6F0000F5C078
:1092F00084FE0000F6C085FE0000F7C082FE00007C
:10930000F8C083FE0000F9C080FE0000FAC081FEB4
:1093100000000001100E926F010E936F0001100EFD
:10932000916F9CEC4DF00001720E926F340E936FB2
:109330000001140E916F9CEC4DF00001926B936B49
:109340000001916B9CEC4DF0D28412000001010EE3
:10935000906FDADBF3CF00F0F4CF01F000010050A2
:10936000040B01E0010E00D01200D2B602D0010EB3
:1093700018D0E4EC6AF000016551265C006E66517D
:109380002758016E026A036A7A0E005C000E0158CB
:10939000000E0258000E035802E3D29645D9000E83
:1093A00000D01200000164B132D0648160C03FFA85
:1093B00061C040FA0A01010E3F5F000E405B3FCAE8
:1093C00000F040CA01F0026A036A005C000E015816
:1093D000000E0258000E035810E33FCA04F040CAC2
:1093E00005F0066A076AD880190E04540F0E05545A
:1093F000000E0654000E075404E2190E3F6F0F0EC4
:10940000406F0E01FE8D3FCAECFE40CAEDFE120019
:10941000D9CE74FAEECE76FAEFCE77FA0A0174510D
:109420000E01D95DF5E1ECCE74FAEDCE75FA0A01C4
:109430007651745D7751755920E2190E046E0F0E46
:10944000056E066A076A7451765D086E7751755528
:10945000096E0A6A0B6A0850045C006E09500558D0
:10946000016E0A500658026E0B500758036E00C07A
:10947000F3FF01C0F4FF1BD01AD07451761902E13A
:109480007551771906E1190EF36E0F0EF46E0FD0B9
:109490000ED07651745D006E75517755016E0006E1
:1094A000000E015A00C0F3FF01C0F4FF00D012000B
:1094B0000E01D95102E1000E87D000016483000142
:1094C00064B103D06FDF000E7FD060C062F061C076
:1094D00063F062C07AFF63C07BFF140E0001846FEB
:1094E000856B0001000E826F0A0E836F9EDA12CA2E
:1094F00056FE13CA57FE07EC48F0F3CF12FAF4CF2A
:1095000013FA00CA00F001CA01F0026A036AD880A7
:10951000190E00540F0E0154000E0254000E035495
:109520001BE30A010A010051010B16E10A010A01BD
:109530000551800B11E10A010A010451100B0CE1E5
:109540000A01EE0ED8800255050E035505E30A0107
:109550000A010451800B01E1FF0000CA60F001CA5A
:1095600061F0060EE66EE66A0C0EE66E0A0EE66E18
:1095700067C0E9FF68C0EAFFE9CF00F0EACF01F079
:1095800000C0E6FF01C0E6FFCDEC66F0026E060EFD
:10959000E15E025069C0E9FF6AC0EAFFEF68080EA9
:1095A0000A01135D0DE10A01125104E0060E0A01E1
:1095B000125D06E169C0E9FF6AC0EAFF12CAEFFF67
:1095C00000016491010E00D012000E011B0EE26F2B
:1095D0000F0EE36F280E00016E270F0E6F236EC073
:1095E000E6FE6FC0E7FE060E0001896F8A6B6BC056
:1095F00087F06CC088F051DA060E0001896F8A6B23
:109600000001F50E876F000E886F47DA0001080E23
:10961000866F3EDA00016D5102E1000E01D0060EA8
:109620000001866F48EF4DF0D28ED29E0A01080EDF
:10963000746F74517407000901E0FBD76092D28601
:10964000E4EC6AF026C065F027C066F01200140E44
:109650000001016A6225006E6351012200507025ED
:109660000A014E6F0150000171210A014F6F4ECA6D
:1096700000F04FCA01F0026A036AD880190E005444
:109680000F0E0154000E0254000E035404E21A0E91
:109690004E5F0F0E4F5B4ECA7AFF4FCA7BFF120020
:1096A000E2CE86FAE3CE87FA72C0E2FE73C0E3FE32
:1096B00086CAF3FF87CAF4FF00D012007ACF86FA79
:1096C0007BCF87FA74C07AFF75C07BFF86CAF3FF31
:1096D00087CAF4FF00D01200140E0001016A62254F
:1096E000006E63510122005076250A01166F015069
:1096F000000177210A01176F16CA00F017CA01F09E
:10970000026A036AD880190E00540F0E0154000E2D
:109710000254000E035404E21A0E165F0F0E175B7C
:109720007ACF18FA7BCF19FA16CA7AFF17CA7BFFCD
:1097300078C07AF079C07BF00ED8F3CF16FAF4CF68
:1097400017FA18CA7AFF19CA7BFF16CAF3FF17CA9D
:10975000F4FF00D012000A01766B776B786B796B9F
:109760007ACF74FA7BCF75FA00017A517B1152E0FF
:10977000140ED8807A55000E7B5505E20A01140EAE
:109780007A6F7B6B04D07AC07AFA7BC07BFA7ACA94
:1097900084F07BCA85F000017C0E826F0A0E836F15
:1097A00044D90A017A5100017A5F0A017B51000114
:1097B0007B5B0A017AA10AD07C0E7A25E96E0A0E3B
:1097C0007B21EA6EEF6A7A2B000E7B237C0E906F72
:1097D0000A0E916F7A517B111CE090CAE9FF91CA81
:1097E000EAFF020E9027000E9123EECF00F0EFCF9C
:1097F00001F0000100500A017627000101500A0122
:109800007723000E78237923020E7A5F000E7B5BAC
:10981000E1D7AAD774CA7AFF75CA7BFF76CA00F06F
:1098200077CA01F0026A036A78CA04F079CA05F0BF
:10983000066A076A005004240A01766F0150052069
:10984000776F02500620786F03500720796F7851A8
:1098500076277951772376CA00F077CA01F0001E87
:10986000011E00C0F3FF01C0F4FF00D012000A0186
:109870008A6B8B6B00017C1D01E17D1D07E10A01F4
:10988000010E8A6FE2CE7CF0E3CE7DF000017E1DFA
:1098900001E17F1D07E10A01010E8B6F7ACF7EF097
:1098A0007BCF7FF00001010ED8808055000E8155DE
:1098B0002EE37ACF86FA7BCF87FAE2CE88FAE3CE20
:1098C00089FA7EC07AFF7FC07BFF7CC0E2FE7DC04C
:1098D000E3FE000180C000F081C001F08007000EAF
:1098E000815B0050011005E09DD80001866FD0D843
:1098F000F0D70A018B5104E186CA7AFF87CA7BFF41
:109900008A5104E188CAE2FE89CAE3FE83D00A01D3
:109910008A510EE000017C5180250A01886F000108
:109920007D5181210A01896F88CAE2FE89CAE3FE5E
:109930007EC000F07FC001F00006000E015A00500A
:109940000001802701508123D2BAFED77EC0F0FEED
:109950007FC0F1FE7CC0F4FE7DC0F5FE7EC000F04D
:109960007FC001F0026A036AD880190E00540F0EFE
:109970000154000E0254000E035415E380C004F09D
:1099800081C005F0066A076AD880190E04540F0ECC
:109990000554000E0654000E075405E21A0E00018D
:1099A000805F0F0E815B80C0F2FE81C0F3FED29813
:1099B000D28AD2BAFED70A018B512CE00001802B4B
:1099C000000E81237EC000F07FC001F0026A036AAE
:1099D000D880190E00540F0E0154000E0254000ED0
:1099E000035414E380C004F081C005F0066A076ADE
:1099F000D880190E04540F0E0554000E0654000EA4
:109A0000075404E21A0E805F0F0E815B80C07AFF5C
:109A100081C07BFF1200D250200B200A01E0010E12
:109A200000D01200615000D0120084C0A0FA85C09E
:109A3000A1FA00018251831117E00A01A0CA00F0C7
:109A4000A1CA01F0A007000EA15B005001100BE0BD
:109A5000000182C0E9FF83C0EAFF822B000E83234E
:109A600061CFEFFFEAD70ED00A01A0CA00F0A1CA69
:109A700001F0A007000EA15B0050011003E061CFD0
:109A8000A2FAF2D784C0F3FF85C0F4FF00D0120021
:109A900086C0F3FFF3CF61FF1200000189C000F020
:109AA0008AC001F08907000E8A5B005001100DE0AA
:109AB000000187C0E9FF88C0EAFF872B000E8823DA
:109AC000EF50F36EF3CF61FFE8D7120000018EC0B4
:109AD00000F08FC001F08E07000E8F5B0050011068
:109AE00012E000018BC0F6FF8B2B8CC0F7FF000E3D
:109AF0008C238DC0F8FF000E8D230800F550F36E07
:109B0000F3CF61FFE3D7120090C0B4FE00000E0156
:109B1000010EB26F00000E018AB1FDD70E01B26BCB
:109B20000000B8CE00FA0000B9CE01FA00CAF3FF77
:109B300001CAF4FF00D0120091C0B4FE92C0F3FF3E
:109B400093C0F4FFC00EF2140A01006F3F0EF2162C
:109B5000F3CFB6FE0000F4CFB7FE0A010051F212B7
:109B60000E018AB1FDD71200D2940E01FDB5FDD7CA
:109B7000D2B6FED70E01FE9B12000E01FE8BFDB188
:089B800002D0D284FCD71200D0
:089B88000B01006B016B026B85
:109B9000036B046B056B066B076B086B096B0A6B39
:109BA0000B6B0C6B0D6B0E6B0F6B106B116B126BE9
:109BB000136B146B156B166B176B186B196B1A6B99
:109BC0001B6B1C6B1D6B1E6B1F6B206B216B226B49
:109BD000236B246B256B266B276B286B296B2A6BF9
:109BE0002B6B2C6B2D6B2E6B2F6B306B316B326BA9
:109BF000336B346B356B366B376B386B396B3A6B59
:109C00003B6B3C6B3D6B3E6B3F6B5E6B5F6BFE0E6D
:109C1000606F0401000E2E6F0B0E2F6F400E0401BB
:109C20002C6F2D6B0401800E286F29692A6B2B6B1A
:109C3000D3EC6DF00B0E0B015E6F5F6B0F0ED880D7
:109C40005E55000E5F552EE3000E5E25E96E0B0E8D
:109C50005F21EA6EEFCF00F0650E005C1EE2000EA1
:109C60005E25E96E0B0E5F21EA6EEF50E66E5ECB6D
:109C7000E9FF5FCBEAFF0B0EE95E000EEA5A010E28
:109C8000D890E936EA36E806FBE1B40EE926000E84
:109C9000EA22E552E750EE6EED6A0B015E2B000EF4
:109CA0005F23CCD7100E5E6F5F6B140ED8805E55AD
:109CB000000E5F552EE3000E5E25E96E0B0E5F2150
:109CC000EA6EEFCF00F0650E005C1EE2000E5E252E
:109CD000E96E0B0E5F21EA6EEF50E66E5ECBE9FF98
:109CE0005FCBEAFF100EE95E000EEA5A010ED89033
:109CF000E936EA36E806FBE1BE0EE926000EEA2266
:109D0000E552E750EE6EED6A0B015E2B000E5F230D
:109D1000CCD7150E5E6F5F6B190ED8805E55000EA6
:109D20005F552EE3000E5E25E96E0B0E5F21EA6E95
:109D3000EFCF00F0650E005C1EE2000E5E25E96EBE
:109D40000B0E5F21EA6EEF50E66E5ECBE9FF5FCB54
:109D5000EAFF150EE95E000EEA5A010ED890E936C8
:109D6000EA36E806FBE1AA0EE926000EEA22E552F1
:109D7000E750EE6EED6A0B015E2B000E5F23CCD731
:109D80003E0E406F410E416F4C0E426F530E436FBB
:109D90005E6B5F6B0B0E5E5D000E5F5922E25ECB69
:109DA000E9FF5FCBEAFF010ED890E936EA36E80614
:109DB000FBE1940EE926000EEA22EF50E66E040E57
:109DC0000B01EA6A5E25E96E5F51EA22400EE92640
:109DD0000B0EEA22E552E750EF6E5E2B000E5F237A
:109DE000D9D73C0E4F6F506B100E03019D6F9E6BC9
:109DF0000301400E9B6F0B0E9C6F60CB9AF301EF3B
:109E00004FF00C017E6B7F6B806B816B826B836B81
:109E1000846B856B866B876B640E886F896B3E0ED7
:109E20008A6F500E8B6F4C0E8C6F410E8D6F590EDA
:109E30008E6F4F0E8F6F4B0E906F3C0E916F926B2B
:109E4000936B3E0E946F530E956F540E966F4F0E9C
:109E5000976F500E986F4F0E996F4B0E9A6F3C0E86
:109E60009B6F9C6B9D6B3E0E9E6F560E9F6F4F0EB1
:109E7000A06F4C0EA16F4F0EA26F4B0EA36F3C0E46
:109E8000A46FA56BA66B410EA76F4C0EA86F530E67
:109E9000A96FAA6BAB6BAC6BAD6BAE6B500EAF6FBB
:109EA000570EB06F4D0EB16FB26BB36BB46BB56B39
:109EB000B66B3E0EB76F240EB86F3F0EB96F3C0EF7
:109EC000BA6FBB6BBC6BBD6BBE6B3E0EBF6F530EF0
:109ED000C06F4F0EC16F4B0EC26F3C0EC36FC46B91
:109EE000C56BC66B3E0EC76F500EC86F4C0EC96F68
:109EF000410ECA6F590ECB6F3C0ECC6FCD6BCE6B43
:109F00003E0ECF6F530ED06F540ED16F4F0ED26FE7
:109F1000500ED36F3C0ED46FD56BD66B560ED76FE9
:109F20004F0ED86F4C0ED96FDA6BDB6BDC6BDD6BD1
:109F3000DE6B866B876B873504E286510608000E60
:109F4000875530E386CC02F087CC03F0030ED8901F
:109F500002360336E806FBE1A70E02260C0E0322AA
:109F600002C0E6FF03C0E6FF9BC3E6FF9CC3E6FF1B
:109F700068EC67F0E552E552E552E552F3CF00F0A8
:109F8000F4CF01F00050011008E086CC88FC87CCAB
:109F900089FC070E0C01866F876B0C01862B000E67
:109FA0008723C9D7060E881901E1895101E1B0D094
:109FB000050E881901E1895101E18CD0040E881940
:109FC00001E1895164E0030E881901E189515AE0E9
:109FD000020E881901E1895128E0010E881901E17A
:109FE000895116E0885101E1895101E0B7D1010E94
:109FF0000F01546F556B9DC352FF9EC353FF9BC30C
:10A0000050FF9CC351FF9AC34FFFC4EC23F0A6D16D
:10A010009DC359FF9EC35AFF9BC357FF9CC358FF64
:10A020009AC356FF1EEC28F099D1010EE66EE66A3F
:10A03000E66EE66A000EE66EE66A010EE66EE66A17
:10A04000850EE66EDB0EE66E000EE66E000EE66E28
:10A050000C0EE66E0CEC6CF0006E0D0EE15E005026
:10A06000190E0201666F676B0201000E646F0C0E21
:10A07000656F9AC363F2CFEC04F09AC35FF207EC0A
:10A0800004F06CD10F011007000E115B67D10F01B6
:10A090001D5106E1010E1D6F0E01786F918E908C9F
:10A0A0008A0EE66E0C0EE66E35EC67F0E552E55270
:10A0B000F3CF66F2F4CF67F202018A0E646F0C0EE2
:10A0C000656F9AC363F2CFEC04F09AC35FF207ECBA
:10A0D00004F044D10F011D6B919E909C940EE66E8E
:10A0E0000C0EE66E35EC67F0E552E552F3CF66F202
:10A0F000F4CF67F20201940E646F0C0E656F9AC381
:10A1000063F2CFEC04F09AC35FF207EC04F026D1BF
:10A110009DC301F09EC302F0020E015E000E025AC2
:10A1200003019B510124E96E9C510220EA6EEFCF9E
:10A1300000F0000E005C01E210D19DC303F09EC34D
:10A1400004F0020E035E000E045A9B510324E96ED4
:10A150009C510420EA6EEF50640801E2FED09DC3DA
:10A1600000F09EC301F0020E005E000E015A9B51EA
:10A170000024E96E9C510120EA6EEF50000801E3D3
:10A18000B2D09DC30DF09EC30EF0020E0D5E000E08
:10A190000E5A9B510D24E96E9C510E20EA6EEFCFB2
:10A1A0000CF00CC029F0CAEC51F027C008F028C010
:10A1B00009F029C00AF02AC00BF008C0E6FF09C068
:10A1C000E6FF0AC0E6FF0BC0E6FFB1EC6CF0E5521B
:10A1D000E552E552E55226C004F027C005F028C03C
:10A1E00006F029C007F02C6A2D6AC80E2E6E420EAA
:10A1F0002F6E04C027F005C028F006C029F007C064
:10A200002AF02EEC52F027C000F028C001F029C03F
:10A2100002F02AC003F02C6A2D6A2E6A400E2F6EBF
:10A2200000C027F001C028F002C029F003C02AF0C6
:10A23000DBEC51F027C080FC28C081FC29C082FCE7
:10A240002AC083FC006A016A7F0E026E430E036E11
:10A250002C6A2D6A7F0E2E6E430E2F6E80CC27F057
:10A2600081CC28F082CC29F083CC2AF02EEC52F05D
:10A2700027C008F028C009F029C00AF02AC00BF056
:10A280002C6A2D6AC80E2E6E420E2F6E08C027F063
:10A2900009C028F00AC029F00BC02AF0DBEC51F00D
:10A2A00027C004F028C005F029C006F02AC007F036
:10A2B00004C02CF005C02DF006C02EF007C02FF012
:10A2C00000C027F001C028F002C029F003C02AF026
:10A2D0009BEC52F027C080FC28C081FC29C082FC86
:10A2E0002AC083FC07D00C01806B816B7F0E826FCC
:10A2F000430E836F80CC27F081CC28F082CC29F0EC
:10A3000083CC2AF099EC53F029C005F480CC27F0D7
:10A3100081CC28F082CC29F083CC2AF099EC53F040
:10A3200029C004F47AEC65F09E0EE66E0C0EE66E23
:10A3300035EC67F0E552E552F3CF66F2F4CF67F201
:10A3400002019E0E646F0C0E656F9AC363F2CFEC30
:10A3500004F09AC35FF207EC04F000D00C01866BA6
:10A36000876B1E0E87AF02D0D89003D0865D000E9B
:10A3700087590FE203019B510C018625E96E030109
:10A380009C510C018721EA6EEF6A862B000E872311
:04A39000E8D71200F8
:0CA39400219E05D0219E29AE02D0296C2C
:10A3A000218E29C023F0226A336A326A860E246E17
:10A3B000256ADCEF53F0216A18EC54F030EC54F0CD
:10A3C00021B6C0EF53F021A205D021BAC0EF53F05F
:10A3D000C7EF53F021BAD3EF53F021A005D021B835
:10A3E000C0EF53F0D3EF53F021B8C7EF53F0256A15
:10A3F0007F0E2A24246EE86A25222F50245EE86A04
:10A40000255A1A0E306E2A6A326A336A226A236A21
:10A410002C50275E2D50285A2E50295A000E2A5AA9
:10A4200009E72C5027262D5028222E502922000ED5
:10A430002A2201D0328AD8902736283629362A3661
:10A44000D8903236333622362336302EE1D7295093
:10A4500028102710D8A4328ADCEF53F0216A18ECB8
:10A4600054F030EC54F021B6C0EF53F021A205D0E7
:10A4700021B8C0EF53F0C7EF53F021AA05D021B0A7
:10A48000C0EF53F0C7EF53F021B002D021A802D0A3
:10A49000D3EF53F0256A2F502A24246EE86A252230
:10A4A0007E0E245EE86A255A326A336A226A236A7B
:10A4B0002E502902F4CF23F0F3CF22F02D502902A1
:10A4C000F3503326F4502222000E23222E5028026D
:10A4D000F3503326F4502222000E23222C5029025E
:10A4E000F3503226F4503322000E222223222D5024
:10A4F0002802F3503226F4503322000E2222232267
:10A500002E502702F3503226F4503322000E22221E
:10A5100023222C502802F4503226000E332222220D
:10A5200023222D502702F4503226000E33222222FD
:10A530002322DCEF53F02F7E216A18EC54F030EC2C
:10A5400054F021B6C0EF53F021A20AD021AA03D0C3
:10A5500021BEC0EF53F021A4CCEF53F0C9EF53F06C
:10A5600021AA05D021ACCCEF53F0C9EF53F021A0C4
:10A570000AD021A808D021BE04D021A402D0D5EF52
:10A5800053F0D9EF53F0326A256A2F502A5C316EAE
:10A5900010E327C033F028C022F029C023F02AC0DE
:10A5A00030F02CC027F02DC028F02EC029F0213A21
:10A5B00009D02CC033F02DC022F02EC023F02FC0C4
:10A5C00030F0316C219E21BC218E30C024F021B0AE
:10A5D00008EF54F01A0E316008EF54F0246A2A6A2A
:10A5E00021A408D0276C281E291E2A1EE86A2822CA
:10A5F00029222A2221AC08D0336C221E231E241EBD
:10A60000E86A222223222422266A315207E02A34D1
:10A610002932283227322632312EF9D727503326D5
:10A6200028502222295023222A50242226C032F0E8
:10A63000219E24AE0BD0326C331E221E231E241EFC
:10A64000E86A3322222223222422218E24A006D04B
:10A65000D8802332223233323232302A30C024F0D2
:10A66000DCEF53F028C032F028502D02F4CF27F051
:10A67000F3CF26F029502E02F4CF29F0F3CF28F0A3
:10A680002D02F3502726F4502822E86A292232505E
:10A690002E02F3502726F4502822E86A2922000CC3
:10A6A00029C033F028C032F027C031F027502C02E7
:10A6B000F4CF25F0F3CF24F028502D02F4CF27F06B
:10A6C000F3CF26F02C02F3502526F4502622E86A18
:10A6D000272231502D02F3502526F4502622E86A15
:10A6E000272229502C02F3502626F45027222950E5
:10A6F0002D02286AE86A2822F3502726F4502822DF
:10A7000031502E02F3502626F4502722296AE86A97
:10A710002822292232502E02F3502726F4502822D4
:10A72000E86A292233502E02F3502826F4502922B9
:10A73000000C216A18EC54F021B6A3EF53F021A2CB
:10A740000AD021B403D07F0E296E19D0800E296E55
:10A7500016D0296A14D021B0FCD7870E2A60F1D711
:10A760007E0E2A64F6D7860E2A5C04E0D890293241
:10A770002A2AF9D721A403D0296C29AEEAD71200DE
:10A780007F0E2A6EFF0E296E286E276E12007F0E36
:10A7900021BEFF0E2A6E02D07F0E2A6E800E296E19
:10A7A000286A276AF3D721AE04D0800E2A6E296A60
:10A7B000F7D72A6A296AF4D72350221033103210AF
:10A7C000F8E025BEF0D723BE0CD024502510EBE0D6
:10A7D000D89032363336223623362406D8A02506C2
:10A7E000F2D72550D4E12428D2E032AE11D07F0E2A
:10A7F000321402E133A00CD0332AE86A2222232249
:10A8000007E3D880233222323332242A2428BFE0BF
:10A810002450C9E033C027F022C028F02334296E29
:10A8200024302A6E29322A9E21BE2A8EC6EF53F08A
:10A8300029362A3602E32184217E06E121802A6A14
:10A84000296A286A276A12002A2803E0D880293258
:10A850001200D890293202E12182120021861200D2
:10A860002E362F3602E3218C217E06E121882F6AC5
:10A870002E6A2D6A2C6A12002F2803E0D8802E320F
:10A880001200D8902E32EAE1218A1200219E08D0CF
:10A89000219E29AE05D0286C291EE86A2922218E26
:10A8A00029C023F028C022F0336A326A8E0E246E4B
:10A8B000256ADCEF53F064EC54F021B6000C21B0B3
:10A8C000000C21B4000C010C216A18EC54F030EC9F
:10A8D00054F021B6120021AE08D021A004D021A846
:10A8E00002D021801200219012002F502A5C0BE12F
:10A8F0002E50295C08E12D50285C05E12C50275C86
:10A9000002E121801200D8A002D0218E10D02A505E
:10A910002FC02AF02F6E29502EC029F02E6E2850FD
:10A920002DC028F02D6E27502CC027F02C6E2F50F4
:10A930002A5C10E0FF0F09E0219021B403D021AE82
:10A940002184120021AE219412002F2AD8902E3299
:10A950002D322C322C50275E2D50285A2E50295A39
:10A9600029BEEAD7D8902736283629362A2EF8D796
:10A97000C8D729C033F028C032F028502D02F4CFB8
:10A9800027F0F3CF26F029502E02F4CF29F0F3CF91
:10A9900028F02D02F3502726F4502822E86A2922B5
:10A9A00032502E02F3502726F4502822E86A29223A
:10A9B0002EAEDFEF54F03250285E3350295A33AEBA
:0CA9C000000C2D50285E2E50295A000C6F
:04A9CC000B01626BAE
:10A9D0000F01010E1E1901E11F5104E11E6B1F6BD7
:10A9E000C4EC4DF00F011B511C110AE1010E1B6F4D
:10A9F0001C6B96C0FBF097C0FCF0AAEC67F00DD082
:10AA0000010E1B1901E11C5108E11B6B1C6B98C066
:10AA1000FDF099C0FEF01AEC68F00001010EA419D7
:10AA200001E1A55101E0DED00B01616B0B0E615D10
:10AA300017E26151E96EEA6AD890E936EA36940E77
:10AA4000E926000EEA22EF50E66E6151EA6A910FA4
:10AA5000E96E0B0EEA22E552E750EF6E612BE6D766
:10AA6000E4EC6AF00F011351265C006E1451275874
:10AA7000016E15512858026E16512958036EBC0EEE
:10AA8000005C270E0158000E0258000E035801E228
:10AA9000A9D0E4EC6AF026C013FF27C014FF28C039
:10AAA00015FF29C016FF0B01616B0B0E615D18E2EB
:10AAB0006151E96EEA6AD890E936EA36940EE926E1
:10AAC000000EEA22EF50E66E040E6125EA6A9C0F42
:10AAD000E96E0B0EEA22E552E750EF6E612BE5D7E7
:10AAE0000F011751181119111A1123E1010E176FD7
:10AAF000186B196B1A6B0B013E0E9C6F410E9D6F0C
:10AB00004C0E9E6F530E9F6F94C0A0FB96C0A1FB8E
:10AB100098C0A2FBA36BA46BA56BA66BA76BA4C08C
:10AB2000A8FBA6C0A9FBA8C0AAFB3C0EAB6FAC6BF0
:10AB30002CD0176B186B196B1A6B0B013E0E9C6FA8
:10AB4000410E9D6F4C0E9E6F530E9F6F616B0B0EEF
:10AB5000615D18E26151E96EEA6AD890E936EA3639
:10AB6000940EE926000EEA22EF50E66E040E6125EF
:10AB7000EA6A9C0FE96E0B0EEA22E552E750EF6E8F
:10AB8000612BE5D73C0EAB6FAC6B0F01546B556B73
:10AB9000100E0F01526F536B0F019C0E506F0B0E76
:10ABA000516F4DCF4FFFC4EC23F00B01616B0B0EC7
:10ABB000615D18E26151EA6A910FE96E0B0EEA22BB
:10ABC000EF50E66E6151E96EEA6AD890E936EA36EE
:10ABD000940EE926000EEA22E552E750EE6EED6A89
:10ABE000612BE5D70F014E51030A01E194D1010A0F
:10ABF00001E17BD0030A27E0010A01E095D10201BF
:10AC00004D6B22CF4BF223CF4CF20201010E4A6F63
:10AC10000201000E466F0F0E476F486B496B87ECC1
:10AC200002F00F014D6FFE0E4D5D01E17DD14E2B07
:10AC3000E4EC6AF026C034F427C035F428C036F4BA
:10AC400029C037F471D14DCF4FF26BEC03F00009FE
:10AC500022E1E4EC6AF004013451265C006E3551C7
:10AC60002758016E36512858026E37512958036E05
:10AC7000D880BA0E00541A0E0154030E0254000E6E
:10AC8000035408E24DCF50F277EC03F00F01FE0EB3
:10AC90004D6F4E0749D1E4EC6AF026C034F427C06A
:10ACA00035F428C036F429C037F44DCF60F21BECE0
:10ACB00004F0F3CF00F0F4CF01F07D0E005C000E45
:10ACC000015801E231D102016E0E726FDB0E736F1B
:10ACD000000E746F4DCF71F27EEC06F04DCF5FF237
:10ACE00007EC04F00F014E2B1FD14DCF4FF26BEC50
:10ACF00003F0000903E10F01030E4E6F4DCF77F211
:10AD0000EEEC06F0F3CFBAFBF4CFBBFB4DCF60F215
:10AD10001BEC04F0F3CFBCFBF4CFBDFB0B01BA512D
:10AD2000BC5DBB51BD5904E2BCCBBAFBBDCBBBFB88
:10AD3000200EBE6FBF6B636B646BBA51635DBB511A
:10AD4000645901E382D0200E016A6325006E6451CC
:10AD500001220050BA5D0150BB5906E26351BA5D51
:10AD6000BE6F6451BB59BF6FBECB7EF2BFCB7FF2CB
:10AD70000201670E7C6F0B0E7D6F4DCF7BF276EC80
:10AD800007F00B01656B666BBE51655DBF5166597F
:10AD900043E2670E6525E96E0B0E6621EA6EEF5001
:10ADA0003E0803E10F01010E4B6F0F014B5113E001
:10ADB000670E0B016525E96E0B0E6621EA6EEF50FA
:10ADC000E66E6251EA6A240FE96E0F0EEA22E5523E
:10ADD000E750EF6E622B670E0B016525E96E0B0ED7
:10ADE0006621EA6EEF503C0812E16251EA6A240FD4
:10ADF000E96E0F0EEA22EF6A0F01010E4C6FBECB17
:10AE000065FBBFCB66FBBACB63FBBBCB64FB0B0123
:10AE1000652B000E6623B8D70F014C5110E04C6B28
:10AE20004B6B0B01625103019D6F9E6B0301240E5E
:10AE30009B6F0F0E9C6F4DCF9AF301EC4FF0200EDD
:10AE40000B016327000E642378D7E4EC6AF0040159
:10AE50003451265C006E35512758016E3651285802
:10AE6000026E37512958036EBA0E005C1A0E015853
:10AE7000030E0258000E03582EE3E4EC6AF026C0DD
:10AE800034F427C035F428C036F429C037F4010E55
:10AE9000E66EE66A640EE66EDB0EE66E000EE66EA9
:10AEA000420EE66E0F0EE66E0CEC6CF0006E070EB6
:10AEB000E15E0050080E0201666F676B0201420EF0
:10AEC000646F0F0E656F4DCF63F2CFEC04F04DCF82
:10AED0005FF207EC04F00F0112051CE1E4EC6AF0EC
:10AEE00004013051265C006E31512758016E3251F9
:10AEF0002858026E33512958036E790E005C4F0EAC
:10AF00000158000E0258000E035804E30F01126BA3
:10AF10008D908E9009D04DCF50F277EC03F00F0159
:0AAF2000FE0E4D6F4E6B00D01200C4
:06AF2A00D9CFE6FFDACFEB
:10AF3000E6FFE1CFD9FFE2CFDAFF260EE12402E3FC
:10AF4000E168E652E16ED950050FE1D9AEEC69F047
:10AF5000006E060EE15C02E2E16AE552E16E00502D
:10AF6000DF6E800EDF5C05E00B0EDB5012E0DF04CD
:10AF700010E0210E04014E6F4F6B010EDB68020ED4
:10AF8000DB68030EDB687F0EF36E040EF3CFDBFF8E
:10AF90008FD1040EDF5C0EE13EDA010EEECFDBFF57
:10AFA000020EEECFDBFF030EEECFDBFF040EEECF83
:10AFB000DBFF7ED1DF0410E1210E04014E6F4F6BE9
:10AFC000010EDB6A020EDB6A800EF36E030EF3CF16
:10AFD000DBFF040EDB686CD1D9500C0F98D91CEC48
:10AFE00069F0006E060EE15C02E2E16AE552E16E94
:10AFF0000050FA0E26C0DBFFFB0E27C0DBFFFC0E65
:10B0000028C0DBFFFD0E29C0DBFFA6D9F30E2C6E96
:10B01000040E2D6E350E2E6E3F0E87D95BEC54F06C
:10B02000010A09E1B3D984D99BEC52F067D9EDD973
:10B0300084D9ACD916D00C0EDB060D0E01E2DB066E
:10B040008BD92C6A2D6A2E6A3F0E6FD976D9160ECF
:10B05000DBCF04F0170EDBCF05F0180EDBCF06F0C8
:10B06000190E66D92EEC52F049D9CFD99CEC52F08A
:10B070001A0E27C0DBFF1B0E28C0DBFF1C0E29C0E9
:10B08000DBFF1D0E2AC0DBFF160EDBCF27F0170EED
:10B09000DBCF28F0180EDBCF29F0190EDBCF2AF01A
:10B0A0001A0EDBCF2CF01B0EDBCF2DF01C0EDBCFEE
:10B0B0002EF01D0EDBCF2FF0DBEC51F01FD9120E5E
:10B0C00027C0DBFF130E28C0DBFF140E29C0DBFFF7
:10B0D000150E2AC0DBFF4DD9120EDBCF2CF0130E5C
:10B0E000DBCF2DF0140EDBCF2EF0150E62D90E0E35
:10B0F00027C0DBFF0F0E28C0DBFF100E29C0DBFFCF
:10B10000110E2AC0DBFF3D0EF36E1E0EF3CFDBFFE8
:10B110007E0EF36E1F0EF3CFDBFF0D0EF36E200ECF
:10B12000F3CFDBFFBF0EF36E210EF3CFDBFF0E0E6E
:10B13000DBCF00F00F0EDBCF01F0100EDBCF02F003
:10B14000110EDBCF03F03A0E2C6E3F0E2D6ED40E97
:10B150002E6EC00EEAD89CEC52F0220E27C0DBFF08
:10B16000230E28C0DBFF240E29C0DBFF250E2AC0DA
:10B17000DBFF0E0EDBCF27F00F0EDBCF28F0100E1B
:10B18000DBCF29F0110EDBCF2AF01E0EDBCF2CF027
:10B190001F0EDBCF2DF0200EDBCF2EF0210E09D9B4
:10B1A000220EDBCF2CF0230EDBCF2DF0240EDBCFD5
:10B1B0002EF0250EDBCF2FF0DBEC51F007D9120E6D
:10B1C000DBCF00F0130EDBCF01F0140EDBCF02F06B
:10B1D000150EDBCF03F0CDD8010EDBCF2CF0020E25
:10B1E000DBCF2DF0030EDBCF2EF0040EE2D827C00C
:10B1F00004F028C005F029C006F02AC007F078D86E
:10B20000046A800E056E310E066E3F0E076EC9D8B9
:10B2100027C008F028C009F029C00AF02AC00BF0A6
:10B22000CCD8E1D82EEC52F069D8830E146E800E83
:10B23000156E5E0E166EB90E176EB3D827C018F0D5
:10B2400028C019F029C01AF02AC01BF0B6D814C0C3
:10B2500027F015C028F016C029F017C02AF02EECF0
:10B2600052F027C010F028C011F029C012F02AC0F7
:10B2700013F0010EDBCF1CF0020EDBCF1DF0030E2E
:10B28000DBCF1EF0040EDBCF1FF01CC02CF01DC066
:10B290002DF01EC02EF01FC02FF09CEC52F027C0E6
:10B2A0000CF028C00DF029C00EF02AC00FF020D8F5
:10B2B000010EDBCF00F0020EDBCF01F0030EDBCF7F
:10B2C00002F0040EDBCF03F000C026F001C027F02F
:10B2D00002C028F003C029F0260EE15C02E2E16A18
:10B2E000E552E16EE552E5CFDAFFE7CFD9FF120074
:10B2F00064D882D89CEC52F0E6EF59F027C000F0F9
:10B3000028C001F029C002F02AC003F01200E66E46
:10B31000000EDA20E66E7FD8EECFE6FFEECFE6FF36
:10B32000EECFE6FFEFCFE6FF12002F6EFCEF59F0F5
:10B33000DBCF07F06AD8F3EF59F09BEC52F0160E12
:10B3400027C0DBFF170E28C0DBFF180E29C0DBFF6C
:10B35000190E2AC0DBFF1200FA0EDBCF00F0FB0E45
:10B36000DBCF01F0FC0EDBCF02F0FD0EDBCF03F0F4
:10B370001200120EDBCF27F0130EDBCF28F0140ED5
:10B38000DBCF29F0150EDBCF2AF01200FA0EDBCF4F
:10B3900004F0FB0EDBCF05F0FC0EDBCF06F0FD0E5C
:10B3A00012000C0EDBCF28F00D0EDBCF29F048EF9A
:10B3B00054F0DBCF2FF02EEF52F027C02CF028C036
:10B3C0002DF029C02EF02AC02FF01200010E27C048
:10B3D000DBFF020E28C0DBFF030E29C0DBFF040EDB
:10B3E0002AC0DBFF120004C027F005C028F006C009
:10B3F00029F007C02AF0120000C027F001C028F091
:10B4000002C029F003C02AF012002C6A2D6A2E6AAD
:10B410003F0E2F6E1200D950FA0FE96EFF0EDA20A0
:04B42000EA6E1200BE
:0CB42400B5EC49F0000901E1FBD7000184
:10B430001B0E726F0F0E736F50EC4BF054C3E9FF8D
:10B4400055C3EAFF010EEE6EED6A54C3E9FF55C322
:10B45000EAFF020EE926000EEA22EE6A080EED6E01
:10B4600054C3E9FF55C3EAFF040EE926000EEA22A1
:10B47000060EEF6E54C3E9FF55C3EAFF050EE92639
:10B48000000EEA22040EEF6E060EE66EE66AF50E78
:10B49000E66E000EE66E54C3E9FF55C3EAFF080EE0
:10B4A000E926000EEA22E9CF00F0EACF01F000C061
:10B4B000E6FF01C0E6FFCDEC66F0026E060EE15E2F
:10B4C000025054C3E9FF55C3EAFF0E0EE926000EF1
:10B4D000EA22C8C0EEFFC9C0EEFFCAC0EEFFCBC073
:10B4E000EEFF54C366F355C367F370D91C0E000119
:10B4F0006E6F6F6B0001060E6D6F54C3E9FF55C38D
:10B50000EAFF120EE926000EEA22E9CF6BF0EACF3D
:10B510006CF0E5EC4AF01C0E0001896F8A6B54C395
:10B5200087F055C388F04DEC4DF014EC4BF0010E54
:10B5300000D0120003014E694F6950695169526988
:10B5400053694A6B4B6B4C6B4D6B120004015651A7
:10B55000010A01E179D0010A01E09BD01C0E000133
:10B56000846F856B0001000E826F0A0E836F15ECED
:10B570004DF0D2EC49F00301000E666F0A0E676FC2
:10B5800025D90A01010E001901E1015110E1045110
:10B59000006E016A060E001801E1015008E1055134
:10B5A000026E036A040E021801E1035002E0010E6C
:10B5B00072D0020E061901E1075116E108CA4EF3D6
:10B5C00009CA4FF30ACA50F30BCA51F30CCA52F31B
:10B5D0000DCA53F30ECA4AF30FCA4BF310CA4CF309
:10B5E00011CA4DF3010E57D0010E061901E10751A2
:10B5F0002BE1180EE96E0A0EEA6EEE500001C81932
:10B6000009E1EE50C91906E1EE50CA1903E1EE5006
:10B61000CB1900E102E0010E3ED00ECA56F30FCA6C
:10B6200057F310CA58F311CA59F308CA5AF309CA92
:10B630005BF30ACA5CF30BCA5DF30CCA5EF30DCA76
:10B640005FF30401010E566F020E0A01066F076BCD
:10B650005AC312FA5BC313FA5CC314FA5DC315FA3A
:10B660005EC316FA5FC317FA56C318FA57C319FA1E
:10B6700058C31AFA59C31BFA0301000E546F0A0E7D
:10B68000556FD0DE000902E1000E05D00401566BB3
:10B6900000D0010E00D01200010E0A01066F076BE8
:10B6A00012691369146915691669176960C3E9FF9E
:10B6B00061C3EAFF0001C851EE18006EC951EE18CF
:10B6C000016ECA51EE18026ECB51EE18036ECC51CA
:10B6D0000016CD510116CE510216CF51031600505F
:10B6E00001100210031009E0D0C018FAD1C019FAF5
:10B6F000D2C01AFAD3C01BFA0CD060C3E9FF61C3F1
:10B70000EAFFEECF18FAEECF19FAEECF1AFAEFCF22
:10B710001BFA0301000E546F0A0E556F12EF5AF018
:10B7200062C3E9FF63C3EAFF03014A51EE1809E16E
:10B730004B51EE1806E14C51EE1803E14D51EE1855
:10B7400000E12FE04A0EE96E030EEA6EEE500001B2
:10B75000D01909E1EE50D11906E1EE50D21903E1FA
:10B76000EE50D31900E12FE162C3E9FF63C3EAFFA2
:10B77000C851EE18006EC951EE18016ECA51EE188C
:10B78000026ECB51EE18036ECC510016CD5101164E
:10B79000CE510216CF5103160050011002100310B3
:10B7A00012E064C3E9FF65C3EAFF4EC3EEFF4FC377
:10B7B000EEFF50C3EEFF51C3EEFF52C3EEFF53C383
:10B7C000EEFF010E02D0000E00D0120066C3E9FFAA
:10B7D00067C3EAFFEECF56FEEDCF57FE07EC48F009
:10B7E000F3CF00F0F4CF01F066C3E9FF67C3EAFFCF
:10B7F00000C0EEFF01C0EDFF66C3E9FF67C3EAFFCB
:10B80000020EE926000EEA22EECF56FEEDCF57FEDD
:10B8100007EC48F0F3CF00F0F4CF01F066C3E9FF86
:10B8200067C3EAFF020E00C0EBFF030E01C0EBFF8F
:10B8300066C3E9FF67C3EAFF060EE926000EEA22A7
:10B84000EECF56FEEDCF57FE07EC48F0F3CF00F0F9
:10B85000F4CF01F066C3E9FF67C3EAFF060E00C03C
:0AB86000EBFF070E01C0EBFF120022
:06B86A00B10EB16EFD0EEF
:10B87000B36E2D0EB26EA282A192A0821200A0928F
:10B8800070CE74FE71CE75FE72CE76FE73CE77FEEC
:10B89000A0820E017F51020A28E0030A1DE0010A7E
:10B8A00001E026D1FF0E7B5D15E10101400EC96F5D
:10B8B0001F0ECA6F0101400EC76F1F0EC86F010136
:10B8C000C66B0101C26BC36BC46BC56BD1EC2BF0B3
:10B8D0000E017B6F7F2B0CD17BCECDF1E0EC2EF0F7
:10B8E000010803E10E01020E7F6F0E01785126E080
:10B8F0000A01046B0451006E016A200E005C000E08
:10B90000015809E20451EA6A260FE96E030EEA22A1
:10B91000EF6A042BEFD70E01746B756B766B776B48
:10B9200074CE70FE75CE71FE76CE72FE77CE73FE4B
:10B93000EAEC31F00E01786B010E7C6F785101E07A
:10B94000D6D07651745D775175591EE304687F0E29
:10B95000056E066A076A7651745D086E75517755F3
:10B96000096E0A6A0B6A0850045C006E095005589B
:10B97000016E0A500658026E0B500758036E00C045
:10B9800002FA01C003FA0DD07451765D0A01026F0C
:10B990000E01755177590A01036F010E025F000E07
:10B9A000035B0A010251031101E1A1D07BCEE3F157
:10B9B00074EC31F0F3CF00FAF4CF01FA0A01005130
:10B9C000011101E194D00051025D0151035904E2DB
:10B9D00002CA00FA03CA01FA200ED8800055000EF0
:10B9E000015503E2200E006F016B00CA00F001CA8E
:10B9F00001F0026A036A086A800E096E0A6A0B6A1D
:10BA000074CE0CF075CE0DF00E6A0F6A0C50085C07
:10BA1000046E0D500958056E0E500A58066E0F50F0
:10BA20000B58076E0450005C055001580650025830
:10BA30000750035839E3046A800E056E066A076AE8
:10BA400074CE08F075CE09F00A6A0B6A0850045CDF
:10BA5000006E09500558016E0A500658026E0B50D0
:10BA60000758036E00C000FA01C001FA00CAE8F1ED
:10BA700001CAE9F10101260EE66F030EE76FADEC96
:10BA800031F000CAC3F301CAC4F30301260EC16F2B
:10BA9000030EC26F74CEBFF375CEC0F344EC66F0F4
:10BAA0000E01746B756B22D000CAE8F101CAE9F18E
:10BAB0000101260EE66F030EE76FADEC31F000CA10
:10BAC000C3F301CAC4F30301260EC16F030EC26F94
:10BAD00074CEBFF375CEC0F344EC66F00A0100519A
:10BAE0000E0174270A0101510E01752327D700D0DA
:10BAF000A09274CE70FE75CE71FEA08212000E016F
:10BB00007A6BFF0E7B5D07E07BCECEF1F7EC2EF07B
:10BB10000E017B697F6B1200FD0EB36E2D0EB26EAF
:10BB2000A19281A082D08D50100B06E08D50200B89
:10BB300003E08A50040B01E178D00E017251705D70
:10BB4000735171590AE37251705D0301466F0E0122
:10BB5000735171590301476F1DD0386A800E396ED9
:10BB60003A6A3B6A7051725D3C6E735171553D6E1D
:10BB70003E6A3F6A3C50385C346E3D503958356EF1
:10BB80003E503A58366E3F503B58376E34C046F3FD
:10BB900035C047F30E017C5107E00301000E465DFE
:10BBA000200E475901E241D0200E0301BD6FBE6B4C
:10BBB0000301260EBB6F030EBC6F72CEB9F373CEBA
:10BBC000BAF302EC66F0200E0E017227000E73230A
:10BBD00072CE34F073CE35F0366A376A345C800E3C
:10BBE0003558000E3658000E375802E3726B736BEF
:10BBF0008A920301486B4851346E356A200E345CDA
:10BC0000000E355811E29E964851EA6A260FE96EF9
:10BC1000030EEA22EF50C96E080EE66E87EC6EF056
:0CBC2000E5520301482BE7D78A8212008E
:04BC2C009FC300F0C2
:10BC3000A0C301F0A1C302F0A2C303F0010E0016DD
:10BC4000016A026A036A005001100210031002E048
:10BC5000BD8801D0BD989FC300F0A0C301F0A1C36F
:10BC600002F0A2C303F0020E0016016A026A036A20
:10BC7000005001100210031002E0BD8A01D0BD9AED
:10BC80009FC300F0A0C301F0D89001320032D890D9
:10BC9000013200320050BE6E1200A3C300F0A4C3F4
:10BCA00001F0A5C302F0A6C303F0010E0016016A5D
:10BCB000026A036A005001100210031002E0BA8801
:10BCC00001D0BA98A3C300F0A4C301F0A5C302F049
:10BCD000A6C303F0020E0016016A026A036A00504E
:10BCE00001100210031002E0BA8A01D0BA9AA3C36D
:10BCF00000F0A4C301F0D89001320032D890013294
:10BD000000320050BB6E1200A7C300F0A8C301F0C0
:10BD1000A9C302F0AAC303F0010E0016016A026A69
:10BD2000036A005001100210031002E0738801D072
:10BD30007398A7C300F0A8C301F0A9C302F0AAC377
:10BD400003F0020E0016016A026A036A0050011035
:10BD50000210031002E0738A01D0739AA7C300F0A7
:10BD6000A8C301F0D89001320032D89001320032DD
:10BD70000050746E1200ABC300F0ACC301F0ADC351
:10BD800002F0AEC303F0010E0016016A026A036AF4
:10BD9000005001100210031002E0708801D070986A
:10BDA000ABC300F0ACC301F0ADC302F0AEC303F00F
:10BDB000020E0016016A026A036A005001100210A6
:10BDC000031002E0708A01D0709AABC300F0ACC3DC
:10BDD00001F0D89001320032D89001320032005088
:10BDE000716E1200AFC300F0B0C301F0B1C302F036
:10BDF000B2C303F0010E0016016A026A036A005022
:10BE000001100210031002E0B78801D0B798AFC349
:10BE100000F0B0C301F0B1C302F0B2C303F0020EF0
:10BE20000016016A026A036A005001100210031032
:10BE300002E0B78A01D0B79AAFC300F0B0C301F0F7
:10BE4000D89001320032D890013200320050B86EE2
:10BE500012007D0ECA6E4E0ECB6E94948B940C0E17
:10BE6000BD6E796AB66ABD9EBD9CBD96BD94BD92FD
:10BE7000BD9094928B92BA6E676A686ABA9EBA9CB9
:10BE8000BA96BA94BA92BA9098908F90B76E696A3F
:10BE90006A6AB79EB79CB796B794B792B7909896D0
:10BEA0008F96736E739673947392739098988F981D
:10BEB000706E709670947092709012002C0E2B6EB3
:10BEC000010E2C6E2D6A2E6AB5C326F0B6C327F07C
:10BED000B7C328F0B8C329F03FEC6DF022C0B5F32A
:10BEE00023C0B6F324C0B7F325C0B8F3640E2B6E9D
:10BEF0002C6A2D6A2E6AB5C326F0B6C327F0B7C3E5
:10BF000028F0B8C329F0F9EC6DF026C0B5F327C0CE
:10BF1000B6F328C0B7F329C0B8F3050E0301B3196F
:10BF200001E1B4513DE0040EB31901E1B4512EE03A
:10BF3000030EB31901E1B4511FE0020EB31901E180
:10BF4000B45110E0010EB31901E1B45101E032D057
:10BF5000B5C39FF3B6C3A0F3B7C3A1F3B8C3A2F3AD
:10BF600065DE28D0B5C3A3F3B6C3A4F3B7C3A5F366
:10BF7000B8C3A6F392DE1ED0B5C3A7F3B6C3A8F329
:10BF8000B7C3A9F3B8C3AAF3BFDE14D0B5C3ABF3EC
:10BF9000B6C3ACF3B7C3ADF3B8C3AEF3ECDE0AD0AF
:10BFA000B5C3AFF3B6C3B0F3B7C3B1F3B8C3B2F31D
:06BFB00019DF00D01200B1
:0ABFB600D8CFE4FFE0CFE4FFE46E13
:10BFC000DACFE4FFE2CFDAFFE9CFE4FFEACFE4FF24
:10BFD000F6CFE4FFF7CFE4FFF8CFE4FFF5CFE4FFBF
:10BFE000F3CFE4FFF4CFE4FFFACFE4FFFBCFE4FFAD
:10BFF00000EE20F0140EE80403E3EECFE4FFFBD7DD
:10C0000000EE00F0200EE80403E3EECFE4FFFBD7E0
:10C01000E6522CEC6BF0E55200EE1FF0200EE80427
:10C0200003E3E5CFEDFFFBD700EE33F0140EE80499
:10C0300003E3E5CFEDFFFBD7E5CFFBFFE5CFFAFF4D
:10C04000E5CFF4FFE5CFF3FFE5CFF5FFE5CFF8FF50
:10C05000E5CFF7FFE5CFF6FFE5CFEAFFE5CFE9FF54
:10C06000E5CFDAFFE550E5CFE0FFE5CFD8FF1000E0
:10C07000DACFE4FFE2CFDAFFE9CFE4FFEACFE4FF73
:10C08000F6CFE4FFF7CFE4FFF8CFE4FFF5CFE4FF0E
:10C09000F3CFE4FFF4CFE4FFFACFE4FFFBCFE4FFFC
:10C0A00000EE20F0140EE80403E3EECFE4FFFBD72C
:10C0B00000EE00F0200EE80403E3EECFE4FFFBD730
:10C0C000E6520F011D5106E00E01785103E18CECA0
:10C0D0005DF001D0A192E55200EE1FF0200EE804C1
:10C0E00003E3E5CFEDFFFBD700EE33F0140EE804D9
:10C0F00003E3E5CFEDFFFBD7E5CFFBFFE5CFFAFF8D
:10C10000E5CFF4FFE5CFF3FFE5CFF5FFE5CFF8FF8F
:10C11000E5CFF7FFE5CFF6FFE5CFEAFFE5CFE9FF93
:10C12000E5CFDAFF11000A01976B1F0E986F996B2C
:10C130000001F48DF48FF56B040EF66FA30EF76F0C
:10C14000F86BF96B010EFA6F0A0EC86FC96BCA6FF4
:10C15000A70ECB6FCC69CD69CE69CF6BC8C0DCF0C0
:10C16000C9C0DDF0CAC0DEF0CBC0DFF0CCC0E0F06B
:10C17000CDC0E1F0CEC0E2F0CFC0E3F0A90ED06FA9
:10C18000FE0ED16F010ED26FD36FA90ED46FFE0ECB
:10C19000D56F010ED66FD76FD86BD96BDA6BDB6BAF
:10C1A000100EE66EE66A5A0EE66EDB0EE66E000EC6
:10C1B000E66EE40EE66E000EE66EF8EC66F0006EDB
:10C1C000070EE15E00500E01E40E696F000E6A6F0B
:10C1D000CFEC48F029EC5FF040D8C9EC6AF0C4EC31
:10C1E00063F0DEEC64F00401100E056F0401046FCF
:10C1F0007AEC65F004010F0E036F0401026B5DEC35
:10C2000065F035EC5CF0E4EC6AF00301F351265C78
:10C21000006EF4512758016EF5512858026EF65100
:10C220002958036E790E005C4F0E0158000E02581B
:10C23000000E03580AE3E4EC6AF026C0F3F327C0CB
:10C24000F4F328C0F5F329C0F6F3E8EC63F0E6EC6C
:10C2500054F03FEC5CF0D7D712009A9E999C928ADA
:10C26000998A96909790400E9B6E010EC26E0E0EAC
:10C27000C16EBE0EC06EF19E200EAC6E900EAB6E07
:10C28000860EAF6EAC84D08EF28EF28CC28EC282DD
:0EC29000C2B2FED7C29E9EEC62F0E2EF65F0F5
:02C29E00140E7C
:10C2A0000001846F856B0001020E826F0A0E836F9E
:10C2B00015EC4DF0F00E0A010215400802E0000EE8
:10C2C00067D01F0E0815006EFF0E0915016E005095
:10C2D000011002E0000E5CD00F0E0215040DF3CF2A
:10C2E000DFF30301DF510001786F796B0001766B9A
:10C2F000776B6CEC4BF0F3CF00FAF4CF01FA03014B
:10C30000DF510001706F716B27EC4BF00A01005197
:10C31000011102E0000E3CD00301020EEF6F0A0E85
:10C32000F06FB7D80301E051E1110CE0E0C3E9FF81
:10C33000E1C3EAFF12CAEEFF13CAEEFF14CAEEFF12
:10C3400015CAEEFFE2C3E9FFE3C3EAFF0ECAEEFF40
:10C350000FCAEEFF10CAEEFF11CAEEFFE4C3E9FFF9
:10C36000E5C3EAFF0BCAEFFFDF51026E036A0A0161
:10C370000250045D006E03500559016EE6C3E9FFEB
:10C38000E7C3EAFF00C0EEFF01C0EDFF010E00D0E1
:10C3900012000301140EDF6F0A01450E746F756BF6
:10C3A000140E0301EB250A01766F000E0301EC2148
:10C3B0000A01776F0401542B000E552354C478FAF8
:10C3C00055C479FA0A017A6B7B6B640E7C6FEAC301
:10C3D0007DFA7E6B7F6BC8C080FAC9C081FACAC083
:10C3E00082FACBC083FAE8C3E9FFE9C3EAFFEECFE4
:10C3F00084FAEECF85FAEECF86FAEFCF87FA030103
:10C40000740EEF6F0A0EF06F44D8140E0E015E6FBB
:10C410005F6B0E01740E5C6F0A0E5D6F2EEC48F0C0
:10C42000F3CF7EFAF4CF7FFA140E0301EB2500015F
:10C430006E6F000E0301EC2100016F6F00016D6B48
:10C44000E8C3E9FFE9C3EAFF040EE926000EEA2289
:10C45000E9CF6BF0EACF6CF0E5EC4AF0140E000186
:10C46000896F8A6B0001740E876F0A0E886F4DEC1E
:10C470004DF0F36AF46A00D012000301DF51ED259C
:10C480000001706F000E0301EE210001716F27EFB4
:10C490004BF0EFC3E9FFF0C3EAFF020EE926000EFE
:10C4A000EA22EECF56FEEDCF57FE07EC48F0F3CF71
:10C4B00000F0F4CF01F0EFC3E9FFF0C3EAFF020E92
:10C4C00000C0EBFF030E01C0EBFFEFC3E9FFF0C3B9
:10C4D000EAFF040EE926000EEA22EECF56FEEDCF6B
:10C4E00057FE07EC48F0F3CF00F0F4CF01F0EFC3B4
:10C4F000E9FFF0C3EAFF040E00C0EBFF050E01C028
:10C50000EBFFEFC3E9FFF0C3EAFF0A0EE926000ED6
:10C51000EA22EECF56FEEDCF57FE07EC48F0F3CF00
:10C5200000F0F4CF01F0EFC3E9FFF0C3EAFF0A0E19
:0CC5300000C0EBFF0B0E01C0EBFF12007F
:04C53C008D889698B8
:10C5400094969488949AC6CF02FAC650200B01E0C4
:10C55000010E0A01016FC69A200EC66EC68A9E960B
:10C56000C78CC79E8D98010EC96E9EA6FED79E965B
:10C57000C9CF00FA400EC96E9EA6FED79E96C9CFBF
:10C5800000FA8D88C69A02CAC6FF0A010151E8B0B6
:10C59000C68AE8A0C69A12000301CE51CF1101E16C
:10C5A0004BD0D051D11101E147D0C6CF88FAC65047
:10C5B000200B01E0010E0A01876FC69A200EC66E9D
:10C5C000C68A8D989E96030EC96E9EA6FED79E962D
:10C5D000C9CF86FACDC3C9FF9EA6FED79E96C9CF06
:10C5E00086FACCC3C9FF9EA6FED79E96C9CF86FA0F
:10C5F0000301D0C300F0D1C301F0D007000ED15B1E
:10C60000005001100FE0C96A9EA6FED79E96030156
:10C61000CEC3E9FFCFC3EAFFCE2B000ECF23C9CF95
:10C62000EFFFE6D78D88C69A88CAC6FF0A018751F0
:10C63000E8B0C68AE8A0C69A12000301D451D51109
:10C6400001E14BD0D651D71101E147D0C6CF88FACE
:10C65000C650200B01E0010E0A01876FC69A200E1A
:10C66000C66EC68A8D989E96020EC96E9EA6FED78D
:10C670009E96C9CF86FAD3C3C9FF9EA6FED79E96C3
:10C68000C9CF86FAD2C3C9FF9EA6FED79E96C9CF50
:10C6900086FA0301D6C300F0D7C301F0D607000E17
:10C6A000D75B005001100FE0D4C3E9FFD5C3EAFF08
:10C6B000D42B000ED523EF50C96E9EA6FED79E96B2
:10C6C000C9CF86FAE6D78D88C69A88CAC6FF0A01FE
:10C6D0008751E8B0C68AE8A0C69A12000301DA5171
:10C6E000DB11DC1101E14FD0DD51DE1101E14BD056
:10C6F000C6CF02FAC650200B01E0010E0A01016FFD
:10C70000C69A200EC66EC68A8D989E96020EC96E77
:10C710009EA6FED79E96C9CF00FAD9C3C9FF9EA692
:10C72000FED79E96C9CF00FAD8C3C9FF9EA6FED7F2
:10C730009E96C9CF00FA0301DDC300F0DEC301F00D
:10C74000DD07000EDE5B0050011013E0DAC3F6FFD8
:10C75000DA2BDBC3F7FF000EDB23DCC3F8FFDC239F
:10C760000800F550C96E9EA6FED79E96C9CF00FA66
:10C77000E2D78D88C69A02CAC6FF0A010151E8B005
:08C78000C68AE8A0C69A120067
:08C7880004010B6B0001F48FAA
:10C79000BDEC44F026C03CFE27C03DFE28C03EFE56
:10C7A00029C03FFE4CEC44F02EEC49F09AEC5AF0D4
:10C7B000C3EC2BF0FAEC00F00201F36B71EC39F0F2
:10C7C0000001F4BD04D00201F46B90EC39F01200CA
:10C7D0000001F4AD2DD0A6EC49F00A01496F030128
:10C7E000FF510A01495D1AE049CAFFF3495116E1B8
:10C7F000DCC0C8F0DDC0C9F0DEC0CAF0DFC0CBF0DD
:10C80000E0C0CCF0E1C0CDF0E2C0CEF0E3C0CFF0AC
:10C810000001F48F0201F36B71EC39F0C0EC39F0D8
:10C820000201F76BABEC39F0000902E00001F49F64
:10C83000B8EC0CF0E4EC2CF0EAEC31F00001470E1F
:10C84000696F0A0E6A6F0001100E676F040E686F41
:10C8500058EC4AF0000901E1AFD00A01475106E067
:10C86000060A01E0A8D0A6EC5AF0A5D00301410EBB
:10C87000E66F0A0EE76F0301480EE46F0A0EE56FDC
:10C8800003010C0EE26F040EE36F0301430EE06F31
:10C890000A0EE16F4FEC61F0000901E18CD00A0152
:10C8A00048055EE1430EE96E0A0EEA6EEE500001A5
:10C8B000C81909E1EE50C91906E1EE50CA1903E1A1
:10C8C000EE50CB1900E140E0E8680A01431908E1A5
:10C8D000E868441905E1E868451902E1E868461985
:10C8E00033E0CC0EE96E000EEA6E0001C851EE1482
:10C8F000006EC951EE14016ECA51EE14026ECB5196
:10C90000EE14036ECCC004F0CDC005F0CEC006F02E
:10C91000CFC007F0041E051E061E071E045000129D
:10C920000550011206500212075003120A0143512A
:10C93000001809E14451011806E14551021803E1CC
:10C940004651031800E10BE141CAFEF242CAFFF270
:10C9500002010C0EFC6F040EFD6FA2EC6BF02BD0ED
:10C96000060E485D11E141CAABF242CAACF20201C7
:10C97000430EA96F0A0EAA6F02010C0EA76F040ED8
:10C98000A86FD1EC10F017D0110E485D13E141CA29
:10C99000EEF142CAEFF10101430EEC6F0A0EED6FAA
:10C9A00001010C0EEA6F040EEB6FF7EC31F0000999
:0CC9B00001E002D000D040D712001200BD
:04C9BC008A828A845D
:10C9C0008C9095909380939293949488949A949653
:10C9D000C7500A01026F036BC6500A01006F016B5A
:10C9E000C79EC78C220EC66E9E96010E0A01046F6A
:10C9F000056B0A0104CA00F005CA01F00407000E25
:10CA0000055B0050011006E00B0EE66E5BEC6EF06D
:10CA1000E552EFD78C800401200E086F080E096FD5
:10CA20000401076BB5D80401066B97D8F3CF00F06B
:10CA3000F4CF01F0200E001802E1080E0118EBE11E
:10CA40000401030E066F89D8F3CF00F4F4CF01F48C
:10CA50000401010E066F81D8F3CF00F0F4CF01F08E
:10CA6000F00E0016000E0116400E001801E10150F4
:10CA700009E10401086BF80E096F0401030E076F4A
:10CA800087D814D00401010E066F67D8F3CF00F0E9
:10CA9000F4CF01F0F00E0016000E0116200E001863
:10CAA00001E1015002E1000001D0FFD700CAC6FF3A
:10CAB00002CAC7FF200EC66E1200040102510F0801
:10CAC00002E20F0E026F03510F0802E20F0E036F16
:10CAD00003C400FA0239F00B0A01001300510401EB
:10CAE000086F096B0851FF0E09130401020E076F4E
:10CAF000C8EF65F005C400F000C001F0006A040151
:10CB0000045104010010086F01C009F404010B0E68
:10CB1000076FC8EF65F081A0FED78A920401530E1B
:10CB20000A6F48D80401EF0E0A6F44D804016E0E54
:10CB30000A6F40D804017D0E0A6F3CD804010A6BCD
:10CB400039D804010A6B36D804010A6B33D80401C2
:10CB50000A6B30D88A82DFD7120081A0FED78A9470
:10CB60000401030E0A6F26D806C40AF423D8040170
:10CB70000A6920D80A01076F04010A691BD80A0153
:10CB8000066F8A8406CAF3FF07CAF4FF00D01200BA
:10CB900081A0FED78A940401020E0A6F0BD807C445
:10CBA0000AF408D809C40AF405D808C40AF402D85B
:10CBB0008A8412009E960AC4C9FF9EA6FED7C95059
:04CBC00000D012008F
:0CCBC4008D8A969A94969488949AC6CF15
:10CBD00001FA200EC66E9E96C78CC79E8D9A9E96B1
:10CBE000010EC96E9EA6FED7C9CF00FA9E96400ED2
:10CBF000C96E9EA6FED7C9CF00FA9E968D8A01CA3D
:10CC0000C6FF12000301BB51BC1101E13CD0BD5174
:10CC1000BE1101E138D0C6CFA4FA200EC66E8D9A9F
:10CC20009E96030EC96E9EA6FED7C9CFA3FA9E9606
:10CC3000BAC3C9FF9EA6FED7C9CFA3FA9E96B9C3B1
:10CC4000C9FF9EA6FED7C9CFA3FA9E960301BDC316
:10CC500040F0BEC341F0BD07000EBE5B4050411026
:10CC60000FE0C96A9EA6FED70301BBC3E9FFBCC3A0
:10CC7000EAFFBB2B000EBC23C9CFEFFF9E96E6D781
:10CC80008D8AA4CAC6FF12000301C151C21101E17D
:10CC90003CD0C351C41101E138D0C6CF07FA200EF1
:10CCA000C66E8D9A9E96020EC96E9EA6FED7C9CFFD
:10CCB00006FA9E96C0C3C9FF9EA6FED7C9CF06FA44
:10CCC0009E96BFC3C9FF9EA6FED7C9CF06FA9E9601
:10CCD0000301C3C342F0C4C343F0C307000EC45BE7
:10CCE000425043100FE0C1C3E9FFC2C3EAFFC12BAA
:10CCF000000EC223EF50C96E9EA6FED7C9CF06FA1A
:10CD00009E96E6D78D8A07CAC6FF12000301C75157
:10CD1000C811C91101E140D0CA51CB1101E13CD089
:10CD2000C6CF01FA200EC66E8D9A9E96020EC96E6F
:10CD30009EA6FED7C9CF00FA9E96C6C3C9FF9EA67F
:10CD4000FED7C9CF00FA9E96C5C3C9FF9EA6FED7DF
:10CD5000C9CF00FA9E960301CAC344F0CBC345F085
:10CD6000CA07000ECB5B4450451013E0C7C3F6FF63
:10CD7000C72BC8C3F7FF000EC823C9C3F8FFC923D8
:10CD80000800F550C96E9EA6FED7C9CF00FA9E9640
:0ACD9000E2D78D8A01CAC6FF120027
:06CD9A00D9CFE6FFDACF5D
:10CDA000E6FFFA0EE3CFD9FFFB0EE3CFDAFFFC0E6E
:10CDB000E3CFE9FFFD0EE3CFEAFFE9CFF3FFEACFD0
:10CDC000F4FFF80EE35003E1F90EE35008E0F80E2B
:10CDD000E30602E2F90EE306DECFEEFFF2D7FF0E26
:10CDE000E3CFDAFFE552FF0EE3CFD9FFE5521200A1
:10CDF000FB0EE3CFF6FFFC0EE3CFF7FFFD0EE3CF14
:10CE0000F8FFFE0EE3CFE9FFFF0EE3CFEAFFE9CF25
:10CE1000F3FFEACFF4FFF90EE35003E1FA0EE3501B
:10CE200009E0F90EE30602E2FA0EE3060900F5CF87
:10CE3000EEFFF1D71200FE0EE3CFE9FFFF0EE3CFC6
:10CE4000EAFFE9CFF3FFEACFF4FFFB0EE35003E183
:10CE5000FC0EE35009E0FB0EE30602E2FC0EE306E3
:10CE6000FD0EE350EE6EF1D71200FE0EE3CFE9FFA8
:10CE7000FF0EE3CFEAFFF36AF46AEE5203E0F34AEF
:10CE8000F42AFBD71200FF0EE3CFF8FFE552FF0EA6
:10CE9000E3CFF7FFE552FF0EE3CFF6FFE552E66A78
:10CEA000E66AE66A0900F55209E0FD0EE32A05E1AB
:10CEB000FE0EE32A02E1FF0EE32AF4D7FD0EE3CFD4
:10CEC00027F0FE0EE3CF28F0FF0EE3CF29F012008B
:10CED000D9CFE6FFDACFE6FFFC0EE3CFE9FFFD0E88
:10CEE000E3CFEAFFEF5016E0FA0EE3CFD9FFFB0ED7
:10CEF000E3CFDAFFE9CFF3FFEACFF4FFDE500CE037
:10CF0000EF5C02E1EE50FAD7F3CFE9FFF4CFEAFF8E
:10CF1000EE50E8D7F36AF46AFF0EE3CFDAFFE5528A
:10CF2000FF0EE3CFD9FFE5521200FE0EE3CFE9FF7B
:10CF3000FF0EE3CFEAFFE9CFF3FFEACFF4FF610E84
:10CF4000EF5C05E67B0EEF5C02E7DF0EEF16EE52BC
:04CF5000F6E11200F4
:0CCF540098928F829A969A94939A9398E0
:10CF6000090E0001FB1901E1FC515EE0080EFB19FE
:10CF700001E1FC5154E0070EFB1901E1FC514AE0CC
:10CF8000060EFB1901E1FC5140E0050EFB1901E121
:10CF9000FC5136E0040EFB1901E1FC512CE0030EBC
:10CFA000FB1901E1FC5122E0020EFB1901E1FC51E9
:10CFB00018E0010EFB1901E1FC510EE0FB5101E10B
:10CFC000FC5105E08A988A9A9194919632D08A9879
:10CFD0008A9A919491962DD08A988A9A9194918662
:10CFE00028D08A988A9A9184919623D08A988A9A8E
:10CFF000918491861ED08A988A8A9194919619D0AC
:10D000008A988A8A9194918614D08A988A8A91847F
:10D0100091960FD08A988A8A918491860AD08A88BC
:10D020008A9A9194919605D08A888A9A9194918649
:10D0300000D0120098928F92090E0001FD1901E1B3
:10D04000FE515EE0080EFD1901E1FE5154E0070EAD
:10D05000FD1901E1FE514AE0060EFD1901E1FE5104
:10D0600040E0050EFD1901E1FE5136E0040EFD1908
:10D0700001E1FE512CE0030EFD1901E1FE5122E019
:10D08000020EFD1901E1FE5118E0010EFD1901E14A
:10D09000FE510EE0FD5101E1FE5105E08A988A9AA9
:10D0A0009194919632D08A988A9A919491962DD0A3
:10D0B0008A988A9A9194918628D08A988A9A91849B
:10D0C000919623D08A988A9A918491861ED08A98C4
:10D0D0008A8A9194919619D08A988A8A9194918695
:10D0E00014D08A988A8A918491960FD08A988A8AD5
:10D0F000918491860AD08A888A9A9194919605D0D3
:0CD100008A888A9A9194918600D01200CF
:04D10C000A014C6B5D
:10D110000A014D6B20C44EFA21C44FFA22C450FAC2
:10D1200023C451FA060E0401D8902333223321334D
:10D130002033E806F9E1060E0401D89020372137A4
:10D1400022372337E806F9E1400E04012027000EBC
:10D1500004012123000E04012223000E04012323D5
:10D160004E0EE96E0A0EEA6EEE500401205D006E6E
:10D17000EE5004012159016EEE5004012259026E55
:10D18000EE5004012359036E00C04CFA04012451EF
:10D19000251151E050CAF8FF4FCAF7FF4ECAF6FFFB
:10D1A0000A014C514C07000915E0040126C4E9FFAF
:10D1B00027C4EAFF262B000E2723EF50F56E0D0043
:10D1C00004012407000E255B04012451251101E10F
:10D1D00001D0E6D750CAF8FF4FCAF7FF4ECAF6FF94
:10D1E000A684F2AE04D0F29E0A01010E4D6F550ED8
:10D1F000A76EAA0EA76EA682A6940A014D5103E05F
:10D20000F28E0A014D6B0A01400E4C6F4ECA4EFA67
:10D210004FCA4FFA50CA50FA51CA51FA400E0A0189
:10D220004E27000E0A014F23000E0A015023000E64
:08D230000A015123ABD71200E3
:08D23800D9CFE6FFDACFE6FFD3
:10D24000E1CFD9FFE2CFDAFF0C0EE12402E3E1687F
:10D25000E652E16ED950FA0FE96EFF0EDA20EA6E5F
:10D26000010EEECFDBFF020EEECFDBFF030EEECFA3
:10D27000DBFF040EEECFDBFF63D8D950010FE96E60
:10D28000000EDA20EA6EEECFE6FFEECFE6FFEECF3D
:10D29000E6FFEFCFE6FFAEEC69F0006E060EE15C54
:10D2A00002E2E16AE552E16E0050DF6E850EDF14A6
:10D2B00004E04DD8EE6AED6A23D0090EDBCF00F012
:10D2C0000A0EDBCF01F0820E0026FF0E01223FD8AE
:10D2D00000C0EEFF01C0EDFF7E0EF36E090EF3CF2E
:10D2E000DBFF0A0EDB6AD950010FE66E000EDA2072
:10D2F000E66E26D83CEC6AF0E552E552E552E5527E
:10D30000010EDBCF00F0020EDBCF01F0030EDBCF0E
:10D3100002F0040EDBCF03F000C026F001C027F0BE
:10D3200002C028F003C029F00C0EE15C02E2E16AC1
:10D33000E552E16EE552E5CFDAFFE7CFD9FF120003
:10D34000D950050FE66E000EDA20E66E1200F80ED8
:0CD35000DBCFE9FFF90EDBCFEAFF120093
:04D35C00D9CFE6FF40
:10D36000DACFE6FFE1CFD9FFE2CFDAFFE65200687D
:10D3700001687F0E026E036AD950FA0FE96EFF0E44
:10D38000DA20EA6EEE500016EE500116EE5002164C
:10D39000EE5003166AD800C0EEFF01C0EEFF02C0D7
:10D3A000EEFF03C0EEFFFD0EDB50800B02E0010E2E
:10D3B00001D0000EE66E59D8060EE926000EEA22CC
:10D3C000E552E750EF6EFC0EDBCF00F0FD0EDBCF39
:10D3D00001F0D89000360136FC0E00C0DBFFFD0ED8
:10D3E00001C0DBFFDB50E66E40D8040EE926000EDC
:10D3F000EA22E552E750EE6EED6AFD0EDB50006E5C
:10D40000016AFF0E001818E1015016E12ED8EECF88
:10D4100000F0EECF01F0EECF02F0EFCF03F00050BE
:10D4200001100210031006E0210E04014E6F4F6B35
:10D43000800E0BD0040E09D0FD0EDB5008E115D88C
:10D44000EE6AEE6AEE6AEE6A010EDF6E06D0020E3A
:10D45000DF6E0BD8EE52EE52EE8EDF50E552E55203
:10D46000E5CFDAFFE7CFD9FF1200F80EDBCFE9FFF7
:08D47000F90EDBCFEAFF120008
:08D47800D9CFE6FFDACFE6FF91
:10D48000E1CFD9FFE2CFDAFF5BD8013411E20050DF
:10D49000FE08000E01540CE276D805E06CD8800E30
:10D4A000EE6EEE6847D067D8800EEE6E7F0E0ED01F
:10D4B00047D8D890015004E6010E005C000E0158D8
:10D4C0000BE261D805E057D8EE6A800EEE6E32D0DE
:10D4D00052D8EE6AEE6A2ED047D8EECF00F0EECFEB
:10D4E00001F0EECF02F0EFCF03F032D800C0EEFF34
:10D4F00001C0EEFF02C0EEFF03C0EEFF21D80050D6
:10D50000010B05E025D8020E3AD8EF8E04D020D8C2
:10D51000020E35D8EF9E14D8D8900132003218D8B8
:10D52000030E2DD800C0EFFF1AD804E011D8030E67
:10D5300026D8EF8EE552E5CFDAFFE7CFD9FF12000C
:10D5400013D8040E1CD8EECF00F0EFCF01F012007C
:10D55000FA0EDBCFE9FFFB0EDBCFEAFF120004D8A7
:10D56000060E0DD8EF501200FC0EDBCFE9FFFD0ECA
:10D57000DBCFEAFF1200ECDFEE6AEE6A1200E9266A
:10D58000000EEA221200220E04014E6F4F6BAFEF25
:02D590006AF03F
:0ED59200D76AD66AF194F294F28A870ED56EAB
:10D5A0001200F28A0000F29AD6CF16F4D7CF17F401
:10D5B0005BCF18F45CCF19F45DCF1AF45ECF1BF487
:10D5C000F2B4EFD7F28A1200ECDF16C426F017C4CB
:10D5D00027F018C428F019C429F000D01200E1DFA8
:10D5E00017C44CFA18C44DFA19C44EFA1AC44FFAAB
:10D5F0004CCA26F04DCA27F04ECA28F04FCA29F06F
:10D6000000D01200CEDF18C400FA19C401FA1AC4FF
:10D6100002FA1BC403FA00CA26F001CA27F002CAA4
:10D6200028F003CA29F000D012001CC426F01DC443
:10D6300027F01EC428F01FC429F0140E2626000E61
:10D64000272228222922280E2B6E2C6A2D6A2E6A68
:10D65000F9EC6DF000D01200F2A407D00F015B2BA3
:0CD66000000E5C235D235E23F294120098
:04D66C000A01006B44
:10D670000A01016B060E0401D89043334233413353
:10D680004033E806F9E1060E0401D89040374137EF
:10D6900042374337E806F9E140C402FA41C403FACD
:10D6A00042C404FA43C405FA040144514407000982
:10D6B00048E004CAF8FF03CAF7FF02CAF6FF0A01EE
:10D6C000400E006F0A010051000700090CE0040140
:10D6D00045C4E9FF46C4EAFF452B000E4623EF5040
:10D6E000F56E0D00EFD704CAF8FF03CAF7FF02CAB0
:10D6F000F6FFA684F2AE04D0F29E0A01010E016F7D
:10D70000550EA76EAA0EA76EA682A6940A01015115
:10D7100003E0F28E0A01016B02CA02FA03CA03FA9D
:10D7200004CA04FA05CA05FA400E0A010227000ECF
:10D730000A010323000E0A010423000E0A01052337
:04D74000B3D7120049
:0CD74400040E0001846F856B0001000ED4
:10D75000826F0A0E836F15EC4DF00A01080E001956
:10D7600001E1015158E1FEC278F0FFC279F0140ED8
:10D770000001766F776B6CEC4BF0F3CF00F0F4CFD9
:10D7800001F00050011001E046D00A01006B080EC4
:10D790000227025D04E2032B035101E1022BB5ECE9
:10D7A00049F0000901E1FBD70001290E726F0F0E4D
:10D7B000736F50EC4BF0FEC2EBF3FFC2ECF30301CE
:10D7C000010EEA6FFCC2E8F3FDC2E9F3C9EC61F0B7
:10D7D000040E0001896F8A6B0001000E876F0A0E2C
:10D7E000886F4DEC4DF0FEC280F0FFC281F0000169
:10D7F000040E805F000E815B00017E697F6900017D
:10D800007C697D6937EC4CF00BEC4DF0000901E1CF
:08D81000FBD714EC4BF01200F1
:08D81800D9CFE6FFDACFE6FFED
:10D82000E1CFD9FFE2CFDAFFE652E652E652E65206
:10D83000D950F90F006EFF0EDA20016E020E00C003
:10D84000DBFF030E01C0DBFF020EDBCFE6FF030EA2
:10D85000DBCFE6FFF90EDBCFE6FFFA0EDBCFE6FF0C
:10D86000FB0EDBCFE6FFD950FC0FE66EFF0EDA2091
:10D87000E66E76EC33F0006E070EE15C02E2E16AE0
:10D88000E552E16E0050F3CFDEFFF4CFDDFFFC0E7A
:10D89000DBCFE9FFFD0EDBCFEAFFEF6ADECF00F062
:10D8A000DDCF01F000C0F3FF01C0F4FF040EE15C26
:10D8B00002E2E16AE552E16EE552E5CFDAFFE7CF39
:04D8C000D9FF12007A
:0CD8C4001E0EF66E000EF76E000EF86EE1
:10D8D00001010900F550FB6F0900F550FC6F03E1F1
:10D8E000FB6701D03DD00900F550F66F0900F550F7
:10D8F000F76F0900F550F86F09000900F550E96E5F
:10D900000900F550EA6E090009000900F550F96FA9
:10D910000900F550FA6F09000900F6CFFDF1F7CFC5
:10D92000FEF1F8CFFFF1F6C1F6FFF7C1F7FFF8C13E
:10D93000F8FF0101F95302E1FA5307E00900F5503D
:10D94000EE6EF907F8E2FA07F9D7FDC1F6FFFEC15E
:10D95000F7FFFFC1F8FF0101FB07000EFC5BBFD71B
:02D960001200B3
:0ED96200D9CFE6FFDACFE6FFE1CFD9FFE2CF63
:10D97000DAFFE150FA0FE96EFF0EE220EA6EEECF19
:10D98000E6FFEECFE6FFEECFE6FFEFCFE6FF95EC4A
:10D9900057F0E552E552E552E55226C004F027C0A3
:10D9A00005F028C006F029C007F0D90E2C6E5B0EDA
:10D9B0002D6EDE0E2E6E3E0E2F6E26C027F005C099
:10D9C00028F006C029F007C02AF02EEC52F027C03C
:10D9D00000F028C001F029C002F02AC003F027C0DF
:10D9E00026F028C027F029C028F02AC029F0E552E7
:0AD9F000E5CFDAFFE7CFD9FF120000
:06D9FA00D9CFE6FFDACFF1
:10DA0000E6FFE1CFD9FFE2CFDAFFFB0EDBCF00F07C
:10DA1000FC0EDBCF01F00001800E01141AE1FB0EB9
:10DA2000DBCFE9FFFC0EDBCFEAFFEECFF3FFEDCF5C
:10DA3000F4FFEE2A000EEF22F3CFE9FFF4CFEAFF66
:10DA4000FD0EDBCFEFFFEF50016AF36E01C0F4FF74
:10DA500010D0FB0EDB50FE0806E1FD0EDBCFE6FF2B
:10DA600079EC6EF005D0FD0EDBCFE6FF03EC00F0A5
:0EDA7000E552E552E5CFDAFFE7CFD9FF12000D
:02DA7E00265030
:10DA80002B02F3CF22F0F4CF23F02C02F350232605
:10DA9000000EF420246E26502D02F3502426000E92
:10DAA000F420256E26502E02F350252627502B02F7
:10DAB000F3502326F4502422000E252227502C0256
:10DAC000F3502426F450252227502D02F35025260A
:10DAD00028502B02F3502426F450252228502C02E3
:0EDAE000F350252629502B02F3502526120064
:02DAEE000A012B
:10DAF0004C6B38C44DFA39C44EFA3AC44FFA3BC4A1
:10DB000050FA4D0EE96E0A0EEA6E04013C51EE5CCD
:10DB10003D51EE583E51EE583F51EE581DE24FCA6E
:10DB2000F8FF4ECAF7FF4DCAF6FFA684A688F2AEEC
:10DB300004D0F29E0A01010E4C6F550EA76EAA0E7C
:10DB4000A76EA6820A014C5101E0F28E040E4E2708
:0ADB5000000E4F235023D5D712001A
:06DB5A004D434850424F0C
:10DB6000415244003E532825303375293C003E4144
:10DB700050452D4220534F434B4554204142494587
:10DB800052544F3C003E2353454D41464F524F5B4C
:10DB9000562531752E2531752E2531755D2D28259B
:06DBA000303375293C0042
:0ADBA60028C44CFA29C44DFA2AC421
:10DBB0004EFA2BC44FFA4ECAF8FF4DCAF7FF4CCAB3
:10DBC000F6FF04012CC400F02DC401F02C07000E58
:10DBD0002D5B005001100CE0090004012EC4E9FF88
:10DBE0002FC4EAFF2E2B000E2F23F5CFEFFFE9D72E
:02DBF000120021
:0EDBF200256A246A236A226A200EE76ED89004
:10DC00002636273628362936223623362436253638
:10DC10002B50225C2C5023582D5024582E50255820
:10DC200009E32B50225E2C50235A2D50245A2E509B
:0ADC3000255A262AE72EE4D7120039
:06DC3A00256A246A100EA9
:10DC4000E76ED89028362936243625362D50245CA8
:10DC50002E50255805E32D50245E2E50255A282A93
:06DC6000E72EF0D71200D0
:0ADC6600800EF36E00EE00F00E0ECB
:10DC700007D8600EF36E0FEE00F00F0E01D8120001
:10DC8000EA6002D0EE6AFCD7F350E9601200EE6A57
:02DC9000FCD7BF
:0EDC9200F36AF46AFF0EE124E96EFF0EE22051
:10DCA000EA6EED6607D02F0EEF6404D03A0EEF60F7
:06DCB00001D0F32A12006E
:0ADCB600FF0EE350466E480E01D049
:10DCC0004C0EE76EE72EFED7E76AE72EFED7462E0C
:06DCD000F7D7000012006E
:0ADCD6001DEE00F02DEE00F0F86ADC
:10DCE000219C62EC6CF00AEC00F093EC60F0FBD746
:02DCF000120020
:0EDCF200FF0EE350ACBA04D0AF6AAB8EAC8A22
:0EDD0000949CACA2FED7AD6EF36EF46A1200D6
:02DD0E00FF0E06
:10DD1000E350E84E1200000000D000D000D0E82E02
:04DD2000FAD712001C
:0CDD240030313233343536373839616223
:05DD300063646566005C
:04DD350000000000EA
:02DD3900FEFEEC
:01DD3B0000E7
:04DD3C00FF000000E4
:0ADD400000000000000000000000D9
:06DD4A00000000000000D3
:0ADD50000000010000FF01000000C8
:02DD5A000000C7
:04DD5C009E9FFE4147
:10DD60007365727665722E627667632E6F726700D6
:10DD700000000000000000000000000000000100A2
:10DD80000100482600000000000000000000000024
:10DD90000000000000000000000000000000000083
:0FDDA00000000000000000000000000000FE0076
:01DDAF00FF74
:02DDB00000076A
:01DDB2000070
:0DDDB3000000000000000000000000000063
:10DDC00000000000000000000028002800280028B3
:10DDD000002800640064006400640064003C003CAF
:07DDE000003C003C003C0088
:01DDE700003B
:020000040001F9
:01FFF800A068
:01FFFA00C541
:01FFFD00F70C
:00000001FF
