:020000040000FA
:0600000070EF6FF012002A
:020006001200E6
:060008003EEF61F0120062
:02000E000000F0
:040010007D0064000B
:020014001200D8
:02001600FFFFEA
:06001800E1EF60F01200B0
:02001E000E00D2
:10002000F3DF00006B04000001000000F1DF0000BE
:100030006704000002000000BDDF00009400000023
:1000400034000000BCDF00006A0400000100000072
:10005000B9DF00005D0F0000030000006ADF000050
:10006000000F00004F00000066DF00005D0400008C
:100070000400000064DF00006504000002000000CE
:1000800054DF0000700E00001000000046DF00008A
:100090004F0F00000E00000045DF00006904000063
:1000A0000100000043DF00006304000002000000C4
:1000B0003FDF0000590400000400000016000000AB
:0800C0006104000002000000D1
:0800C800020145510401635DD2
:1000D00001E140D0FE0E635D1BE01C0EE66EE66A99
:1000E000290EE66E020EE66E63511C0DF3CF00F092
:1000F000F4CF01F0860E0026030E012200C0E6FFB9
:1001000001C0E6FFD2EC67F0026E060EE15E02501F
:1001100045C263F4FE0E0201455D01E11BD01C0ED9
:10012000E66EE66A45511C0DF3CF00F0F4CF01F006
:10013000860E0026030E012200C0E6FF01C0E6FF86
:10014000290EE66E020EE66ED2EC67F0026E060E27
:10015000E15E0250120004016351645D01E14FD081
:10016000FE0E645D32E0270E0201C56FC66B020110
:10017000010EC46F0201020EC26F020EC36F0401B2
:1001800064511C0DF3CFE9FFF4CFEAFF860EE92698
:10019000030EEA221B0EE926000EEA22EFCFC1F27F
:1001A00064511C0DF3CFE9FFF4CFEAFF860EE92678
:1001B000030EEA22EECFBFF2EFCFC0F20201270E0C
:1001C000BF5F000EC05B8AEC21F063C464F4270EAD
:1001D0000201C56FC66B44C2C4F229C2C2F22AC270
:1001E000C3F20201C25F000EC35B0201010EC16FC8
:1001F0000201020EBF6F020EC06F8AEC21F01200E6
:100200000B010C0E1D6F150E1E6F1F6B206B020174
:10021000005101110FE1C4EC47F026C000F227C0E5
:1002200001F2FF0E02010017070E0117000E002752
:10023000040E01233C0EE66EE66AE66A000EE66EE8
:100240000E0EE66E20EC68F0006E050EE15E0050CA
:100250000B01156B146B1451006E016A010E005CEA
:10026000000E015801E358D114CB45F22DDF0E0EDC
:10027000006E000E016E000E026E14CB03F0046AD5
:10028000056A060E2C6E2D6A2E6A03C027F004C084
:1002900028F005C029F051EC52F024C003F025C02D
:1002A00004F026C005F000500324F36E0150042032
:1002B000F46E02500520F86EF4CFF7FFF3CFF6FF8F
:1002C000F62A000EF722F8220800F5CF1CFB0E0ECE
:1002D000006E000E016E000E026E14CB03F0046A75
:1002E000056A060E2C6E2D6A2E6A03C027F004C024
:1002F00028F005C029F051EC52F024C003F025C0CD
:1003000004F026C005F000500324F36E01500420D1
:10031000F46E02500520F86EF4CFF7FFF3CFF6FF2E
:10032000020EF626000EF722F8220900F5CF16FB82
:100330000A00F5CF17FB0E0E006E000E016E000EC8
:10034000026E14CB03F0046A056A060E2C6E2D6A49
:100350002E6A03C027F004C028F005C029F051EC34
:1003600052F024C003F025C004F026C005F0005070
:100370000324F36E01500420F46E02500520F86E41
:10038000F4CFF7FFF3CFF6FF040EF626000EF722A8
:10039000F8220900F5CF18FB0A00F5CF19FB0B0175
:1003A0001C51020A31E0020A01E05CD01DCB1AFBAD
:1003B0001ECB1BFB270E036A1625026E1751032264
:1003C000010E0226000E032202501825006E035073
:1003D0001921016E010E0026000E012200501D277A
:1003E00001501E231DCB00F01ECB01F0026A036AF0
:1003F000D880FC0E00541F0E0154000E0254000E53
:10040000035401E2EFD72FD01FCB1AFB20CB1BFBED
:10041000270E036A1625026E17510322010E0226CB
:10042000000E032202501825006E03501921016EA0
:10043000010E0026000E012200501F27015020232C
:100440001FCB00F020CB01F0026A036AD880000EB7
:100450000054800E0154000E0254000E035401E2B9
:10046000EFD701D0FFD71CCB44F2270E0B011A2582
:100470000201296F000E0B011B2102012A6F295175
:100480000B01162502012B6F2A510B0117210201C6
:100490002C6F010E2B27000E2C232B510B0118253E
:1004A00002012D6F2C510B01192102012E6F0D0E2F
:1004B0003F6F409750DE0E0E006E000E016E000E74
:1004C000026E14CB03F0046A056A060E2C6E2D6AC8
:1004D0002E6A03C027F004C028F005C029F051ECB3
:1004E00052F024C003F025C004F026C005F00050EF
:1004F0000324F36E01500420F46E02500520F86EC0
:10050000F4CFF7FFF3CFF6FF0800F5CF28F2D3ECD6
:1005100017F00B01142B9FD612000B01546B545192
:10052000006E016A010E005C000E015801E3CAD0A2
:1005300054CB45F2C9DD0D0E02013F5D01E0BFD095
:100540000ADE02014D51285D01E0B9D0180E256F79
:10055000020E266F4A510CE14BC212F24CC213F24A
:100560004087040E3F6F4BC242F24CC243F2A4D00C
:10057000000E005D040E015906E3880ED880005578
:10058000130E015503E2006B040E016F00C212F25C
:1005900001C213F2002B000E01234BC210F24CC219
:1005A00011F2E9EC6BF026C037F227C038F228C010
:1005B00039F229C03AF2020140894A51040A3DE069
:1005C000070A18E0020A03E0030A01E075D046C2F8
:1005D00018F247C219F248C21AF249C21BF2020EBF
:1005E0004A5D02E0000E01D0010E2495E8B024859A
:1005F0003F6B62D048514625026E49514721036E38
:1006000002504B25006E03504C21016E0050121910
:10061000426F01501319436F46C218F247C219F2D4
:1006200048C21AF249C21BF2276B270E026F036BF6
:10063000046B056B020E3F6F3FD046C2E9FF47C215
:10064000EAFF020EE926000EEA22EECF04F0EFCF19
:1006500005F046C2E9FF47C2EAFF0450EE24026EED
:100660000550EE20036E02504B25006E03504C21C6
:10067000016E00501219426F01501319436F0A0E98
:10068000E66EE66A46C2E6FF47C2E6FF180EE66E71
:10069000020EE66ED2EC67F0006E060EE15E0050D0
:1006A0000201050E3F6F0201010EAE6F0201020E44
:1006B000AD6F7AEC11F000D00B01545105D00B0155
:1006C000542B2DD7FE0E00D012004EC245F2FCDC9A
:1006D000020141A903D04199010E02D0000E00D0C1
:1006E00012004FC245F2F0DC070E02013F5D02E04E
:1006F000000E01D0010E00D0120050C245F2E4DC21
:1007000033C235F234C236F202013F51080A4EE0DC
:10071000010A4CE0050A4AE0020A45E0050A2DE01C
:100720000D0A15E0010A13E0070A0EE0020A0CE0C8
:10073000010A0AE0060A08E0040A01E037D048ECA2
:1007400042F0D3EC17F03CD0D3EC17F039D00201D3
:10075000010EAE6F0201110EAD6F7AEC11F00201C5
:100760001451151101E106D00E512F1902E10F515C
:100770003019EDE1080E3F6F23D00201010EAE6F7C
:100780000201110EAD6F7AEC11F002011451151136
:1007900001E106D00E512F1902E10F513019EDE1A0
:1007A0000C0E3F6F0DD00D0E3F6F0AD00201AE6BE5
:1007B0000201140EAD6F7AEC11F0D3EC17F000D0FB
:1007C000120051C245F280DC0201409751C250F242
:1007D0007DEF03F052C245F277DCBDDC0A0EE66E17
:1007E000E66A180EE66E020EE66E530EE66E020E16
:1007F000E66ED2EC67F0006E060EE15E005010C2AD
:100800005DF211C25EF2530E006E020E016E00C068
:10081000F3FF01C0F4FF00D012005FC245F254DCC8
:100820009ADC02010E512F1902E10F51301908E034
:100830000201010EAE6F0201100EAD6F7AEC11F0E5
:10084000120060C245F240DC3FC22CFB070E0B01D8
:100850002C5D06E00B0E2C5D03E0F36AF46A2FD0EA
:10086000020131512F5D325130591BE329512B5D6B
:10087000026E2C512A55036E0206000E035A3151A6
:100880002F5D046E30513255056E0450025C006ECF
:1008900005500358016E00C0F3FF01C0F4FF0FD0F4
:1008A0000ED02F51315D006E32513055016E000671
:1008B000000E015A00C0F3FF01C0F4FF00D0120087
:1008C00061C245F264EC00F061C260F2BADFF3CFBE
:1008D00000FBF4CF01FB0B010051011103E1000EFD
:1008E00063D008D0010E001901E1015103E161C29A
:1008F0005FF293DF02014151010B14E129512B5D9D
:10090000006E2C512A55016ED890013200320B0135
:100910000051005C0151015805E361C25FF27DDFC7
:1009200002014181010E0201C56FC66B0201C46F55
:100930000201620EC26F020EC36F44C2C1F22FC227
:10094000BFF230C2C0F28AEC21F002012F2B000E60
:1009500030232B512F5D2C51305904E329C22FF243
:100960002AC230F20B01010E001901E1015104E12C
:1009700061C25FF252DF16D0020140BB13D0408B40
:10098000F4EC6BF026C000F027C001F0026A036AA5
:10099000060E0026000E01220222032200C03BF2B6
:1009A00001C03CF2010E00D012000B01976B986B56
:1009B00063C245F264EC00F063C260F242DFF3CF41
:1009C00095FBF4CF96FB0B019551961106E163C29E
:1009D0005FF223DFF36AF46AADD095CB93FB96CB3D
:1009E00094FB95510201665D0B0196510201675916
:1009F00004E266C293FB67C294FB4151010B14E110
:100A000029512B5D006E2C512A55016ED890013270
:100A100000320B019551005C9651015805E363C209
:100A20005FF2FBDE0201418102012F510B01932590
:100A3000006E020130510B019421016E02012B5115
:100A4000005C2C5101582DE32F512B5D0B01976F4A
:100A5000020130512C590B01986F97CBC5F298CBFE
:100A6000C6F20201010EC46F64C2C2F265C2C3F2D3
:100A700044C2C1F22FC2BFF230C2C0F28AEC21F0F0
:100A80000B019751020164270B0198510201652364
:100A90000B019751935F9851945B29C22FF22AC2A0
:100AA00030F293CBC5F294CBC6F20201010EC46FB3
:100AB00064C2C2F265C2C3F244C2C1F22FC2BFF225
:100AC00030C2C0F28AEC21F00B01935102012F27B2
:100AD0000B019451020130230B0195510201665D17
:100AE0000B0196510201675904E363C25FF295DE80
:100AF00015D040BB13D0408BF4EC6BF026C000F057
:100B000027C001F0026A036A060E0026000E0122C9
:100B10000222032200C03BF201C03CF20B019351C0
:100B20009725006E94519821016E00C0F3FF01C01B
:100B3000F4FF00D012000B01586B596B68C245F2EC
:100B400064EC00F068C260F27CDEF3CF56FBF4CFB9
:100B500057FB0B015651571106E168C25FF25DDE8B
:100B6000F36AF46AB0D002014151010B14E129513A
:100B70002B5D006E2C512A55016ED8900132003247
:100B80000B015651005C5751015805E368C25FF2F2
:100B900044DE0201418156CB54FB57CB55FB0B0180
:100BA000565102016C5D0B01575102016D5904E26F
:100BB0006CC254FB6DC255FB2F510B015425006EC6
:100BC000020130510B015521016E02012B51005CD5
:100BD0002C51015830E32F512B5D0B01586F02014E
:100BE00030512C590B01596F58CBCDF259CBCEF265
:100BF00069C2CAF26AC2CBF26BC2CCF244C2C9F279
:100C00002FC2C7F230C2C8F202EC23F058CB00F07A
:100C100059CB01F0026A00500201692701506A2392
:100C200002506B230B015851545F5951555B29C237
:100C30002FF22AC230F254CBCDF255CBCEF269C29C
:100C4000CAF26AC2CBF26BC2CCF244C2C9F22FC262
:100C5000C7F230C2C8F202EC23F00B01545102017A
:100C60002F270B015551020130230B015651020170
:100C70006C5D0B01575102016D5904E368C25FF2CC
:100C8000CCDD15D040BB13D0408BF4EC6BF026C00C
:100C900000F027C001F0026A036A060E0026000E6B
:100CA00001220222032200C03BF201C03CF20B01F0
:100CB00054515825006E55515921016E00C0F3FF63
:100CC00001C0F4FF00D012006FC2E6FF70C2E6FF61
:100CD0003AEC68F0E552E552F3CF66F2F4CF67F2F2
:100CE0006FC264F270C265F26EC263F25EDE020130
:100CF0006F51F324006E7051F420016E00C0F3FFB9
:100D000001C0F4FF00D0120072C2E6FF73C2E6FF1A
:100D100074C2E6FF48EC68F0E552E552E55227C0A0
:100D20006CF228C06DF272C269F273C26AF274C2C8
:100D30006BF271C268F2FFDEF3CF03F0F4CF04F080
:100D4000056A020172510324006E73510420016E82
:100D500074510520026E00C027F001C028F002C0C7
:100D600029F000D0120075C245F264EC00F00201D7
:100D700029512B5D0B01026F02012A512C590B01E5
:100D8000036F010E025F000E035B75C260F259DD56
:100D9000F3CF00FBF4CF01FB0B010051025D006EAD
:100DA00003510155016E00C0F3FF01C0F4FF00D0F4
:100DB000120076C277F218D8F3CF00F0F4CF01F02A
:100DC0000050011010E076C245F264EC00F033C22E
:100DD00035F234C236F20201010EAE6F0201100E7E
:100DE000AD6F7AEC11F0120077C245F264EC00F0BE
:100DF00002013551335D365134590CE33551335DC1
:100E0000006E34513655016E00C0F3FF01C0F4FF8F
:100E10001CD01BD035512D5D026E2E513655036E00
:100E2000010E0226000E03222B51335D046E345155
:100E30002C55056E02500424006E03500520016EEF
:100E400000C0F3FF01C0F4FF00D0120078C277F2B7
:100E5000CBDFF3CF00FBF4CF01FB0B0100510111FD
:100E600002E1000E48D078C245F264EC00F00201C5
:100E700079517A1112E0010E0201C56FC66B44C2AE
:100E8000C4F235C2C2F236C2C3F20201C16F79C2E6
:100E9000BFF27AC2C0F28AEC21F00201352B000EBB
:100EA000362335512D5D36512E5904E22BC235F2D1
:100EB0002CC236F20B01010E001901E1015103E1D0
:100EC0000201418516D0020140BB13D0408BF4ECE7
:100ED0006BF026C000F027C001F0026A036A1F0E03
:100EE0000026000E01220222032200C03BF201C0B4
:100EF0003CF2010E00D012000B01326B336B7BC24F
:100F000077F272DFF3CF30FBF4CF31FB0B013051BE
:100F1000311103E1F36AF46AA1D07BC245F264ECBB
:100F200000F002017E510B01305D02017F510B0187
:100F3000315904E230CB7EF231CB7FF202013551E0
:100F40007E25006E36517F21016E00502D5D0150CF
:100F50002E5938E235512D5D0B01326F02013651A9
:100F60002E590B01336F010E3227000E332302017D
:100F70007C517D111BE032CBC5F233CBC6F244C2AB
:100F8000C4F235C2C2F236C2C3F20201010EC16F11
:100F90007CC2BFF27DC2C0F28AEC21F00B0132515B
:100FA00002017C270B01335102017D230B013251D9
:100FB00002017E5F0B01335102017F5B2BC235F2D0
:100FC0002CC236F27C517D1113E07EC2C5F27FC285
:100FD000C6F244C2C4F235C2C2F236C2C3F2020142
:100FE000010EC16F7CC2BFF27DC2C0F28AEC21F05B
:100FF00002017E5135277F5136230B013251020108
:101000007E270B01335102017F237E510B01305D9E
:10101000006E315102017F55016E00507E5D01501E
:101020007F5902E3418515D040BB13D0408BF4ECCF
:101030006BF026C000F027C001F0026A036A1F0EA1
:101040000026000E01220222032200C03BF201C052
:101050003CF27EC2F3FF7FC2F4FF00D0120080C2D8
:1010600045F264EC00F002012B512D5D0B01026F83
:1010700002012C512E590B01036F80C277F2B4DEAE
:10108000F3CF00FBF4CF01FB0B010051025D006EBA
:1010900003510155016E00C0F3FF01C0F4FF00D001
:1010A000120002018451851103E1F36AF46AABD0A6
:1010B00081C245F264EC00F081C277F295DEF3CF95
:1010C00002FBF4CF03FB020186518425006E875199
:1010D0008521016E0B010050025D015003590BE2A6
:1010E000020186510B01025D0201846F87510B01E1
:1010F00003590201856F0201355186250B01006FEE
:101100000201365187210B01016F005102012D5D53
:101110000B01015102012E590FE22B512D5D006E82
:101120002E512C55016E010E0026000E012200509A
:101130000B01005F0150015B0B01005102012D5DAD
:101140000B01046F015102012E590B01056F010EB5
:101150000427000E0523020184510B01045D0201E6
:1011600085510B01055914E384C2C5F285C2C6F24C
:1011700044C2C4F200CBC2F201CBC3F20201010EA1
:10118000C16F82C2BFF283C2C0F28AEC21F036D0B6
:1011900004CBC5F205CBC6F244C2C4F200CBC2F206
:1011A00001CBC3F20201010EC16F82C2BFF283C242
:1011B000C0F28AEC21F00B0104510201845D0201AE
:1011C000C56F0B010551020185590201C66F44C26A
:1011D000C4F22BC2C2F22CC2C3F20201010EC16FD3
:1011E000020182510B0104250201BF6F02018351EC
:1011F0000B0105210201C06F8AEC21F084C2F3FFCC
:1012000085C2F4FF00D0120089C286F28AC287F23A
:10121000010E0201846F856B0201060E826F0B0EB8
:10122000836F88C281F23DDF0B01065100D01200AE
:1012300002018E518F1103E1F36AF46AB2D18BC2BD
:1012400045F264EC00F08BC277F2CEDD02019051E2
:10125000F35C0C01026F02019151F4580C01036F11
:1012600002018E510C01025D02018F510C010359E4
:1012700003E2F368F46895D10201925193110DE0F5
:101280000C0102510201925D0C01035102019359BC
:1012900004E292C202FC93C203FC355190250C017A
:1012A000066F0201365191210C01076F06510201B0
:1012B0002D5D0C01075102012E590FE22B512D5DBE
:1012C000006E2E512C55016E010E0026000E0122DB
:1012D00000500C01065F0150075B06CC00FC07CCF8
:1012E00001FC0C01065102012D5D0C01046F075138
:1012F00002012E590C01056F010E0427000E052373
:1013000090C206FC91C207FC8EC208FC8FC209FC89
:101310008CC20AFC8DC20BFC02018CC2E9FF8DC29B
:10132000EAFF8C2B8D23EFCF0DFC0C010F6B02011C
:10133000945109E0610E0C010D5D05E30D517A0831
:1013400002E3E00E0D270C01200E0E6F0E51045D1E
:10135000000E055902E204CC0EFC0E51025D000E97
:10136000035902E202CC0EFC0E510201C56FC66B9E
:1013700044C2C4F200CCC2F201CCC3F20201010E9D
:10138000C16F0201100EBF6F0C0EC06F8AEC21F00E
:101390000C010E51006E016A00500027015001231C
:1013A0000E51006E016A0050045F0150055B04514C
:1013B000051106E12BC200FC2CC201FC0469056981
:1013C0000201945101E181D00C010C6B0E510C5DB6
:1013D00001E37AD00C51EA6A100FE96E0C0EEA2292
:1013E000EFCF00F0610E005C13E30C51EA6A100FBE
:1013F000E96E0C0EEA22EF507A080AE3E00E006E66
:101400000C51EA6A100FE96E0C0EEA220050EF262A
:101410000C51EA6A100FE96E0C0EEA22EF500D5DD6
:1014200033E102018E07000E8F5B8E518F1117E1A1
:101430000C010851065D026E07510955036E0C51EF
:1014400000010224006E000E0320016E010E002632
:10145000000E012200C0F3FF01C0F4FFA2D08CC235
:10146000E9FF8DC2EAFF8C2B000E8D23EFCF0DFC20
:101470000C01010E0F6F610E0D5D05E30D517A0831
:1014800002E3E00E0D271ED008CC8EF209CC8FF2BD
:101490000F5118E00ACC8CF20BCC8DF202018CC2F9
:1014A000E9FF8DC2EAFF8C2B000E8D23EFCF0DFCE0
:1014B000610E0C010D5D05E30D517A0802E3E00EAB
:1014C0000D270F6B0C2B82D751D00C010C6B0E51DA
:1014D0000C5D4CE20C51EA6A100FE96E0C0EEA2228
:1014E000EF500D5D2BE102018E07000E8F5B8E51D8
:1014F0008F1117E10C010851065D026E0751095565
:10150000036E0C5100010224006E000E0320016ED8
:10151000010E0026000E012200C0F3FF01C0F4FFFF
:1015200040D08CC2E9FF8DC2EAFF8C2B000E8D23C8
:10153000EFCF0DFC0C01010E0F6F16D008CC8EF210
:1015400009CC8FF20F5110E00ACC8CF20BCC8DF24B
:1015500002018CC2E9FF8DC2EAFF8C2B000E8D23A5
:10156000EFCF0DFC0C010F6B0C2BB1D70E51006EA1
:10157000016A0050025F0150035B02018E510C01B1
:10158000025D02018F510C01035903E2F368F46814
:1015900008D00E51006E016A005006270150072343
:1015A000D2D61200020199519A1103E1F36AF46A4A
:1015B000CCD195C245F264EC00F095C277F214DC10
:1015C00002019B51F35C0C01026F02019C51F45823
:1015D0000C01036F020199510C01025D02019A5145
:1015E0000C01035903E2F368F468AFD102019D5185
:1015F0009E110DE00C01025102019D5D0C01035191
:1016000002019E5904E29DC202FC9EC203FC3551B8
:101610009B250C01066F020136519C210C01076FBE
:10162000065102012D5D0C01075102012E590FE2F6
:101630002B512D5D006E2E512C55016E010E002692
:10164000000E012200500C01065F0150075B06CC22
:1016500000FC07CC01FC0C01065102012D5D0C01C0
:10166000046F075102012E590C01056F010E04276A
:10167000000E05239BC206FC9CC207FC99C208FC15
:101680009AC209FC96C20AFC97C20BFC98C20CFCD9
:10169000020196C2F6FF962B97C2F7FF972398C2D6
:1016A000F8FF98230800F5CF0EFC0C01106B020127
:1016B0009F5109E0610E0C010E5D05E30E517A08A1
:1016C00002E3E00E0E270C01200E0F6F0F51045D98
:1016D000000E055902E204CC0FFC0F51025D000E12
:1016E000035902E202CC0FFC0F510201C56FC66B19
:1016F00044C2C4F200CCC2F201CCC3F20201010E1A
:10170000C16F0201110EBF6F0C0EC06F8AEC21F089
:101710000C010F51006E016A005000270150012397
:101720000F51006E016A0050045F0150055B0451C7
:10173000051106E12BC200FC2CC201FC04690569FD
:1017400002019F5101E18BD00C010D6B0F510D5D1A
:1017500001E384D00D51EA6A110FE96E0C0EEA2202
:10176000EFCF00F0610E005C13E30D51EA6A110F38
:10177000E96E0C0EEA22EF507A080AE3E00E006EE2
:101780000D51EA6A110FE96E0C0EEA220050EF26A5
:101790000D51EA6A110FE96E0C0EEA22EF500E5D50
:1017A00037E102019907000E9A5B99519A1117E1EE
:1017B0000C010851065D026E07510955036E0D516B
:1017C00000010224006E000E0320016E010E0026AF
:1017D000000E012200C0F3FF01C0F4FFB6D096C294
:1017E000F6FF962B97C2F7FF000E972398C2F8FFDB
:1017F00098230800F5CF0EFC0C01010E106F610E4E
:101800000E5D05E30E517A0802E3E00E0E2724D0A8
:1018100008CC99F209CC9AF210511EE00ACC96F24B
:101820000BCC97F20CCC98F2020196C2F6FF962BE5
:1018300097C2F7FF000E972398C2F8FF982308007D
:10184000F5CF0EFC610E0C010E5D05E30E517A081A
:1018500002E3E00E0E27106B0D2B78D75BD00C0146
:101860000D6B0F510D5D56E20D51EA6A110FE96ED5
:101870000C0EEA22EF500E5D2FE102019907000ED7
:101880009A5B99519A1117E10C010851065D026E9D
:1018900007510955036E0D5100010224006E000E20
:1018A0000320016E010E0026000E012200C0F3FF8E
:1018B00001C0F4FF4AD096C2F6FF962B97C2F7FFFD
:1018C000000E972398C2F8FF98230800F5CF0EFC6E
:1018D0000C01010E106F1CD008CC99F209CC9AF2C1
:1018E000105116E00ACC96F20BCC97F20CCC98F281
:1018F000020196C2F6FF962B97C2F7FF000E9723C0
:1019000098C2F8FF98230800F5CF0EFC0C01106B6D
:101910000D2BA7D70F51006E016A0050025F0150D6
:10192000035B020199510C01025D02019A510C0105
:10193000035903E2F368F46808D00F51006E016A9E
:101940000050062701500723BED61200A6C294F20B
:10195000A4C292F2A5C293F2A2C290F2A3C291F2E3
:10196000010E02018E6F8F6B0201A10E8C6F020EB1
:101970008D6FA0C28BF25CDC00D012000B01546BA7
:101980005451006E016A010E005C000E015801E323
:101990006CD354CB45F264EC00F00B01576B556BE4
:1019A000566B02014151020B03E14151040B0EE061
:1019B000BCEC4CF000090AE00B01100E576F02015D
:1019C0004151040B01E0010E0B01556F020140ABC8
:1019D00013D0F4EC6BF0020126503B5D006E2750F3
:1019E0003C59016E013404E200500008000E01541D
:1019F00003E30B01100E576F020140AD13D0F4EC5E
:101A00006BF0020126503D5D006E27503E59016E7D
:101A1000013404E200500008000E015403E30B01FE
:101A2000100E576F0B0E02013F5D16E1F4EC6BF0E8
:101A3000020126503D5D006E27503E59016E013473
:101A400004E200500008000E015406E30B01110EE1
:101A5000576F02010C0E3F6F040E3F5D01E00AD18B
:101A60000B01586B596B030E585D000E595901E379
:101A700001D158CBE9FF59CBEAFF140EEA02F3CFAC
:101A8000EAFFE902F3CFE9FFF450EA26000EE92667
:101A90000E0EEA22100EE926000EEA22EE50ED109C
:101AA00001E1E8D058CBE9FF59CBEAFF140EEA0276
:101AB000F3CFEAFFE902F3CFE9FFF450EA26000E84
:101AC000E9260E0EEA22100EE926000EEA22EECFDB
:101AD00000F0EFCF01F002014251001802E1435142
:101AE000011801E0C2D0ABEC00F00A0EE66EE66A27
:101AF00058CBE9FF59CBEAFF140EEA02F3CFEAFF15
:101B0000E902F3CFE9FFF450EA26000EE9260E0EB3
:101B1000EA22E9CF00F0EACF01F000C0E6FF01C001
:101B2000E6FF180EE66E020EE66ED2EC67F0026E6D
:101B3000060EE15E025058CBE9FF59CBEAFF140EC6
:101B4000EA02F3CFEAFFE902F3CFE9FFF450EA2615
:101B5000000EE9260E0EEA220A0EE926000EEA22FF
:101B6000EECF10F2EDCF11F258CBE9FF59CBEAFFDF
:101B7000140EEA02F3CFEAFFE902F3CFE9FFF450D3
:101B8000EA26000EE9260E0EEA220C0EE926000EC9
:101B9000EA22EECF0AF2EECF0BF2EECF0CF2EFCF4D
:101BA0000DF202010A2B0B230C230D231A511825C9
:101BB000026E1B511921036E02501025006E035056
:101BC0001121016E00501219426F01501319436F19
:101BD0000B01120E576F0201060E3F6F58CBC5F274
:101BE00059CBC6F20201020ED880C557000EC65767
:101BF000140EC603F3CFC6F2C503F3CFC5F2F450FB
:101C0000C6270201010EC46F0B0158250201C26FE5
:101C1000000E0B0159210201C36F140EC303F3CF51
:101C2000C3F2C203F3CFC2F2F450C327000EC2279F
:101C30000E0EC3230201010EC16F140E286E296A15
:101C400058CB2DF059CB2EF033EC52F026C0BFF21A
:101C500027C0C0F2000E0201BF270E0EC0238AEC7F
:101C600021F00E01386B396B05D00B01582B000E9B
:101C70005923F9D60B0157510AE0555102E0000EE5
:101C800001D0010E0201AE6F57CBADF233DB020182
:101C900040B94ED0070E3F5D4AE1E9EC6BF002011E
:101CA0003751265C006E38512758016E395128583B
:101CB000026E3A512958036E0001800E031401E0B0
:101CC000D1D102014051070B060815E14051080B24
:101CD00001E0010E0B01576F54CB50F27DEC03F085
:101CE00054CB50F27DEC03F00B01575103E102019C
:101CF0000E0E3F6FB7D1ABEC00F00201020EAE6FDB
:101D00000201100EAD6FF6DAE9EC6BF026C037F287
:101D100027C038F228C039F229C03AF2740E020105
:101D20003727350E3823060E3923000E3A239AD171
:101D3000E9EC6BF002013751265C006E38512758F0
:101D4000016E39512858026E3A512958036E00012C
:101D5000800E031401E086D1ABEC00F002013F518C
:101D60000C0A01E11ED1060A01E10CD1030A01E1CE
:101D700003D1010A01E1F1D00F0A01E1DFD00C0A21
:101D800001E1DCD00D0A01E1C4D0030A01E1AED0CB
:101D9000060A01E17BD0010A68E0030A20E0010A9B
:101DA00001E00ED13FEC42F0000918E00201010E03
:101DB0003F6F24A50BD00301166F18C213F319C28D
:101DC00014F31AC215F37BEC42F008D00301126F32
:101DD00018C210F319C211F35BEC42F0F1D0030109
:101DE0005A0E176F0B0E186F9EEC42F000093CE084
:101DF00048EC42F0000924E05ACB18F25BCB19F210
:101E00005CCB1AF25DCB1BF20201020E3F6F1A513E
:101E10001825026E1B511921036E02501025006E09
:101E200003501121016E00501219426F0150131915
:101E3000436F276B270E026F036B046B056B14D087
:101E4000E9EC6BF026C037F227C038F228C039F22F
:101E500029C03AF2740E02013727350E3823060ED8
:101E60003923000E3A233F6BABD0F4EC6BF026C065
:101E70003BF227C03CF20301180E7E6F020E7F6F0B
:101E800047EC5CF00201030E3F6F9AD003011C0E79
:101E9000826F020E836F0301180E806F020E816F36
:101EA0008BEC5CF000091AE1F4EC6BF002013B51A1
:101EB000265C006E3C512758016E0050025D0150B7
:101EC00003590BE2060E275D06E2272BD890023756
:101ED000033704370537020E3F6F72D00B01020E35
:101EE000576F556B0201050E3F6F6AD00B01020E52
:101EF000576F010E556F040E0201275D09E3040EB2
:101F0000276F200E026FEF0E036F090E046F056B33
:101F100057D0020E275D06E20B01120E576F010E1D
:101F2000556F0BD040A706D00B01140E576F010E52
:101F3000566F03D00B01020E576F42D0050E275D7E
:101F400006E20B01100E576F010E556F05D0080EFB
:101F50003F6F0B01110E576F33D0050E275D06E260
:101F60000B01110E576F010E556F05D00B01140EAA
:101F7000576F010E566F24D00B01140E576F010ED0
:101F8000566F1ED0050E275D06E20B01100E576F2F
:101F9000010E556F05D00B01140E576F010E566FD1
:101FA0000FD0050E275D06E20B01110E576F010ED3
:101FB000556F05D00B01140E576F010E566F00D0F0
:101FC0000B0157514AE0555142E00201272BD890AE
:101FD000023703370437053731510E5D0B01586F57
:101FE000020132510F590B01596F020131510E5D3F
:101FF00032510F590BE229512B5D006E2C512A559D
:10200000016E00500B0158270150592358CB00F0A6
:1020100059CB01F0026A036A00500201065F0150C9
:10202000075B0250085B0350095B0B01585102012A
:1020300014270B0159510201152331C20EF232C28D
:102040000FF20201AE6B57CBADF254D906D00201AC
:10205000010EAE6F57CBADF24DD90B01565102E0D8
:10206000D3EC17F00B01542B8BD4586B596B030E28
:10207000585D000E595901E399D058CBE9FF59CB6F
:10208000EAFF140EEA02F3CFEAFFE902F3CFE9FF19
:10209000F450EA26000EE9260E0EEA22100EE9267A
:1020A000000EEA22EE50ED1001E180D058CBE9FF9E
:1020B00059CBEAFF140EEA02F3CFEAFFE902F3CFAD
:1020C000E9FFF450EA26000EE9260E0EEA22120E6F
:1020D000E926000EEA22EECF02F0EFCF03F002C0B5
:1020E000E6FF03C0E6FFF4EC6BF0E552E7CF03F048
:1020F000E552E7CF02F00250265C006E03502758ED
:10210000016EDC0ED8800054010E01544AE258CB17
:10211000C5F259CBC6F20201020ED880C557000E97
:10212000C657140EC603F3CFC6F2C503F3CFC5F2EC
:10213000F450C6270201010EC46F0B01582502019D
:10214000C26F000E0B0159210201C36F140EC303AD
:10215000F3CFC3F2C203F3CFC2F2F450C327000E91
:10216000C2270E0EC3230201010EC16F140E286E8A
:10217000296A58CB2DF059CB2EF033EC52F026C003
:10218000BFF227C0C0F2000E0201BF270E0EC0230F
:102190008AEC21F00E01386B396B0B015807000EE9
:1021A000595B0B01582B000E592361D71200A7C2AF
:1021B000E9FFA8C2EAFFEECF14FBEECF15FBEECF8E
:1021C00016FBEFCF17FBA9C2E9FFAAC2EAFFEECFC9
:1021D00018FBEECF19FBEECF1AFBEFCF1BFB0B0169
:1021E0001C6B060E1D6FABC21EFBACC21FFB1ECBD1
:1021F00056FE1FCB57FE0EEC4BF0F3CF1EFBF4CF79
:102200001FFB0C0E0E015E6F5F6B0E01140E5C6FF8
:102210000B0E5D6F35EC4BF0F3CF20FBF4CF21FBC1
:102220000B01201F211FABC27AF0ACC27BF0B2ECD5
:102230004EF0F3CF22FBF4CF23FB0B0122512019E8
:1022400002E12351211904E0D9EC4CF0010E51D0E8
:1022500004010E6B0F6B42EC63F0140E0001846FEF
:10226000856B0001000E826F0B0E836F1CEC50F02B
:102270000201000EB36F0B0EB46FF8EC16F00B01F9
:102280000C51F00BE842E842E842E842040DF350FA
:10229000006E016A140E005E000E015A00C024FB9D
:1022A0002451006E016A00500201AB5DAB6F01501A
:1022B000AC59AC6F140EAB5F000EAC5BA7C2B1F2B1
:1022C000A8C2B2F20201000EAF6F0B0EB06FE6DAD9
:1022D00000090BE0ABC2B7F2ACC2B8F20201000ECB
:1022E000B56F0B0EB66F9CEC18F0D9EC4CF0010EEC
:1022F00000D01200ABEC00F00201ADA102D041878A
:10230000AD91409B409D409F419341954191BCECD4
:102310004CF0000901E1FBD7060E0201AD1504E007
:102320000B01526B536BFBD00E512F1902E10F5171
:10233000301904E10B01526B536BD9D02F510E5D54
:1023400030510F593FE20E512F5D0B01526F0201C8
:102350000F5130590B01536F52510201145D0B01A3
:1023600053510201155904E214C252FB15C253FB2A
:102370000B0152510201255D0B01535102012659F7
:1023800005E225C252FB26C253FB418552CBC5F262
:1023900053CBC6F244C2C4F20EC2C2F20FC2C3F2A1
:1023A0000201C16B0201510EBF6F0F0EC06F8AECAC
:1023B00021F00B01525102010E270B015351020172
:1023C0000F2395D00E512B5D0B01506F02010F5161
:1023D0002C590B01516F505102012F25006E0B013A
:1023E000515102013021016E2951005C0B01526FE5
:1023F00002012A5101580B01536F52510201145D21
:102400000B0153510201155904E214C252FB15C2CB
:1024100053FB0B0152510201255D0B015351020187
:10242000265905E225C252FB26C253FB41850B010A
:102430005051525D5151535904E252CB50FB53CB92
:1024400051FB50CBC5F251CBC6F244C2C4F20EC20E
:10245000C2F20FC2C3F20201C16B0201510EBF6F83
:102460000F0EC06F8AEC21F00B015051525D506F7E
:1024700051515359516F5051511122E050CBC5F277
:1024800051CBC6F244C2C4F229C2C2F22AC2C3F27C
:102490000201C16B02010E512B5D006E2C510F55D4
:1024A000016E026A036A510E00260F0E0122000E11
:1024B0000222032200C0BFF201C0C0F28AEC21F068
:1024C0000B01525102010E270B01535102010F2340
:1024D0002B510E5D2C510F590AE329512B5D006ED3
:1024E0002C512A55016E00500E5F01500F5B020106
:1024F00041A715D014510B01521904E102011551E5
:102500000B0153190CE0020125510B01521904E192
:10251000020126510B01531902E00201AD810B01AA
:102520005251531104E1030E0201AD1529E00B01D4
:1025300052510201145F0B0153510201155B0B0153
:102540005251531102E00201AD870201AEA107D042
:10255000276BF20E026F9E0E036F046B056BE9ECA6
:102560006BF0265002010225376F27500321386F88
:1025700028500421396F295005213A6F408938D0FD
:10258000AEA31BD0400EE96E020EEA6EEF50070BB1
:10259000E82AF36EF350070BF36EF46EF80EEF14A7
:1025A000F310EF6EF4500607000E075B085B095B43
:1025B000010E0B01526F536B1BD040A919D0AEB165
:1025C00008D0275106E02707D8900533043303339A
:1025D0000233E9EC6BF0265002010225376F2750D9
:1025E0000321386F28500421396F295005213A6F93
:1025F00012C22EFB13C22FFB10C230FB11C231FBE3
:1026000006C232FB07C233FB08C234FB09C235FBEA
:102610000AC236FB0BC237FB0CC238FB0DC239FBBA
:102620000B013B9D3B9F3A913A933A953A97ADC245
:102630003BFB406B416B5251020106270B0153518A
:1026400002010723000E08230923ADA315D0ADB95D
:1026500005D00B01366B376B386B396B020124A345
:1026600006D00B013207335B345B355B05D0062B9C
:1026700007230823092324830201ADA10DD024A13F
:1026800006D00B013207335B345B355B05D0062B7C
:10269000072308230923248102013551335D365174
:1026A000345914E32B512D5D006E2E512C55016EC3
:1026B0003551335D026E34513655036E0B010250B5
:1026C000005C3C6F035001583D6F0DD03351355DB8
:1026D0000B013C6F0201345136590B013D6F010E65
:1026E0003C5F000E3D5B0FEC4DF0F3CF2CFBF4CFC5
:1026F0002DFB0B01400E2C5D000E2D5903E22C6BBF
:102700002D6B04D0400E2C5F000E2D5B3C512C5DD8
:102710003D512D5904E22CCB3CFB2DCB3DFB02015E
:102720002E0EB36F0B0EB46F63DB140E0B0152272A
:10273000000E53233A893A9B3A8D3A9F0201ADA38A
:1027400026D0040E0B015227000E5323020E426FB7
:10275000040E436F020E446F180E456F010E006E9B
:102760003A0EE96E0B0EEA6EEF50F00BE842E842CB
:10277000E842E84200240F0BF36EF46EF346F34692
:10278000F346F3460F0EEF14F310EF6EF450C8C08B
:1027900046FBC9C047FBCAC048FBCBC049FB18C2B7
:1027A0004AFB19C24BFB1AC24CFB1BC24DFB0B016F
:1027B0004E6B060E4F6F52CB50FB53CB51FB50CBA1
:1027C00056FE51CB57FE0EEC4BF0F3CF50FBF4CF3F
:1027D00051FB0C0E0E015E6F5F6B0E01460E5C6FBF
:1027E0000B0E5D6F35EC4BF0F3CF3EFBF4CF3FFBB0
:1027F0000B013E1F3F1F0001290E726F0F0E736FFA
:1028000057EC4EF052CB0CF453CB0DF40401060EF2
:102810000B6F0401180E096F020E0A6FCEEC62F006
:10282000140E0001896F8A6B00012E0E876F0B0E4C
:10283000886F54EC50F00201ADA30BD0040E0001E0
:10284000896F8A6B0001420E876F0B0E886F54EC04
:1028500050F000013D0E746F0F0E756F65EC4EF079
:1028600052CB7AF053CB7BF0B2EC4EF0F3CF2CFB93
:10287000F4CF2DFB00014D0E726F0F0E736F57ECEE
:102880004EF0020E0001896F8A6B00012C0E876FDB
:102890000B0E886F54EC50F01BEF4EF0AFC2E9FF07
:1028A000B0C2EAFF020EE926000EEA22EE50ED1059
:1028B00002E1000E9CD20B01FE0E266FB1C2E9FFB1
:1028C000B2C2EAFF020EE926000EEA22EECF04F0C1
:1028D000EFCF05F0B1C2E9FFB2C2EAFF0450EE2427
:1028E000026E0550EE20036EAFC2E9FFB0C2EAFFF0
:1028F0000250EE24006E0350EE20016EAFC2E9FFDD
:10290000B0C2EAFF020EE926000EEA220050EE18DD
:10291000276F0150EE18286F256B2551006E016A54
:10292000010E005C000E015867E225CB45F264EC15
:1029300000F00D0E02013F5D02E15BD024D0040ED9
:102940003F5D16E1AFC2E9FFB0C2EAFF020EE92621
:10295000000EEA22EECF00F0EFCF01F00050421956
:1029600002E10150431902E125CB26FB42D00BD0F6
:102970000B0127510201421904E10B012851020108
:10298000431901E036D0ABEC00F0AFC2E9FFB0C2B2
:10299000EAFF020EE926000EEA22EECF00F0EFCFAA
:1029A00001F002011251001802E11351011821E156
:1029B000AFC2E9FFB0C2EAFFEECF02F0EFCF03F003
:1029C0001051021802E11151031813E1B1C2E9FFDD
:1029D000B2C2EAFFEE50181909E1EE50191906E1EA
:1029E000EE501A1903E1EE501B1900E102E1010E4D
:1029F000FED10B01252B91D7FE0E265D39E026CBAB
:102A000045F264EC00F0ABEC00F0FE0E0B01265D2D
:102A10002FE027CB42F228CB43F20A0EE66EE66A9D
:102A2000B1C2E6FFB2C2E6FF180EE66E020EE66E17
:102A3000D2EC67F0006E060EE15E0050AFC2E9FF17
:102A4000B0C2EAFFEECF10F2EDCF11F2AFC2E9FF54
:102A5000B0C2EAFF020EE926000EEA22EECF12F221
:102A6000EDCF13F229C20EF22AC20FF2010EBFD12E
:102A7000AFC2E9FFB0C2EAFF0D0EE926000EEA225E
:102A8000EF50020B02E1000EB2D10E0138513911A4
:102A900002E0000EACD10B01296B2A6B030E295DFD
:102AA000000E2A5901E3BED029CBE9FF2ACBEAFF69
:102AB000140EEA02F3CFEAFFE902F3CFE9FFF45084
:102AC000EA26000EE9260E0EEA22100EE926000E76
:102AD000EA22EE50ED1001E1A5D029CBE9FF2ACB87
:102AE000EAFF140EEA02F3CFEAFFE902F3CFE9FFAF
:102AF000F450EA26000EE9260E0EEA22100EE92610
:102B0000000EEA22EECF00F0EFCF01F0AFC2E9FFF6
:102B1000B0C2EAFF020EE926000EEA22EECF02F072
:102B2000EFCF03F00250001802E10350011801E05A
:102B300074D029CBE9FF2ACBEAFF140EEA02F3CFC7
:102B4000EAFFE902F3CFE9FFF450EA26000EE92696
:102B50000E0EEA220A0EE926000EEA22EECF00F05F
:102B6000EFCF01F0AFC2E9FFB0C2EAFFEECF02F053
:102B7000EFCF03F00250001802E10350011801E00A
:102B80004CD0B1C2E9FFB2C2EAFFEECF00F0EECF07
:102B900001F0EECF02F0EFCF03F029CBE9FF2ACB13
:102BA000EAFF140EEA02F3CFEAFFE902F3CFE9FFEE
:102BB000F450EA26000EE9260E0EEA22EE5000013D
:102BC000001809E1EE50011806E1EE50021803E189
:102BD000EE50031800E101E020D0F4EC6BF026C0C9
:102BE00000F027C001F029CBE9FF2ACBEAFF140E41
:102BF000EA02F3CFEAFFE902F3CFE9FFF450EA2655
:102C0000000EE9260E0EEA22120EE926000EEA2236
:102C100000C0EEFF01C0EDFFEAD00B01292B000E32
:102C20002A233CD7256B2551006E016A010E005CFA
:102C3000000E015801E3D9D025CB45F264EC00F039
:102C4000020140A7CFD0ABEC00F0AFC2E9FFB0C2A9
:102C5000EAFF020EE926000EEA22EECF00F0EFCFE7
:102C600001F000500201121902E10150131901E0B4
:102C7000B9D00A0EE66EE66AB1C2E6FFB2C2E6FF5E
:102C800029CBE9FF2ACBEAFF140EEA02F3CFEAFFD1
:102C9000E902F3CFE9FFF450EA26000EE9260E0E12
:102CA000EA22E9CF00F0EACF01F000C0E6FF01C060
:102CB000E6FFD2EC67F0026E060EE15E0250AFC294
:102CC000E9FFB0C2EAFFEECF00F0EFCF01F029CB71
:102CD000E9FF2ACBEAFF140EEA02F3CFEAFFE9028A
:102CE000F3CFE9FFF450EA26000EE9260E0EEA22A1
:102CF0000A0EE926000EEA2200C0EEFF01C0EDFF39
:102D0000AFC2E9FFB0C2EAFF040EE926000EEA22D4
:102D1000EECF00F0EECF01F0EECF02F0EFCF03F0F8
:102D200029CBE9FF2ACBEAFF140EEA02F3CFEAFF30
:102D3000E902F3CFE9FFF450EA26000EE9260E0E71
:102D4000EA220C0EE926000EEA2200C0EEFF01C0C6
:102D5000EEFF02C0EEFF03C0EEFFAFC2E9FFB0C25C
:102D6000EAFF020EE926000EEA22EECF00F0EFCFD6
:102D700001F029CBE9FF2ACBEAFF140EEA02F3CFD8
:102D8000EAFFE902F3CFE9FFF450EA26000EE92654
:102D90000E0EEA22100EE926000EEA2200C0EEFF17
:102DA00001C0EDFFF4EC6BF026C000F027C001F08D
:102DB00029CBE9FF2ACBEAFF140EEA02F3CFEAFFA0
:102DC000E902F3CFE9FFF450EA26000EE9260E0EE1
:102DD000EA22120EE926000EEA2200C0EEFF01C030
:102DE000EDFF05D00B01252B1ED7000E00D01200E1
:102DF000B3C2E9FFB4C2EAFFEECF56FEEDCF57FEF5
:102E00000EEC4BF0F3CF00F0F4CF01F0B3C2E9FFCA
:102E1000B4C2EAFF00C0EEFF01C0EDFFB3C2E9FF9C
:102E2000B4C2EAFF020EE926000EEA22EECF56FEF9
:102E3000EDCF57FE0EEC4BF0F3CF00F0F4CF01F0E6
:102E4000B3C2E9FFB4C2EAFF020E00C0EBFF030EFB
:102E500001C0EBFFB3C2E9FFB4C2EAFF040EE926EA
:102E6000000EEA22EECF58FEEECF59FEEECF5AFE0C
:102E7000EFCF5BFE1EEC4BF026C000F027C001F048
:102E800028C002F029C003F0B3C2E9FFB4C2EAFFD0
:102E9000040EE926000EEA2200C0EEFF01C0EEFF9C
:102EA00002C0EEFF03C0EEFFB3C2E9FFB4C2EAFF07
:102EB000080EE926000EEA22EECF58FEEECF59FEAC
:102EC000EECF5AFEEFCF5BFE1EEC4BF026C000F0BB
:102ED00027C001F028C002F029C003F0B3C2E9FF07
:102EE000B4C2EAFF080EE926000EEA2200C0EEFF97
:102EF00001C0EEFF02C0EEFF03C0EEFFB3C2E9FF68
:102F0000B4C2EAFF0E0EE926000EEA22EECF56FE0C
:102F1000EDCF57FE0EEC4BF0F3CF00F0F4CF01F005
:102F2000B3C2E9FFB4C2EAFF0E0E00C0EBFF0F0E02
:102F300001C0EBFFB3C2E9FFB4C2EAFF100EE926FD
:102F4000000EEA22EECF56FEEDCF57FE0EEC4BF010
:102F5000F3CF00F0F4CF01F0B3C2E9FFB4C2EAFF4F
:102F6000100E00C0EBFF110E01C0EBFFB3C2E9FF72
:102F7000B4C2EAFF120EE926000EEA22EECF56FE98
:102F8000EDCF57FE0EEC4BF0F3CF00F0F4CF01F095
:102F9000B3C2E9FFB4C2EAFF120E00C0EBFF130E8A
:102FA00001C0EBFF1200ABEC00F012C242F213C200
:102FB00043F229C22FF22AC230F229C231F22AC2C8
:102FC00032F22BC233F22CC234F22BC235F22CC2B5
:102FD00036F202014051080B02E0040E01D00D0E42
:102FE0003F6F4091409340954099409B409D409F4A
:102FF000419141934195419741892491249324978C
:10300000249929C20EF22AC20FF281EC47F0F3CFC5
:1030100006F2F4CF07F281EC47F0F3CF08F2F4CFD9
:1030200009F2020122692369010E146F156B120067
:103030000C0E04010E6F0F6B42EC63F019EC50F0B4
:103040000B01256FF00E2515E840E8403F0B006EA0
:10305000016A140E005E000E015A00C025FB2551C6
:1030600005E1180EF36E020EF46E65D0070E000136
:10307000846F856B0001826B836B1CEC50F00B013D
:1030800025512507000952E019EC50F00B01266F7D
:10309000265101E14BD0260501E1F1D7020E265D54
:1030A0002CE1030E255D01E241D0276B286B19EC62
:1030B00050F00B01266F040E265D08E119EC50F06C
:1030C0000B01286F19EC50F00B01276F180E275DCC
:1030D000020E285901E22AD0B40ED8802755050ED9
:1030E000285506E2B40EF36E050EF46E24D01DD002
:1030F00027CBF3FF28CBF4FF1ED0020E255D01E2A3
:1031000015D019EC50F00B01266F2651255D01E218
:103110000DD026510001846F856B0001826B836B9B
:103120001CEC50F00B012651255FA9D7180EF36E49
:10313000020EF46E00D01200B5C2E9FFB6C2EAFF7B
:103140000D0EE926000EEA22EFCF62FBB5C2E9FFC1
:10315000B6C2EAFF080EE926000EEA22EECF63FBB4
:10316000EECF64FBEECF65FBEFCF66FBB5C2E9FFA8
:10317000B6C2EAFF040EE926000EEA22EECF67FB94
:10318000EECF68FBEECF69FBEFCF6AFB0201409107
:103190004093409540B913D0E9EC6BF026C037F26C
:1031A00027C038F228C039F229C03AF2740E020161
:1031B0003727350E3823060E3923000E3A233F51A8
:1031C000050A48E0010A08E0B7C26BFBB8C26CFB15
:1031D0000B0162A1CFD0CBD00B0162A503D0E3DEFF
:1031E0005DEF20F062A912D063CB06F264CB07F248
:1031F00065CB08F266CB09F20201AE6B0201040E48
:10320000AD6F7AEC11F0CFDE5DEF20F062A31FD03E
:1032100067CB0AF268CB0BF269CB0CF26ACB0DF2EA
:1032200002010A2B000E0B230C230D2301DFF3CF29
:1032300025F2F4CF26F20201010EAE6F0201120E4A
:10324000AD6F7AEC11F00201060E3F6F01D0ABDEDC
:103250005DEF20F00B0162A502D05DEF20F062A9C6
:1032600034D0630EE96E0B0EEA6EEE5002010619C1
:1032700009E1EE50071906E1EE50081903E1EE509E
:10328000091900E122E006C267FB07C268FB08C219
:1032900069FB09C26AFB63CB06F264CB07F265CB1C
:1032A00008F266CB09F20201010EAE6F0201040EB4
:1032B000AD6F7AEC11F067CB06F268CB07F269CB01
:1032C00008F26ACB09F25DEF20F00B0162A34DD04A
:1032D00067CB0AF268CB0BF269CB0CF26ACB0DF22A
:1032E00002010A2B000E0B230C230D23B5C2E9FFAC
:1032F000B6C2EAFF0E0EE926000EEA22EECF14F265
:10330000EDCF15F295DEF3CF25F2F4CF26F20B01C7
:1033100062A920D00201010EAE6F0201100EAD6F46
:103320007AEC11F00201070E3F6FE9EC6BF026C05A
:1033300037F227C038F228C039F229C03AF2740EA9
:1033400002013727350E3823060E3923000E3A23A3
:1033500040990BD00201010EAE6F0201120EAD6F4B
:103360007AEC11F00201060E3F6F5DEF20F06B2B3F
:10337000000E6C2362A303D06B2B000E6C230201A2
:103380003551335D3651345914E32B512D5D006EA8
:103390002E512C55016E3551335D026E3451365528
:1033A000036E0B010250005C606F03500158616FA7
:1033B0000DD03351355D0B01606F02013451365928
:1033C0000B01616F010E605F000E615B0A0EE96E1A
:1033D000020EEA6EEE50675D5A6FEE5068595B6FF1
:1033E000EE5069595C6FEE506A595D6F5ACB5EFBC7
:1033F0005BCB5FFB6D6B6B516C1101E17BD060515E
:10340000611101E176D0800E5D1512E160CB00F014
:1034100061CB01F0026A036A00505A5D01505B59AA
:1034200002505C5903505D5903E2010E6D6F3DD0AF
:103430006BCB00F06CCB01F0026A036A5A0EE96EA6
:103440000B0EEA6EEE500026EE500122EE500222E4
:10345000EE5003220334000E031809E6D880000E54
:103460000054000E0154000E0254000E03541DE2DD
:103470006B51605D046E61516C55056E066A076A9A
:1034800005AE02D00668076807505D19E8AE02D0A5
:103490005D3508D05A51045C5B5105585C510658A3
:1034A0005D51075802E3010E6D6F60CB00F061CBF8
:1034B00001F0026A036A5D510318E8AE02D00334DA
:1034C00008D000505A5D01505B5902505C590350BE
:1034D0005D590FE25E516B25046E5F516C21056EE4
:1034E000053404E204500008000E055402E2010E07
:1034F0006D6F1CD05A515B115C115D1103E1010E1F
:103500006D6F14D0800E5D1511E160CB00F061CBC2
:1035100001F0026A036A00505A5D01505B59025083
:103520005C5903505D5902E2010E6D6F6D510CE163
:1035300062B508D00201010EAE6F0201100EAD6F30
:103540007AEC11F05DEF20F0060E621503E02BDD42
:103550005DEF20F062B902D05DEF20F002013F5133
:103560000C0A01E17ED20B0A40E00F0A3EE0010A9C
:103570003CE0020A3AE0010A38E00C0A01E086D297
:10358000630EE96E0B0EEA6EEE50061909E1EE507D
:10359000071906E1EE50081903E1EE50091900E1A0
:1035A00022E006C267FB07C268FB08C269FB09C2CA
:1035B0006AFB63CB06F264CB07F265CB08F266CBFD
:1035C00009F20201010EAE6F0201040EAD6F7AEC3A
:1035D00011F067CB06F268CB07F269CB08F26ACB31
:1035E00009F25DEF20F0070E3F6F0E512F5D0B01CA
:1035F000586F02010F5130590B01596F800E591548
:103600000CE0020129512B5D006E2C512A55016EF0
:1036100000500B0158270150592358CB00F059CBCB
:1036200001F0026A036A060EE96E020EEA6EEE50BF
:103630000024546FEE500120556FEE500220566F5B
:10364000EE500320576F630EE96E0B0EEA6EEE50DC
:10365000545D006EEE505559016EEE505659026E93
:10366000EE505759036E0001800E031409E0020169
:10367000AE6B0201100EAD6F7AEC11F05DEF20F031
:10368000020131510E5D006E0F513255016E026A1A
:10369000036A01AE02D002680368060EE96E020EEC
:1036A000EA6E0050EE5C0B01546F0150EE58556FFE
:1036B0000250EE58566F0350EE58576F02013151C9
:1036C0000E5D32510F5911E229512B5D006E2C51C4
:1036D0002A55016E026A036A00500B01545F0150C3
:1036E000555B0250565B0350575B540EE96E0B0E50
:1036F000EA6EEE500B01635D546FEE506459556FE6
:10370000EE506559566FEE506659576F5735000E9B
:10371000571909E6D880000E5455000E5555000E75
:103720005655000E575501E397D0020129512B5DE4
:10373000006E2C512A55016E026A036A0B01545126
:10374000005C55510158565102585751035801E237
:1037500083D0020124972499419131C258FB32C28F
:1037600059FB0B015451020131270B015551020144
:1037700032230B01585102010E5D0B015951020118
:103780000F591BE331510E5D32510F5915E20E51A5
:10379000315D006E32510F55016E00010050020183
:1037A00006270001015002010723000E0823092308
:1037B00031C20EF232C20FF22FD029512B5D006EB2
:1037C0002C512A55016E0E5100240B01586F020135
:1037D0000F5101200B01596F020131510B01585D4E
:1037E000020132510B01595917E258510201315D62
:1037F000006E32510B015955016E0001005002015B
:1038000006270001015002010723000E08230923A7
:1038100031C20EF232C20FF202012B51315D2C5136
:1038200032590AE329512B5D006E2C512A55016E45
:103830000050315F0150325B2B510E5D2C510F59FE
:103840000AE329512B5D006E2C512A55016E005060
:103850000E5F01500F5B3FD002010E51311902E1A2
:103860000F51321938E024A735D024A932D0315174
:103870000E5D006E0F513255016E026A036A01AE91
:1038800002D0026803680050065F0150075B0250D7
:10389000085B0350095B31510E5D32510F5914E240
:1038A00029512B5D006E2C512A55016E026A036A64
:1038B00001AE02D0026803680050065F0150075B4A
:1038C0000250085B0350095B31C20EF232C20FF2A4
:1038D0004185248924872F51311902E13051321951
:1038E0002FE141B715D0E9EC6BF026C037F227C0C5
:1038F00038F228C039F229C03AF2740E0201372793
:10390000350E3823060E3923000E3A23409918D07D
:10391000060EE96E020EEA6EEE500B01631909E124
:10392000EE50641906E1EE50651903E1EE50661998
:1039300000E106E102012451010B02E040994197A8
:10394000630EE96E0B0EEA6EEE500201065D006E2C
:10395000EE500759016EEE500859026EEE500959AB
:10396000036EB5C2E9FFB6C2EAFF0E0EE926000EED
:10397000EA220B010050EE5C6E6F0150EE586F6F43
:1039800002011451151106E10B016E516F1102E095
:10399000020141836ECB14F26FCB15F2080E0201C7
:1039A0003F5D2DE1060EE96E020EEA6EEE500B0150
:1039B000631909E1EE50641906E1EE50651903E15F
:1039C000EE50661900E11AE102012451010B16E0E4
:1039D000E9EC6BF026C037F227C038F228C039F284
:1039E00029C03AF2BA0E020137271A0E3823030E05
:1039F0003923000E3A234089090E3F6F31D0090E5A
:103A00003F5D16E10B0162B112D063CB06F264CBCD
:103A100007F265CB08F266CB09F20201AE6B020138
:103A2000140EAD6F7AEC11F0D3EC17F046D318D02A
:103A30000A0E3F5D15E1060EE96E020EEA6EEE50CB
:103A40000B01631909E1EE50641906E1EE506519A6
:103A500003E1EE50661900E102E1D3EC17F02DD33B
:103A600016D0060EE96E020EEA6EEE500B016319D7
:103A700009E1EE50641906E1EE50651903E1EE50DC
:103A8000661900E102E1D3EC17F017D300D00B0167
:103A900062BB13D30B0E02013F5D01E10ED30A0E90
:103AA0003F5D01E10AD30C0E3F5D01E106D3B75142
:103AB000B81101E14ED20B015F3504E25E510008FE
:103AC000000E5F5501E2E8D0B5C2E9FFB6C2EAFFD9
:103AD0000C0EE926000EEA22EF50F00BE842E84215
:103AE000E842E842040DF350006E016A5E51005C4A
:103AF00004010E6F0B015F51015804010F6F42EC7E
:103B000063F00B015E510201B7270B015F51020107
:103B1000B823B7510B01605D0201B8510B01615927
:103B200004E260CBB7F261CBB8F20201B7510A27C9
:103B3000B8510B23000E0C230D233351B725006E13
:103B40003451B821016E00502D5D01502E5946E2CE
:103B500033512D5D0B01586F020134512E590B0169
:103B6000596F010E5827000E592358CBC5F259CB77
:103B7000C6F20201C46B0201C269C36944C2C1F248
:103B800033C2BFF234C2C0F2C5DB0B01585102018F
:103B9000B75D0201C56F0B0159510201B85902010D
:103BA000C66F0201C46B0201C269C36944C2C1F29B
:103BB0002BC2BFF22CC2C0F2ADDB0B015851020187
:103BC000B75D006EB8510B015955016E02012B51C2
:103BD0000024336F2C510120346F15D0B7C2C5F2C9
:103BE000B8C2C6F20201C46B0201C269C36944C211
:103BF000C1F233C2BFF234C2C0F28CDB0201B75152
:103C00003327B8513423221D01E1231D44E0B7516D
:103C1000225FB851235B165122250B01586F020118
:103C2000175123210B01596F800E591504E0020131
:103C30002269236930D00201233504E222510008B1
:103C4000000E235528E30B01585102010A270B01EE
:103C5000595102010B23000E0C230D230B01585167
:103C6000020133270B0159510201342333512D5DD9
:103C700034512E590EE22B512D5D006E2E512C55D4
:103C8000016E010E0026000E01220050335F01502C
:103C9000345B226923695DD15F3504E25E5100081F
:103CA000000E5F5501E355D10201B7510B015E25AE
:103CB000006E0201B8510B015F21016E0050605D82
:103CC0000150615909E25E51605D0201B76F0B015D
:103CD0005F5161590201B86FB5C2E9FFB6C2EAFF90
:103CE0000C0EE926000EEA22EF50F00BE842E84203
:103CF000E842E842040DF35004010E6F0F6B42ECF2
:103D000063F0020133510B015E25026E0201345152
:103D10000B015F21036E02500201B725006E0350B4
:103D2000B821016E00502D5D01502E596EE23351C5
:103D30002D5D006E2E513455016E010E0026000ED1
:103D400001220B015E51005C586F5F510158596FA1
:103D5000800E591531E158CBC5F259CBC6F202019C
:103D6000C46B0201C269C36944C2C1F2020133518A
:103D70000B015E250201BF6F020134510B015F216F
:103D80000201C06FC7DA0B0158510201B75D020191
:103D9000C56F0B0159510201B8590201C66F0201EA
:103DA000C46B0201C269C36944C2C1F22BC2BFF233
:103DB0002CC2C0F2AFDA28D0B7C2C5F2B8C2C6F280
:103DC0000201C46B0201C269C36944C2C1F20201AB
:103DD00033510B015E25006E020134510B015F214E
:103DE000016E02012B512D5D026E2E512C55036E7A
:103DF000010E0226000E032202010250005CBF6F7A
:103E000003500158C06F86DA18D0B7C2C5F2B8C2E5
:103E1000C6F20201C46B0201C269C36944C2C1F2A5
:103E2000020133510B015E250201BF6F02013451C3
:103E30000B015F210201C06F6DDA0201221D01E159
:103E4000231D09E15ECB22F25FCB23F2B7C216F24B
:103E5000B8C217F27ED022510B015E5D02012351E0
:103E60000B015F593DE25E510201B725006E0B0167
:103E70005F510201B821016E22511625026E2351B5
:103E80001721036E0050025C015003580FE30B0131
:103E90005E510201B725046E0B015F510201B8218A
:103EA000056E2251045C2351055805E2B7C216F293
:103EB000B8C217F210D022511625006E23511721D7
:103EC000016E0B015E51005C0201166F0B015F5128
:103ED00001580201176F5ECB22F25FCB23F239D07B
:103EE0005E510201B725006E0B015F510201B8213E
:103EF000016E22511625026E23511721036E0050C8
:103F0000025C0150035825E222511625006E235110
:103F10001721016E0B015E51005C5F51015819E3DE
:103F20005E510201B725046E0B015F510201B821F9
:103F3000056E2251045C026E23510558036E165122
:103F4000025C006E17510358016E00501627015095
:103F500017230B016B516C1124E0070E02013F5D2A
:103F600004E033C235F234C236F240AF0BD0020166
:103F7000010EAE6F0201100EAD6F7AEC11F0ABECDA
:103F800000F00FD0408F40BD0CD0408DF4EC6BF0B2
:103F900026C03DF227C03EF20F0E02013D27000E63
:103FA0003E230B0162A189D00AC200F00BC201F0CE
:103FB0000CC202F00DC203F0002A000E0122022200
:103FC00003226BCB04F06CCB05F0066A076A670E20
:103FD000E96E0B0EEA6EEE500426EE500522EE500E
:103FE0000622EE5007220050041809E1015005187E
:103FF00006E10250061803E10350071800E15DE1F5
:1040000002010A2B000E0B230C230D233F51090A3A
:1040100041E0010A1EE00F0A0EE0010A01E044D06F
:104020000C0E3F6F0201010EAE6F0201110EAD6F5B
:104030007AEC11F042D00B0E3F6FF4EC6BF026C01F
:104040003DF227C03EF21F0E02013D27000E3E2327
:104050002CD0060EE96E020EEA6EEE500B016319CB
:1040600009E1EE50641906E1EE50651903E1EE50E6
:10407000661900E10BE10201AE6B0201100EAD6F9B
:104080007AEC11F0D3EC17F018D003D002010A0E2D
:104090003F6F0BD00201AE6B0201100EAD6F7AECD8
:1040A00011F0D3EC17F009D000D00201010EAE6F71
:1040B0000201100EAD6F7AEC11F01200B9C245F298
:1040C00064EC00F00201BA51BB1103E1010EBA6FBA
:1040D000BB6B29512D5D0B01006F02012A512E5936
:1040E0000B01016F010E005F000E015B0201BA516E
:1040F000BC25006EBB51BD21016E0B010050005D5F
:104100000150015902E2000E04D1ABEC00F0030EA5
:104110000201BE1502E1030EBE13BCC204FBBDC208
:1041200005FBBA51BC25006EBB51BD21016E00508C
:104130000B01005F0150015B0201BEA314D0BEA1C0
:104140000DD000CB00F001CB01F0D890013200324D
:1041500000500B0104270150052305D00B0100512D
:10416000042701510523020129510B010425006F89
:1041700002012A510B010521016F010E0027000EDB
:10418000012333C202FB34C203FB0201221D01E101
:10419000231D22E022511625006E23511721016EA6
:1041A00000500B01022701500323025102012D5D33
:1041B0000B01035102012E590FE22B512D5D006EB0
:1041C0002E512C55016E010E0026000E01220050CA
:1041D0000B01025F0150035B0B0102510201355DCF
:1041E0000B0103510201365917E20B010051020184
:1041F000355D0B010151020136590DE2BEA503D018
:10420000000E87D008D000CB35F201CB36F200CBC0
:1042100033F201CB34F226D035510B01025D02019D
:1042200036510B01035916E2005102012B5D0B01BF
:10423000015102012C590DE2BEA503D0000E69D038
:1042400008D000CB35F201CB36F200CB33F201CBF4
:1042500034F208D000CB35F201CB36F200CB33F28A
:1042600001CB34F2020135510B01025D02013651DE
:104270000B01035930E2040E0201BE152CE02B5154
:104280000B01025D0201C56F02012C510B010359A4
:104290000201C66F44C2C4F22BC2C2F22CC2C3F2E6
:1042A00044C2C1F200CBBFF201CBC0F233D802014D
:1042B0003551335D365134590EE20B010051020184
:1042C0002B5D006E2C510B010155016E0050020157
:1042D000335F0150345B00CB2BF201CB2CF229C2AF
:1042E0000EF22AC20FF229C231F22AC232F229C2D8
:1042F0002FF22AC230F2070E02013F5D08E10201EF
:10430000010EAE6F0201100EAD6F7AEC11F0010ECE
:1043100000D012000201C451020A01E1C2D0020A17
:1043200043E0010A01E06DD1C151020A2DE0020A09
:1043300016E0010A01E037D0C5C2E6FFC6C2E6FFBB
:10434000C2C2E6FFC3C2E6FFBFC2E6FFC0C2E6FFCD
:10435000D2EC67F0006E060EE15E005024D0BF1D67
:1043600001E1C01D06E0BFC272F0C0C273F057EC9D
:104370004EF0C5C289F0C6C28AF0C2C287F0C3C27D
:1043800088F054EC50F00FD0C5C2F5F3C6C2F6F376
:10439000C2C2F3F3C3C2F4F3BFC2F1F3C0C2F2F37B
:1043A00022EC64F000D02DD1C151020A2EE0020AA5
:1043B00018E0010A01E074D0C21D01E1C31D06E04E
:1043C000C2C274F0C3C275F065EC4EF0C5C284F091
:1043D000C6C285F0BFC282F0C0C283F01CEC50F0B0
:1043E0005FD0C5C280F0C6C281F0C2C27EF0C3C237
:1043F0007FF0BFC27CF0C0C27DF03EEC4FF012EC0B
:1044000050F0000901E1FBD74BD0C21D01E1C31DF3
:1044100006E0C2C274F0C3C275F065EC4EF0100E37
:104420000B01856F866B0201C551C61138E00B0187
:1044300085510201C55D0B0186510201C65904E296
:10444000C5C285FBC6C286FB85CB84F086CB85F0D2
:104450000001750E826F0B0E836F1CEC50F085CB44
:10446000F5F386CBF6F30301750EF36F0B0EF46FC5
:10447000BFC2F1F3C0C2F2F322EC64F00B0185512C
:104480000201BF270B0186510201C0230B01855198
:104490000201C55F0B0186510201C65BC4D700D083
:1044A000B0D0C151020A5FE0020A12E0010A01E045
:1044B000A7D0C5C2EFF3C6C2F0F3BFC2EDF3C0C2CE
:1044C000EEF3C2C2EBF3C3C2ECF3D1EC63F098D0CD
:1044D000BF1D01E1C01D06E0BFC272F0C0C273F093
:1044E00057EC4EF0100E0B01856F866B0201C55123
:1044F000C61138E00B0185510201C55D0B018651E3
:104500000201C65904E2C5C285FBC6C286FB85CB43
:10451000EFF386CBF0F30301750EED6F0B0EEE6F2C
:10452000C2C2EBF3C3C2ECF3D1EC63F00B018551D3
:104530000201C2270B0186510201C32385CB89F0FA
:1045400086CB8AF00001750E876F0B0E886F54ECD6
:1045500050F00B0185510201C55F0B01865102012C
:10456000C65BC4D74DD0100E0B01856F866B020160
:10457000C551C61144E00B0185510201C55D0B0117
:1045800086510201C65904E2C5C285FBC6C286FB3C
:1045900085CBEFF386CBF0F30301750EED6F0B0EB9
:1045A000EE6FC2C2EBF3C3C2ECF3D1EC63F085CB88
:1045B000F5F386CBF6F30301750EF36F0B0EF46F74
:1045C000BFC2F1F3C0C2F2F322EC64F00B018551DB
:1045D0000201C2270B0186510201C3230B01855141
:1045E0000201BF270B0186510201C0230B01855137
:1045F0000201C55F0B0186510201C65BB8D700D02E
:1046000000D012000201C951020A6EE0020A18E04D
:10461000010A01E0BED0CDC2E6FFCEC2E6FFCAC2AB
:10462000E6FFCBC2E6FFCCC2E6FFC7C2E6FFC8C2C8
:10463000E6FFFDEC67F0006E070EE15E0050A9D0CA
:10464000C71D01E1C81D06E0C7C272F0C8C273F001
:1046500057EC4EF0100E0B013C6F3D6B0201CD513B
:10466000CE1141E00B013C510201CD5D0B013D51EA
:104670000201CE5904E2CDC23CFBCEC23DFB3CCB95
:10468000E6FF3DCBE6FFCAC2E6FFCBC2E6FFCCC2E7
:10469000E6FF2C0EE66E0B0EE66EFDEC67F0006E8C
:1046A000070EE15E00503CCB89F03DCB8AF0000163
:1046B0002C0E876F0B0E886F54EC50F03CCB00F043
:1046C0003DCB01F0026A00500201CA270150CB2302
:1046D0000250CC230B013C510201CD5F0B013D5137
:1046E0000201CE5BBBD755D0100E0B013C6F3D6B6A
:1046F0000201CD51CE114CE00B013C510201CD5DC8
:104700000B013D510201CE5904E2CDC23CFBCEC2A9
:104710003DFB3CCBE6FF3DCBE6FFCAC2E6FFCBC28A
:10472000E6FFCCC2E6FF2C0EE66E0B0EE66EFDEC4D
:1047300067F0006E070EE15E00503CCBF5F33DCB19
:10474000F6F303012C0EF36F0B0EF46FC7C2F1F3F7
:10475000C8C2F2F322EC64F00B013C510201C727FE
:104760000B013D510201C8233CCB00F03DCB01F0D1
:10477000026A0050CA270150CB230250CC230B0100
:104780003C510201CD5F0B013D510201CE5BB0D720
:0447900000D0120043
:0C4794000001010E9A1901E19B510DE19A
:1047A000AAC060F3ABC061F30301626B636B010EDF
:1047B00003015E6F5F6B01EC5AF00001010E9C1962
:1047C00001E19D510DE1ACC060F3ADC061F30301A7
:1047D000626B636B020E03015E6F5F6B01EC5AF05C
:1047E0000001010E9E1901E19F510DE1AEC060F381
:1047F000AFC061F30301626B636B030E03015E6F75
:104800005F6B01EC5AF00001010EA01901E1A1510A
:104810000DE1B0C060F3B1C061F30301626B636B83
:10482000040E03015E6F5F6B01EC5AF00001010E94
:10483000A21901E1A3510DE1B2C060F3B3C061F36D
:104840000301626B636B050E03015E6F5F6B01EC2E
:104850005AF012000001010E9A1901E19B510DE17D
:10486000B4C060F3B5C061F30301626B636B010E0A
:1048700003015E6F5F6B01EC5AF00001010E9C19A1
:1048800001E19D510DE1B6C060F3B7C061F30301D2
:10489000626B636B020E03015E6F5F6B01EC5AF09B
:1048A0000001010E9E1901E19F510DE1B8C060F3B6
:1048B000B9C061F30301626B636B030E03015E6FAA
:1048C0005F6B01EC5AF00001010EA01901E1A1514A
:1048D0000DE1BAC060F3BBC061F30301626B636BAF
:1048E000040E03015E6F5F6B01EC5AF00001010ED4
:1048F000A21901E1A3510DE1BCC060F3BDC061F399
:104900000301626B636B050E03015E6F5F6B01EC6D
:104910005AF012000001010E9A1901E19B510DE1BC
:10492000BEC060F3BFC061F30301626B636B010E35
:1049300003015E6F5F6B01EC5AF00001010E9C19E0
:1049400001E19D510DE1C0C060F3C1C061F30301FD
:10495000626B636B020E03015E6F5F6B01EC5AF0DA
:104960000001010E9E1901E19F510DE1C2C060F3EB
:10497000C3C061F30301626B636B030E03015E6FDF
:104980005F6B01EC5AF00001010EA01901E1A15189
:104990000DE1C4C060F3C5C061F30301626B636BDA
:1049A000040E03015E6F5F6B01EC5AF00001010E13
:1049B000A21901E1A3510DE1C6C060F3C7C061F3C4
:1049C0000301626B636B050E03015E6F5F6B01ECAD
:1049D0005AF012000C01616B626B636B646B656B68
:1049E000666B676B686B696B6A6B6B6B6C6B6D6B23
:1049F0006E6B6F6B706B716B726B736B746B756BD3
:104A0000766B776B786B796B7A6B7B6B7C6B7D6B82
:104A10007E6B7F6B806B816B826B836B846B856B32
:104A2000866B876B886B896B8A6B8B6B8C6B8D6BE2
:104A30008E6B8F6B906B916B926B936B946B956B92
:104A4000966B976B986B996B9A6B9B6B9C6B9D6B42
:104A50009E6B9F6BA06B3E0EA16F410EA26F4C0E22
:104A6000A36F530EA46F4F0EA56F4B0EA66F3C0E97
:104A7000A76FA86BA96BC0C300F0C1C301F00C0EF7
:104A8000005E000E015A0301BE510024E96EBF51C1
:104A90000120EA6EEF50000839E2C0C303F0C1C341
:104AA00004F00C0E035E000E045ABE510324E96E9E
:104AB000BF510420EA6EEFCF02F0640E025C26E2E2
:104AC000C0C300F0C1C301F00C0E005E000E015A1D
:104AD000BE510024E96EBF510120EA6EEF50000183
:104AE000946F956B010E941901E195510FE1E9EC7A
:104AF0006BF026C042F427C043F428C044F429C018
:104B000045F40F01010E146F8D808E80C0C300F03C
:104B1000C1C301F00B0E005E000E015A0301BE512D
:104B20000024E96EBF510120EA6EEF50000825E233
:104B3000C0C303F0C1C304F00B0E035E000E045AA1
:104B4000BE510324E96EBF510420EA6EEFCF02F09C
:104B50000A0E025C12E2C0C300F0C1C301F00B0EEA
:104B6000005E000E015ABE510024E96EBF510120C3
:104B7000EA6EEF500001966F976BC0C300F0C1C39F
:104B800001F00A0E005E000E015A0301BE5100241E
:104B9000E96EBF510120EA6EEF50000825E2C0C364
:104BA00003F0C1C304F00A0E035E000E045ABE51A6
:104BB0000324E96EBF510420EA6EEFCF02F0150E18
:104BC000025C12E2C0C300F0C1C301F00A0E005E35
:104BD000000E015ABE510024E96EBF510120EA6E59
:104BE000EF500001986F996BC0C300F0C1C301F092
:104BF000090E005E000E015A0301BE510024E96E49
:104C0000BF510120EA6EEF0404E1010E00019A6F2A
:104C10009B6BC0C300F0C1C301F0090E005E000E23
:104C2000015A0301BE510024E96EBF510120EA6E12
:104C3000EF5009E100019A6B9B6B010E0301666F57
:104C4000676BD2EC5AF0C0C300F0C1C301F0080E8C
:104C5000005E000E015A0301BE510024E96EBF51EF
:104C60000120EA6EEF0404E1010E00019C6F9D6BD0
:104C7000C0C300F0C1C301F0080E005E000E015A6F
:104C80000301BE510024E96EBF510120EA6EEF50CE
:104C900009E100019C6B9D6B020E0301666F676B5F
:104CA000D2EC5AF0C0C300F0C1C301F0070E005EA1
:104CB000000E015A0301BE510024E96EBF510120CC
:104CC000EA6EEF0404E1010E00019E6F9F6BC0C30A
:104CD00000F0C1C301F0070E005E000E015A03018F
:104CE000BE510024E96EBF510120EA6EEF5009E188
:104CF00000019E6B9F6B030E0301666F676BD2EC26
:104D00005AF0C0C300F0C1C301F0060E005E000EF1
:104D1000015A0301BE510024E96EBF510120EA6E21
:104D2000EF0404E1010E0001A06FA16BC0C300F00D
:104D3000C1C301F0060E005E000E015A0301BE5110
:104D40000024E96EBF510120EA6EEF5009E1000135
:104D5000A06BA16B040E0301666F676BD2EC5AF077
:104D6000C0C300F0C1C301F0050E005E000E015A81
:104D70000301BE510024E96EBF510120EA6EEF0429
:104D800004E1010E0001A26FA36BC0C300F0C1C318
:104D900001F0050E005E000E015A0301BE51002411
:104DA000E96EBF510120EA6EEF5009E10001A26BEC
:104DB000A36B050E0301666F676BD2EC5AF0C0C39C
:104DC00000F0C1C301F0040E005E000E015A0301A1
:104DD000BE510024E96EBF510120EA6EEF0404E1E8
:104DE000010E0001A46FA56BC0C300F0C1C301F0A8
:104DF000040E005E000E015A0301BE510024E96E4C
:104E0000BF510120EA6EEF5003E10001A46BA56BD6
:104E1000C0C300F0C1C301F0030E005E000E015AD2
:104E20000301BE510024E96EBF510120EA6EEF0478
:104E300004E1010E0001A66FA76BC0C300F0C1C35F
:104E400001F0030E005E000E015A0301BE51002462
:104E5000E96EBF510120EA6EEF5003E10001A66B3D
:104E6000A76BC0C300F0C1C301F0020E005E000ECC
:104E7000015A0301BE510024E96EBF510120EA6EC0
:104E8000EF0404E1010E0001A86FA96BC0C300F09C
:104E9000C1C301F0020E005E000E015A0301BE51B3
:104EA0000024E96EBF510120EA6EEF5003E10001DA
:104EB000A86BA96B0001010EA61901E1A75104E13D
:104EC000A851A91101E1C6DC0001A651A71104E116
:104ED000A851A91101E11EDD0001010EA81901E18F
:104EE000A95101E157DC0301010EC21901E1C351CF
:104EF0006DE1A10EE66E0C0EE66E3AEC68F0E5523E
:104F0000E552F3CF66F2F4CF67F20201A10E646FAF
:104F10000C0E656FBDC363F2D5EC04F0BDC35FF248
:104F20000DEC04F00401610E406F0C0E416F400E59
:104F300004013E6F3F6B0401800E3A6F3B693C6B8E
:104F40003D6BD8EC6EF004019F0E4E6F4F69506BB5
:104F5000516B0401800E4A6F4B694C6B4D6B7CECBE
:104F60006EF00C01AA6BAB6BAB3504E2AA510A08D8
:104F7000000EAB551AE3AACCE9FFABCCEAFFD89000
:104F8000E936EA36940EE926000EEA22EF50E66E84
:104F9000610EAA25E96E0C0EAB21EA6EE552E750D0
:104FA000EF6EAA2B000EAB23DFD70401610E386F22
:104FB0000C0E396F400E0401366F376B0401800E02
:104FC000326F3369346B356B8BEC69F012000C0176
:104FD000616B626B636B646B656B666B676B686B55
:104FE000696B6A6B6B6B6C6B6D6B6E6B6F6B706B05
:104FF000716B726B736B746B756B766B776B786BB5
:10500000796B7A6B7B6B7C6B7D6B7E6B7F6B806B64
:10501000816B826B836B846B856B866B876B886B14
:10502000896B8A6B8B6B8C6B8D6B8E6B8F6B906BC4
:10503000916B926B936B946B956B966B976B986B74
:10504000996B9A6B9B6B9C6B9D6B9E6B9F6BA06B24
:105050003E0EA16F500EA26F570EA36F4D0EA46FA0
:105060004F0EA56F4B0EA66F3C0EA76FA86BA96BDA
:10507000AA6BAB6BAC6BAD6BC7C301F0C8C302F0DE
:10508000060E015E000E025A0301C5510124E96EAD
:10509000C6510220EA6EEFCF00F0060E005C01E37D
:1050A0002BD3C7C303F0C8C304F0060E035E000E83
:1050B000045AC5510324E96EC6510420EA6EEF502C
:1050C000000801E319D3C7C301F0C8C302F0050EFD
:1050D000015E000E025AC5510124E96EC65102203C
:1050E000EA6EEFCF00F0000E005C01E205D3C7C30B
:1050F00003F0C8C304F0050E035E000E045AC55148
:105100000324E96EC6510420EA6EEF50650801E2FF
:10511000F3D20401610E406F0C0E416F400E04018A
:105120003E6F3F6B0401800E3A6F3B693C6B3D6BF9
:10513000D8EC6EF004019F0E4E6F4F69506B516BAF
:105140000401800E4A6F4B694C6B4D6B7CEC6EF02A
:10515000C7C300F0C8C301F0050E005E000E015A7F
:105160000301C5510024E96EC6510120EA6EEFCF5C
:10517000AAFC0C01AB6BAC6BAD6BC7C300F0C8C332
:1051800001F0060E005E000E015A0301C551002415
:10519000E96EC6510120EA6EEF50050A01E118D20E
:1051A000010A01E192D1070A01E10CD1010A01E1F2
:1051B00086D0030A01E08FD2C7C300F0C8C301F054
:1051C000040E005E000E015AC5510024E96EC6515E
:1051D0000120EA6EEF5026E1C7C302F0C8C303F016
:1051E000030E025E000E035AC5510224E96EC65139
:1051F0000320EA6EEF0416E1C7C304F0C8C305F04C
:10520000020E045E000E055AC5510424E96EC65113
:105210000520EA6EEF5006E1AACCB4F0ABCCB5F0B5
:10522000B4C06CFCC7C300F0C8C301F0040E005E3C
:10523000000E015AC5510024E96EC6510120EA6EE4
:10524000EF5026E1C7C302F0C8C303F0030E025EAD
:10525000000E035AC5510224E96EC6510320EA6EBE
:10526000EF5016E1C7C304F0C8C305F0020E045E98
:10527000000E055AC5510424E96EC6510520EA6E98
:10528000EF0406E1AACCBEF0ABCCBFF0BEC071FC0F
:10529000C7C300F0C8C301F0040E005E000E015A3F
:1052A000C5510024E96EC6510120EA6EEF0406E103
:1052B000AACCAAF0ABCCABF0AAC076FC0CD2C7C388
:1052C00000F0C8C301F0040E005E000E015AC55183
:1052D0000024E96EC6510120EA6EEF5026E1C7C3F3
:1052E00002F0C8C303F0030E025E000E035AC5515C
:1052F0000224E96EC6510320EA6EEF0416E1C7C32B
:1053000004F0C8C305F0020E045E000E055AC55134
:105310000424E96EC6510520EA6EEF5006E1AACCDE
:10532000B6F0ABCCB7F0B6C06DFCC7C300F0C8C3D5
:1053300001F0040E005E000E015AC5510024E96E12
:10534000C6510120EA6EEF5026E1C7C302F0C8C380
:1053500003F0030E025E000E035AC5510224E96EEB
:10536000C6510320EA6EEF5016E1C7C304F0C8C36C
:1053700005F0020E045E000E055AC5510424E96EC4
:10538000C6510520EA6EEF0406E1AACCC0F0ABCC12
:10539000C1F0C0C072FCC7C300F0C8C301F0040E66
:1053A000005E000E015AC5510024E96EC65101206D
:1053B000EA6EEF0406E1AACCACF0ABCCADF0ACC029
:1053C00077FC89D1C7C300F0C8C301F0040E005EAA
:1053D000000E015AC5510024E96EC6510120EA6E43
:1053E000EF5026E1C7C302F0C8C303F0030E025E0C
:1053F000000E035AC5510224E96EC6510320EA6E1D
:10540000EF0416E1C7C304F0C8C305F0020E045E42
:10541000000E055AC5510424E96EC6510520EA6EF6
:10542000EF5006E1AACCB8F0ABCCB9F0B8C06EFC36
:10543000C7C300F0C8C301F0040E005E000E015A9D
:10544000C5510024E96EC6510120EA6EEF5026E1F5
:10545000C7C302F0C8C303F0030E025E000E035A76
:10546000C5510224E96EC6510320EA6EEF5016E1E1
:10547000C7C304F0C8C305F0020E045E000E055A4F
:10548000C5510424E96EC6510520EA6EEF0406E119
:10549000AACCC2F0ABCCC3F0C2C073FCC7C300F04F
:1054A000C8C301F0040E005E000E015AC55100246D
:1054B000E96EC6510120EA6EEF0406E1AACCAEF017
:1054C000ABCCAFF0AEC078FC06D1C7C300F0C8C308
:1054D00001F0040E005E000E015AC5510024E96E71
:1054E000C6510120EA6EEF5026E1C7C302F0C8C3DF
:1054F00003F0030E025E000E035AC5510224E96E4A
:10550000C6510320EA6EEF0416E1C7C304F0C8C316
:1055100005F0020E045E000E055AC5510424E96E22
:10552000C6510520EA6EEF5006E1AACCBAF0ABCC2A
:10553000BBF0BAC06FFCC7C300F0C8C301F0040ED3
:10554000005E000E015AC5510024E96EC6510120CB
:10555000EA6EEF5026E1C7C302F0C8C303F0030EA2
:10556000025E000E035AC5510224E96EC6510320A3
:10557000EA6EEF5016E1C7C304F0C8C305F0020E8F
:10558000045E000E055AC5510424E96EC65105207B
:10559000EA6EEF0406E1AACCC4F0ABCCC5F0C4C0FF
:1055A00074FCC7C300F0C8C301F0040E005E000E17
:1055B000015AC5510024E96EC6510120EA6EEF047C
:1055C00006E1AACCB0F0ABCCB1F0B0C079FC83D08E
:1055D000C7C300F0C8C301F0040E005E000E015AFC
:1055E000C5510024E96EC6510120EA6EEF5026E154
:1055F000C7C302F0C8C303F0030E025E000E035AD5
:10560000C5510224E96EC6510320EA6EEF0416E18B
:10561000C7C304F0C8C305F0020E045E000E055AAD
:10562000C5510424E96EC6510520EA6EEF5006E12B
:10563000AACCBCF0ABCCBDF0BCC070FCC7C300F0C2
:10564000C8C301F0040E005E000E015AC5510024CB
:10565000E96EC6510120EA6EEF5026E1C7C302F0A1
:10566000C8C303F0030E025E000E035AC5510224A4
:10567000E96EC6510320EA6EEF5016E1C7C304F08D
:10568000C8C305F0020E045E000E055AC55104247D
:10569000E96EC6510520EA6EEF0406E1AACCC6F019
:1056A000ABCCC7F0C6C075FCC7C300F0C8C301F0DF
:1056B000040E005E000E015AC5510024E96EC65169
:1056C0000120EA6EEF0406E1AACCB2F0ABCCB3F055
:1056D000B2C07AFC00D00401610E386F0C0E396F35
:1056E000400E0401366F376B0401800E326F336950
:1056F000346B356B8BEC69F0A10EE66E0C0EE66E2A
:105700003AEC68F0E552E552F3CF66F2F4CF67F277
:105710000201A10E646F0C0E656FC4C363F2D5EC79
:1057200004F0C4C35FF20DEF04F0010EE66EE66A0A
:10573000E66EE66A000EE66EE66A010EE66EE66A60
:105740008F0EE66EDD0EE66E000EE66E540EE66E11
:105750000B0EE66E11EC6DF0006E0D0EE15E00506A
:10576000540EE66E0B0EE66E3AEC68F0E552E5522A
:10577000F3CF66F2F4CF67F20201540E646F0B0EA2
:10578000656FC9C363F2D5EC04F0C9C35FF20DEFD6
:1057900004F00B01FE0E746F0301CA51CB1101E13D
:1057A00015D10B01546B556B0B0E55AF02D0D89031
:1057B00003D0545D000E555922E254CBE9FF55CB7E
:1057C000EAFFD890E936EA36940EE926000EEA227E
:1057D000EECF00F0EFCF01F054CBE9FF55CBEAFF5D
:1057E000D890E936EA36A20EE926030EEA2200C076
:1057F000EEFF01C0EDFF542B000E5523D5D7E9EC89
:105800006BF00F011551265C006E16512758016E82
:1058100017512858026E18512958036EBC0E005CAF
:10582000270E0158000E0258000E035801E2CED098
:10583000E9EC6BF026C015FF27C016FF28C017FF44
:1058400029C018FF0B01546B556B0B0E55AF02D0DE
:10585000D89003D0545D000E55591EE254CBE9FF99
:1058600055CBEAFFD890E936EA36940EE926000EC9
:10587000EA22EF50E66E040EEA6A5425E96E5551AD
:10588000EA22560EE9260B0EEA22E552E750EF6EA9
:10589000542B000E5523D9D704016751681121E11B
:1058A000010E676F686B0B013E0E566F410E576F0E
:1058B0004C0E586F530E596F94C05AFB96C05BFB49
:1058C00098C05CFB5D6B5E6B5F6B606B616BA4C0D3
:1058D00062FBA6C063FBA8C064FB3C0E656F666BF1
:1058E00037D0676B686B0B013E0E566F410E576FDA
:1058F0004C0E586F530E596F546B556B0B0E55AFC2
:1059000002D0D89003D0545D000E55591EE254CBFE
:10591000E9FF55CBEAFFD890E936EA36940EE9263E
:10592000000EEA22EF50E66E040EEA6A5425E96E94
:105930005551EA22560EE9260B0EEA22E552E750AF
:10594000EF6E542B000E5523D9D73C0E656F666B56
:105950000301C26BC36B100E0301C06FC16B030167
:10596000560EBE6F0B0EBF6F74CBBDF3EAEC24F086
:105970000B01546B556B0B0E55AF02D0D89003D072
:10598000545D000E555922E254CBE9FF55CBEAFF96
:10599000D890E936EA36A20EE926030EEA22EECFC7
:1059A00000F0EFCF01F054CBE9FF55CBEAFFD890E0
:1059B000E936EA36940EE926000EEA2200C0EEFF30
:1059C00001C0EDFF542B000E5523D5D712000B015B
:1059D0003E0E546F500E556F4C0E566F410E576F62
:1059E000590E586F4F0E596F4B0E5A6F3C0E5B6F2E
:1059F0005C6B5D6BCDC3E9FFCEC3EAFFEF500AE1FC
:105A0000010ECDC3E9FFCEC3EAFFEF6E0E01786F42
:105A1000918E908C540EE66E0B0EE66E3AEC68F0AA
:105A2000E552E552F3CF66F2F4CF67F20201540E6D
:105A3000646F0B0E656FCCC363F2D5EC04F0CCC37E
:105A40005FF20DEF04F00B013E0E546F530E556FD5
:105A5000540E566F4F0E576F500E586F4F0E596FB2
:105A60004B0E5A6F3C0E5B6F5C6B5D6BD0C3E9FFF6
:105A7000D1C3EAFFEF6A919E909C540EE66E0B0E26
:105A8000E66E3AEC68F0E552E552F3CF66F2F4CFF9
:105A900067F20201540E646F0B0E656FCFC363F2A1
:105AA000D5EC04F0CFC35FF20DEF04F00B01546BA3
:105AB000556B566B576B3E0E586F560E596F4F0E07
:105AC0005A6F4C0E5B6F4F0E5C6F4B0E5D6F3C0E52
:105AD0005E6F5F6B606BD5C301F0D6C302F0020E40
:105AE000015E000E025A0301D3510124E96ED45124
:105AF0000220EA6EEFCF00F0000E005C01E210D150
:105B0000D5C303F0D6C304F0020E035E000E045AA0
:105B1000D3510324E96ED4510420EA6EEF50640897
:105B200001E2FED0D5C300F0D6C301F0020E005E44
:105B3000000E015AD3510024E96ED4510120EA6EBF
:105B4000EF50000801E3B2D0D5C30DF0D6C30EF07C
:105B5000020E0D5E000E0E5AD3510D24E96ED45183
:105B60000E20EA6EEFCF0CF00CC029F0CBEC50F019
:105B700027C008F028C009F029C00AF02AC00BF09D
:105B800008C0E6FF09C0E6FF0AC0E6FF0BC0E6FF5B
:105B9000B6EC6DF0E552E552E552E55226C004F050
:105BA00027C005F028C006F029C007F02C6A2D6A2E
:105BB000C80E2E6E420E2F6E04C027F005C028F0CE
:105BC00006C029F007C02AF02FEC51F027C000F0E2
:105BD00028C001F029C002F02AC003F02C6A2D6A07
:105BE0002E6A400E2F6E00C027F001C028F002C0C0
:105BF00029F003C02AF0DCEC50F027C054FB28C089
:105C000055FB29C056FB2AC057FB006A016A7F0E6C
:105C1000026E430E036E2C6A2D6A7F0E2E6E430EAB
:105C20002F6E54CB27F055CB28F056CB29F057CB0D
:105C30002AF02FEC51F027C008F028C009F029C045
:105C40000AF02AC00BF02C6A2D6AC80E2E6E420E86
:105C50002F6E08C027F009C028F00AC029F00BC039
:105C60002AF0DCEC50F027C004F028C005F029C071
:105C700006F02AC007F004C02CF005C02DF006C0C5
:105C80002EF007C02FF000C027F001C028F002C09E
:105C900029F003C02AF09CEC51F027C054FB28C027
:105CA00055FB29C056FB2AC057FB07D00B01546B8C
:105CB000556B7F0E566F430E576F54CB27F055CB65
:105CC00028F056CB29F057CB2AF09AEC52F029C095
:105CD00017F454CB27F055CB28F056CB29F057CBEF
:105CE0002AF09AEC52F029C016F47FEC66F0580EB8
:105CF000E66E0B0EE66E3AEC68F0E552E552F3CF35
:105D000066F2F4CF67F20201580E646F0B0E656FF6
:105D1000D2C363F2D5EC04F0D2C35FF20DEC04F011
:105D200012000B01490E546F4E0E556F560E566FF2
:105D3000410E576F4C0E586F490E596F440E5A6FF3
:105D4000200E5B6F430E5C6F4F0E5D6F4D0E5E6FEE
:105D50005F6F410E606F4E0E616F440E626F636B3A
:105D6000646B540EE66E0B0EE66E3AEC68F0E5528C
:105D7000E552F3CF66F2F4CF67F20201540E646F7E
:105D80000B0E656FD7C363F2D5EC04F0D7C35FF297
:045D90000DEF04F01F
:0C5D94000B01006B080E005D06E200CB66
:105DA000CEF12CDB0B01002BF7D70101C1831200D0
:105DB0000B01000E076F010E086F066B080E065DE3
:105DC00001E306D107CBE9FF08CBEAFF0C0EE92679
:105DD000000EEA22EECF00F0EFCF01F0026A036A74
:105DE000005001100210031001E0ECD007CBE9FFD6
:105DF00008CBEAFF0C0EC7C1EBFF0D0EC8C1EBFFCD
:105E00000101C751C8111FE1000ED880CB55200EEB
:105E1000CC5505E3000ECB5D100ECC5903E2CB6BE5
:105E2000100ECC6FCBC100F0CCC101F0CB2B000E1B
:105E3000CC2307CBE9FF08CBEAFF0C0E00C0EBFF39
:105E40000D0E01C0EBFFC65105E0C251C311C411D4
:105E5000C51121E10A0EE66EE66AE66807CBE9FFA6
:105E600008CBEAFFE9CF00F0EACF01F000C0E6FF7F
:105E700001C0E6FF20EC68F0026E050EE15E025004
:105E800007CBE9FF08CBEAFF0E0EE926000EEA2257
:105E9000050EEF6E88D0C651040A61E0070A32E0B1
:105EA000020A03E0030A01E07ED007CBE9FF08CB3A
:105EB000EAFFC2C1EEFFC3C1EEFFC4C1EEFFC5C120
:105EC000EEFF020EC65D02E0000E01D0010E006E74
:105ED00007CBE9FF08CBEAFF140EE926000EEA2201
:105EE0000050010BF36EFE0EEF14F310EF6E07CBB4
:105EF000E9FF08CBEAFF0E0EE926000EEA22010EAA
:105F0000EF6E51D007CBE9FF08CBEAFFC2C1EEFF2D
:105F1000C3C1EEFFC4C1EEFFC5C1EEFF07CBE9FF71
:105F200008CBEAFF130EE926000EEA22EF6A07CB40
:105F3000E9FF08CBEAFF0F0EE926000EEA22270E42
:105F4000EE6EEE6AEE6AEE6A07CBE9FF08CBEAFF77
:105F50000E0EE926000EEA22020EEF6E24D00A0E83
:105F6000E66EE66AC2C1E6FFC3C1E6FF07CBE9FF02
:105F700008CBEAFFE9CF00F0EACF01F000C0E6FF6E
:105F800001C0E6FFD2EC67F0026E060EE15E025041
:105F900007CBE9FF08CBEAFF0E0EE926000EEA2246
:105FA000050EEF6E00D007CBE9FF08CBEAFF0A0E23
:105FB000C9C1EBFF0B0ECAC1EBFF06CBB8F10B0159
:105FC000065108D0170E0727000E0823062BF6D619
:105FD000FF0E00D012000B01356B080E355D01E39A
:105FE000F5D13551170DF3CFE9FFF4CFEAFF000EDD
:105FF000E926010EEA220E0EE926000EEA22EF50F3
:10600000050811E03551170DF3CFE9FFF4CFEAFF92
:10601000000EE926010EEA220E0EE926000EEA2203
:10602000EF50040801E1CFD13551170DF3CFE9FF4F
:10603000F4CFEAFF000EE926010EEA220E0EE92651
:10604000000EEA22EF50050A01E1BCD1010A01E18C
:10605000B9D1070A01E1F9D0010A01E1BBD0020A76
:1060600054E0010A01E0AED13FEC42F000094CE0FF
:106070000B013551170DF3CFE9FFF4CFEAFF000E06
:10608000E926010EEA220E0EE926000EEA22EF6A48
:106090003551170DF3CFE9FFF4CFEAFF000EE926E3
:1060A000010EEA22140EE926000EEA22EF50010B3F
:1060B00017E00301010E166F0B013551170DF3CFD9
:1060C000E9FFF4CFEAFF000EE926010EEA22EECF47
:1060D00013F3EECF14F3EFCF15F37BEC42F014D0B3
:1060E0000301010E126F0B013551170DF3CFE9FFBC
:1060F000F4CFEAFF000EE926010EEA22EECF10F3FC
:10610000EDCF11F35BEC42F05ED10301360E176F59
:106110000B0E186F9EEC42F000095BE048EC42F079
:10612000000946E00B013551170DF3CFE9FFF4CF1D
:10613000EAFF000EE926010EEA2236CBEEFF37CB4E
:10614000EEFF38CBEEFF39CBEEFF3551170DF3CF15
:10615000E9FFF4CFEAFF000EE926010EEA220E0E57
:10616000E926000EEA22020EEF6E3551170DF3CF2D
:10617000E9FFF4CFEAFF000EE926010EEA22130E32
:10618000E926000EEA22EF6A3551170DF3CFE9FF39
:10619000F4CFEAFF000EE926010EEA220F0EE926EF
:1061A000000EEA22270EEE6EEE6AEE6AEE6A11D05B
:1061B0000B013551170DF3CFE9FFF4CFEAFF000EC5
:1061C000E926010EEA220E0EE926000EEA22010E51
:1061D000EF6EF9D0F4EC6BF026C000F027C001F0B0
:1061E0000B013551170DF3CFE9FFF4CFEAFF000E95
:1061F000E926010EEA22150EE926000EEA2200C069
:10620000EEFF01C0EDFF3551170DF3CFE9FFF4CFDD
:10621000EAFF000EE926010EEA22E9CF7EF3EACF7B
:106220007FF347EC5CF00B013551170DF3CFE9FF1D
:10623000F4CFEAFF000EE926010EEA220E0EE9264F
:10624000000EEA22030EEF6EBED03551170DF3CFCC
:10625000E9FFF4CFEAFF000EE926010EEA22040E60
:10626000E926000EEA22E9CF82F3EACF83F3355123
:10627000170DF3CFE9FFF4CFEAFF000EE926010E78
:10628000EA22E9CF80F3EACF81F38BEC5CF00009DE
:1062900001E086D00B013551170DF3CFE9FFF4CFA4
:1062A000EAFF000EE926010EEA22150EE926000E8D
:1062B000EA22EECF02F0EFCF03F002C0E6FF03C008
:1062C000E6FFF4EC6BF0E552E7CF03F0E552E7CFE1
:1062D00002F00250265C006E03502758016E0B013D
:1062E0003551170DF3CFE9FFF4CFEAFF000EE92691
:1062F000010EEA220F0EE926000EEA22EECF04F08C
:10630000EFCF05F00050045C0150055848E23551CC
:10631000170DF3CFE9FFF4CFEAFF000EE926010ED7
:10632000EA22130EE926000EEA22EFCF00F0060E55
:10633000005C25E23551170DF3CFE9FFF4CFEAFFFA
:10634000000EE926010EEA22130EE926000EEA22CB
:10635000EF2A3551170DF3CFE9FFF4CFEAFF000E16
:10636000E926010EEA220F0EE926000EEA22D89055
:10637000EF36010EEB36020EEB36030EEB363551DF
:10638000170DF3CFE9FFF4CFEAFF000EE926010E67
:10639000EA220E0EE926000EEA22020EEF6E11D05E
:1063A0000B013551170DF3CFE9FFF4CFEAFF000ED3
:1063B000E926010EEA220E0EE926000EEA22050E5B
:1063C000EF6E01D000D00B01352B07D61200010172
:1063D000CD51170DF3CFE9FFF4CFEAFF000EE92608
:1063E000010EEA220E0EE926000EEA22EF50050801
:1063F00002E0000E01D0010E00D01200080E0101D3
:10640000CE5D01E32ED0CE51170DF3CFE9FFF4CFCF
:10641000EAFF000EE926010EEA220C0EE926000E24
:10642000EA22EE6AED6ACE51170DF3CFE9FFF4CF01
:10643000EAFF000EE926010EEA22EE6AEE6AEE6A33
:10644000EE6ACE51170DF3CFE9FFF4CFEAFF000E4D
:10645000E926010EEA220E0EE926000EEA22040EBB
:10646000EF6E1200080E0101016ACF25006ED051B7
:106470000122026A036A1B0E00260F0E0122000E83
:10648000022203220E0E0026000E01220222032207
:10649000140E0026000E01220222032200C072F018
:1064A00001C073F057EC4EF0CFC1BDF1D0C1BEF1C9
:1064B0001200080E0101D12504010E6F000E01012A
:1064C000D22104010F6F42EC63F0D1C1BFF1D2C100
:1064D000C0F11200BCEC4CF0000903E1F36AF46A6D
:1064E0002DD00101D3510401615D09E0D3C161F4F4
:1064F0000101B96BBA6B0101CF6BD06BB3DFD3C1B4
:10650000B8F1C00E046E050E056E066A076AB9C1C1
:1065100008F0BAC109F00A6A0B6A0850045C006E00
:1065200009500558016E0A500658026E0B50075864
:10653000036E00C0F3FF01C0F4FF00D01200BDC124
:1065400000F0BEC101F0026A036AC00E005C050ED5
:106550000158000E0258000E035802E3000E13D03B
:10656000D4C186F04FEC50F00101BD2B000EBE23CC
:10657000BD51B95DBE51BA5904E2BDC1B9F1BEC148
:10658000BAF1010E00D01200C00E046E050E056EA9
:10659000066A076ABDC108F0BEC109F00A6A0B6A43
:1065A0000850045C006E09500558016E0A500658E8
:1065B000026E0B500758036E00C004FB01C005FBC0
:1065C0000101D7510B01045D0101D8510B0105599F
:1065D00004E204CBD7F105CBD8F10101D751BD2797
:1065E000D851BE23BD51B95DBE51BA5904E2BDC1F7
:1065F000B9F1BEC1BAF1D7C189F0D8C18AF0D5C10D
:1066000087F0D6C188F054EC50F0D7C1F3FFD8C161
:10661000F4FF00D01200C00E046E050E056E066A6F
:10662000076ABDC108F0BEC109F00A6A0B6A0850CA
:10663000045C006E09500558016E0A500658026E3F
:106640000B500758036E00C005FB01C006FB01019B
:10665000DC510B01055D0101DD510B01065904E21E
:1066600005CBDCF106CBDDF10101DC51BD27DD51AD
:10667000BE23BD51B95DBE51BA5904E2BDC1B9F1E5
:10668000BEC1BAF1DCC18EF0DDC18FF0D9C18BF093
:10669000DAC18CF0DBC18DF06DEC50F0DCC1F3FFA2
:1066A000DDC1F4FF00D01200DEC1E6FFDFC1E6FF6E
:1066B0003AEC68F0E552E552F3CFD7F1F4CFD8F1D8
:1066C000DEC1D5F1DFC1D6F15FDF0101DE51F32478
:1066D000006EDF51F420016E00C0F3FF01C0F4FF33
:1066E00000D01200E0C1E6FFE1C1E6FFE2C1E6FF33
:1066F00048EC68F0E552E552E55227C0DCF128C0CD
:10670000DDF1E0C1D9F1E1C1DAF1E2C1DBF183DF12
:10671000F3CF03F0F4CF04F0056A0101E051032444
:10672000006EE1510420016EE2510520026E00C0AE
:1067300027F001C028F002C029F000D012000101AA
:10674000B851170DF3CF08FBF4CF09FB000E0B0176
:106750000827010E0923080E0101B9250B010A6F54
:10676000000E0101BA210B010B6F08CBE9FF09CB29
:10677000EAFF0C0EE926000EEA22EECF56FEEDCF20
:1067800057FE0EEC4BF0F3CF00FBF4CF01FB08CB30
:10679000E9FF09CBEAFF0A0EE926000EEA22EECF56
:1067A00056FEEDCF57FE0EEC4BF0F3CF02FBF4CFCD
:1067B00003FB0ACB56FE0BCB57FE0EEC4BF0F3CF90
:1067C00004FBF4CF05FB0B01066B076BC8C00CFB89
:1067D000C9C00DFBCAC00EFBCBC00FFB08CBE9FF45
:1067E00009CBEAFFEECF10FBEECF11FBEECF12FB91
:1067F000EFCF13FB146B110E156F0ACB16FB0BCBEF
:1068000017FB16CB56FE17CB57FE0EEC4BF0F3CF13
:1068100016FBF4CF17FB0C0E0E015E6F5F6B0E01C3
:106820000C0E5C6F0B0E5D6F35EC4BF0F3CF06FB7F
:10683000F4CF07FB0B01061F071F0001290E726F23
:106840000F0E736F57EC4EF00ACB0CF40BCB0DF41C
:106850000401110E0B6F08CBE9FF09CBEAFFE9CF6A
:1068600009F4EACF0AF4CEEC62F0080E0001896F59
:106870008A6B0001000E876F0B0E886F54EC50F08E
:1068800000013D0E746F0F0E756F65EC4EF0F3CF87
:1068900018FBF4CF19FB0ACB7AF00BCB7BF0B2ECF0
:1068A0004EF0F3CF1AFBF4CF1BFB0B011A511B1157
:1068B00002E11A691B6918CB74F019CB75F065EC0D
:1068C0004EF00001430E726F0F0E736F57EC4EF0D7
:1068D000020E0001896F8A6B00011A0E876F0B0E82
:1068E000886F54EC50F01BEC4EF00101B96BBA6BA1
:1068F000040161691200E3C1B8F10101E35104012F
:10690000625D03E0F36AF46A14D00101C1A105D00D
:10691000C1910101D16BD26BCCDD0101BF51BB5DD7
:10692000006EBC51C055016E00C0F3FF01C0F4FF02
:1069300000D012000101BB51BF5DBC51C05904E23F
:10694000B8510401625D02E0000E0DD019EC50F068
:10695000E4C1E9FFE5C1EAFFEF6E0101BF2B000EC4
:10696000C023010E00D012000101BB51BF5DBC511C
:10697000C05904E2B8510401625D03E0F36AF46AAD
:106980002FD00101BF51BB5D0B01096F0101C05147
:10699000BC590B010A6F0101E8510B01095D0101AE
:1069A000E9510B010A5904E209CBE8F10ACBE9F1FC
:1069B000E8C184F0E9C185F0E6C182F0E7C183F067
:1069C0001CEC50F0F3CFE8F1F4CFE9F10101E8510C
:1069D000BF27E951C023E8C1F3FFE9C1F4FF00D0AC
:1069E00012000101C1B309D0D9EC4CF00101BB6B1D
:1069F000BC6B040162690101C18312000101BB6B20
:106A0000BC6B080E0001846F856B0001000E826F65
:106A10000B0E836F1CEC50F000CB56FE01CB57FEE3
:106A20000EEC4BF0F3CF00FBF4CF01FB02CB56FE94
:106A300003CB57FE0EEC4BF0F3CF02FBF4CF03FB7E
:106A400004CB56FE05CB57FE0EEC4BF0F3CF04FB08
:106A5000F4CF05FB0B01080E045F000E055B065129
:106A6000071155E0EAC1E9FFEBC1EAFFEECF09FBF0
:106A7000EECF0AFBEECF0BFBEFCF0CFBECC1E9FF37
:106A8000EDC1EAFFEECF0DFBEECF0EFBEECF0FFB1D
:106A9000EFCF10FB116B110E126FEEC113FBEFC1A4
:106AA00014FB13CB56FE14CB57FE0EEC4BF0F3CF7A
:106AB00013FBF4CF14FB0C0E0E015E6F5F6B0E0127
:106AC000090E5C6F0B0E5D6F35EC4BF0F3CF15FBD1
:106AD000F4CF16FB0B01151F161F04010E6B0F6B75
:106AE00042EC63F0EEC17AF0EFC17BF0B2EC4EF015
:106AF000F3CF17FBF4CF18FB0B011751151902E167
:106B00001851161904E0D9EC4CF0000E23D0ECC15A
:106B1000F4F1EDC1F5F1EAC1F2F1EBC1F3F10101DC
:106B2000000EF06F0B0EF16F16D80B01086FFF0E01
:106B3000085D05E1D9EC4CF0000E0CD009D008CB73
:106B400062F404CBBBF105CBBCF10101C181C1935F
:106B5000010E00D01200F2C1E9FFF3C1EAFFEE50CE
:106B60000001C81909E1EE50C91906E1EE50CA1931
:106B700003E1EE50CB1900E102E1FF0EA7D00B01BB
:106B80001A69000E1B6F010E1C6F196B080E195D40
:106B900062E21BCBE9FF1CCBEAFF0C0EE926000EDC
:106BA000EA22EECF00F0EFCF01F0F0C1E9FFF1C132
:106BB000EAFF020EE926000EEA22EECF02F0EFCF46
:106BC00003F00250001802E1035001183DE11BCB15
:106BD000E9FF1CCBEAFF0A0EE926000EEA22EECFFF
:106BE00000F0EFCF01F0F0C1E9FFF1C1EAFFEECF15
:106BF00002F0EFCF03F00250001802E10350011839
:106C000021E1F2C1E9FFF3C1EAFFEECF00F0EECFE0
:106C100001F0EECF02F0EFCF03F01BCBE9FF1CCB6E
:106C2000EAFFEE500001001809E1EE50011806E1FC
:106C3000EE50021803E1EE50031800E103E10B01EE
:106C4000195144D019CB1AFB0B01170E1B27000E4C
:106C50001C23192B9BD7FF0E1A5D35E01A51170D17
:106C6000F3CF1BFBF4CF1CFB000E1B27010E1C23D4
:106C70000A0EE66EE66AF2C1E6FFF3C1E6FF1BCB41
:106C8000E9FF1CCBEAFFE9CF00F0EACF01F000C03A
:106C9000E6FF01C0E6FFD2EC67F0026E060EE15E91
:106CA0000250F0C1E9FFF1C1EAFFEECF00F0EFCFF3
:106CB00001F01BCBE9FF1CCBEAFF0A0E00C0EBFF83
:0E6CC0000B0E01C0EBFF0B011A5100D01200A9
:026CCE00A3EC35
:106CD0003BF0FB0EDBCFF3FFDB06F35000090AE0CD
:106CE000F1EC3BF0FA0E5CEC3CF0F3E1011CF1E15D
:106CF000010E01D0000ED2EF3BF0A3EC3BF03B0EB7
:106D0000E12402E3E168E652E16E010EDB6A020E65
:106D1000DB6AF90EDBCFF6FFFA0EDBCFF7FFFB0ED7
:106D2000DBCFF8FF0800F550DF6EDF5002E1F6EF31
:106D30003AF0250EDF5C02E0E9EF3AF0030EDB6A81
:106D4000040EDB6A050EDB6A060EDB6A070EDB6AE1
:106D50000BEC3BF02D0EDF5C0CE02B0EDF5C09E052
:106D6000200EDF5C06E0230EDF5C03E0300EDF5C0C
:106D70001AE1DF50300A14E0130A0FE0030A0AE0B8
:106D80000B0A05E0060AE4E1030EDB80E1D7030EFF
:106D9000DB82DED7030EDB84DBD7030EDB86D8D79E
:106DA000030EDB88D5D72A0EDF5C1BE107EC3BF036
:106DB00055EC3BF010E0030EDB8028682968130EC9
:106DC000DBCF2DF0140EDBCF2EF0BAEC53F0040E17
:106DD00026C0DBFF03D0130E3EEC3BF00BEC3BF088
:106DE0000BD0090EDB6AACEC3BF003E020EC3CF08E
:106DF000FAD7090E3EEC3BF0030EDBB0DB982E0E0B
:106E0000DF5C1BE10BEC3BF02A0EDF5C0BE107ECD7
:106E10003BF055EC3BF003E1130E90EC3BF00BEC38
:106E20003BF00BD0090EDB6AACEC3BF003E020EC4E
:106E30003CF0FAD7090E90EC3BF0680EDF5C07E1FE
:106E40000BEC3BF0680EDF5C1DE1030E18D0740EF6
:106E5000DF5C17E07A0EDF5C14E0480EDF5C06E0D2
:106E6000540EDF5C03E05A0EDF5C02E1020E07D035
:106E70006C0EDF5C03E06A0EDF5C04E1010EE3EC04
:106E80003BF0C9DBDF506E0A01E17FD31E0A01E14E
:106E900092D1200A01E18FD13F0A01E149D11A0ABA
:106EA00001E146D10D0A01E143D1200A01E140D1BF
:106EB0003A0A01E13DD1200A01E13AD1260A01E175
:106EC00035D10D0A01E132D11A0A01E1D9D0200AE7
:106ED0004AE0300A1FE0460A0EE0250A01E083D3AB
:106EE000D950F90FE96EFF0EDA20EA6E010EEE5E60
:106EF000000EEE5AEE5AF1EC3BF0250EE66E95DBF5
:106F000003E1011C01E169D3EDEC3BF001E26BD33D
:106F1000DB2A69D3080EDB6A040EDB50010806E2A7
:106F2000040EDB04B5EC3BF0DB508BDB080EDB50D2
:106F300009E0030EDB50010B05E172DB01E04DD3EC
:106F4000080EDB6A64DBEFCFDFFF65EC3CF003E1AA
:106F5000011C01E142D3EDEC3BF001E3DB2A60DBF5
:106F600001E141D33AD3070EDB5002080FE131ECC7
:106F70003CF0030EF8EC3BF00E0EEECFDBFF0F0EF5
:106F8000EECFDBFF100EEECFDBFF20D0F70EDBCF16
:106F900003F0F80EDBCF04F0020E035E000E045A7D
:106FA000F70E03C0DBFFF80E04C0DBFF03C0E9FFF0
:106FB00004C0EAFFE8EC3BF0026A0E0E00C0DBFF03
:106FC0000F0E01C0DBFF100E02C0DBFF0E0EDBCF89
:106FD000E6FF0F0EDBCFE6FF100EDBCFE6FF48EC3F
:106FE00068F0E552E552E552130E27C0DBFF140EA0
:106FF00028C0DBFF060EDB5005E0130E2CEC3CF046
:1070000001E26ADB50EC3CF002E2130E37DB13ECDA
:107010003CF006E0040E2CEC3CF002E2050E2EDB08
:10702000030EDBB005D0FCDA01E0D7D2080EDB6A34
:10703000090EDB6A0E0EDBCFF6FF0F0EDBCFF7FF7C
:10704000100EDBCFF8FF0800F550DF6EDF5014E0C4
:1070500056EC3CF011E265EC3CF003E1011C01E16F
:10706000BCD2BBDB01E3DB2A090EDB2AD9500E0FB1
:10707000E96E000ECBDBE7D7D3DA01E1B4D2ADD2B3
:10708000C6DA110EEECFDBFF120EEDCFDBFF110ED5
:10709000DBCFE6FF120EDBCFE6FF3AEC68F0E552FD
:1070A000E552130EF3CFDBFF140EF4CFDBFF060E19
:1070B000DB5004E0130ED0DB01E20EDB50EC3CF0C1
:1070C00002E2130EDBDAAFDB05E0040EC5DB02E201
:1070D000050ED4DA030EDBB005D0A2DA01E07DD2D2
:1070E000080EDB6A090EDB6A110EDBCFE9FF120E18
:1070F000DBCFEAFFEFCFDFFFDF5014E0D7DB12E298
:10710000E4DB03E1011C01E168D267DB01E3DB2A78
:10711000090EDB2A110EDB2ADBCFE9FF120EE8E3B2
:10712000DB2AE6D77DDA01E15ED257D2030EDB8E91
:10713000070EDB0410E195DB040E5ADB0A0EEECFDE
:10714000DBFF0B0EEECFDBFF0C0EEECFDBFF0D0EE9
:10715000EECFDBFF6CD0070EDB5003082CE1030EF3
:10716000DBAE0DD0B2DA020E76DAEFCF00F0016AB4
:10717000026A036A00AE39D00168026835D0F70EA2
:10718000DBCF01F0F80EDBCF02F0020E015E000E45
:10719000025AF70E01C0DBFFF80E02C0DBFF01C090
:1071A000E9FF02C0EAFFEFCF00F00A0E00C0DBFFEC
:1071B0000B0EDB6A38D0070EDB50020809E1030E24
:1071C000DBAE04D059DB02AE10D00ED055DB0DD0B3
:1071D000030EDBAE12D079DA020E3DDAF9DA026A7A
:1071E000036A01AE02D002680368E2DA0C0E02C044
:1071F000DBFF0D0E03C0DBFF1AD0F70EDBCF02F072
:10720000F80EDBCF03F0020E025E000E035AF70EFB
:1072100002C0DBFFF80E03C0DBFF02C0E9FF03C0C2
:10722000EAFFD6DAC5DA0C0EDB6A0D0EDB6A060E53
:10723000DB5005E1010EF36E050EF3CFDBFF150EFB
:10724000DB6A160EDB6AD950370F006E000EDA20AB
:10725000016E390E00C0DBFF3A0E01C0DBFF380EB5
:10726000DB6A080EDB6A0A0EAEDADF50780A12E03B
:10727000200A10E0280A0CE0200A0AE03F0A06E093
:107280000D0A02E0200A08E1020E05D0080E03D024
:10729000080EDF26100E97DA030EDBBE02D0DB925B
:1072A000DB94DB50800B24E08ADAD890030EEB509D
:1072B000000A08E6000EEE5C000EEE58000EEE58D6
:1072C000000EEE5815E213DA2B682C682D682E6834
:1072D00044EC6EF00A0E22C0DBFF0B0E23C0DBFF76
:1072E0000C0E24C0DBFF0D0E25C0DBFF2D0E08D0D9
:1072F000030EDBA202D02B0E03D0DBA408D0200E9D
:10730000F36E170EF3CFDBFF150EDB2A02D0170E3C
:10731000DB6A050EDB5003E1B7D901E189D02E0EFF
:10732000006EDF0E016E000E026E070EDBCF03F063
:10733000046A056A066A03C02BF004C02CF005C07D
:107340002DF006C02EF0D3D9FEEC6EF000502224B2
:10735000F36E01502320F46E02502420F86EF4CF17
:10736000F7FFF3CFF6FF0800090EF5CFDBFF580E4D
:10737000DF5C0FE1610EF36E090E7BD90AE3200E8C
:10738000006E090EDBCFE7FF0050E75E090EE7CF86
:10739000DBFF070EDBCF00F0016A026A036A0FDA37
:1073A00000C02BF001C02CF002C02DF003C02EF065
:1073B000EECF26F0EECF27F0EECF28F0EFCF29F07A
:1073C000FEEC6EF029C0EDFF28C0EDFF27C0EDFFF9
:1073D00026C0EFFF390EDBCFE9FFDB063A0EDBCF2D
:1073E000EAFF01E2DB06090EDBCFEFFF150EDB2A19
:1073F0004BD995E1030EDBA61DD06F0EDF5C06E1D5
:10740000C1D918E3150EDB285BDA14D0780EDF5CE7
:1074100009E0580EDF5C06E0620EDF5C03E0420E1E
:10742000DF5C08E1020EF36E160EF3CFDBFF02D035
:10743000150EDB6A030EDB50100B0EE0040EDBCFE3
:1074400000F0050EDB50D880005406E2060EDB503B
:1074500003E1040EDB5034DA95D90AE2050EDBCFE6
:10746000E7FF150EDB50E75E050EE7CFDBFF02D02E
:10747000050EDB6A040EDBCF00F0160E45D9D8806E
:10748000005414E2160EDBCFE6FF150EDBCFE6FF4D
:10749000040EDBCFE6FF050EDB50E552E75CE5525C
:1074A000D880E754E552D880E7545FD9030EDB500B
:1074B000010B0BE1080EDB5008E0B2D801E08DD0E3
:1074C000080EDB50BED8080EDB6A170EDB5007E053
:1074D00088D9170EF1D903E1011C01E17ED0160E07
:1074E000DB5016E07ED9300EE66E9FD802E1011C1B
:1074F00074E077D9DFCFE6FF02EC6EF0E552E5529B
:10750000E552F4CF01F00001F31C02E1011C65E03B
:10751000050EDBCF00F0160EDB50D880005409E2D8
:10752000050EDBCFE7FF160EDB50E75E050EE7CF5B
:10753000DBFF300EE66E050ECBD94FE1390EDB2AAC
:10754000DBCFE9FF3A0E01E3DB2ADBCFEAFF090ECE
:10755000EFCFDBFFDB500EE044D9090EADD902E1DD
:10756000011C3BE0390EDB2ADBCFE9FF3A0EEDE3ED
:10757000DB2AEBD755D831E1160EDBCFE6FF080E3C
:10758000C3D8E552E7245DD82ED0070EDB50030A9E
:107590001CE0010A14E0030A07E07BD9DBCFEEFF11
:1075A000020EDBCFEDFF1FD0F5D8056A03AE02D087
:1075B000046805682CD8BCD805C0EEFF14D0EAD802
:1075C00003BE046824D8B4D80ED063D9DBCFEFFF54
:1075D0000AD07BD905E1011C03E1F368F46810D0FF
:1075E000FCD801E3DB2A79D992EF36F0010EDBCF2C
:1075F00000F0020EDBCF01F000C0F3FF01C0F4FF8A
:107600003B0EE15C02E2E16AE552E16ECBD029D9A2
:10761000020EF8EF3BF061D90800F550DF6E120062
:10762000200EE66E080E68EF3CF002EC6EF0E552BC
:10763000E552E552F3CF00F0F4CF01F00001F31C66
:107640001200006E016AD950010F4DD90050EE268C
:107650000150ED221200045E000E055AF70E04C020
:10766000DBFFF80E05C0DBFF04C0E9FF05C0EAFF41
:107670001200DBCFF4FFF350F45C1200DB50E76E36
:10768000040EE7CFDBFF12000A0EDBCF00F00B0E7B
:10769000DBCF01F00C0EDBCF02F00D0EDBCF03F0E1
:1076A00000500110021003101200130EEECFDBFF8A
:1076B000140EEDCFDBFF130EDBCF00F0140EDBCF8B
:1076C00001F00001800E01141200F70EDBCF04F070
:1076D000F80EDBCF05F01200050EDB50E66ED95038
:1076E000130F01D9E552E750EE6EED6A12000A0E53
:1076F000DBCF26F00B0EDBCF27F00C0EDBCF28F014
:107700000D0EDBCF29F01200DBCFE6FF150EDBCF2D
:10771000E6FF050EDB50E552E724E552E7241200B0
:10772000DB50CED8010EF36E060EF3CFDBFF120056
:10773000EE50EFCFEAFFE96E02C0EEFF03C0EEFFAE
:1077400004C0EEFF1200D9CFE6FFDACFE6FFE1CFAB
:10775000D9FFE2CFDAFF1200DFCFE6FFE66A4EEC98
:107760006FF0E552E552F3501200E76E080EE7CFD6
:10777000DBFF1200EECF00F0EECF01F0EFCF02F012
:10778000036A1200050EDBCF00F0150EDB50D88027
:1077900000541200010EDBCF02F0020EDBCF03F02B
:1077A000046A1200E552E5CFDAFFE7CFD9FF1200F5
:1077B0000A0E00C0DBFF0B0E01C0DBFF1200D95028
:1077C0000A0F73EF3CF0F36E070EF3CFDBFF1200EE
:1077D000EECF00F0EFCF01F01200010EDB2A020E17
:1077E0001200FC0EDBCFE6FFFD0EDBCFE6FF120042
:1077F000005E000E015AF70E00C0DBFFF80E01C05C
:10780000DBFF00C0E9FF01C0EAFF1200DA20EA6EE8
:10781000EF2AEECFF6FF000EEF22EECFF7FFEF22BA
:10782000EECFF8FF1200040EDBCFE6FF130EDB50A5
:10783000E552E75C9ADFDB5004DF060EDB501200F6
:10784000090EDB500A0DF350DF24D00FE76E090E4E
:10785000E7CFDBFF0BEF3BF0DB50F36E050E39EFAC
:107860003BF0F70EDBCF00F0F80EDBCF01F012009B
:10787000DFCFE6FF15EF3BF028DF030EECDEBAEFBB
:107880003BF067EC36F0E552E552E552E55200096F
:107890001200BDDEEE50EFCFEAFFE96E010E1200DE
:1078A000130EDB50F36E040E39EF3BF0040EDB5089
:1078B000F36E090E39EF3BF0DBCFE6FF15EF3BF03F
:1078C000E76E050EE7CFDBFF12008BDF38EF3CF0F1
:1078D000DBCFE6FF86DF41EF3CF0D950F90FE96ED0
:1078E000FF0E06EF3CF0E96E000EDA20EA6E1200A1
:1078F00004016A510CE1010E6A6F0B01006B010E6D
:10790000005D05E20201CF690B01002BF8D7FF0EE5
:107910000201CF5D06E0CFC2CEF1FEEC31F00201F4
:10792000CF69010ED06FD16BD189D1831200FF0EC8
:107930000201CF5D06E0CFC2CEF1FEEC31F00201D4
:10794000CF69D06B12000201D05103E1010ED06F5C
:10795000D19112000201D05102E1000E01D0010EBE
:1079600000D012000201D151010B00D0120002011F
:10797000D1A303D0D193010E02D0000E00D012008B
:107980000201D151080B01E0010E00D012000B01E1
:10799000216B010E215D01E340D20201D051080AA2
:1079A00001E1E4D1020A01E1E1D1060A01E1DED1FF
:1079B0000B0A01E1B7D10E0A01E1B4D1020A01E1DB
:1079C000B1D10D0A01E167D1030A01E1E3D0010A57
:1079D00001E1A1D0070A6EE0010A1FE0030A04E0FA
:1079E000010A01E017D216D2430E0101C96FCA6B1A
:1079F000440E0101C76FC86B0101C66B0101C26B68
:107A0000C36BC46BC56BD8EC2EF00201CF6FFF0EB9
:107A1000CF5D01E1FFD1020ED06F3C0ED66FD76B68
:107A2000D86BD96BF26BD191D195ADEC4CF00009CC
:107A300001E1F0D1CFC2D3F16AEC32F0F3CF00F024
:107A4000F4CF01F02C0E005C010E015801E2E2D1EE
:107A50000201D1790A0EE66EE66AE668CF51170D8B
:107A6000F3CFE9FFF4CFEAFF000EE926010EEA2288
:107A7000E9CF00F0EACF01F000C0E6FF01C0E6FF69
:107A800020EC68F0026E050EE15E02500201FB6B15
:107A90000201010EFA6FC1DBE9EC6BF026C0D2F2F5
:107AA00027C0D3F228C0D4F229C0D5F20201030EB8
:107AB000D06FB0D1CFC2E3F17BEC34F0F3CF00F064
:107AC000F4CF01F0FA0E005C000E01581BE2E9EC65
:107AD0006BF00201D251265C006ED3512758016E23
:107AE000D4512858026ED5512958036EE40E005C1B
:107AF0003D0E0158010E0258000E035802E3020E1B
:107B0000D06F88D10201D18789D9020801E082D1E2
:107B10000201040ED06FCFC2D3F16AEC32F0F3CF82
:107B200000F0F4CF01F0020E005C010E015801E2FA
:107B300071D10A0EE66EE66AE6680201CF51170DB2
:107B4000F3CFE9FFF4CFEAFF000EE926010EEA22A7
:107B5000E9CF00F0EACF01F000C0E6FF01C0E6FF88
:107B600020EC68F0026E050EE15E02500201FB6B34
:107B70000201030EFA6F51DBE9EC6BF026C0D2F282
:107B800027C0D3F228C0D4F229C0D5F20201050ED5
:107B9000D06F40D1CFC2E3F17BEC34F0F3CF00F0F3
:107BA000F4CF01F0FA0E005C000E01581BE2E9EC84
:107BB0006BF00201D251265C006ED3512758016E42
:107BC000D4512858026ED5512958036EE40E005C3A
:107BD0003D0E0158010E0258000E035802E3020E3A
:107BE000D06F18D11BD9060A51E0030A01E052D028
:107BF000CFC2CEF1FEEC31F00201CF69E9EC6BF0BF
:107C000026C0D2F227C0D3F228C0D4F229C0D5F2C0
:107C10000201060ED06FD183D181F2A108D0DEC25D
:107C2000C8F0DFC2C9F0E0C2CAF0E1C2CBF0F2A5F1
:107C300008D0E6C2CCF0E7C2CDF0E8C2CEF0E9C28F
:107C4000CFF0F2A308D0E2C2D0F0E3C2D1F0E4C298
:107C5000D2F0E5C2D3F0F2A708D0EAC2D4F0EBC26A
:107C6000D5F0ECC2D6F0EDC2D7F00001D86BD96BDD
:107C7000DA6BDB6B0201F2A908D0EEC2D8F0EFC2DA
:107C8000D9F0F0C2DAF0F1C2DBF004D00201020E4A
:107C9000D06F00D0BFD0E9EC6BF00201D251265C6E
:107CA000006ED3512758016ED4512858026ED55119
:107CB0002958036EF20E005C9E0E0158000E025809
:107CC000000E035801E2A6D0020ED65D000ED75971
:107CD000000ED859000ED9590CE3F20ED2279E0E91
:107CE000D323000ED423D523D607D75BD85BD95B2B
:107CF00091D0430E0101C96FCA6B440E0101C76FD9
:107D0000C86B0101C66B0101C26BC36BC46BC56B51
:107D1000D8EC2EF00201CF6FFF0ECF5D01E17AD0DB
:107D2000070ED06FCFC2D3F16AEC32F0F3CF00F080
:107D3000F4CF01F0020E005C010E015801E26AD09E
:107D40000201010EFB6F0201030EFA6F66DA0201F7
:107D5000D195E9EC6BF026C0D2F227C0D3F228C04F
:107D6000D4F229C0D5F20201D02B54D0CFC2E3F116
:107D70007BEC34F0F3CF00F0F4CF01F0FA0E005CAE
:107D8000000E015827E2E9EC6BF00201D251265CAB
:107D9000006ED3512758016ED4512858026ED55128
:107DA0002958036EE40E005C3D0E0158010E025886
:107DB000000E03580EE3D02B0C0EE76ED019E8AE80
:107DC00002D0D03503D0E750D880D05502E2020E61
:107DD000D06F20D023D8060A18E0030A01E019D09A
:107DE000CFC2CEF1FEEC31F00201CF69E9EC6BF0CD
:107DF00026C0D2F227C0D3F228C0D4F229C0D5F2CF
:107E00000201060ED06FD18304D00201020ED06FA2
:107E100000D000D00B01212BBCD512000B01036B4D
:107E20000101000EE46F0B0EE56F9AEC34F0020EC8
:107E30000B01005D01E0C7D11C0E0101D16FD26BB7
:107E400059EC32F00B01016B060E015D14E20101E9
:107E5000000EE46F0B0EE56F9AEC34F00B0101514C
:107E6000EA6AF50FE96E000EEA22EF50005D01E0CC
:107E7000CFD1012BE9D70201D1B513D0100E0101EA
:107E8000D16FD26B59EC32F0040E0101E86FE96B4F
:107E90000101DE0EE66F020EE76FB4EC34F0020172
:107EA000F281F00E0101D16FD26B59EC32F00B016F
:107EB000046B0101000EE46F0B0EE56F9AEC34F0D9
:107EC000000904E10B01010E046F7DD10B0100518B
:107ED000330A01E10AD1CC0A01E104D1C90A01E166
:107EE000D7D0300A01E190D0050A50E0020A20E024
:107EF000340A01E050D10101000EE46F0B0EE56F72
:107F00009AEC34F00B01000511E10101030EE46F5E
:107F10000B0EE56F9AEC34F00201D151040B05E031
:107F2000020E0B01035D01E173D101D071D147D184
:107F30000101000EE46F0B0EE56F9AEC34F0040EB5
:107F40000B01005D21E10201D1A510D00B01016BF5
:107F5000040E015D0AE20101000EE46F0B0EE56FF5
:107F60009AEC34F00B01012BF3D70DD0040E010174
:107F7000E86FE96B0101E60EE66F020EE76FB4EC05
:107F800034F00201F28501D043D119D10101020E72
:107F9000E46F0B0EE56F9AEC34F0040E0B01025DFA
:107FA00021E30201D1A510D00B01016B040E015D8C
:107FB0000AE20101000EE46F0B0EE56F9AEC34F05B
:107FC0000B01012BF3D70DD0040E0101E86FE96B13
:107FD0000101E20EE66F020EE76FB4EC34F002012D
:107FE000F28301D015D1040E0B01025F0B01025187
:107FF0000207000908E00101000EE46F0B0EE56FB7
:108000009AEC34F0F3D7DBD00101020EE46F0B0ED3
:10801000E56F9AEC34F0040E0B01025D01E2F8D03A
:108020000201D1B510D0040E0101E86FE96B010126
:10803000EA0EE66F020EE76FB4EC34F00201F2874D
:10804000040E0B01025F040E0B01025D13E302013B
:10805000D1B510D0040E0101E86FE96B0101EE0EFD
:10806000E66F020EE76FB4EC34F00201F289040E01
:108070000B01025F0B0102510207000908E0010138
:10808000000EE46F0B0EE56F9AEC34F0F3D797D047
:108090000101000EE46F0B0EE56F9AEC34F0040E54
:1080A0000B01005D1DE10101080EE46F0B0EE56F91
:1080B0009AEC34F00101070EE46F0B0EE56F9AECB9
:1080C00034F00101060EE46F0B0EE56F9AEC34F00C
:1080D0000101050EE46F0B0EE56F9AEC34F001D050
:1080E00097D06DD0010E046F6AD00101000EE46FCD
:1080F0000B0EE56F9AEC34F0040E0B01005D49E1C4
:108100000201D1A510D00B01016B040E015D0AE242
:108110000101000EE46F0B0EE56F9AEC34F00B01D9
:10812000012BF3D735D00101D90EE46F020EE56FB4
:108130009AEC34F00101D80EE46F020EE56F9AEC70
:1081400034F00101D70EE46F020EE56F9AEC34F0C3
:108150000101D60EE46F020EE56F9AEC34F0D6C240
:1081600000F0D7C201F0D8C202F0D9C203F0050E68
:10817000D8900332023201320032E806F9E10050B1
:108180000201D65F0150D75B0250D85B0350D95B28
:1081900001D03ED014D00101020EE46F0B0EE56F4A
:1081A0009AEC34F00B0102510207000908E00101CA
:1081B000000EE46F0B0EE56F9AEC34F0F3D70B0171
:1081C000045101E176D6020E035D0BE105CBDAF234
:1081D00006CBDBF207CBDCF208CBDDF20201D18566
:1081E00012D0DA0EE96E020EEA6EEE50051909E1C0
:1081F000EE50061906E1EE50071903E1EE5008199A
:1082000000E101E0036BF1EC34F00B01035104D009
:10821000F1EC34F0000E00D012000101010ED46F19
:108220009FEC32F00101010ED46F9FEC32F001019E
:10823000060ED46F9FEC32F00101D46B9FEC32F04C
:108240000101120ED46F9FEC32F00101230ED46FA6
:108250009FEC32F00101340ED46F9FEC32F001013B
:10826000560ED46F9FEC32F00101D46B9FEC32F0CC
:108270000101D46B9FEC32F00201D151100B02E0EE
:10828000000E01D0800E0101D46F9FEC32F001018D
:10829000D46B9FEC32F0030E0201FA5D0EE1FB514C
:1082A0000CE0040E0101D76FD86B0101DE0ED56F13
:1082B000020ED66FC4EC32F010D00101D46B9FECEB
:1082C00032F00101D46B9FEC32F00101D46B9FECD2
:1082D00032F00101D46B9FEC32F00B011C6B0C0EE1
:1082E0001C5D07E20101D46B9FEC32F00B011C2BEB
:1082F000F6D7060E0101D76FD86B0101F50ED56FC9
:10830000000ED66FC4EC32F00B011C6BCA0E1C5D64
:1083100007E20101D46B9FEC32F00B011C2BF6D766
:108320000101630ED46F9FEC32F00101820ED46F15
:108330009FEC32F00101530ED46F9FEC32F001013B
:10834000630ED46F9FEC32F00101350ED46F9FECB9
:1083500032F00101010ED46F9FEC32F0FAC2D4F179
:108360009FEC32F00201FA0501E1D195030EFA5DAE
:108370001CE1FB511AE10101360ED46F9FEC32F083
:108380000101040ED46F9FEC32F0DDC2D4F19FECFA
:1083900032F0DCC2D4F19FEC32F0DBC2D4F19FECBE
:1083A00032F0DAC2D4F19FEC32F00101370ED46F13
:1083B0009FEC32F00101040ED46F9FEC32F001010A
:1083C000010ED46F9FEC32F00101030ED46F9FECCD
:1083D00032F00101060ED46F9FEC32F001010C0E59
:1083E000D46F9FEC32F0030E0201FA5D02E1FB5103
:1083F00007E0FA051AE1DE51DF11E011E11115E0A5
:108400000101320ED46F9FEC32F00101040ED46FE3
:108410009FEC32F0040E0101D76FD86B0101DE0E24
:10842000D56F020ED66FC4EC32F00101D4699FEC17
:1084300032F001012C0EB95D010EBA5905E20101BD
:10844000D46B9FEC32F0F5D7C8C01DFBC9C01EFB32
:10845000CAC01FFBCBC020FB0201FB5105E100019C
:10846000C86BC96BCA6BCB6B9FEC33F01DCBC8F0EC
:0E8470001ECBC9F01FCBCAF020CBCBF0120000
:02847E000F01EC
:108480005EA102D0000E03D05E81010E00D012006A
:10849000FF0E0F015D5D06E05DCFCEF1FEEC31F029
:1084A0000F015D69070E5F6F5E915E51020B01E087
:1084B000010E00D012000E01060E426F030E436F34
:1084C00010C340FE11C341FE66EC48F0000905E010
:1084D0000F015E83070E5F6F0DD010C300F311C351
:1084E00001F30301026B036B046B0F015F6B12C39B
:1084F00005F35E9312000E01060E476F030E486FE0
:1085000013C344FE14C345FE15C346FE3EEC49F0BA
:10851000000905E00F015E83070E5F6F0ED00301B7
:10852000006B016B13C302F314C303F315C304F30D
:108530000F015F6B16C305F35E9312000F015F51CD
:10854000060A01E18CD3010A01E174D3020A01E1B8
:10855000F0D0010A01E179D0070A5CE0010A1FE0CE
:10856000030A06E0010A01E0B6D303011F6B206B8A
:108570000301D40E7E6F000E7F6F47EC5CF00301A9
:108580001F2BE9EC6BF026C019F327C01AF328C0A3
:108590001BF329C01CF30F01020E5F6F9CD3030174
:1085A0000A0E826F030E836F0301D40E806F000EDC
:1085B000816F8BEC5CF0000922E1E9EC6BF00301C8
:1085C0001951265C006E1A512758016E1B5128580C
:1085D000026E1C512958036ED880F20E00549E0E74
:1085E0000154000E0254000E035408E2030E1F5DF6
:1085F00002E3060E01D0010E0F015F6F6CD3D4C0F1
:1086000006F3D5C007F3D6C008F3D7C009F30F01AE
:10861000030E5F6F350E0101C96FCA6B0101C76B95
:10862000C86B0101040EC66F0101060EC26F030E76
:10863000C36FC46BC56BD8EC2EF00F015D6FFF0EDE
:108640005D5D01E148D3040E5F6F5DCFD3F16AEC4D
:1086500032F0F3CF00F0F4CF01F00050011001E14F
:108660003AD303011D2B000E1E231EC3D4F19FEC31
:1086700032F01DC3D4F19FEC32F00101010ED46F32
:108680009FEC32F00101D46B9FEC32F00101D46B0E
:108690009FEC32F00101010ED46F9FEC32F001012A
:1086A000D46B9FEC32F00101D46B9FEC32F00101EE
:1086B000D46B9FEC32F00101D46B9FEC32F00101DE
:1086C000D46B9FEC32F00101D46B9FEC32F00301CC
:1086D0000051011106E000C321F301C322F3FEDAC9
:1086E00007D002C323F303C324F304C325F34EDBF3
:1086F0000101D46B9FEC32F005C3D4F19FEC32F052
:108700000101D46B9FEC32F00101010ED46F9FEC9C
:1087100032F09FEC33F0E9EC6BF026C019F327C080
:108720001AF328C01BF329C01CF30F01050E5F6F5D
:10873000D2D25DCFE3F17BEC34F0F3CF00F0F4CF95
:1087400001F0005001101DE1E9EC6BF0030119513B
:10875000265C006E1A512758016E1B512858026E74
:108760001C512958036ED880F20E00549E0E0154FD
:10877000000E0254000E035403E20F01060E5F6F59
:10878000AAD20101200EE46F0B0EE56F9AEC34F0D3
:1087900001011F0EE46F0B0EE56F9AEC34F003013C
:1087A0001D510B011F1904E103011E510B0120197A
:1087B00003E0F1EC34F08FD20101220EE46F0B0ED6
:1087C000E56F9AEC34F00101210EE46F0B0EE56FBA
:1087D0009AEC34F00101240EE46F0B0EE56F9AEC75
:1087E00034F00101230EE46F0B0EE56F9AEC34F0C8
:1087F0000101260EE46F0B0EE56F9AEC34F00101D7
:10880000250EE46F0B0EE56F9AEC34F00101280E93
:10881000E46F0B0EE56F9AEC34F00101270EE46F64
:108820000B0EE56F9AEC34F001012A0EE46F0B0E8B
:10883000E56F9AEC34F00101290EE46F0B0EE56F41
:108840009AEC34F00B0123CB00F024CB01F023078A
:10885000000E245B005001101EE000DB01011E0E23
:10886000E46F0B0EE56F9AEC34F001011D0EE46F1E
:108870000B0EE56F9AEC34F001011E0EE46F0B0E47
:10888000E56F9AEC34F001011D0EE46F0B0EE56FFD
:108890009AEC34F0D7D70B0125CB00F026CB01F0B2
:1088A0002507000E265B0050011001E18BD0D6DABF
:1088B00001012C0EE46F0B0EE56F9AEC34F0010110
:1088C0002B0EE46F0B0EE56F9AEC34F001012E0EC7
:1088D000E46F0B0EE56F9AEC34F001012D0EE46F9E
:1088E0000B0EE56F9AEC34F00101320EE46F0B0EC3
:1088F000E56F9AEC34F00101310EE46F0B0EE56F79
:108900009AEC34F00101300EE46F0B0EE56F9AEC37
:1089100034F001012F0EE46F0B0EE56F9AEC34F08A
:108920000101340EE46F0B0EE56F9AEC34F0010197
:10893000330EE46F0B0EE56F9AEC34F00B01010E71
:108940002B1901E12C512AE1010E2D1901E12E51C3
:1089500025E1040E331901E1345120E10F015E835A
:108960000101060EE46F030EE56F9AEC34F001018D
:10897000070EE46F030EE56F9AEC34F00101080E68
:10898000E46F030EE56F9AEC34F00101090EE46F19
:10899000030EE56F9AEC34F043D113D00B0133CBC7
:1089A00000F034CB01F03307000E345B00500110AF
:1089B00008E001011C0EE46F0B0EE56F9AEC34F039
:1089C000EDD769D70B0127CB00F028CB01F02707A3
:1089D000000E285B0050011001E18BD03FDA01014D
:1089E0002C0EE46F0B0EE56F9AEC34F001012B0EA8
:1089F000E46F0B0EE56F9AEC34F001012E0EE46F7C
:108A00000B0EE56F9AEC34F001012D0EE46F0B0EA6
:108A1000E56F9AEC34F00101320EE46F0B0EE56F56
:108A20009AEC34F00101310EE46F0B0EE56F9AEC15
:108A300034F00101300EE46F0B0EE56F9AEC34F068
:108A400001012F0EE46F0B0EE56F9AEC34F001017B
:108A5000340EE46F0B0EE56F9AEC34F00101330E27
:108A6000E46F0B0EE56F9AEC34F00B01010E2B193D
:108A700001E12C512AE1010E2D1901E12E5125E1D0
:108A8000040E331901E1345120E10F015E8301012D
:108A9000060EE46F030EE56F9AEC34F00101070E49
:108AA000E46F030EE56F9AEC34F00101080EE46FF9
:108AB000030EE56F9AEC34F00101090EE46F030E2A
:108AC000E56F9AEC34F0ACD013D00B0133CB00F04F
:108AD00034CB01F03307000E345B0050011008E086
:108AE00001011C0EE46F0B0EE56F9AEC34F0EDD72C
:108AF00069D70B0129CB00F02ACB01F02907000E22
:108B00002A5B0050011001E18BD0A8D901012C0E85
:108B1000E46F0B0EE56F9AEC34F001012B0EE46F5D
:108B20000B0EE56F9AEC34F001012E0EE46F0B0E84
:108B3000E56F9AEC34F001012D0EE46F0B0EE56F3A
:108B40009AEC34F00101320EE46F0B0EE56F9AECF3
:108B500034F00101310EE46F0B0EE56F9AEC34F046
:108B60000101300EE46F0B0EE56F9AEC34F0010159
:108B70002F0EE46F0B0EE56F9AEC34F00101340E0A
:108B8000E46F0B0EE56F9AEC34F00101330EE46FE5
:108B90000B0EE56F9AEC34F00B01010E2B1901E17D
:108BA0002C512AE1010E2D1901E12E5125E1040E6F
:108BB000331901E1345120E10F015E830101060EFA
:108BC000E46F030EE56F9AEC34F00101070EE46FD9
:108BD000030EE56F9AEC34F00101080EE46F030E0A
:108BE000E56F9AEC34F00101090EE46F030EE56FB6
:108BF0009AEC34F015D013D00B0133CB00F034CB0A
:108C000001F03307000E345B0050011008E0010151
:108C10001C0EE46F0B0EE56F9AEC34F0EDD769D7BC
:108C2000F1EC34F05DCFCEF1FEEC31F00F015D6977
:108C3000070E5F6F5EB305D00301066B076B086B11
:108C4000096B17C3E9FF18C3EAFF06C3EEFF07C3AA
:108C5000EEFF08C3EEFF09C3EEFF010E3ED0020E89
:108C60000301205D0AE317C3E9FF18C3EAFFEE6AB8
:108C7000EE6AEE6AEE6A010E30D0202B0001D85168
:108C8000D911DA11DB1126E0D851D41BD951D51BEB
:108C9000DA51D61BDB51D71BD451D81BD551D91B68
:108CA000D651DA1BD751DB1BD851D41BD951D51B58
:108CB000DA51D61BDB51D71B03011F6BFF0E0F01CF
:108CC0005D5D06E05DCFCEF1FEEC31F00F015D6938
:108CD000010E5F6F00D0000E00D0120021C300FB18
:108CE00022C301FB0B0100CBE9FF01CBEAFF002B04
:108CF000000E0123EFCF02FB02510CE02E0E025DAD
:108D000009E02F0E025D06E02C0E025D03E03E0E30
:108D1000025DE8E1030121510B01005D006E01518C
:108D200003012255016E0006000E015A00C003FB2C
:108D300003CBD4F19FEC32F00B0103510101D76F4B
:108D4000D86B21C3D5F122C3D6F1C4EC32F0F3CFF6
:108D500000F0F4CF01F0010E0026000E01220050B9
:108D600003012127015022230B01025109E02F0E9C
:108D7000025D06E02C0E025D03E03E0E025D01E1A5
:108D800001D0B0D70101D46B9FEF32F023C300FBB9
:108D900024C301FB25C302FB0B0100CBF6FF002B14
:108DA00001CBF7FF000E012302CBF8FF02230800DE
:108DB000F5CF03FB03510CE02E0E035D09E02F0EEF
:108DC000035D06E02C0E035D03E03E0E035DE4E16F
:108DD000230EE96E030EEA6EEE50005D006EEE505B
:108DE0000159016EEE500259026E0006000E015A42
:108DF000025A00C004FB04CBD4F19FEC32F00B010B
:108E000004510101DC6FDD6B23C3D9F124C3DAF116
:108E100025C3DBF10BEC33F0F3CF00F0F4CF01F01E
:108E2000010E0026000E0122026A005003012327D2
:108E300001502423025025230B01035109E02F0E7A
:108E4000035D06E02C0E035D03E03E0E035D01E1D1
:108E500001D0A2D70101D46B9FEF32F00101000EC7
:108E6000E46F0B0EE56F9AEC34F0000901E11AD0C3
:108E7000C00E0B010015C00808E10101000EE46FEF
:108E80000B0EE56F9AEC34F00DD0005101E10AD0E1
:108E900000510101E86FE96B0101E66BE76BB4EC8F
:068EA00034F0DCD71200E3
:0A8EA6005DC421FB5EC422FB5FC423
:108EB00023FB60C424FB0E013C513D113E113F11C8
:108EC00005E1010E3C6F3D6B3E6B3F6B3CCE5DF4AC
:108ED0003DCE5EF43ECE5FF43FCE60F40B01256BD9
:108EE000100E255D04E20DD80B01252BF9D721CBFF
:108EF00026F022CB27F023CB28F024CB29F000D07A
:108F000012000B012C6B0F0E2C5D38E25DC400F0DB
:108F10005EC401F05FC402F060C403F0D890033275
:108F20000232013200325DC404F05EC405F05FC459
:108F300006F060C407F0010E0416056A066A076AA7
:108F4000000E046C051E0522061E0622071E0722BF
:108F5000010E0416056A066AD00E071600500418A2
:108F600004015D6F015005185E6F025006185F6FB7
:108F700003500718606F0B012C2BC5D75DC4F3FF9E
:108F80005EC4F4FF00D01200C2CF0FFBC0CF10FBB5
:108F9000D5CF11FBD6CF13FBD7CF12FB010EC26E7C
:108FA0003F0EC06E880ED56E0B01006B0B01076B78
:108FB000086B096B0A6B0B01056B066BA2DFF3CF25
:108FC0000BFBF4CF0CFB0B010D6B0E6BD76AD66A53
:108FD000C2820400C2B2FED7D6CF03FBD7CF04FBB8
:108FE00090DFF3CF01FBF4CF02FB0B0103510B0128
:108FF00007270B0104510B010823000E09230A2344
:109000001A0E0B01075DF20E08599E0E0959000E4B
:109010000A590FE376DFF3500B010B1BF4500B01E1
:109020000C1B6FDFF3500B010D1BF4500B010E1BDB
:1090300039D00B0103510B01051904E10B01045157
:109040000B01061901E1C2D70B0103510B01055DAC
:10905000006E06510B010455016E0B010B0101510D
:1090600000240E013C6F0B010B01025101200E0187
:109070003D6F0E013E6B3F6B16DF03CB05FB04CB50
:1090800006FB0B01D8900B370C370D370E3739DF45
:10909000F350800B02E00B010B810B01002B01E16F
:1090A00001D094D70FCBC2FF10CBC0FF12CBD7FF9C
:1090B00013CBD6FF11CBD5FF0BCB26F00CCB27F073
:1090C0000DCB28F00ECB29F000D012000B01056B60
:1090D000066B006B016B026B036B0E0140CEE9FF68
:1090E00041CEEAFF402B000E4123EFCF04FBEF50AF
:1090F00001E18CD00B010651030801E287D0300E4C
:10910000045F055106E10451090802E2000EB5D0E2
:1091100071D0030E055D36E1FE0E045D02E0000E27
:10912000ACD0D880050E0055050E0155020E025533
:10913000000E035502E2000EA0D00A0E0103F3CF89
:1091400002F0640E0203F35002240025E66E42CEC4
:10915000E9FF43CEEAFFE9CF00F0EACF01F0065184
:10916000062B0F010024E96E000E0120EA6EE55285
:10917000E750EF6E0B01056B006B016B026B036B2D
:10918000ACD738D0FE0E045D30E1D880050E005516
:10919000050E0155020E0255000E035502E2000EA7
:1091A0006CD00A0E0103F3CF02F0640E0203F350F9
:1091B00002240025E66E42CEE9FF43CEEAFFE9CF66
:1091C00000F0EACF01F00651062B0F010024E96EF2
:1091D000000E0120EA6EE552E750EF6E0B01056BC1
:1091E000006B016B026B036B78D70451090802E234
:1091F000000E43D00B01052B02CB03FB01CB02FB7E
:1092000000CB01FB006B04CB00FB67D70B010451C3
:1092100011E02F0E045D0EE00D0E045D0BE00A0E52
:10922000045D08E0200E045D05E0090E045D02E027
:10923000000E23D0D880050E0055050E0155020EF4
:109240000255000E035502E2000E17D00A0E01036C
:10925000F3CF00F0640E0203F35000240025E66E05
:1092600042CEE9FF43CEEAFF030EE926000EEA22D2
:10927000E552E750EF6E010E00D012000B01056BB6
:10928000066B006B016B026B036B0E0144CEF6FFA5
:10929000442B45CEF7FF000E452346CEF8FF46236C
:1092A0000800F5CF04FBF55001E18CD00B0106510D
:1092B000030801E287D0300E045F055106E1045136
:1092C000090802E2000EB5D071D0030E055D36E14B
:1092D000FE0E045D02E0000EACD0D880050E0055F5
:1092E000050E0155020E0255000E035502E2000E56
:1092F000A0D00A0E0103F3CF02F0640E0203F35074
:1093000002240025E66E47CEE9FF48CEEAFFE9CF0A
:1093100000F0EACF01F00651062B0F010024E96EA0
:10932000000E0120EA6EE552E750EF6E0B01056B6F
:10933000006B016B026B036BA8D738D0FE0E045D87
:1093400030E1D880050E0055050E0155020E02557C
:10935000000E035502E2000E6CD00A0E0103F3CF9B
:1093600002F0640E0203F35002240025E66E47CE9D
:10937000E9FF48CEEAFFE9CF00F0EACF01F006515D
:10938000062B0F010024E96E000E0120EA6EE55263
:10939000E750EF6E0B01056B006B016B026B036B0B
:1093A00074D70451090802E2000E43D00B01052BCB
:1093B00002CB03FB01CB02FB00CB01FB006B04CB18
:1093C00000FB63D70B01045111E02F0E045D0EE08A
:1093D0000D0E045D0BE00A0E045D08E0200E045D36
:1093E00005E0090E045D02E0000E23D0D880050ED2
:1093F0000055050E0155020E0255000E035502E2FE
:10940000000E17D00A0E0103F3CF00F0640E020322
:10941000F35000240025E66E47CEE9FF48CEEAFF70
:10942000030EE926000EEA22E552E750EF6E010E28
:1094300000D012000B01056B0E0149514A114EE09C
:109440000B01006B100E036F270E046F050E005DFD
:1094500044E249CE28F04ACE29F003CB2DF004CBCC
:109460002EF022EC6FF028C001FB29C002FB0B019B
:109470000151021102E1055120E0300E0125E66E96
:109480000E014BCEE9FF4CCEEAFF4B2B000E4C23D6
:10949000E552E750EF6E01CB28F002CB29F003CB69
:1094A0002DF004CB2EF033EC52F026500E01495F24
:1094B00027504A5B0B01010E056F0A0E2D6E2E6AB6
:1094C00003CB28F004CB29F022EC6FF028C003FB7B
:1094D00029C004FB0B01002BB9D709D04BCEE9FF03
:1094E0004CCEEAFF4B2B000E4C23300EEF6E4BCED2
:1094F000E9FF4CCEEAFFEF6A12000E014E5146081A
:1095000002E2200E4E5F4D51460802E2200E4D5FF2
:109510004E51390803E2370E4E5F02D0300E4E5FD7
:109520004D51390803E2370E4D5F02D0300E4D5FCA
:109530004E39F00B4D1100D012000E014F390F0BB8
:109540004F6F4F51090804E2410E4F25F60F02D02C
:10955000300E4F2500D012000F0E0E015017505143
:10956000090804E2410E5025F60F02D0300E5025B6
:1095700000D0120051CEE9FF52CEEAFFEFCF00FB40
:1095800053CEF6FF54CEF7FF55CEF8FF0800F5CFC7
:1095900001FB0B01005134E0015132E0610E005D2E
:1095A00005E300517A0802E3200E005F610E015DC1
:1095B00005E301517A0802E3200E015F0151D880D2
:1095C000005502E2010E29D00151005D02E2FF0EBA
:1095D00024D00E01512B000E5223532B542355231C
:1095E00051CEE9FF52CEEAFFEFCF00FB53CEF6FF9C
:1095F00054CEF7FF55CEF8FF0800F5CF01FBC9D7D1
:109600000151D880005502E2010E07D00151005DE2
:1096100002E2FF0E02D0000E00D0120056CE89FBEF
:1096200057CE8AFB8ACB8BFB89CB8AFB8BCB89FB02
:1096300089CBF3FF8ACBF4FF00D012000E015B51FF
:10964000581B58515B1B5B51581B5A51591B5951A0
:109650005A1B5A51591B58CE26F059CE27F05ACED4
:1096600028F05BCE29F000D012005ECE89FB5FCEE1
:109670008AFB0B01D8908A3389335CCE8BFB5DCE9D
:109680008CFB8D6B8E6B8F6B906B89CB00F08ACBD4
:1096900001F08907000E8A5B0050011018E08BCBA7
:1096A000E9FF8CCBEAFF020E8B27000E8C23EECF56
:1096B00000F0EFCF01F0000100500B018D270001F9
:1096C00001500B018E23000E8F239023DED70E0155
:1096D0005E51010B0EE08BCBE9FF8CCBEAFFEFCFA5
:1096E00000F0000100500B018D27000E8E238F2308
:1096F00090238DCB00F08ECB01F0026A036A8FCBF2
:1097000004F090CB05F0066A076A005004240B01B0
:109710008D6F015005208E6F025006208F6F035011
:109720000720906F8F518D2790518E238DCB00F0A5
:109730008ECB01F0001E011E00C0F3FF01C0F4FF3C
:1097400000D0120064CE60FE65CE61FE66CE62FE81
:1097500067CE63FE68CE00FB080E0B01005D0EE3D2
:1097600063CE01FB62CE63FE61CE62FE60CE61FE1F
:1097700001CB60FE080E0B01005FEED70B0100511C
:109780000BE00E01D89063BFD88060376137623735
:1097900063370B010007F2D760CE26F061CE27F0C9
:1097A00062CE28F063CE29F000D012000F0E0E0119
:1097B000EA6A6925E96E6A51EA22EF6A69CEE6FF34
:1097C0006ACEE6FF9AEC68F0E552E5520B01006BB9
:1097D0000F0E005D1CE200510E01EA6A6925E96E78
:1097E0006A51EA22EF5010E10F0E0B01005D0BE20F
:1097F0000051002B0E01EA6A6925E96E6A51EA22DE
:10980000200EEF6EF1D703D00B01002BE1D7120031
:109810000E016DCE00F06ECE01F06D07000E6E5B96
:10982000005001101EE06BCEE9FF6CCEEAFF6B2BFF
:10983000000E6C23EFCF00FB0B01005103E1F36A34
:10984000F46A12D00E016F510B01005D09E10E01A7
:109850006B07000E6C5B6BCEF3FF6CCEF4FF04D095
:0A986000D7D7F36AF46A00D01200B3
:06986A00FC0E92160E0137
:10987000FE8B0E01FDA1FDD70001646B0001648128
:109880000001606B616B0E01E86BE96B0E01190E54
:10989000EC6F0E010F0EED6F0E01190EEA6F0F0E39
:1098A000EB6F0E011A0EE46F0F0EE56F0E011A0E2C
:1098B000E26F0F0EE36F0001866BF1DB0E010D0E00
:1098C000A06F00000E01320EA26F00000E01120EFA
:1098D000A46F00000E01400EA36F00000E01120ED7
:1098E000A66F00000E010C0EA76F00000E01EE0E19
:1098F000AA6F00000E01050EAB6F0000F5C084FEDC
:109900000000F6C085FE0000F7C082FE0000F8C02F
:1099100083FE0000F9C080FE0000FAC081FE000056
:109920000001100E926F010E936F0001100E916FE7
:10993000A3EC50F00001720E926F340E936F000191
:10994000140E916FA3EC50F00001926B936B000129
:10995000916BA3EC50F0D28412000001010E906FC5
:10996000DADBF3CF00F0F4CF01F000010050040B7C
:1099700001E0010E00D01200D2B602D0010E18D0C4
:10998000E9EC6BF000016551265C006E66512758CA
:10999000016E026A036A7A0E005C000E0158000E26
:1099A0000258000E035802E3D29645D9000E00D0AB
:1099B0001200000164B132D0648160C03AFB61C022
:1099C0003BFB0B01010E3A5F000E3B5B3ACB00F014
:1099D0003BCB01F0026A036A005C000E0158000EE6
:1099E0000258000E035810E33ACB04F03BCB05F0CD
:1099F000066A076AD880190E04540F0E0554000E2B
:109A00000654000E075404E2190E3A6F0F0E3B6F16
:109A10000E01FE8D3ACBECFE3BCBEDFE1200D9CE13
:109A200075FBEECE77FBEFCE78FB0B0175510E0187
:109A3000D95DF5E1ECCE75FBEDCE76FB0B017751F0
:109A4000755D7851765920E2190E046E0F0E056E81
:109A5000066A076A7551775D086E78517655096E0A
:109A60000A6A0B6A0850045C006E09500558016EC2
:109A70000A500658026E0B500758036E00C0F3FFE1
:109A800001C0F4FF1BD01AD07551771902E176514D
:109A9000781906E1190EF36E0F0EF46E0FD00ED08A
:109AA0007751755D006E76517855016E0006000E97
:109AB000015A00C0F3FF01C0F4FF00D012000E01F4
:109AC000D95102E1000E87D000016483000164B126
:109AD00003D06FDF000E7FD060C062F061C063F022
:109AE00062C07AFF63C07BFF140E0001846F856B38
:109AF0000001000E826F0B0E836F9EDA12CB56FEB2
:109B000013CB57FE0EEC4BF0F3CF12FBF4CF13FB4D
:109B100000CB00F001CB01F0026A036AD880190E75
:109B200000540F0E0154000E0254000E03541BE3A8
:109B30000B010B010051010B16E10B010B0105514B
:109B4000800B11E10B010B010451100B0CE10B0117
:109B5000EE0ED8800255050E035505E30B010B01EF
:109B60000451800B01E1FF0000CB60F001CB61F0FC
:109B7000060EE66EE66A0C0EE66E0B0EE66E67C02B
:109B8000E9FF68C0EAFFE9CF00F0EACF01F000C0CA
:109B9000E6FF01C0E6FFD2EC67F0026E060EE15E62
:109BA000025069C0E9FF6AC0EAFFEF68080E0B01C6
:109BB000135D0DE10B01125104E0060E0B01125D65
:109BC00006E169C0E9FF6AC0EAFF12CBEFFF0001BE
:109BD0006491010E00D012000E011B0EE26F0F0EF9
:109BE000E36F280E00016E270F0E6F236EC0E6FE96
:109BF0006FC0E7FE060E0001896F8A6B6BC087F0AD
:109C00006CC088F051DA060E0001896F8A6B000182
:109C1000F50E876F000E886F47DA0001080E866F19
:109C20003EDA00016D5102E1000E01D0060E000186
:109C3000866F4FEF50F0D28ED29E0B01080E756FDB
:109C400075517507000901E0FBD76092D286E9ECF7
:109C50006BF026C065F027C066F01200140E0001FC
:109C6000016A6225006E63510122005070250B01CC
:109C70003A6F0150000171210B013B6F3ACB00F0AC
:109C80003BCB01F0026A036AD880190E00540F0E14
:109C90000154000E0254000E035404E21A0E3A5FFF
:109CA0000F0E3B5B3ACB7AFF3BCB7BFF1200E2CE41
:109CB00087FBE3CE88FB72C0E2FE73C0E3FE87CB76
:109CC000F3FF88CBF4FF00D012007ACF87FB7BCF65
:109CD00088FB74C07AFF75C07BFF87CBF3FF88CB0E
:109CE000F4FF00D01200140E0001016A6225006E1C
:109CF00063510122005076250B01166F01500001BF
:109D000077210B01176F16CB00F017CB01F0026A19
:109D1000036AD880190E00540F0E0154000E02542D
:109D2000000E035404E21A0E165F0F0E175B7ACF73
:109D300018FB7BCF19FB16CB7AFF17CB7BFF78C0C4
:109D40007AF079C07BF00ED8F3CF16FBF4CF17FB77
:109D500018CB7AFF19CB7BFF16CBF3FF17CBF4FFA1
:109D600000D012000B01776B786B796B7A6B7ACF2E
:109D700075FB7BCF76FB00017A517B1152E0140E0C
:109D8000D8807A55000E7B5505E20B01140E7B6FCF
:109D90007C6B04D07AC07BFB7BC07CFB7BCB84F0EC
:109DA0007CCB85F000017D0E826F0B0E836F44D952
:109DB0000B017B5100017A5F0B017C5100017B5B41
:109DC0000B017BA10AD07D0E7B25E96E0B0E7C2159
:109DD000EA6EEF6A7B2B000E7C237D0E916F0B0EDB
:109DE000926F7B517C111CE091CBE9FF92CBEAFF93
:109DF000020E9127000E9223EECF00F0EFCF01F07C
:109E0000000100500B017727000101500B0178235E
:109E1000000E79237A23020E7B5F000E7C5BE1D774
:109E2000AAD775CB7AFF76CB7BFF77CB00F078CBC8
:109E300001F0026A036A79CB04F07ACB05F0066A76
:109E4000076A005004240B01776F01500520786FDA
:109E500002500620796F035007207A6F79517727D7
:109E60007A51782377CB00F078CB01F0001E011EE9
:109E700000C0F3FF01C0F4FF00D012000B018B6B98
:109E80008C6B00017C1D01E17D1D07E10B01010EC2
:109E90008B6FE2CE7CF0E3CE7DF000017E1D01E110
:109EA0007F1D07E10B01010E8C6F7ACF7EF07BCF17
:109EB0007FF00001010ED8808055000E81552EE301
:109EC0007ACF87FB7BCF88FBE2CE89FBE3CE8AFB90
:109ED0007EC07AFF7FC07BFF7CC0E2FE7DC0E3FED8
:109EE000000180C000F081C001F08007000E815B9E
:109EF0000050011005E09DD80001866FD0D8F0D742
:109F00000B018C5104E187CB7AFF88CB7BFF8B510F
:109F100004E189CBE2FE8ACBE3FE83D00B018B51B7
:109F20000EE000017C5180250B01896F00017D51FD
:109F300081210B018A6F89CBE2FE8ACBE3FE7EC0D2
:109F400000F07FC001F00006000E015A0050000131
:109F5000802701508123D2BAFED77EC0F0FE7FC099
:109F6000F1FE7CC0F4FE7DC0F5FE7EC000F07FC037
:109F700001F0026A036AD880190E00540F0E0154D2
:109F8000000E0254000E035415E380C004F081C09B
:109F900005F0066A076AD880190E04540F0E05549E
:109FA000000E0654000E075405E21A0E0001805FF1
:109FB0000F0E815B80C0F2FE81C0F3FED298D28A80
:109FC000D2BAFED70B018C512CE00001802B000E81
:109FD00081237EC000F07FC001F0026A036AD8804E
:109FE000190E00540F0E0154000E0254000E0354BB
:109FF00014E380C004F081C005F0066A076AD880C7
:10A00000190E04540F0E0554000E0654000E07548A
:10A0100004E21A0E805F0F0E815B80C07AFF81C060
:10A020007BFF1200D250200B200A01E0010E00D06D
:10A030001200615000D0120084C0A4FB85C0A5FBB3
:10A0400000018251831117E00B01A4CB00F0A5CBD6
:10A0500001F0A407000EA55B005001100BE0000109
:10A0600082C0E9FF83C0EAFF822B000E832361CF09
:10A07000EFFFEAD70ED00B01A4CB00F0A5CB01F087
:10A08000A407000EA55B0050011003E061CFA6FB02
:10A09000F2D784C0F3FF85C0F4FF00D0120086C061
:10A0A000F3FFF3CF61FF1200000189C000F08AC006
:10A0B00001F08907000E8A5B005001100DE00001DD
:10A0C00087C0E9FF88C0EAFF872B000E8823EF5086
:10A0D000F36EF3CF61FFE8D7120000018EC000F0ED
:10A0E0008FC001F08E07000E8F5B0050011012E050
:10A0F00000018BC0F6FF8B2B8CC0F7FF000E8C236A
:10A100008DC0F8FF000E8D230800F550F36EF3CFDD
:10A1100061FFE3D7120090C0B4FE00000E01010EF3
:10A12000B26F00000E018AB1FDD70E01B26B0000C4
:10A13000B8CE00FB0000B9CE01FB00CBF3FF01CB92
:10A14000F4FF00D0120091C0B4FE92C0F3FF93C0A0
:10A15000F4FFC00EF2140B01006F3F0EF216F3CFA6
:10A16000B6FE0000F4CFB7FE0B010051F2120E0153
:10A170008AB1FDD71200D2940E01FDB5FDD7D2B63B
:10A18000FED70E01FE9B12000E01FE8BFDB102D028
:06A19000D284FCD712008E
:0AA19600219E05D0219E29AE02D0C3
:10A1A000296C218E29C023F0226A336A326A860E16
:10A1B000246E256ADDEF52F0216A19EC53F031EC80
:10A1C00053F021B6C1EF52F021A205D021BAC1EF60
:10A1D00052F0C8EF52F021BAD4EF52F021A005D0CE
:10A1E00021B8C1EF52F0D4EF52F021B8C8EF52F0CD
:10A1F000256A7F0E2A24246EE86A25222F50245EC9
:10A20000E86A255A1A0E306E2A6A326A336A226A5E
:10A21000236A2C50275E2D50285A2E50295A000EA2
:10A220002A5A09E72C5027262D5028222E50292261
:10A23000000E2A2201D0328AD890273628362936B5
:10A240002A36D8903236333622362336302EE1D7AE
:10A25000295028102710D8A4328ADDEF52F0216A45
:10A2600019EC53F031EC53F021B6C1EF52F021A2BA
:10A2700005D021B8C1EF52F0C8EF52F021AA05D0A5
:10A2800021B0C1EF52F0C8EF52F021B002D021A8A6
:10A2900002D0D4EF52F0256A2F502A24246EE86AA7
:10A2A00025227E0E245EE86A255A326A336A226AC3
:10A2B000236A2E502902F4CF23F0F3CF22F02D5041
:10A2C0002902F3503326F4502222000E23222E506E
:10A2D0002802F3503326F4502222000E23222C5061
:10A2E0002902F3503226F4503322000E2222232278
:10A2F0002D502802F3503226F4503322000E222231
:10A3000023222E502702F3503226F4503322000E1F
:10A31000222223222C502802F4503226000E33220F
:10A32000222223222D502702F4503226000E3322FF
:10A3300022222322DDEF52F02F7E216A19EC53F006
:10A3400031EC53F021B6C1EF52F021A20AD021AA7C
:10A3500003D021BEC1EF52F021A4CDEF52F0CAEFDD
:10A3600052F021AA05D021ACCDEF52F0CAEF52F045
:10A3700021A00AD021A808D021BE04D021A402D057
:10A38000D6EF52F0DAEF52F0326A256A2F502A5C8B
:10A39000316E10E327C033F028C022F029C023F02B
:10A3A0002AC030F02CC027F02DC028F02EC029F094
:10A3B000213A09D02CC033F02DC022F02EC023F05A
:10A3C0002FC030F0316C219E21BC218E30C024F092
:10A3D00021B009EF53F01A0E316009EF53F0246AEF
:10A3E0002A6A21A408D0276C281E291E2A1EE86A82
:10A3F000282229222A2221AC08D0336C221E231EB7
:10A40000241EE86A222223222422266A315207E0EF
:10A410002A342932283227322632312EF9D72750D2
:10A42000332628502222295023222A50242226C0B3
:10A4300032F0219E24AE0BD0326C331E221E231E1E
:10A44000241EE86A3322222223222422218E24A0E1
:10A4500006D0D8802332223233323232302A30C012
:10A4600024F0DDEF52F028C032F028502D02F4CF56
:10A4700027F0F3CF26F029502E02F4CF29F0F3CFA6
:10A4800028F02D02F3502726F4502822E86A2922CA
:10A4900032502E02F3502726F4502822E86A29224F
:10A4A000000C29C033F028C032F027C031F027500B
:10A4B0002C02F4CF25F0F3CF24F028502D02F4CF56
:10A4C00027F0F3CF26F02C02F3502526F450262255
:10A4D000E86A272231502D02F3502526F450262217
:10A4E000E86A272229502C02F3502626F45027220E
:10A4F00029502D02286AE86A2822F3502726F450B2
:10A50000282231502E02F3502626F4502722296AA1
:10A51000E86A2822292232502E02F3502726F450CE
:10A520002822E86A292233502E02F3502826F450BC
:10A530002922000C216A19EC53F021B6A4EF52F045
:10A5400021A20AD021B403D07F0E296E19D0800E2B
:10A55000296E16D0296A14D021B0FCD7870E2A6044
:10A56000F1D77E0E2A64F6D7860E2A5C04E0D890D6
:10A5700029322A2AF9D721A403D0296C29AEEAD797
:10A5800012007F0E2A6EFF0E296E286E276E1200B3
:10A590007F0E21BEFF0E2A6E02D07F0E2A6E800E25
:10A5A000296E286A276AF3D721AE04D0800E2A6E5E
:10A5B000296AF7D72A6A296AF4D723502210331060
:10A5C0003210F8E025BEF0D723BE0CD02450251061
:10A5D000EBE0D89032363336223623362406D8A024
:10A5E0002506F2D72550D4E12428D2E032AE11D08E
:10A5F0007F0E321402E133A00CD0332AE86A222203
:10A60000232207E3D880233222323332242A24281B
:10A61000BFE02450C9E033C027F022C028F0233423
:10A62000296E24302A6E29322A9E21BE2A8EC7EF37
:10A6300052F029362A3602E32184217E06E1218068
:10A640002A6A296A286A276A12002A2803E0D88021
:10A6500029321200D890293202E12182120021868B
:10A6600012002E362F3602E3218C217E06E121884E
:10A670002F6A2E6A2D6A2C6A12002F2803E0D880D8
:10A680002E321200D8902E32EAE1218A1200219E49
:10A6900008D0219E29AE05D0286C291EE86A2922FF
:10A6A000218E29C023F028C022F0336A326A8E0E30
:10A6B000246E256ADDEF52F065EC53F021B6000CF4
:10A6C00021B0000C21B4000C010C216A19EC53F0EC
:10A6D00031EC53F021B6120021AE08D021A004D0F5
:10A6E00021A802D021801200219012002F502A5C54
:10A6F0000BE12E50295C08E12D50285C05E12C501F
:10A70000275C02E121801200D8A002D0218E10D057
:10A710002A502FC02AF02F6E29502EC029F02E6EFD
:10A7200028502DC028F02D6E27502CC027F02C6EFD
:10A730002F502A5C10E0FF0F09E0219021B403D0D4
:10A7400021AE2184120021AE219412002F2AD8902C
:10A750002E322D322C322C50275E2D50285A2E505E
:10A76000295A29BEEAD7D8902736283629362A2EE4
:10A77000F8D7C8D729C033F028C032F028502D02AE
:10A78000F4CF27F0F3CF26F029502E02F4CF29F092
:10A79000F3CF28F02D02F3502726F4502822E86A40
:10A7A000292232502E02F3502726F4502822E86A3C
:10A7B00029222EAEE0EF53F03250285E3350295A52
:0EA7C00033AE000C2D50285E2E50295A000C8E
:02A7CE00D9CFE1
:10A7D000E6FFDACFE6FFE1CFD9FFE2CFDAFF260EC0
:10A7E000E12402E3E168E652E16ED950050FE1D9B8
:10A7F000B3EC6AF0006E060EE15C02E2E16AE5523B
:10A80000E16E0050DF6E800EDF5C05E00B0EDB506A
:10A8100012E0DF0410E0210E0301FE6FFF6B010E5A
:10A82000DB68020EDB68030EDB687F0EF36E040E3E
:10A83000F3CFDBFF8FD1040EDF5C0EE13EDA010EB9
:10A84000EECFDBFF020EEECFDBFF030EEECFDBFF22
:10A85000040EEECFDBFF7ED1DF0410E1210E0301F9
:10A86000FE6FFF6B010EDB6A020EDB6A800EF36E79
:10A87000030EF3CFDBFF040EDB686CD1D9500C0F55
:10A8800098D921EC6AF0006E060EE15C02E2E16A02
:10A89000E552E16E0050FA0E26C0DBFFFB0E27C02A
:10A8A000DBFFFC0E28C0DBFFFD0E29C0DBFFA6D9B5
:10A8B000F30E2C6E040E2D6E350E2E6E3F0E87D9C4
:10A8C0005CEC53F0010A09E1B3D984D99CEC51F056
:10A8D00067D9EDD984D9ACD916D00C0EDB060D0E94
:10A8E00001E2DB068BD92C6A2D6A2E6A3F0E6FD9E6
:10A8F00076D9160EDBCF04F0170EDBCF05F0180E5D
:10A90000DBCF06F0190E66D92FEC51F049D9CFD91B
:10A910009DEC51F01A0E27C0DBFF1B0E28C0DBFF99
:10A920001C0E29C0DBFF1D0E2AC0DBFF160EDBCF7D
:10A9300027F0170EDBCF28F0180EDBCF29F0190E09
:10A94000DBCF2AF01A0EDBCF2CF01B0EDBCF2DF065
:10A950001C0EDBCF2EF01D0EDBCF2FF0DCEC50F009
:10A960001FD9120E27C0DBFF130E28C0DBFF140E09
:10A9700029C0DBFF150E2AC0DBFF4DD9120EDBCF3D
:10A980002CF0130EDBCF2DF0140EDBCF2EF0150EB6
:10A9900062D90E0E27C0DBFF0F0E28C0DBFF100EA2
:10A9A00029C0DBFF110E2AC0DBFF3D0EF36E1E0E29
:10A9B000F3CFDBFF7E0EF36E1F0EF3CFDBFF0D0E2A
:10A9C000F36E200EF3CFDBFFBF0EF36E210EF3CF3D
:10A9D000DBFF0E0EDBCF00F00F0EDBCF01F0100E11
:10A9E000DBCF02F0110EDBCF03F03A0E2C6E3F0EE0
:10A9F0002D6ED40E2E6EC00EEAD89DEC51F0220EB4
:10AA000027C0DBFF230E28C0DBFF240E29C0DBFF9D
:10AA1000250E2AC0DBFF0E0EDBCF27F00F0EDBCF9B
:10AA200028F0100EDBCF29F0110EDBCF2AF01E0E1E
:10AA3000DBCF2CF01F0EDBCF2DF0200EDBCF2EF066
:10AA4000210E09D9220EDBCF2CF0230EDBCF2DF007
:10AA5000240EDBCF2EF0250EDBCF2FF0DCEC50F0F8
:10AA600007D9120EDBCF00F0130EDBCF01F0140E6E
:10AA7000DBCF02F0150EDBCF03F0CDD8010EDBCF1C
:10AA80002CF0020EDBCF2DF0030EDBCF2EF0040EE8
:10AA9000E2D827C004F028C005F029C006F02AC07B
:10AAA00007F078D8046A800E056E310E066E3F0EF0
:10AAB000076EC9D827C008F028C009F029C00AF0DD
:10AAC0002AC00BF0CCD8E1D82FEC51F069D8830E16
:10AAD000146E800E156E5E0E166EB90E176EB3D81C
:10AAE00027C018F028C019F029C01AF02AC01BF09E
:10AAF000B6D814C027F015C028F016C029F017C02A
:10AB00002AF02FEC51F027C010F028C011F029C016
:10AB100012F02AC013F0010EDBCF1CF0020EDBCFC7
:10AB20001DF0030EDBCF1EF0040EDBCF1FF01CC0A8
:10AB30002CF01DC02DF01EC02EF01FC02FF09DEC7C
:10AB400051F027C00CF028C00DF029C00EF02AC02B
:10AB50000FF020D8010EDBCF00F0020EDBCF01F0AA
:10AB6000030EDBCF02F0040EDBCF03F000C026F0B3
:10AB700001C027F002C028F003C029F0260EE15CD6
:10AB800002E2E16AE552E16EE552E5CFDAFFE7CF96
:10AB9000D9FF120064D882D89DEC51F038EF56F0FE
:10ABA00027C000F028C001F029C002F02AC003F03D
:10ABB0001200E66E000EDA20E66E7FD8EECFE6FFDA
:10ABC000EECFE6FFEECFE6FFEFCFE6FF12002F6EEF
:10ABD0004EEF56F0DBCF07F06AD845EF56F09CEC0D
:10ABE00051F0160E27C0DBFF170E28C0DBFF180E32
:10ABF00029C0DBFF190E2AC0DBFF1200FA0EDBCFE3
:10AC000000F0FB0EDBCF01F0FC0EDBCF02F0FD0EFF
:10AC1000DBCF03F01200120EDBCF27F0130EDBCFD9
:10AC200028F0140EDBCF29F0150EDBCF2AF012002E
:10AC3000FA0EDBCF04F0FB0EDBCF05F0FC0EDBCF12
:10AC400006F0FD0E12000C0EDBCF28F00D0EDBCF50
:10AC500029F049EF53F0DBCF2FF02FEF51F027C051
:10AC60002CF028C02DF029C02EF02AC02FF01200A1
:10AC7000010E27C0DBFF020E28C0DBFF030E29C038
:10AC8000DBFF040E2AC0DBFF120004C027F005C062
:10AC900028F006C029F007C02AF0120000C027F0F3
:10ACA00001C028F002C029F003C02AF012002C6A6B
:10ACB0002D6A2E6A3F0E2F6E1200D950FA0FE96EE0
:08ACC000FF0EDA20EA6E12001B
:08ACC8000C01006B016B026B33
:10ACD000036B046B056B066B076B086B096B0A6BE8
:10ACE0000B6B0C6B0D6B0E6B0F6B106B116B126B98
:10ACF000136B146B156B166B176B186B196B1A6B48
:10AD00001B6B1C6B1D6B1E6B1F6B206B216B226BF7
:10AD1000236B246B256B266B276B286B296B2A6BA7
:10AD20002B6B2C6B2D6B2E6B2F6B306B316B326B57
:10AD3000336B346B356B366B376B386B396B3A6B07
:10AD40003B6B3C6B3D6B3E6B3F6B5E6B5F6BFE0E1C
:10AD5000606F0401000E406F0C0E416F400E040145
:10AD60003E6F3F6B0401800E3A6F3B693C6B3D6B5D
:10AD7000D8EC6EF00B0E0C015E6F5F6B0F0ED8807F
:10AD80005E55000E5F552EE3000E5E25E96E0C0E3B
:10AD90005F21EA6EEFCF00F0650E005C1EE2000E50
:10ADA0005E25E96E0C0E5F21EA6EEF50E66E5ECC1A
:10ADB000E9FF5FCCEAFF0B0EE95E000EEA5A010ED6
:10ADC000D890E936EA36E806FBE1B40EE926000E33
:10ADD000EA22E552E750EE6EED6A0C015E2B000EA2
:10ADE0005F23CCD7100E5E6F5F6B140ED8805E555C
:10ADF000000E5F552EE3000E5E25E96E0C0E5F21FE
:10AE0000EA6EEFCF00F0650E005C1EE2000E5E25DC
:10AE1000E96E0C0E5F21EA6EEF50E66E5ECCE9FF44
:10AE20005FCCEAFF100EE95E000EEA5A010ED890E0
:10AE3000E936EA36E806FBE1BE0EE926000EEA2214
:10AE4000E552E750EE6EED6A0C015E2B000E5F23BB
:10AE5000CCD7150E5E6F5F6B190ED8805E55000E55
:10AE60005F552EE3000E5E25E96E0C0E5F21EA6E43
:10AE7000EFCF00F0650E005C1EE2000E5E25E96E6D
:10AE80000C0E5F21EA6EEF50E66E5ECCE9FF5FCC00
:10AE9000EAFF150EE95E000EEA5A010ED890E93677
:10AEA000EA36E806FBE1AA0EE926000EEA22E552A0
:10AEB000E750EE6EED6A0C015E2B000E5F23CCD7DF
:10AEC0003E0E406F410E416F4C0E426F530E436F6A
:10AED0005E6B5F6B0B0E5E5D000E5F5922E25ECC17
:10AEE000E9FF5FCCEAFF010ED890E936EA36E806C2
:10AEF000FBE1940EE926000EEA22EF50E66E040E06
:10AF00000C01EA6A5E25E96E5F51EA22400EE926ED
:10AF10000C0EEA22E552E750EF6E5E2B000E5F2327
:10AF2000D9D73C0E4F6F506B100E0301BB6FBC6B3B
:10AF30000301400EB96F0C0EBA6F60CCB8F3A1EFED
:10AF400057F00C01AE6BAF6BB06BB16B640EB26FB0
:10AF5000B36B410EB46F4C0EB56F530EB66FB76B3B
:10AF6000B86BB96BBA6BBB6B500EBC6F570EBD6F35
:10AF70004D0EBE6FBF6BC06BC16BC26BC36B3E0E21
:10AF8000C46F240EC56F3F0EC66F3C0EC76FC86BF3
:10AF9000C96BCA6BCB6B3E0ECC6F530ECD6F4F0E91
:10AFA000CE6F4B0ECF6F3C0ED06FD16BD26BD36B8D
:10AFB0003E0ED46F500ED56F4C0ED66F410ED76F2C
:10AFC000590ED86F3C0ED96FDA6BDB6B3E0EDC6F1F
:10AFD000530EDD6F540EDE6F4F0EDF6F500EE06FBD
:10AFE0003C0EE16FE26BE36B560EE46F4F0EE56FC4
:10AFF0004C0EE66FE76BE86BE96BEA6BEB6BB06BE3
:10B00000B16B070EB1AF02D0D89003D0B05D000E87
:10B01000B15930E2B0CC02F0B1CC03F0030ED890BD
:10B0200002360336E806FBE1B40E02260C0E0322BC
:10B0300002C0E6FF03C0E6FFB9C3E6FFBAC3E6FFFE
:10B040006DEC68F0E552E552E552E552F3CF00F0C1
:10B05000F4CF01F00050011008E0B0CCB2FCB1CC4C
:10B06000B3FC070E0C01B06FB16B0C01B02B000EDE
:10B07000B123C7D7060EB21901E1B3515EE0050E48
:10B08000B21901E1B3514FE0040EB21901E1B3511D
:10B0900040E0030EB21901E1B35136E0020EB219DD
:10B0A00001E1B3512CE0010EB21901E1B3511AE0F4
:10B0B000B25101E1B35105E0B8C3D7F391EC2EF0E2
:10B0C00049D0010E0301C26FC36BBBC3C0F3BCC345
:10B0D000C1F3B9C3BEF3BAC3BFF3B8C3BDF3EAEC5F
:10B0E00024F038D0BBC3C7F3BCC3C8F3B9C3C5F39E
:10B0F000BAC3C6F3B8C3C4F3E7EC27F02BD0B8C388
:10B10000C9F395EC2BF026D00F011207000E135B4C
:10B1100021D003011F0ECD6F0F0ECE6FB8C3CCF33D
:10B12000E7EC2CF017D003011F0ED06F0F0ED16F7C
:10B13000B8C3CFF323EC2DF00DD0BBC3D5F3BCC304
:10B14000D6F3B9C3D3F3BAC3D4F3B8C3D2F356EC2E
:10B150002DF000D0020EE66EE66AE66AB9C3E6FF9D
:10B16000BAC3E6FF20EC68F0006E050EE15E005009
:02B170001200CB
:0EB172004AC300F04BC301F04CC302F04DC3C2
:10B1800003F0010E0016016A026A036A0050011002
:10B190000210031002E0BD8801D0BD984AC300F040
:10B1A0004BC301F04CC302F04DC303F0020E001676
:10B1B000016A026A036A005001100210031002E0E3
:10B1C000BD8A01D0BD9A4AC300F04BC301F0D890AC
:10B1D00001320032D890013200320050BE6E1200AF
:10B1E0004EC300F04FC301F050C302F051C303F04F
:10B1F000010E0016016A026A036A00500110021073
:10B20000031002E0BA8801D0BA984EC300F04FC3D1
:10B2100001F050C302F051C303F0020E0016016AA0
:10B22000026A036A005001100210031002E0BA8A99
:10B2300001D0BA9A4EC300F04FC301F0D89001324A
:10B240000032D890013200320050BB6E120052C35F
:10B2500000F053C301F054C302F055C303F0010ED4
:10B260000016016A026A036A0050011002100310FE
:10B2700002E0738801D0739852C300F053C301F009
:10B2800054C302F055C303F0020E0016016A026AAD
:10B29000036A005001100210031002E0738A01D00B
:10B2A000739A52C300F053C301F0D89001320032B8
:10B2B000D890013200320050746E120056C300F074
:10B2C00057C301F058C302F059C303F0010E001632
:10B2D000016A026A036A005001100210031002E0C2
:10B2E000708801D0709856C300F057C301F058C35E
:10B2F00002F059C303F0020E0016016A026A036AE3
:10B30000005001100210031002E0708A01D0709A00
:10B3100056C300F057C301F0D89001320032D890E4
:10B32000013200320050716E12005AC300F05BC34C
:10B3300001F05CC302F05DC303F0010E0016016A68
:10B34000026A036A005001100210031002E0B7887D
:10B3500001D0B7985AC300F05BC301F05CC302F0A0
:10B360005DC303F0020E0016016A026A036A005010
:10B3700001100210031002E0B78A01D0B79A5AC335
:10B3800000F05BC301F0D89001320032D890013256
:10B3900000320050B86E12007D0ECA6E4E0ECB6E9B
:10B3A00094948B940C0EBD6E796AB66ABD9EBD9C5A
:10B3B000BD96BD94BD92BD9094928B92BA6E676A11
:10B3C000686ABA9EBA9CBA96BA94BA92BA909890A1
:10B3D0008F90B76E696A6A6AB79EB79CB796B79442
:10B3E000B792B79098968F96736E73967394739284
:10B3F000739098988F98706E709670947092709009
:10B4000012002C0E2B6E010E2C6E2D6A2E6A60C35C
:10B4100026F061C327F062C328F063C329F044EC2F
:10B420006EF022C060F323C061F324C062F325C034
:10B4300063F3640E2B6E2C6A2D6A2E6A60C326F0AD
:10B4400061C327F062C328F063C329F0FEEC6EF0FD
:10B4500026C060F327C061F328C062F329C063F3FC
:10B46000050E03015E1901E15F5151E0040E5E1902
:10B4700001E15F513DE0030E5E1901E15F5129E0FA
:10B48000020E5E1901E15F5115E0010E5E1901E146
:10B490005F5101E04BD060C34AF361C34BF362C319
:10B4A0004CF363C34DF365DE010E0301646F656BFE
:10B4B0003ED83CD060C34EF361C34FF362C350F338
:10B4C00063C351F38DDE020E0301646F656B2FD8E9
:10B4D0002DD060C352F361C353F362C354F363C30B
:10B4E00055F3B5DE030E0301646F656B20D81ED0E3
:10B4F00060C356F361C357F362C358F363C359F390
:10B50000DDDE040E0301646F656B11D80FD060C3DC
:10B510005AF361C35BF362C35CF363C35DF305DF9E
:10B52000050E0301646F656B02D800D01200050E92
:10B530000301641901E165512DE0040E641901E174
:10B54000655123E0030E641901E1655119E0020E13
:10B55000641901E165510DE0010E641901E16551C5
:10B5600001E01FD0BD9EBD9CBD86BD84BD92BD9037
:10B5700018D0BA9EBA9CBA86BA84BA92BA9011D040
:10B5800073867384739273900CD0708670847092FB
:10B59000709007D0B79EB79CB786B784B792B79024
:10B5A00000D01200050E0301661901E167512DE07C
:10B5B000040E661901E1675123E0030E661901E1EB
:10B5C000675119E0020E661901E167510DE0010EA5
:10B5D000661901E1675101E01FD0BD9EBD9CBD967B
:10B5E000BD94BD92BD9018D0BA9EBA9CBA96BA943A
:10B5F000BA92BA9011D073967394739273900CD0E0
:10B60000709670947092709007D0B79EB79CB79662
:0AB61000B794B792B79000D0120073
:06B61A00BCEC4CF000093D
:10B6200001E1FBD700011B0E726F0F0E736F57EC19
:10B630004EF072C3E9FF73C3EAFF010EEE6EED6ACE
:10B6400072C3E9FF73C3EAFF020EE926000EEA2285
:10B65000EE6A080EED6E72C3E9FF73C3EAFF040ED3
:10B66000E926000EEA22060EEF6E72C3E9FF73C3ED
:10B67000EAFF050EE926000EEA22040EEF6E060E22
:10B68000E66EE66AF50EE66E000EE66E72C3E9FF40
:10B6900073C3EAFF080EE926000EEA22E9CF00F0A4
:10B6A000EACF01F000C0E6FF01C0E6FFD2EC67F090
:10B6B000026E060EE15E025072C3E9FF73C3EAFF39
:10B6C0000E0EE926000EEA22C8C0EEFFC9C0EEFF4A
:10B6D000CAC0EEFFCBC0EEFF72C384F373C385F321
:10B6E00070D91C0E00016E6F6F6B0001060E6D6F3E
:10B6F00072C3E9FF73C3EAFF120EE926000EEA22C5
:10B70000E9CF6BF0EACF6CF0ECEC4DF01C0E0001D1
:10B71000896F8A6B72C387F073C388F054EC50F062
:10B720001BEC4EF0010E00D0120003016C696D6934
:10B730006E696F6970697169686B696B6A6B6B6B55
:10B74000120004016B51010A01E179D0010A01E004
:10B750009BD01C0E0001846F856B0001000E826F70
:10B760000B0E836F1CEC50F0D9EC4CF00301000E73
:10B77000846F0B0E856F25D90B01010E001901E1B5
:10B78000015110E10451006E016A060E001801E13A
:10B79000015008E10551026E036A040E021801E12E
:10B7A000035002E0010E72D0020E061901E10751AA
:10B7B00016E108CB6CF309CB6DF30ACB6EF30BCB20
:10B7C0006FF30CCB70F30DCB71F30ECB68F30FCB93
:10B7D00069F310CB6AF311CB6BF3010E57D0010E56
:10B7E000061901E107512BE1180EE96E0B0EEA6E06
:10B7F000EE500001C81909E1EE50C91906E1EE50FA
:10B80000CA1903E1EE50CB1900E102E0010E3ED06F
:10B810000ECB74F30FCB75F310CB76F311CB77F31C
:10B8200008CB78F309CB79F30ACB7AF30BCB7BF314
:10B830000CCB7CF30DCB7DF30401010E6B6F020E7C
:10B840000B01066F076B78C312FB79C313FB7AC336
:10B8500014FB7BC315FB7CC316FB7DC317FB74C3B2
:10B8600018FB75C319FB76C31AFB77C31BFB0301D7
:10B87000000E726F0B0E736FD0DE000902E1000E36
:10B8800005D004016B6B00D0010E00D01200010E38
:10B890000B01066F076B1269136914691569166944
:10B8A00017697EC3E9FF7FC3EAFF0001C851EE18A4
:10B8B000006EC951EE18016ECA51EE18026ECB51DE
:10B8C000EE18036ECC510016CD510116CE51021662
:10B8D000CF510316005001100210031009E0D0C030
:10B8E00018FBD1C019FBD2C01AFBD3C01BFB0CD074
:10B8F0007EC3E9FF7FC3EAFFEECF18FBEECF19FB53
:10B90000EECF1AFBEFCF1BFB0301000E726F0B0E85
:10B91000736F0DEF5BF080C3E9FF81C3EAFF0301A2
:10B920006851EE1809E16951EE1806E16A51EE1806
:10B9300003E16B51EE1800E12FE0680EE96E030E93
:10B94000EA6EEE500001D01909E1EE50D11906E17E
:10B95000EE50D21903E1EE50D31900E12FE180C37C
:10B96000E9FF81C3EAFFC851EE18006EC951EE1815
:10B97000016ECA51EE18026ECB51EE18036ECC5117
:10B980000016CD510116CE510216CF5103160050AC
:10B9900001100210031012E082C3E9FF83C3EAFF23
:10B9A0006CC3EEFF6DC3EEFF6EC3EEFF6FC3EEFF21
:10B9B00070C3EEFF71C3EEFF010E02D0000E00D087
:10B9C000120084C3E9FF85C3EAFFEECF56FEEDCF38
:10B9D00057FE0EEC4BF0F3CF00F0F4CF01F084C330
:10B9E000E9FF85C3EAFF00C0EEFF01C0EDFF84C39D
:10B9F000E9FF85C3EAFF020EE926000EEA22EECF38
:10BA000056FEEDCF57FE0EEC4BF0F3CF00F0F4CF27
:10BA100001F084C3E9FF85C3EAFF020E00C0EBFF1B
:10BA2000030E01C0EBFF84C3E9FF85C3EAFF060EE6
:10BA3000E926000EEA22EECF56FEEDCF57FE0EECC1
:10BA40004BF0F3CF00F0F4CF01F084C3E9FF85C3DE
:10BA5000EAFF060E00C0EBFF070E01C0EBFF12006D
:10BA6000B10EB16EFD0EB36E2D0EB26EA282A1921A
:10BA7000A0821200A09270CE74FE71CE75FE72CEBE
:10BA800076FE73CE77FEA0820E017F51020A28E077
:10BA9000030A1DE0010A01E026D1FF0E7B5D15E1DE
:10BAA0000101400EC96F1F0ECA6F0101400EC76F22
:10BAB0001F0EC86F0101C66B0101C26BC36BC46B63
:10BAC000C56BD8EC2EF00E017B6F7F2B0CD17BCE9B
:10BAD000CDF1E7EC31F0010803E10E01020E7F6FBA
:10BAE0000E01785126E00B01046B0451006E016ACF
:10BAF000200E005C000E015809E20451EA6A260F8C
:10BB0000E96E030EEA22EF6A042BEFD70E01746B85
:10BB1000756B766B776B74CE70FE75CE71FE76CEDC
:10BB200072FE77CE73FEF1EC34F00E01786B010EED
:10BB30007C6F785101E0D6D07651745D775175599C
:10BB40001EE304687F0E056E066A076A7651745D0F
:10BB5000086E75517755096E0A6A0B6A0850045CC5
:10BB6000006E09500558016E0A500658026E0B50BF
:10BB70000758036E00C002FB01C003FB0DD07451D7
:10BB8000765D0B01026F0E01755177590B01036F42
:10BB9000010E025F000E035B0B010251031101E174
:10BBA000A1D07BCEE3F17BEC34F0F3CF00FBF4CFFC
:10BBB00001FB0B010051011101E194D00051025D24
:10BBC0000151035904E202CB00FB03CB01FB200E21
:10BBD000D8800055000E015503E2200E006F016B66
:10BBE00000CB00F001CB01F0026A036A086A800E04
:10BBF000096E0A6A0B6A74CE0CF075CE0DF00E6AEF
:10BC00000F6A0C50085C046E0D500958056E0E50FA
:10BC10000A58066E0F500B58076E0450005C055012
:10BC20000158065002580750035839E3046A800E41
:10BC3000056E066A076A74CE08F075CE09F00A6AC6
:10BC40000B6A0850045C006E09500558016E0A50DA
:10BC50000658026E0B500758036E00C000FB01C06F
:10BC600001FB00CBE8F101CBE9F10101260EE66F03
:10BC7000030EE76FB4EC34F000CBE2F301CBE3F357
:10BC80000301260EE06F030EE16F74CEDEF375CE76
:10BC9000DFF349EC67F00E01746B756B22D000CBBB
:10BCA000E8F101CBE9F10101260EE66F030EE76F23
:10BCB000B4EC34F000CBE2F301CBE3F30301260E46
:10BCC000E06F030EE16F74CEDEF375CEDFF349EC67
:10BCD00067F00B0100510E0174270B0101510E0199
:10BCE000752327D700D0A09274CE70FE75CE71FE5A
:10BCF000A08212000E017A6BFF0E7B5D07E07BCE07
:10BD0000CEF1FEEC31F00E017B697F6B1200FD0E6F
:10BD1000B36E2D0EB26EA19281A082D08D50100B09
:10BD200006E08D50200B03E08A50040B01E178D02F
:10BD30000E017251705D735171590AE37251705D59
:10BD40000301466F0E01735171590301476F1DD0F6
:10BD5000386A800E396E3A6A3B6A7051725D3C6E89
:10BD6000735171553D6E3E6A3F6A3C50385C346E8B
:10BD70003D503958356E3E503A58366E3F503B581C
:10BD8000376E34C046F335C047F30E017C5107E0EF
:10BD90000301000E465D200E475901E241D0200EFE
:10BDA0000301DC6FDD6B0301260EDA6F030EDB6F20
:10BDB00072CED8F373CED9F307EC67F0200E0E01E4
:10BDC0007227000E732372CE34F073CE35F0366ACC
:10BDD000376A345C800E3558000E3658000E3758DE
:10BDE00002E3726B736B8A920301486B4851346EA5
:10BDF000356A200E345C000E355811E29E9648518B
:10BE0000EA6A260FE96E030EEA22EF50C96E080EA9
:10BE1000E66E8CEC6FF0E5520301482BE7D78A827F
:02BE200012000E
:0EBE22000B01016B0F01010E201901E12151EE
:10BE300004E1206B216B64EC56F00F011D511E11C3
:10BE40000AE1010E1D6F1E6B96C0FBF097C0FCF05F
:10BE5000AFEC68F00DD0010E1D1901E11E5108E193
:10BE60001D6B1E6B98C0FDF099C0FEF01FEC69F0D1
:10BE7000A4C0CAF3A5C0CBF3C9EC2BF00F014E51FF
:10BE8000030A01E194D1010A01E17BD0030A27E012
:10BE9000010A01E095D102014D6B10CF4BF211CF99
:10BEA0004CF20201010E4A6F0201000E466F0F0EA6
:10BEB000476F486B496B8DEC02F00F014D6FFE0E22
:10BEC0004D5D01E17DD14E2BE9EC6BF026C046F4CF
:10BED00027C047F428C048F429C049F471D14DCF98
:10BEE0004FF271EC03F0000922E1E9EC6BF0040180
:10BEF0004651265C006E47512758016E485128581C
:10BF0000026E49512958036ED880BA0E00541A0E99
:10BF10000154030E0254000E035408E24DCF50F2B8
:10BF20007DEC03F00F01FE0E4D6F4E0749D1E9EC99
:10BF30006BF026C046F427C047F428C048F429C057
:10BF400049F44DCF60F221EC04F0F3CF00F0F4CFD0
:10BF500001F07D0E005C000E015801E231D10201BA
:10BF6000780E726FDD0E736F000E746F4DCF71F22D
:10BF700084EC06F04DCF5FF20DEC04F00F014E2B78
:10BF80001FD14DCF4FF271EC03F0000903E10F0117
:10BF9000030E4E6F4DCF77F2F4EC06F0F3CF26FB95
:10BFA000F4CF27FB4DCF60F221EC04F0F3CF28FB58
:10BFB000F4CF29FB0B012651285D2751295904E2B2
:10BFC00028CB26FB29CB27FB200E2A6F2B6B026B7D
:10BFD000036B2651025D2751035901E382D0200EE5
:10BFE000016A0225006E035101220050265D0150B6
:10BFF000275906E20251265D2A6F035127592B6FFC
:10C000002ACB7EF22BCB7FF20201060E7C6F0B0E49
:10C010007D6F4DCF7BF27CEC07F00B01046B056B61
:10C020002A51045D2B51055943E2060E0425E96EA1
:10C030000B0E0521EA6EEF503E0803E10F01010EE1
:10C040004B6F0F014B5113E0060E0B010425E96EF7
:10C050000B0E0521EA6EEF50E66E0151EA6A240FDD
:10C06000E96E0F0EEA22E552E750EF6E012B060E45
:10C070000B010425E96E0B0E0521EA6EEF503C081A
:10C0800012E10151EA6A240FE96E0F0EEA22EF6A0B
:10C090000F01010E4C6F2ACB04FB2BCB05FB26CBEB
:10C0A00002FB27CB03FB0B01042B000E0523B8D7A3
:10C0B0000F014C5110E04C6B4B6B0B010151030114
:10C0C000BB6FBC6B0301240EB96F0F0EBA6F4DCF5F
:10C0D000B8F3A1EC57F0200E0B010227000E03234A
:10C0E00078D7E9EC6BF004014651265C006E4751AD
:10C0F0002758016E48512858026E49512958036E3D
:10C10000BA0E005C1A0E0158030E0258000E0358B6
:10C110002EE3E9EC6BF026C046F427C047F428C0B4
:10C1200048F429C049F4010EE66EE66A6E0EE66E2A
:10C13000DD0EE66E000EE66E420EE66E0F0EE66E49
:10C1400011EC6DF0006E070EE15E0050080E02016A
:10C15000666F676B0201420E646F0F0E656F4DCF05
:10C1600063F2D5EC04F04DCF5FF20DEC04F00F015B
:10C1700014051CE1E9EC6BF004014251265C006EF1
:10C1800043512758016E44512858026E4551295891
:10C19000036E790E005C4F0E0158000E0258000E1F
:10C1A000035804E30F01146B8D908E9009D04DCF8E
:10C1B00050F27DEC03F00F01FE0E4D6F4E6B00D080
:02C1C00012006B
:0EC1C200D8CFE4FFE0CFE4FFE46EDACFE4FF75
:10C1D000E2CFDAFFE9CFE4FFEACFE4FFF6CFE4FFF6
:10C1E000F7CFE4FFF8CFE4FFF5CFE4FFF3CFE4FFB0
:10C1F000F4CFE4FFFACFE4FFFBCFE4FF00EE20F042
:10C20000140EE80403E3EECFE4FFFBD700EE00F0EA
:10C21000200EE80403E3EECFE4FFFBD7E65231EC57
:10C220006CF0E55200EE1FF0200EE80403E3E5CFCA
:10C23000EDFFFBD700EE33F0140EE80403E3E5CF87
:10C24000EDFFFBD7E5CFFBFFE5CFFAFFE5CFF4FF2E
:10C25000E5CFF3FFE5CFF5FFE5CFF8FFE5CFF7FF3B
:10C26000E5CFF6FFE5CFEAFFE5CFE9FFE5CFDAFF5F
:10C27000E550E5CFE0FFE5CFD8FF1000DACFE4FFCF
:10C28000E2CFDAFFE9CFE4FFEACFE4FFF6CFE4FF45
:10C29000F7CFE4FFF8CFE4FFF5CFE4FFF3CFE4FFFF
:10C2A000F4CFE4FFFACFE4FFFBCFE4FF00EE20F091
:10C2B000140EE80403E3EECFE4FFFBD700EE00F03A
:10C2C000200EE80403E3EECFE4FFFBD7E6520F01B4
:10C2D0001F5106E00E01785103E187EC5EF001D0BA
:10C2E000A192E55200EE1FF0200EE80403E3E5CF33
:10C2F000EDFFFBD700EE33F0140EE80403E3E5CFC7
:10C30000EDFFFBD7E5CFFBFFE5CFFAFFE5CFF4FF6D
:10C31000E5CFF3FFE5CFF5FFE5CFF8FFE5CFF7FF7A
:10C32000E5CFF6FFE5CFEAFFE5CFE9FFE5CFDAFF9E
:10C3300011000B01A16B1F0EA26FA36B0001F48D06
:10C34000F48FF56B040EF66FA30EF76FF86BF96BB5
:10C35000FA6B0A0EC86FC96BCA6FA70ECB6FCC6998
:10C36000CD69CE69CF6BC8C0DCF0C9C0DDF0CAC0F2
:10C37000DEF0CBC0DFF0CCC0E0F0CDC0E1F0CEC04D
:10C38000E2F0CFC0E3F0A90ED06FFE0ED16F010E28
:10C39000D26FD36FA90ED46FFE0ED56F010ED66F7C
:10C3A000D76FD86BD96BDA6BDB6B100EE66EE66A73
:10C3B000640EE66EDD0EE66E000EE66EE40EE66ED0
:10C3C000000EE66EFDEC67F0006E070EE15E0050B9
:10C3D0000E01E40E696F000E6A6FD6EC4BF0CCECE8
:10C3E00059F040D8CEEC6BF0C9EC64F0E3EC65F0AA
:10C3F0000401100E176F0401166F7FEC66F0040144
:10C400000F0E156F0401146B62EC66F030EC5DF0FA
:10C41000E9EC6BF00F015151265C006E5251275828
:10C42000016E53512858026E54512958036E790EEB
:10C43000005C4F0E0158000E0258000E03580AE32C
:10C44000E9EC6BF026C051FF27C052FF28C053FF14
:10C4500029C054FFEDEC64F011EC5FF03AEC5DF0B4
:10C46000D7D712009A9E999C928A998A9690979013
:10C47000400E9B6E010EC26E0E0EC16EBE0EC06EE1
:10C48000F19E200EAC6E900EAB6E860EAF6EAC843D
:10C49000D08EF28EF28CC28EC282C2B2FED7C29E03
:08C4A000A3EC63F0E7EF66F086
:08C4A800140E0001846F856B86
:10C4B0000001020E826F0B0E836F1CEC50F0F00E29
:10C4C0000B010215400802E0000E67D01F0E081590
:10C4D000006EFF0E0915016E0050011002E0000E03
:10C4E0005CD00F0E0215040DF3CF00F404010051CF
:10C4F0000001786F796B0001766B776B73EC4EF00F
:10C50000F3CF00FBF4CF01FB040100510001706F79
:10C51000716B2EEC4EF00B010051011102E0000E88
:10C520003CD00401020E106F0B0E116FB7D804013E
:10C53000015102110CE001C4E9FF02C4EAFF12CB71
:10C54000EEFF13CBEEFF14CBEEFF15CBEEFF03C4D3
:10C55000E9FF04C4EAFF0ECBEEFF0FCBEEFF10CBDA
:10C56000EEFF11CBEEFF05C4E9FF06C4EAFF0BCBDB
:10C57000EFFF0051026E036A0B010250045D006E72
:10C5800003500559016E07C4E9FF08C4EAFF00C063
:10C59000EEFF01C0EDFF010E00D012000401140EE9
:10C5A000006F0B01450E756F766B140E04010C25A0
:10C5B0000B01776F000E04010D210B01786F040150
:10C5C000652B000E662365C479FB66C47AFB0B01FC
:10C5D0007B6B7C6B640E7D6F0BC47EFB7F6B806B13
:10C5E000C8C081FBC9C082FBCAC083FBCBC084FB2F
:10C5F00009C4E9FF0AC4EAFFEECF85FBEECF86FB54
:10C60000EECF87FBEFCF88FB0401750E106F0B0E8A
:10C61000116F44D8140E0E015E6F5F6B0E01750E24
:10C620005C6F0B0E5D6F35EC4BF0F3CF7FFBF4CFFF
:10C6300080FB140E04010C2500016E6F000E040136
:10C640000D2100016F6F00016D6B09C4E9FF0AC481
:10C65000EAFF040EE926000EEA22E9CF6BF0EACFEA
:10C660006CF0ECEC4DF0140E0001896F8A6B000148
:10C67000750E876F0B0E886F54EC50F0F36AF46AF6
:10C6800000D01200040100510E250001706F000E51
:10C6900004010F210001716F2EEF4EF010C4E9FF6D
:10C6A00011C4EAFF020EE926000EEA22EECF56FE82
:10C6B000EDCF57FE0EEC4BF0F3CF00F0F4CF01F0CE
:10C6C00010C4E9FF11C4EAFF020E00C0EBFF030E25
:10C6D00001C0EBFF10C4E9FF11C4EAFF040EE92614
:10C6E000000EEA22EECF56FEEDCF57FE0EEC4BF0D9
:10C6F000F3CF00F0F4CF01F010C4E9FF11C4EAFF5A
:10C70000040E00C0EBFF050E01C0EBFF10C4E9FFF3
:10C7100011C4EAFF0A0EE926000EEA22EECF56FE09
:10C72000EDCF57FE0EEC4BF0F3CF00F0F4CF01F05D
:10C7300010C4E9FF11C4EAFF0A0E00C0EBFF0B0EA4
:06C7400001C0EBFF120036
:0AC746008D88969894969488949A32
:10C75000C6CF02FBC650200B01E0010E0B01016F9A
:10C76000C69A200EC66EC68A9E96C78CC79E8D98A6
:10C77000010EC96E9EA6FED79E96C9CF00FB400E45
:10C78000C96E9EA6FED79E96C9CF00FB8D88C69A1D
:10C7900002CBC6FF0B010151E8B0C68AE8A0C69AD9
:10C7A00012000301ED51EE1101E14BD0EF51F011F8
:10C7B00001E147D0C6CF89FBC650200B01E0010E36
:10C7C0000B01886FC69A200EC66EC68A8D989E96FB
:10C7D000030EC96E9EA6FED79E96C9CF87FBECC3FB
:10C7E000C9FF9EA6FED79E96C9CF87FBEBC3C9FFA4
:10C7F0009EA6FED79E96C9CF87FB0301EFC300F02C
:10C80000F0C301F0EF07000EF05B005001100FE0E5
:10C81000C96A9EA6FED79E960301EDC3E9FFEEC34B
:10C82000EAFFED2B000EEE23C9CFEFFFE6D78D8890
:10C83000C69A89CBC6FF0B018851E8B0C68AE8A02A
:10C84000C69A12000301F351F41101E14BD0F551E6
:10C85000F61101E147D0C6CF89FBC650200B01E09D
:10C86000010E0B01886FC69A200EC66EC68A8D987F
:10C870009E96020EC96E9EA6FED79E96C9CF87FBD6
:10C88000F2C3C9FF9EA6FED79E96C9CF87FBF1C310
:10C89000C9FF9EA6FED79E96C9CF87FB0301F5C3AD
:10C8A00000F0F6C301F0F507000EF65B0050011032
:10C8B0000FE0F3C3E9FFF4C3EAFFF32B000EF42308
:10C8C000EF50C96E9EA6FED79E96C9CF87FBE6D7CE
:10C8D0008D88C69A89CBC6FF0B018851E8B0C68AFD
:10C8E000E8A0C69A12000301F951FA11FB1101E107
:10C8F0004FD0FC51FD1101E14BD0C6CF02FBC65019
:10C90000200B01E0010E0B01016FC69A200EC66ECE
:10C91000C68A8D989E96020EC96E9EA6FED79E96DA
:10C92000C9CF00FBF8C3C9FF9EA6FED79E96C9CF0C
:10C9300000FBF7C3C9FF9EA6FED79E96C9CF00FB9A
:10C940000301FCC300F0FDC301F0FC07000EFD5B1A
:10C950000050011013E0F9C3F6FFF92BFAC3F7FFFB
:10C96000000EFA23FBC3F8FFFB230800F550C96E45
:10C970009EA6FED79E96C9CF00FBE2D78D88C69AA9
:10C9800002CBC6FF0B010151E8B0C68AE8A0C69AE7
:02C99000120093
:0EC9920004011D6B0001F48FC4EC47F026C0B9
:10C9A0003CFE27C03DFE28C03EFE29C03FFE53ECA2
:10C9B00047F035EC4CF095EC5BF0CAEC2EF000EC57
:10C9C00001F00201F36B78EC3CF00001F4BD04D0FF
:10C9D0000201F46B97EC3CF012000001F4AD2DD095
:10C9E000ADEC4CF00B019B6F040169510B019B5D99
:10C9F0001AE09BCB69F49B5116E1DCC0C8F0DDC0A6
:10CA0000C9F0DEC0CAF0DFC0CBF0E0C0CCF0E1C0BE
:10CA1000CDF0E2C0CEF0E3C0CFF00001F48F020110
:10CA2000F36B78EC3CF0C7EC3CF00201F76BB2EC36
:10CA30003CF0000902E00001F49FBEEC0CF0EBECCE
:10CA40002FF0F1EC34F00001990E696F0B0E6A6F54
:10CA50000001220E676F040E686F5FEC4DF0000955
:10CA600001E1AFD00B01995106E0060A01E0A8D020
:10CA7000A1EC5BF0A5D00401930E076F0B0E086FBD
:10CA800004019A0E056F0B0E066F04011E0E036F54
:10CA9000040E046F0401950E016F0B0E026F54EC2F
:10CAA00062F0000901E18CD00B019A055EE1950E60
:10CAB000E96E0B0EEA6EEE500001C81909E1EE5066
:10CAC000C91906E1EE50CA1903E1EE50CB1900E195
:10CAD00040E0E8680B01951908E1E868961905E15E
:10CAE000E868971902E1E868981933E0CC0EE96E1E
:10CAF000000EEA6E0001C851EE14006EC951EE142A
:10CB0000016ECA51EE14026ECB51EE14036ECCC00E
:10CB100004F0CDC005F0CEC006F0CFC007F0041E73
:10CB2000051E061E071E0450001205500112065075
:10CB30000212075003120B019551001809E196519A
:10CB4000011806E19751021803E19851031800E11A
:10CB50000BE193CBFEF294CBFFF202011E0EFC6FB1
:10CB6000040EFD6FA7EC6CF02BD0060E9A5D11E160
:10CB700093CBABF294CBACF20201950EA96F0B0EE6
:10CB8000AA6F02011E0EA76F040EA86FD7EC10F05B
:10CB900017D0110E9A5D13E193CBEEF194CBEFF128
:10CBA0000101950EEC6F0B0EED6F01011E0EEA6F89
:10CBB000040EEB6FFEEC34F0000901E002D000D06F
:06CBC00040D71200120034
:0ACBC6008A828A848C9095909380F7
:10CBD000939293949488949A9496C7500B01026F01
:10CBE000036BC6500B01006F016BC79EC78C220EF2
:10CBF000C66E9E96010E0B01046F056B0B0104CBF4
:10CC000000F005CB01F00407000E055B0050011099
:10CC100006E00B0EE66E60EC6FF0E552EFD78C800D
:10CC20000401200E1A6F080E1B6F0401196BB5D892
:10CC30000401186B97D8F3CF00F0F4CF01F0200E69
:10CC4000001802E1080E0118EBE10401030E186F51
:10CC500089D8F3CF12F4F4CF13F40401010E186F46
:10CC600081D8F3CF00F0F4CF01F0F00E0016000EE3
:10CC70000116400E001801E1015009E104011A6B90
:10CC8000F80E1B6F0401030E196F87D814D004012E
:10CC9000010E186F67D8F3CF00F0F4CF01F0F00E5B
:10CCA0000016000E0116200E001801E1015002E1ED
:10CCB000000001D0FFD700CBC6FF02CBC7FF200E7C
:10CCC000C66E1200040114510F0802E20F0E146F19
:10CCD00015510F0802E20F0E156F15C400FB143931
:10CCE000F00B0B010013005104011A6F1B6B1A515A
:10CCF000FF0E1B130401020E196FCDEF66F017C46F
:10CD000000F000C001F0006A040116510401001097
:10CD10001A6F01C01BF404010B0E196FCDEF66F002
:10CD200081A0FED78A920401530E1C6F48D80401DB
:10CD3000EF0E1C6F44D804016E0E1C6F40D8040126
:10CD40007D0E1C6F3CD804011C6B39D804011C6B90
:10CD500036D804011C6B33D804011C6B30D88A828E
:10CD6000DFD7120081A0FED78A940401030E1C6F46
:10CD700026D818C41CF423D804011C6920D80B0140
:10CD8000076F04011C691BD80B01066F8A8406CB50
:10CD9000F3FF07CBF4FF00D0120081A0FED78A94E6
:10CDA0000401020E1C6F0BD819C41CF408D81BC454
:10CDB0001CF405D81AC41CF402D88A8412009E966A
:0ECDC0001CC4C9FF9EA6FED7C95000D01200A9
:02CDCE008D8A4C
:10CDD000969A94969488949AC6CF01FB200EC66EBC
:10CDE0009E96C78CC79E8D9A9E96010EC96E9EA672
:10CDF000FED7C9CF00FB9E96400EC96E9EA6FED7F9
:10CE0000C9CF00FB9E968D8A01CBC6FF120003019D
:10CE1000DA51DB1101E13CD0DC51DD1101E138D008
:10CE2000C6CFA8FB200EC66E8D9A9E96030EC96EC5
:10CE30009EA6FED7C9CFA7FB9E96D9C3C9FF9EA6C3
:10CE4000FED7C9CFA7FB9E96D8C3C9FF9EA6FED723
:10CE5000C9CFA7FB9E960301DCC340F0DDC341F0C0
:10CE6000DC07000EDD5B405041100FE0C96A9EA652
:10CE7000FED70301DAC3E9FFDBC3EAFFDA2B000EBA
:10CE8000DB23C9CFEFFF9E96E6D78D8AA8CBC6FFDE
:10CE900012000301E051E11101E13CD0E251E31144
:10CEA00001E138D0C6CF07FB200EC66E8D9A9E9644
:10CEB000020EC96E9EA6FED7C9CF06FB9E96DFC3A3
:10CEC000C9FF9EA6FED7C9CF06FB9E96DEC3C9FF4B
:10CED0009EA6FED7C9CF06FB9E960301E2C342F091
:10CEE000E3C343F0E207000EE35B425043100FE060
:10CEF000E0C3E9FFE1C3EAFFE02B000EE123EF50BE
:10CF0000C96E9EA6FED7C9CF06FB9E96E6D78D8A30
:10CF100007CBC6FF12000301E651E711E81101E15A
:10CF200040D0E951EA1101E13CD0C6CF01FB200E0F
:10CF3000C66E8D9A9E96020EC96E9EA6FED7C9CF6A
:10CF400000FB9E96E5C3C9FF9EA6FED7C9CF00FB96
:10CF50009E96E4C3C9FF9EA6FED7C9CF00FB9E964E
:10CF60000301E9C344F0EAC345F0E907000EEA5BB8
:10CF70004450451013E0E6C3F6FFE62BE7C3F7FF86
:10CF8000000EE723E8C3F8FFE8230800F550C96E58
:10CF90009EA6FED7C9CF00FB9E96E2D78D8A01CB15
:04CFA000C6FF1200B6
:0CCFA400D9CFE6FFDACFE6FFFA0EE3CFAC
:10CFB000D9FFFB0EE3CFDAFFFC0EE3CFE9FFFD0E56
:10CFC000E3CFEAFFE9CFF3FFEACFF4FFF80EE35037
:10CFD00003E1F90EE35008E0F80EE30602E2F90E71
:10CFE000E306DECFEEFFF2D7FF0EE3CFDAFFE55226
:10CFF000FF0EE3CFD9FFE5521200FB0EE3CFF6FFA1
:10D00000FC0EE3CFF7FFFD0EE3CFF8FFFE0EE3CFFC
:10D01000E9FFFF0EE3CFEAFFE9CFF3FFEACFF4FF2A
:10D02000F90EE35003E1FA0EE35009E0F90EE306CE
:10D0300002E2FA0EE3060900F5CFEEFFF1D7120087
:10D04000FE0EE3CFE9FFFF0EE3CFEAFFE9CFF3FFE8
:10D05000EACFF4FFFB0EE35003E1FC0EE35009E0DE
:10D06000FB0EE30602E2FC0EE306FD0EE350EE6E5D
:10D07000F1D71200FE0EE3CFE9FFFF0EE3CFEAFF88
:10D08000F36AF46AEE5203E0F34AF42AFBD7120083
:10D09000FF0EE3CFF8FFE552FF0EE3CFF7FFE552B7
:10D0A000FF0EE3CFF6FFE552E66AE66AE66A09009C
:10D0B000F55209E0FD0EE32A05E1FE0EE32A02E146
:10D0C000FF0EE32AF4D7FD0EE3CF27F0FE0EE3CFE9
:10D0D00028F0FF0EE3CF29F01200D9CFE6FFDACF18
:10D0E000E6FFFC0EE3CFE9FFFD0EE3CFEAFFEF50D2
:10D0F00016E0FA0EE3CFD9FFFB0EE3CFDAFFE9CF5C
:10D10000F3FFEACFF4FFDE500CE0EF5C02E1EE50FB
:10D11000FAD7F3CFE9FFF4CFEAFFEE50E8D7F36A8E
:10D12000F46AFF0EE3CFDAFFE552FF0EE3CFD9FF3B
:10D13000E5521200FE0EE3CFE9FFFF0EE3CFEAFF58
:10D14000E9CFF3FFEACFF4FF610EEF5C05E67B0E5B
:0ED15000EF5C02E7DF0EEF16EE52F6E1120082
:02D15E009892A5
:10D160008F829A969A94939A9398090E0001FB19CC
:10D1700001E1FC515EE0080EFB1901E1FC5154E0B5
:10D18000070EFB1901E1FC514AE0060EFB1901E113
:10D19000FC5140E0050EFB1901E1FC5136E0040EA4
:10D1A000FB1901E1FC512CE0030EFB1901E1FC51DC
:10D1B00022E0020EFB1901E1FC5118E0010EFB19FF
:10D1C00001E1FC510EE0FB5101E1FC5105E08A98C0
:10D1D0008A9A9194919632D08A988A9A919491964B
:10D1E0002DD08A988A9A9194918628D08A988A9A82
:10D1F0009184919623D08A988A9A918491861ED0A0
:10D200008A988A8A9194919619D08A988A8A919458
:10D21000918614D08A988A8A918491960FD08A98A0
:10D220008A8A918491860AD08A888A9A9194919662
:10D2300005D08A888A9A9194918600D0120098929B
:10D240008F92090E0001FD1901E1FE515EE0080E0A
:10D25000FD1901E1FE5154E0070EFD1901E1FE51F7
:10D260004AE0060EFD1901E1FE5140E0050EFD19F0
:10D2700001E1FE5136E0040EFD1901E1FE512CE002
:10D28000030EFD1901E1FE5122E0020EFD1901E13C
:10D29000FE5118E0010EFD1901E1FE510EE0FD51B5
:10D2A00001E1FE5105E08A988A9A9194919632D0D4
:10D2B0008A988A9A919491962DD08A988A9A919474
:10D2C000918628D08A988A9A9184919623D08A98B8
:10D2D0008A9A918491861ED08A988A8A919491968E
:10D2E00019D08A988A8A9194918614D08A988A8AC9
:10D2F000918491960FD08A988A8A918491860AD0D7
:10D300008A888A9A9194919605D08A888A9A91946B
:06D31000918600D012001E
:0AD316000B012C6B0B012D6B32C4D0
:10D320002EFB33C42FFB34C430FB35C431FB060E57
:10D330000401D8903533343333333233E806F9E11E
:10D34000060E0401D8903237333734373537E806C4
:10D35000F9E1400E04013227000E04013323000ED0
:10D3600004013423000E040135232E0EE96E0B0E4A
:10D37000EA6EEE500401325D006EEE500401335946
:10D38000016EEE5004013459026EEE50040135591D
:10D39000036E00C02CFB04013651371151E030CB35
:10D3A000F8FF2FCBF7FF2ECBF6FF0B012C512C07EC
:10D3B000000915E0040138C4E9FF39C4EAFF382B3D
:10D3C000000E3923EF50F56E0D0004013607000EF4
:10D3D000375B04013651371101E101D0E6D730CB7C
:10D3E000F8FF2FCBF7FF2ECBF6FFA684F2AE04D0CA
:10D3F000F29E0B01010E2D6F550EA76EAA0EA76EA1
:10D40000A682A6940B012D5103E0F28E0B012D6B29
:10D410000B01400E2C6F2ECB2EFB2FCB2FFB30CBD6
:10D4200030FB31CB31FB400E0B012E27000E0B01E0
:10D430002F23000E0B013023000E0B013123ABD73D
:02D440001200D8
:0ED44200D9CFE6FFDACFE6FFE1CFD9FFE2CF88
:10D45000DAFF0C0EE12402E3E168E652E16ED950F6
:10D46000FA0FE96EFF0EDA20EA6E010EEECFDBFF57
:10D47000020EEECFDBFF030EEECFDBFF040EEECF8E
:10D48000DBFF63D8D950010FE96E000EDA20EA6E97
:10D49000EECFE6FFEECFE6FFEECFE6FFEFCFE6FF03
:10D4A000B3EC6AF0006E060EE15C02E2E16AE5525E
:10D4B000E16E0050DF6E850EDF1404E04DD8EE6A99
:10D4C000ED6A23D0090EDBCF00F00A0EDBCF01F0AE
:10D4D000820E0026FF0E01223FD800C0EEFF01C0E1
:10D4E000EDFF7E0EF36E090EF3CFDBFF0A0EDB6A53
:10D4F000D950010FE66E000EDA20E66E26D841EC18
:10D500006BF0E552E552E552E552010EDBCF00F03B
:10D51000020EDBCF01F0030EDBCF02F0040EDBCFF7
:10D5200003F000C026F001C027F002C028F003C0BD
:10D5300029F00C0EE15C02E2E16AE552E16EE5528F
:10D54000E5CFDAFFE7CFD9FF1200D950050FE66E1D
:10D55000000EDA20E66E1200F80EDBCFE9FFF90EBE
:06D56000DBCFEAFF120020
:0AD56600D9CFE6FFDACFE6FFE1CFF0
:10D57000D9FFE2CFDAFFE652006801687F0E026E43
:10D58000036AD950FA0FE96EFF0EDA20EA6EEE5008
:10D590000016EE500116EE500216EE5003166AD831
:10D5A00000C0EEFF01C0EEFF02C0EEFF03C0EEFFC1
:10D5B000FD0EDB50800B02E0010E01D0000EE66E86
:10D5C00059D8060EE926000EEA22E552E750EF6E22
:10D5D000FC0EDBCF00F0FD0EDBCF01F0D890003663
:10D5E0000136FC0E00C0DBFFFD0E01C0DBFFDB508F
:10D5F000E66E40D8040EE926000EEA22E552E75016
:10D60000EE6EED6AFD0EDB50006E016AFF0E001833
:10D6100018E1015016E12ED8EECF00F0EECF01F068
:10D62000EECF02F0EFCF03F0005001100210031014
:10D6300006E0210E0301FE6FFF6B800E0BD0040E7F
:10D6400009D0FD0EDB5008E115D8EE6AEE6AEE6AED
:10D65000EE6A010EDF6E06D0020EDF6E0BD8EE52C0
:10D66000EE52EE8EDF50E552E552E5CFDAFFE7CF1E
:10D67000D9FF1200F80EDBCFE9FFF90EDBCFEAFF8E
:02D68000120096
:0ED68200D9CFE6FFDACFE6FFE1CFD9FFE2CF46
:10D69000DAFF5BD8013411E20050FE08000E01549D
:10D6A0000CE276D805E06CD8800EEE6EEE6847D0BE
:10D6B00067D8800EEE6E7F0E0ED047D8D8900150FE
:10D6C00004E6010E005C000E01580BE261D805E093
:10D6D00057D8EE6A800EEE6E32D052D8EE6AEE6AFD
:10D6E0002ED047D8EECF00F0EECF01F0EECF02F013
:10D6F000EFCF03F032D800C0EEFF01C0EEFF02C052
:10D70000EEFF03C0EEFF21D80050010B05E025D845
:10D71000020E3AD8EF8E04D020D8020E35D8EF9EF4
:10D7200014D8D8900132003218D8030E2DD800C07A
:10D73000EFFF1AD804E011D8030E26D8EF8EE55279
:10D74000E5CFDAFFE7CFD9FF120013D8040E1CD8BB
:10D75000EECF00F0EFCF01F01200FA0EDBCFE9FFC1
:10D76000FB0EDBCFEAFF120004D8060E0DD8EF50F7
:10D770001200FC0EDBCFE9FFFD0EDBCFEAFF12004B
:10D78000ECDFEE6AEE6A1200E926000EEA221200D1
:0CD79000220E0301FE6FFF6BB4EF6BF084
:04D79C00D76AD66A08
:10D7A000F194F294F28A870ED56E1200F28A00008C
:10D7B000F29AD6CF28F4D7CF29F459C42AF45AC400
:10D7C0002BF45BC42CF45CC42DF4F2B4EFD7F28AD2
:10D7D0001200ECDF28C426F029C427F02AC428F060
:10D7E0002BC429F000D01200E1DF29C42CFB2AC48D
:10D7F0002DFB2BC42EFB2CC42FFB2CCB26F02DCBCA
:10D8000027F02ECB28F02FCB29F000D01200CEDF4E
:10D810002AC400FB2BC401FB2CC402FB2DC403FB58
:10D8200000CB26F001CB27F002CB28F003CB29F068
:10D8300000D012002EC426F02FC427F030C428F0E8
:10D8400031C429F0140E2626000E27222822292270
:10D85000280E2B6E2C6A2D6A2E6AFEEC6EF000D01C
:10D860001200F2A407D00401592B000E5A235B23A7
:06D870005C23F29412009B
:0AD876000B01006B0B01016B060EA5
:10D880000401D8905533543353335233E806F9E149
:10D89000060E0401D8905237533754375537E806EF
:10D8A000F9E152C402FB53C403FB54C404FB55C446
:10D8B00005FB040156515607000948E004CBF8FF68
:10D8C00003CBF7FF02CBF6FF0B01400E006F0B01FD
:10D8D0000051000700090CE0040157C4E9FF58C4D7
:10D8E000EAFF572B000E5823EF50F56E0D00EFD7CF
:10D8F00004CBF8FF03CBF7FF02CBF6FFA684F2AE12
:10D9000004D0F29E0B01010E016F550EA76EAA0EF8
:10D91000A76EA682A6940B01015103E0F28E0B01C3
:10D92000016B02CB02FB03CB03FB04CB04FB05CB57
:10D9300005FB400E0B010227000E0B010323000E16
:0ED940000B010423000E0B010523B3D71200C8
:02D94E00040EC5
:10D950000001846F856B0001000E826F0B0E836FD8
:10D960001CEC50F00B01080E001901E1015158E1C7
:10D97000FEC278F0FFC279F0140E0001766F776B6B
:10D9800073EC4EF0F3CF00F0F4CF01F00050011033
:10D9900001E046D00B01006B080E0227025D04E295
:10D9A000032B035101E1022BBCEC4CF0000901E117
:10D9B000FBD70001290E726F0F0E736F57EC4EF0FC
:10D9C000FEC20CF4FFC20DF40401010E0B6FFCC289
:10D9D00009F4FDC20AF4CEEC62F0040E0001896F76
:10D9E0008A6B0001000E876F0B0E886F54EC50F0AD
:10D9F000FEC280F0FFC281F00001040E805F000EC5
:10DA0000815B00017E697F6900017C697D693EEC74
:10DA10004FF012EC50F0000901E1FBD71BEC4EF087
:02DA20001200F2
:0EDA2200D9CFE6FFDACFE6FFE1CFD9FFE2CFA2
:10DA3000DAFFE652E652E652E652D950F90F006E8E
:10DA4000FF0EDA20016E020E00C0DBFF030E01C0E4
:10DA5000DBFF020EDBCFE6FF030EDBCFE6FFF90EA6
:10DA6000DBCFE6FFFA0EDBCFE6FFFB0EDBCFE6FFF8
:10DA7000D950FC0FE66EFF0EDA20E66E7DEC36F034
:10DA8000006E070EE15C02E2E16AE552E16E0050D1
:10DA9000F3CFDEFFF4CFDDFFFC0EDBCFE9FFFD0EA1
:10DAA000DBCFEAFFEF6ADECF00F0DDCF01F000C090
:10DAB000F3FF01C0F4FF040EE15C02E2E16AE5520B
:0EDAC000E16EE552E5CFDAFFE7CFD9FF1200A5
:02DACE001E0E2A
:10DAD000F66E000EF76E000EF86E01010900F550AB
:10DAE000FB6F0900F550FC6F03E1FB6701D03DD0EF
:10DAF0000900F550F66F0900F550F76F0900F55071
:10DB0000F86F09000900F550E96E0900F550EA6E5A
:10DB1000090009000900F550F96F0900F550FA6F86
:10DB200009000900F6CFFDF1F7CFFEF1F8CFFFF1C4
:10DB3000F6C1F6FFF7C1F7FFF8C1F8FF0101F9538D
:10DB400002E1FA5307E00900F550EE6EF907F8E23A
:10DB5000FA07F9D7FDC1F6FFFEC1F7FFFFC1F8FFD5
:0CDB60000101FB07000EFC5BBFD71200A8
:04DB6C00D9CFE6FF28
:10DB7000DACFE6FFE1CFD9FFE2CFDAFFE150FA0FCB
:10DB8000E96EFF0EE220EA6EEECFE6FFEECFE6FF93
:10DB9000EECFE6FFEFCFE6FFE7EC53F0E552E552BC
:10DBA000E552E55226C004F027C005F028C006F073
:10DBB00029C007F0D90E2C6E5B0E2D6EDE0E2E6E78
:10DBC0003E0E2F6E26C027F005C028F006C029F0B3
:10DBD00007C02AF02FEC51F027C000F028C001F058
:10DBE00029C002F02AC003F027C026F028C027F081
:10DBF00029C028F02AC029F0E552E5CFDAFFE7CFA7
:04DC0000D9FF120036
:0CDC0400D9CFE6FFDACFE6FFE1CFD9FF71
:10DC1000E2CFDAFFFB0EDBCF00F0FC0EDBCF01F032
:10DC20000001800E01141AE1FB0EDBCFE9FFFC0EB0
:10DC3000DBCFEAFFEECFF3FFEDCFF4FFEE2A000ECD
:10DC4000EF22F3CFE9FFF4CFEAFFFD0EDBCFEFFFCA
:10DC5000EF50016AF36E01C0F4FF10D0FB0EDB50F1
:10DC6000FE0806E1FD0EDBCFE6FF7EEC6FF005D08F
:10DC7000FD0EDBCFE6FF03EC00F0E552E552E5CF09
:08DC8000DAFFE7CFD9FF120023
:08DC880026502B02F3CF22F01D
:10DC9000F4CF23F02C02F3502326000EF420246E40
:10DCA00026502D02F3502426000EF420256E265017
:10DCB0002E02F350252627502B02F3502326F45032
:10DCC0002422000E252227502C02F3502426F45043
:10DCD000252227502D02F350252628502B02F350E1
:10DCE0002426F450252228502C02F35025262950B2
:08DCF0002B02F350252612005F
:08DCF8000B012C6B4AC42DFB4B
:10DD00004BC42EFB4CC42FFB4DC430FB2D0EE96ED3
:10DD10000B0EEA6E04014E51EE5C4F51EE5850511D
:10DD2000EE585151EE581DE22FCBF8FF2ECBF7FFE6
:10DD30002DCBF6FFA684A688F2AE04D0F29E0B018E
:10DD4000010E2C6F550EA76EAA0EA76EA6820B01B0
:10DD50002C5101E0F28E040E2E27000E2F233023CB
:04DD6000D5D7120001
:0CDD64004D434850424F415244003E5392
:10DD70002825303375293C003E4150452D42205323
:10DD80004F434B4554204142494552544F3C003E7D
:10DD90002353454D41464F524F5B562531752E2535
:10DDA00031752E2531755D2D2825303375293C00C0
:10DDB0003AC42CFB3BC42DFB3CC42EFB3DC42FFBC3
:10DDC0002ECBF8FF2DCBF7FF2CCBF6FF04013EC482
:10DDD00000F03FC401F03E07000E3F5B0050011011
:10DDE0000CE00900040140C4E9FF41C4EAFF402BF4
:0CDDF000000E4123F5CFEFFFE9D7120031
:04DDFC00256A246A06
:10DE0000236A226A200EE76ED890263627362836F7
:10DE1000293622362336243625362B50225C2C50C8
:10DE200023582D5024582E50255809E32B50225E9C
:10DE30002C50235A2D50245A2E50255A262AE72E8C
:04DE4000E4D7120011
:0CDE4400256A246A100EE76ED89028367C
:10DE50002936243625362D50245C2E50255805E3CE
:10DE60002D50245E2E50255A282AE72EF0D7120076
:10DE7000800EF36E00EE00F00E0E07D8600EF36E0B
:10DE80000FEE00F00F0E01D81200EA6002D0EE6A29
:0CDE9000FCD7F350E9601200EE6AFCD7EA
:04DE9C00F36AF46AC7
:10DEA000FF0EE124E96EFF0EE220EA6EED6607D078
:10DEB0002F0EEF6404D03A0EEF6001D0F32A120067
:10DEC000FF0EE350466E480E01D04C0EE76EE72E73
:10DED000FED7E76AE72EFED7462EF7D700001200DE
:10DEE0001DEE00F02DEE00F0F86A219C67EC6DF05D
:0CDEF0000AEC00F099EC61F0FBD7120086
:04DEFC00FF0EE350E2
:10DF0000ACBA04D0AF6AAB8EAC8A949CACA2FED7FC
:08DF1000AD6EF36EF46A12001D
:08DF1800FF0EE350E84E120079
:0EDF2000000000D000D000D0E82EFAD712008A
:02DF2E00303190
:0FDF3000323334353637383961626364656600E1
:01DF3F0000E1
:03DF4000000000DE
:02DF4300FEFEE0
:01DF450000DB
:0ADF4600FF000000000000000000D2
:04DF500000000000CD
:0CDF54000000000000000000010000FFC1
:04DF600001000000BC
:02DF64000000BB
:04DF66009E9FFE413B
:06DF6A007365727665721A
:10DF70002E627667632E6F726700482600000000ED
:10DF8000000000000000000000000100010000008F
:10DF90000000000000000000000000000000000081
:10DFA0000000000000000000000000000000000071
:09DFB00000000000000000FE006A
:03DFB900FF00075F
:01DFBC000064
:03DFBD0000000061
:10DFC0000000000000000000000000000000000051
:10DFD00000000028002800280028002800640064B1
:10DFE000006400640064003C003C003C003C003CD9
:01DFF0000030
:02DFF10000002E
:01DFF300002D
:020000040001F9
:01FFF800A068
:01FFFA00C541
:01FFFD00F70C
:00000001FF
